BL51 BANKED LINKER/LOCATER V6.22                                                        10/13/2015  11:38:09  PAGE 1


BL51 BANKED LINKER/LOCATER V6.22, INVOKED BY:
C:\KEIL_C51\C51\BIN\BL51.EXE STARTUP.obj, main.obj, LCD.obj, sys.obj, font.obj, touch.obj, PCF8574T.obj, UART.obj, bmp08
>> 5.obj, MMA7455.obj, enc28j60_test.obj, enc28j60.obj, spi.obj, uip_arch.obj, uip_arp.obj, key.obj, Dot_Matrix.obj, rel
>> ay.obj, DC_motor.obj, step_motor.obj, dht11.obj TO ceshi RAMSIZE (256)


MEMORY MODEL: LARGE WITH FLOATING POINT ARITHMETIC


INPUT MODULES INCLUDED:
  STARTUP.obj (?C_STARTUP)
  main.obj (MAIN)
  LCD.obj (LCD)
  sys.obj (SYS)
  font.obj (FONT)
  touch.obj (TOUCH)
  PCF8574T.obj (PCF8574T)
  UART.obj (UART)
  bmp085.obj (BMP085)
  MMA7455.obj (MMA7455)
  enc28j60_test.obj (ENC28J60_TEST)
  enc28j60.obj (ENC28J60)
  spi.obj (SPI)
  uip_arch.obj (UIP_ARCH)
  uip_arp.obj (UIP_ARP)
  key.obj (KEY)
  Dot_Matrix.obj (DOT_MATRIX)
  relay.obj (RELAY)
  DC_motor.obj (DC_MOTOR)
  step_motor.obj (STEP_MOTOR)
  dht11.obj (DHT11)
  C:\KEIL_C51\C51\LIB\C51FPL.LIB (?C?FPADD)
  C:\KEIL_C51\C51\LIB\C51FPL.LIB (?C?FPMUL)
  C:\KEIL_C51\C51\LIB\C51FPL.LIB (?C?FPDIV)
  C:\KEIL_C51\C51\LIB\C51FPL.LIB (?C?FPCMP)
  C:\KEIL_C51\C51\LIB\C51FPL.LIB (?C?FCAST)
  C:\KEIL_C51\C51\LIB\C51FPL.LIB (?C?CASTF)
  C:\KEIL_C51\C51\LIB\C51FPL.LIB (?C?FPGETOPN)
  C:\KEIL_C51\C51\LIB\C51L.LIB (?C_INIT)
  C:\KEIL_C51\C51\LIB\C51L.LIB (?C?COPY)
  C:\KEIL_C51\C51\LIB\C51L.LIB (?C?CLDPTR)
  C:\KEIL_C51\C51\LIB\C51L.LIB (?C?CLDOPTR)
  C:\KEIL_C51\C51\LIB\C51L.LIB (?C?CSTPTR)
  C:\KEIL_C51\C51\LIB\C51L.LIB (?C?CSTOPTR)
  C:\KEIL_C51\C51\LIB\C51L.LIB (?C?IMUL)
  C:\KEIL_C51\C51\LIB\C51L.LIB (?C?UIDIV)
  C:\KEIL_C51\C51\LIB\C51L.LIB (?C?IILDX)
  C:\KEIL_C51\C51\LIB\C51L.LIB (?C?ILDIX)
  C:\KEIL_C51\C51\LIB\C51L.LIB (?C?ILDPTR)
  C:\KEIL_C51\C51\LIB\C51L.LIB (?C?ILDOPTR)
  C:\KEIL_C51\C51\LIB\C51L.LIB (?C?ISTPTR)
  C:\KEIL_C51\C51\LIB\C51L.LIB (?C?LMUL)
  C:\KEIL_C51\C51\LIB\C51L.LIB (?C?ULDIV)
  C:\KEIL_C51\C51\LIB\C51L.LIB (?C?SLDIV)
  C:\KEIL_C51\C51\LIB\C51L.LIB (?C?LNEG)
  C:\KEIL_C51\C51\LIB\C51L.LIB (?C?ULCMP)
  C:\KEIL_C51\C51\LIB\C51L.LIB (?C?ULSHR)
  C:\KEIL_C51\C51\LIB\C51L.LIB (?C?SLSHR)
BL51 BANKED LINKER/LOCATER V6.22                                                      10/13/2015  11:38:09  PAGE 2


  C:\KEIL_C51\C51\LIB\C51L.LIB (?C?LSHL)
  C:\KEIL_C51\C51\LIB\C51L.LIB (?C?LSTXDATA)
  C:\KEIL_C51\C51\LIB\C51L.LIB (?C?LSTKXDATA)
  C:\KEIL_C51\C51\LIB\C51L.LIB (?C?OFFXADD)
  C:\KEIL_C51\C51\LIB\C51L.LIB (STRSTR)
  C:\KEIL_C51\C51\LIB\C51L.LIB (?C?MEMSET)


LINK MAP OF MODULE:  ceshi (?C_STARTUP)


            TYPE    BASE      LENGTH    RELOCATION   SEGMENT NAME
            -----------------------------------------------------

            * * * * * * *   D A T A   M E M O R Y   * * * * * * *
            REG     0000H     0008H     ABSOLUTE     "REG BANK 0"
            REG     0008H     0008H     ABSOLUTE     "REG BANK 1"
            IDATA   0010H     0004H     UNIT         ?ID?ENC28J60_TEST?ENC28J60_TEST
            IDATA   0014H     0003H     UNIT         ?ID?ENC28J60
            IDATA   0017H     0002H     UNIT         ?ID?_DELAY_MS?ENC28J60
            IDATA   0019H     0002H     UNIT         ?ID?READBYTE?SPI
            IDATA   001BH     0001H     UNIT         ?ID?_WRITEBYTE?SPI
                    001CH     0004H                  *** GAP ***
            BIT     0020H.0   0000H.2   UNIT         ?BI?UART
                    0020H.2   0000H.6                *** GAP ***
            IDATA   0021H     0023H     UNIT         _IDATA_GROUP_
            IDATA   0044H     0001H     UNIT         ?STACK

            * * * * * * *  X D A T A   M E M O R Y  * * * * * * *
            XDATA   0000H     01D1H     UNIT         ?XD?DOT_MATRIX
            XDATA   01D1H     0066H     UNIT         ?XD?UIP_ARP
            XDATA   0237H     0050H     UNIT         _XDATA_GROUP_
            XDATA   0287H     0041H     UNIT         ?XD?UART
            XDATA   02C8H     003DH     UNIT         ?XD?TOUCH_ADJUST?TOUCH
            XDATA   0305H     0028H     UNIT         ?XD?BMP085
            XDATA   032DH     0024H     UNIT         ?XD?_ADS_READ_XY?TOUCH
            XDATA   0351H     001FH     UNIT         ?XD?KEY
            XDATA   0370H     0016H     UNIT         ?XD?LCD
            XDATA   0386H     0010H     UNIT         ?XD?TOUCH
            XDATA   0396H     000EH     UNIT         ?XD?_READ_ADS2?TOUCH
            XDATA   03A4H     000EH     UNIT         ?XD?MMA7455
            XDATA   03B2H     000DH     UNIT         ?XD?_ENC28J60PACKETRECEIVE?ENC28J60
            XDATA   03BFH     000AH     UNIT         ?XD?_SHOWHANZI?LCD
            XDATA   03C9H     0009H     UNIT         ?XD?_UIP_ARP_UPDATE?UIP_ARP
            XDATA   03D2H     0008H     UNIT         ?XD?_READ_ADS?TOUCH
            XDATA   03DAH     0008H     UNIT         ?XD?STEP_MOTOR
            XDATA   03E2H     0007H     UNIT         ?XD?_UIP_CHKSUM?UIP_ARCH
            XDATA   03E9H     0005H     UNIT         ?XD?READ_TP_ONCE?TOUCH
            XDATA   03EEH     0005H     UNIT         ?XD?_WRITENBYTE?PCF8574T
            XDATA   03F3H     0005H     UNIT         ?XD?_READNBYTE?PCF8574T
            XDATA   03F8H     0005H     UNIT         ?XD?_ENC28J60READBUFFER?ENC28J60
            XDATA   03FDH     0005H     UNIT         ?XD?_ENC28J60WRITEBUFFER?ENC28J60
            XDATA   0402H     0005H     UNIT         ?XD?_ENC28J60PACKETSEND?ENC28J60
            XDATA   0407H     0005H     UNIT         ?XD?DOT_MATRIX_TEST?DOT_MATRIX
            XDATA   040CH     0004H     UNIT         ?XD?_DROW_TOUCH_POINT?TOUCH
            XDATA   0410H     0004H     UNIT         ?XD?POINT?TOUCH
            XDATA   0414H     0004H     UNIT         ?XD?UIP_TCPCHKSUM?UIP_ARCH
BL51 BANKED LINKER/LOCATER V6.22                                                      10/13/2015  11:38:09  PAGE 3


            XDATA   0418H     0003H     UNIT         ?XD?_ENC28J60READOP?ENC28J60
            XDATA   041BH     0003H     UNIT         ?XD?_ENC28J60WRITEOP?ENC28J60
            XDATA   041EH     0003H     UNIT         ?XD?UIP_ARP_OUT?UIP_ARP
            XDATA   0421H     0002H     UNIT         ?XD?_ENC28J60WRITE?ENC28J60
            XDATA   0423H     0002H     UNIT         ?XD?_ENC28J60_READ_PHYREG?ENC28J60
            XDATA   0425H     0002H     UNIT         ?XD?_ENC28J60PHYWRITE?ENC28J60
            XDATA   0427H     0002H     UNIT         ?XD?_UIP_ADD32?UIP_ARCH
            XDATA   0429H     0001H     UNIT         ?XD?CONVERT_POS?TOUCH
            XDATA   042AH     0001H     UNIT         ?XD?_ENC28J60SETBANK?ENC28J60
            XDATA   042BH     0001H     UNIT         ?XD?_ENC28J60READ?ENC28J60
            XDATA   042CH     0001H     UNIT         ?XD?_ABCD_PORT?DOT_MATRIX

            * * * * * * *   C O D E   M E M O R Y   * * * * * * *
            CODE    0000H     0003H     ABSOLUTE     
            CODE    0003H     001DH     UNIT         ?PR?_ENC28J60WRITE?ENC28J60
            CODE    0020H     0003H     UNIT         ?PR?RFID_TEST?UART
            CODE    0023H     0003H     ABSOLUTE     
            CODE    0026H     001BH     UNIT         ?PR?I2C_READABYTE?PCF8574T
            CODE    0041H     0002H     UNIT         ?CO?LCD
            CODE    0043H     0003H     ABSOLUTE     
            CODE    0046H     0CA1H     UNIT         ?PR?TOUCH_ADJUST?TOUCH
            CODE    0CE7H     0846H     UNIT         ?C?LIB_CODE
            CODE    152DH     06F0H     UNIT         ?CO?FONT
            CODE    1C1DH     04D0H     UNIT         ?PR?MAIN?MAIN
            CODE    20EDH     0464H     UNIT         ?PR?BMP085CONVERT?BMP085
            CODE    2551H     02A3H     UNIT         ?C_INITSEG
            CODE    27F4H     0200H     UNIT         ?PR?UIP_ARP_OUT?UIP_ARP
            CODE    29F4H     01F7H     UNIT         ?PR?_DRAW_CIRCLE?LCD
            CODE    2BEBH     01ECH     UNIT         ?CO?MAIN
            CODE    2DD7H     01EBH     UNIT         ?PR?_LCD_DRAWLINE?LCD
            CODE    2FC2H     01EAH     UNIT         ?PR?_BMP085_CONVERSION?BMP085
            CODE    31ACH     01CBH     UNIT         ?PR?KEY_TEST?KEY
            CODE    3377H     01BAH     UNIT         ?PR?_UIP_ARP_UPDATE?UIP_ARP
            CODE    3531H     01B1H     UNIT         ?PR?LCD_INIT?LCD
            CODE    36E2H     01AEH     UNIT         ?PR?DOT_MATRIX_TEST?DOT_MATRIX
            CODE    3890H     019EH     UNIT         ?PR?_LCD_SHOWCHAR?LCD
            CODE    3A2EH     019BH     UNIT         ?PR?MMA7455_SENDXYZ?MMA7455
            CODE    3BC9H     0187H     UNIT         ?PR?UIP_TCPCHKSUM?UIP_ARCH
            CODE    3D50H     0157H     UNIT         ?PR?_ADS_READ_XY?TOUCH
            CODE    3EA7H     014BH     UNIT         ?PR?_ENC28J60PACKETRECEIVE?ENC28J60
            CODE    3FF2H     0149H     UNIT         ?PR?UIP_ARP_ARPIN?UIP_ARP
            CODE    413BH     0131H     UNIT         ?PR?_READ_ADS2?TOUCH
            CODE    426CH     0103H     UNIT         ?PR?CONVERT_POS?TOUCH
            CODE    436FH     00FBH     UNIT         ?PR?SEND_COM?UART
            CODE    446AH     00F4H     UNIT         ?PR?ENC28J60_TEST?ENC28J60_TEST
            CODE    455EH     00E8H     UNIT         ?PR?_DROW_TOUCH_POINT?TOUCH
            CODE    4646H     00E1H     UNIT         ?PR?_LCD_SHOWNUM?LCD
            CODE    4727H     00DBH     UNIT         ?PR?_UIP_CHKSUM?UIP_ARCH
            CODE    4802H     00D9H     UNIT         ?PR?POINT?TOUCH
            CODE    48DBH     00D7H     UNIT         ?PR?INITBMP085?BMP085
            CODE    49B2H     00D1H     UNIT         ?PR?ENC28J60_INIT?ENC28J60
            CODE    4A83H     00CFH     UNIT         ?PR?_SHOWHANZI?LCD
            CODE    4B52H     00BFH     UNIT         ?PR?_STRSTR?STRSTR
            CODE    4C11H     00AAH     UNIT         ?PR?_LCD_DRAWRECTANGLE?LCD
            CODE    4CBBH     009FH     UNIT         ?PR?_ENC28J60PACKETSEND?ENC28J60
            CODE    4D5AH     009CH     UNIT         ?PR?DATA_DIPLAY?BMP085
            CODE    4DF6H     0096H     UNIT         ?PR?_ABCD_PORT?DOT_MATRIX
BL51 BANKED LINKER/LOCATER V6.22                                                      10/13/2015  11:38:09  PAGE 4


            CODE    4E8CH     008CH     UNIT         ?C_C51STARTUP
            CODE    4F18H     0086H     UNIT         ?PR?_LCD_FILL?LCD
            CODE    4F9EH     0082H     UNIT         ?PR?_LCD_SHOW2NUM?LCD
            CODE    5020H     007EH     UNIT         ?PR?_UIP_ADD32?UIP_ARCH
            CODE    509EH     007BH     UNIT         ?PR?READ_TP_ONCE?TOUCH
            CODE    5119H     007AH     UNIT         ?PR?UIP_ARP_IPIN?UIP_ARP
            CODE    5193H     006DH     UNIT         ?CO?BMP085
            CODE    5200H     006BH     UNIT         ?CO?TOUCH
            CODE    526BH     0063H     UNIT         ?PR?_READ_ADS?TOUCH
            CODE    52CEH     005EH     UNIT         ?PR?UIP_ARP_TIMER?UIP_ARP
            CODE    532CH     005DH     UNIT         ?CO?KEY
            CODE    5389H     005CH     UNIT         ?PR?_LCD_CLEAR?LCD
            CODE    53E5H     005CH     UNIT         ?PR?MMA7455_SELF_TEST?MMA7455
            CODE    5441H     005BH     UNIT         ?PR?_LCD_SHOWSTRING?LCD
            CODE    549CH     0053H     UNIT         ?PR?UART1_ISR?UART
            CODE    54EFH     0052H     UNIT         ?PR?_LCD_DRAWPOINT?LCD
            CODE    5541H     004FH     UNIT         ?PR?_INIT_UART1?UART
            CODE    5590H     004EH     UNIT         ?PR?_DUJIN_PORT?STEP_MOTOR
            CODE    55DEH     004CH     UNIT         ?PR?_LCD_DRAWPOINT_BIG?LCD
            CODE    562AH     004CH     UNIT         ?PR?_ENC28J60READOP?ENC28J60
            CODE    5676H     004BH     UNIT         ?PR?_ENC28J60READBUFFER?ENC28J60
            CODE    56C1H     004AH     UNIT         ?PR?UART2?UART
            CODE    570BH     004AH     UNIT         ?PR?_ENC28J60WRITEBUFFER?ENC28J60
            CODE    5755H     0049H     UNIT         ?PR?_MYPOW?LCD
            CODE    579EH     0046H     UNIT         ?PR?STEP_MOTOR_TEST?STEP_MOTOR
            CODE    57E4H     0044H     UNIT         ?C?LDIV
            CODE    5828H     0043H     UNIT         ?PR?_READNBYTE?PCF8574T
            CODE    586BH     0043H     UNIT         ?PR?_ENC28J60_READ_PHYREG?ENC28J60
            CODE    58AEH     0041H     UNIT         ?PR?_MULTIPLE_READ?BMP085
            CODE    58EFH     003BH     UNIT         ?PR?_SINGLE_READI2C?MMA7455
            CODE    592AH     003AH     UNIT         ?PR?_ADDRESS_SET?LCD
            CODE    5964H     0038H     UNIT         ?PR?RELAY_TEST?RELAY
            CODE    599CH     0037H     UNIT         ?PR?UIP_ARP_INIT?UIP_ARP
            CODE    59D3H     0034H     UNIT         ?PR?_ENC28J60PHYWRITE?ENC28J60
            CODE    5A07H     0033H     UNIT         ?PR?_UART1_SENDSTRING?UART
            CODE    5A3AH     0033H     UNIT         ?PR?_UART2_SENDSTRING?UART
            CODE    5A6DH     0032H     UNIT         ?PR?_WRITENBYTE?PCF8574T
            CODE    5A9FH     0031H     UNIT         ?PR?_ENC28J60WRITEOP?ENC28J60
            CODE    5AD0H     0031H     UNIT         ?PR?_ENC28J60SETBANK?ENC28J60
            CODE    5B01H     0029H     UNIT         ?PR?BMP085READPRESSURE?BMP085
            CODE    5B2AH     0029H     UNIT         ?PR?_SINGLE_WRITEI2C?MMA7455
            CODE    5B53H     0027H     UNIT         ?PR?_I2C_WRITEABYTE?PCF8574T
            CODE    5B7AH     0026H     UNIT         ?PR?_DELAYMS?SYS
            CODE    5BA0H     0026H     UNIT         ?PR?_DELAYUS?STEP_MOTOR
            CODE    5BC6H     0024H     UNIT         ?PR?BMP085READTEMP?BMP085
            CODE    5BEAH     0024H     UNIT         ?PR?READBYTE?SPI
            CODE    5C0EH     0023H     UNIT         ?PR?DC_MOTOR_TEST?DC_MOTOR
            CODE    5C31H     0022H     UNIT         ?PR?READFROMCHARFROM7843?TOUCH
            CODE    5C53H     0022H     UNIT         ?PR?_I2C_CHECK_ACK?PCF8574T
            CODE    5C75H     0022H     UNIT         ?PR?_DELAY_MS?ENC28J60
            CODE    5C97H     001BH     UNIT         ?CO?UART
            CODE    5CB2H     001AH     UNIT         ?PR?_WRITECHARTO7843?TOUCH
            CODE    5CCCH     001AH     UNIT         ?PR?_WRITEBYTE?SPI
            CODE    5CE6H     0018H     UNIT         ?PR?_PCF8574_SINGLE_READI2C?PCF8574T
            CODE    5CFEH     0017H     UNIT         ?PR?_ADS_READ_AD?TOUCH
            CODE    5D15H     0016H     UNIT         ?PR?DELAY5MS?MMA7455
            CODE    5D2BH     0015H     UNIT         ?PR?I2C_DELAY?PCF8574T
BL51 BANKED LINKER/LOCATER V6.22                                                      10/13/2015  11:38:09  PAGE 5


            CODE    5D40H     0014H     UNIT         ?PR?_LCD_WR_DATA?LCD
            CODE    5D54H     0013H     UNIT         ?PR?MMA7455_DATA_INIT?MMA7455
            CODE    5D67H     0013H     UNIT         ?PR?_ENC28J60READ?ENC28J60
            CODE    5D7AH     0012H     UNIT         ?CO?MMA7455
            CODE    5D8CH     0011H     UNIT         ?PR?DEV_SEND?ENC28J60
            CODE    5D9DH     0010H     UNIT         ?PR?_PCF8574_SINGLE_WRITEI2C?PCF8574T
            CODE    5DADH     000FH     UNIT         ?PR?INIT_UART2?UART
            CODE    5DBCH     000EH     UNIT         ?PR?_LCD_WR_REG_DATA?LCD
            CODE    5DCAH     000EH     UNIT         ?PR?MMA7455_DELAY50US?MMA7455
            CODE    5DD8H     000EH     UNIT         ?PR?DEV_POLL?ENC28J60
            CODE    5DE6H     000DH     UNIT         ?PR?I2C_START?PCF8574T
            CODE    5DF3H     000DH     UNIT         ?PR?MMA7455_TEST?MMA7455
            CODE    5E00H     000BH     UNIT         ?PR?_LCD_WRIT_BUS?LCD
            CODE    5E0BH     000BH     UNIT         ?PR?_LCD_WR_REG?LCD
            CODE    5E16H     000BH     UNIT         ?PR?_DELAY_US?ENC28J60
            CODE    5E21H     000AH     UNIT         ?PR?I2C_STOP?PCF8574T
            CODE    5E2BH     000AH     UNIT         ?PR?S_ACK?PCF8574T
            CODE    5E35H     0009H     UNIT         ?PR?SPISTAR?TOUCH
            CODE    5E3EH     0009H     UNIT         ?PR?_UART1_SENDDATA?UART
            CODE    5E47H     0009H     UNIT         ?PR?_UART2_SENDDATA?UART
            CODE    5E50H     0009H     UNIT         ?PR?BMP085_TEST?BMP085
            CODE    5E59H     0008H     UNIT         ?PR?S_NOACK?PCF8574T
            CODE    5E61H     0008H     UNIT         ?PR?UIP_IPCHKSUM?UIP_ARCH
            CODE    5E69H     0006H     UNIT         ?PR?TPSTATE?TOUCH
            CODE    5E6FH     0005H     UNIT         ?PR?_LCD_WR_DATA8?LCD
            CODE    5E74H     0003H     UNIT         ?PR?DEV_INIT?ENC28J60



OVERLAY MAP OF MODULE:   ceshi (?C_STARTUP)


SEGMENT                                         IDATA_GROUP         XDATA_GROUP
  +--> CALLED SEGMENT                         START    LENGTH     START    LENGTH
---------------------------------------------------------------------------------
?C_C51STARTUP                                 -----    -----      -----    -----
  +--> ?PR?MAIN?MAIN
  +--> ?C_INITSEG

?PR?MAIN?MAIN                                 -----    -----      0237H    0001H
  +--> ?PR?_PCF8574_SINGLE_WRITEI2C?PCF8574T
  +--> ?PR?SPISTAR?TOUCH
  +--> ?PR?INIT_UART2?UART
  +--> ?PR?_INIT_UART1?UART
  +--> ?PR?LCD_INIT?LCD
  +--> ?PR?_LCD_CLEAR?LCD
  +--> ?PR?_LCD_DRAWRECTANGLE?LCD
  +--> ?CO?MAIN
  +--> ?PR?_LCD_SHOWSTRING?LCD
  +--> ?PR?_UART1_SENDSTRING?UART
  +--> ?PR?_UART2_SENDSTRING?UART
  +--> ?PR?KEY_TEST?KEY
  +--> ?PR?RELAY_TEST?RELAY
  +--> ?PR?RFID_TEST?UART
  +--> ?PR?_DELAYMS?SYS
  +--> ?PR?DC_MOTOR_TEST?DC_MOTOR
  +--> ?PR?STEP_MOTOR_TEST?STEP_MOTOR
BL51 BANKED LINKER/LOCATER V6.22                                                      10/13/2015  11:38:09  PAGE 6


  +--> ?PR?BMP085_TEST?BMP085
  +--> ?PR?MMA7455_TEST?MMA7455

?PR?_PCF8574_SINGLE_WRITEI2C?PCF8574T         -----    -----      -----    -----
  +--> ?PR?_I2C_WRITEABYTE?PCF8574T
  +--> ?PR?I2C_STOP?PCF8574T

?PR?_I2C_WRITEABYTE?PCF8574T                  -----    -----      -----    -----
  +--> ?PR?I2C_START?PCF8574T
  +--> ?PR?I2C_DELAY?PCF8574T
  +--> ?PR?_I2C_CHECK_ACK?PCF8574T

?PR?I2C_START?PCF8574T                        -----    -----      -----    -----
  +--> ?PR?I2C_DELAY?PCF8574T

?PR?_I2C_CHECK_ACK?PCF8574T                   -----    -----      -----    -----
  +--> ?PR?I2C_START?PCF8574T
  +--> ?PR?I2C_DELAY?PCF8574T

?PR?I2C_STOP?PCF8574T                         -----    -----      -----    -----
  +--> ?PR?I2C_DELAY?PCF8574T

?PR?_INIT_UART1?UART                          -----    -----      0238H    0004H

?PR?LCD_INIT?LCD                              -----    -----      -----    -----
  +--> ?PR?_PCF8574_SINGLE_WRITEI2C?PCF8574T
  +--> ?PR?_LCD_WR_REG_DATA?LCD
  +--> ?CO?LCD
  +--> ?PR?_LCD_SHOWSTRING?LCD
  +--> ?PR?_LCD_SHOWNUM?LCD
  +--> ?PR?_LCD_SHOW2NUM?LCD
  +--> ?PR?_LCD_DRAWPOINT_BIG?LCD
  +--> ?PR?_LCD_DRAWRECTANGLE?LCD
  +--> ?PR?_DRAW_CIRCLE?LCD
  +--> ?PR?_DELAYMS?SYS
  +--> ?PR?_LCD_WR_REG?LCD
  +--> ?PR?_LCD_WR_DATA?LCD

?PR?_LCD_WR_REG_DATA?LCD                      -----    -----      -----    -----
  +--> ?PR?_LCD_WR_REG?LCD
  +--> ?PR?_LCD_WR_DATA?LCD

?PR?_LCD_WR_REG?LCD                           -----    -----      -----    -----
  +--> ?PR?_LCD_WRIT_BUS?LCD

?PR?_LCD_WR_DATA?LCD                          -----    -----      -----    -----
  +--> ?PR?_LCD_WRIT_BUS?LCD

?PR?_LCD_SHOWSTRING?LCD                       -----    -----      026CH    0007H
  +--> ?PR?_LCD_SHOWCHAR?LCD

?PR?_LCD_SHOWCHAR?LCD                         -----    -----      0273H    000CH
  +--> ?PR?_ADDRESS_SET?LCD
  +--> ?CO?FONT
  +--> ?PR?_LCD_WR_DATA?LCD
  +--> ?PR?_LCD_DRAWPOINT?LCD

BL51 BANKED LINKER/LOCATER V6.22                                                      10/13/2015  11:38:09  PAGE 7


?PR?_ADDRESS_SET?LCD                          -----    -----      027FH    0008H
  +--> ?PR?_LCD_WR_REG?LCD
  +--> ?PR?_LCD_WR_DATA?LCD

?PR?_LCD_DRAWPOINT?LCD                        -----    -----      -----    -----
  +--> ?PR?_ADDRESS_SET?LCD
  +--> ?PR?_LCD_WR_DATA?LCD

?PR?_LCD_SHOWNUM?LCD                          -----    -----      0241H    000CH
  +--> ?PR?_MYPOW?LCD
  +--> ?PR?_LCD_SHOWCHAR?LCD

?PR?_MYPOW?LCD                                -----    -----      024DH    0006H

?PR?_LCD_SHOW2NUM?LCD                         -----    -----      0238H    0009H
  +--> ?PR?_MYPOW?LCD
  +--> ?PR?_LCD_SHOWCHAR?LCD

?PR?_LCD_DRAWPOINT_BIG?LCD                    -----    -----      -----    -----
  +--> ?PR?_LCD_FILL?LCD

?PR?_LCD_FILL?LCD                             -----    -----      0238H    000CH
  +--> ?PR?_ADDRESS_SET?LCD
  +--> ?PR?_LCD_WR_DATA?LCD

?PR?_LCD_DRAWRECTANGLE?LCD                    -----    -----      023BH    0008H
  +--> ?PR?_LCD_DRAWLINE?LCD

?PR?_LCD_DRAWLINE?LCD                         -----    -----      0243H    001CH
  +--> ?PR?_LCD_DRAWPOINT?LCD

?PR?_DRAW_CIRCLE?LCD                          -----    -----      0238H    000AH
  +--> ?PR?_LCD_DRAWPOINT?LCD

?PR?_LCD_CLEAR?LCD                            -----    -----      023BH    0003H
  +--> ?PR?_ADDRESS_SET?LCD
  +--> ?PR?_LCD_WR_DATA8?LCD

?PR?_LCD_WR_DATA8?LCD                         -----    -----      -----    -----
  +--> ?PR?_LCD_WRIT_BUS?LCD

?PR?_UART1_SENDSTRING?UART                    -----    -----      0241H    0003H
  +--> ?PR?_UART1_SENDDATA?UART

?PR?_UART2_SENDSTRING?UART                    -----    -----      023BH    0003H
  +--> ?PR?_UART2_SENDDATA?UART

?PR?KEY_TEST?KEY                              -----    -----      0238H    0003H
  +--> ?PR?_LCD_CLEAR?LCD
  +--> ?PR?_LCD_DRAWRECTANGLE?LCD
  +--> ?CO?KEY
  +--> ?PR?_LCD_SHOWSTRING?LCD
  +--> ?PR?_LCD_SHOWNUM?LCD
  +--> ?PR?_STRSTR?STRSTR
  +--> ?PR?_DELAYMS?SYS
  +--> ?PR?_PCF8574_SINGLE_WRITEI2C?PCF8574T
  +--> ?PR?_UART2_SENDSTRING?UART
BL51 BANKED LINKER/LOCATER V6.22                                                      10/13/2015  11:38:09  PAGE 8


  +--> ?PR?_UART1_SENDSTRING?UART
  +--> ?PR?_PCF8574_SINGLE_READI2C?PCF8574T
  +--> ?PR?_UART1_SENDDATA?UART

?PR?_STRSTR?STRSTR                            -----    -----      023BH    000CH

?PR?_PCF8574_SINGLE_READI2C?PCF8574T          -----    -----      -----    -----
  +--> ?PR?_I2C_WRITEABYTE?PCF8574T
  +--> ?PR?I2C_READABYTE?PCF8574T
  +--> ?PR?_I2C_CHECK_ACK?PCF8574T
  +--> ?PR?I2C_STOP?PCF8574T

?PR?I2C_READABYTE?PCF8574T                    -----    -----      -----    -----
  +--> ?PR?I2C_DELAY?PCF8574T

?PR?RELAY_TEST?RELAY                          -----    -----      -----    -----
  +--> ?PR?_PCF8574_SINGLE_WRITEI2C?PCF8574T
  +--> ?PR?_DELAYMS?SYS

?PR?RFID_TEST?UART                            -----    -----      -----    -----
  +--> ?PR?SEND_COM?UART

?PR?SEND_COM?UART                             0021H    0023H      0238H    0009H
  +--> ?PR?_LCD_SHOWNUM?LCD
  +--> ?CO?UART
  +--> ?PR?_LCD_SHOWSTRING?LCD
  +--> ?PR?_UART1_SENDSTRING?UART

?PR?DC_MOTOR_TEST?DC_MOTOR                    -----    -----      -----    -----
  +--> ?PR?_PCF8574_SINGLE_WRITEI2C?PCF8574T
  +--> ?PR?_DELAYMS?SYS

?PR?STEP_MOTOR_TEST?STEP_MOTOR                -----    -----      0238H    0002H
  +--> ?PR?_DUJIN_PORT?STEP_MOTOR
  +--> ?PR?_DELAYUS?STEP_MOTOR

?PR?_DUJIN_PORT?STEP_MOTOR                    -----    -----      023AH    0002H
  +--> ?PR?_PCF8574_SINGLE_WRITEI2C?PCF8574T

?PR?BMP085_TEST?BMP085                        -----    -----      -----    -----
  +--> ?PR?INITBMP085?BMP085
  +--> ?PR?BMP085CONVERT?BMP085
  +--> ?PR?DATA_DIPLAY?BMP085

?PR?INITBMP085?BMP085                         -----    -----      0238H    0023H
  +--> ?CO?BMP085
  +--> ?PR?_MULTIPLE_READ?BMP085
  +--> ?PR?_LCD_SHOWSTRING?LCD

?PR?_MULTIPLE_READ?BMP085                     -----    -----      0262H    0003H
  +--> ?PR?I2C_START?PCF8574T
  +--> ?PR?_I2C_WRITEABYTE?PCF8574T
  +--> ?PR?I2C_READABYTE?PCF8574T
  +--> ?PR?S_ACK?PCF8574T
  +--> ?PR?S_NOACK?PCF8574T
  +--> ?PR?I2C_STOP?PCF8574T

BL51 BANKED LINKER/LOCATER V6.22                                                      10/13/2015  11:38:09  PAGE 9


?PR?S_ACK?PCF8574T                            -----    -----      -----    -----
  +--> ?PR?I2C_DELAY?PCF8574T

?PR?S_NOACK?PCF8574T                          -----    -----      -----    -----
  +--> ?PR?I2C_DELAY?PCF8574T

?PR?BMP085CONVERT?BMP085                      -----    -----      0238H    002AH
  +--> ?PR?BMP085READTEMP?BMP085
  +--> ?PR?BMP085READPRESSURE?BMP085

?PR?BMP085READTEMP?BMP085                     -----    -----      -----    -----
  +--> ?PR?I2C_START?PCF8574T
  +--> ?PR?_I2C_WRITEABYTE?PCF8574T
  +--> ?PR?I2C_STOP?PCF8574T
  +--> ?PR?I2C_DELAY?PCF8574T
  +--> ?PR?_MULTIPLE_READ?BMP085

?PR?BMP085READPRESSURE?BMP085                 -----    -----      -----    -----
  +--> ?PR?I2C_START?PCF8574T
  +--> ?PR?_I2C_WRITEABYTE?PCF8574T
  +--> ?PR?I2C_STOP?PCF8574T
  +--> ?PR?I2C_DELAY?PCF8574T
  +--> ?PR?_MULTIPLE_READ?BMP085

?PR?DATA_DIPLAY?BMP085                        -----    -----      0238H    0034H
  +--> ?CO?BMP085
  +--> ?PR?_BMP085_CONVERSION?BMP085
  +--> ?PR?_LCD_SHOWSTRING?LCD

?PR?_BMP085_CONVERSION?BMP085                 -----    -----      026CH    0007H

?PR?MMA7455_TEST?MMA7455                      -----    -----      -----    -----
  +--> ?PR?MMA7455_SELF_TEST?MMA7455
  +--> ?PR?MMA7455_SENDXYZ?MMA7455
  +--> ?PR?DELAY5MS?MMA7455

?PR?MMA7455_SELF_TEST?MMA7455                 -----    -----      0238H    0004H
  +--> ?PR?MMA7455_DELAY50US?MMA7455
  +--> ?PR?_SINGLE_WRITEI2C?MMA7455
  +--> ?PR?_SINGLE_READI2C?MMA7455

?PR?_SINGLE_WRITEI2C?MMA7455                  -----    -----      023CH    0003H
  +--> ?PR?I2C_START?PCF8574T
  +--> ?PR?_I2C_WRITEABYTE?PCF8574T
  +--> ?PR?I2C_STOP?PCF8574T

?PR?_SINGLE_READI2C?MMA7455                   -----    -----      025DH    0003H
  +--> ?PR?I2C_START?PCF8574T
  +--> ?PR?_I2C_WRITEABYTE?PCF8574T
  +--> ?PR?I2C_READABYTE?PCF8574T
  +--> ?PR?S_NOACK?PCF8574T
  +--> ?PR?I2C_STOP?PCF8574T

?PR?MMA7455_SENDXYZ?MMA7455                   -----    -----      0238H    0025H
  +--> ?CO?MMA7455
  +--> ?PR?_SINGLE_READI2C?MMA7455
  +--> ?PR?_LCD_SHOWSTRING?LCD
BL51 BANKED LINKER/LOCATER V6.22                                                      10/13/2015  11:38:09  PAGE 10



?PR?DELAY5MS?MMA7455                          0021H    0002H      -----    -----



UNRESOLVED EXTERNAL SYMBOLS:
   UIP_ACC32
   UIP_APPDATA
   UIP_ARP_DRADDR
   UIP_ARP_NETMASK
   UIP_BUF
   UIP_CONN
   UIP_CONNS
   UIP_HOSTADDR
   UIP_INIT
   UIP_LEN
   _HTONS
   _UIP_PROCESS



SYMBOL TABLE OF MODULE:  ceshi (?C_STARTUP)

  VALUE           TYPE          NAME
  ----------------------------------

  -------         MODULE        ?C_STARTUP
  C:4E8CH         SEGMENT       ?C_C51STARTUP
  I:0044H         SEGMENT       ?STACK
  C:0000H         PUBLIC        ?C_STARTUP
  D:00E0H         SYMBOL        ACC
  D:00F0H         SYMBOL        B
  D:0083H         SYMBOL        DPH
  D:0082H         SYMBOL        DPL
  N:0000H         SYMBOL        IBPSTACK
  N:0100H         SYMBOL        IBPSTACKTOP
  N:0080H         SYMBOL        IDATALEN
  C:4E8FH         SYMBOL        IDATALOOP
  N:0000H         SYMBOL        PBPSTACK
  N:0100H         SYMBOL        PBPSTACKTOP
  N:0000H         SYMBOL        PDATALEN
  N:0000H         SYMBOL        PDATASTART
  N:0000H         SYMBOL        PPAGE
  N:0000H         SYMBOL        PPAGEENABLE
  D:00A0H         SYMBOL        PPAGE_SFR
  D:0081H         SYMBOL        SP
  C:4E8CH         SYMBOL        STARTUP1
  N:0000H         SYMBOL        XBPSTACK
  N:0000H         SYMBOL        XBPSTACKTOP
  N:0000H         SYMBOL        XDATALEN
  N:0000H         SYMBOL        XDATASTART
  C:0000H         LINE#         126
  C:4E8CH         LINE#         133
  C:4E8EH         LINE#         134
  C:4E8FH         LINE#         135
  C:4E90H         LINE#         136
  C:4E92H         LINE#         185
BL51 BANKED LINKER/LOCATER V6.22                                                      10/13/2015  11:38:09  PAGE 11


  C:4E95H         LINE#         196
  -------         ENDMOD        ?C_STARTUP

  -------         MODULE        MAIN
  C:0000H         SYMBOL        _ICE_DUMMY_
  D:0090H         PUBLIC        P1
  D:00B0H         PUBLIC        P3
  B:00B0H.2       PUBLIC        KEY4
  C:1C1DH         PUBLIC        main
  -------         PROC          MAIN
  -------         DO            
  X:0237H         SYMBOL        tempdat
  -------         ENDDO         
  C:1C1DH         LINE#         46
  C:1C1DH         LINE#         47
  C:1C1DH         LINE#         49
  C:1C24H         LINE#         50
  C:1C27H         LINE#         51
  C:1C2EH         LINE#         54
  C:1C31H         LINE#         55
  C:1C3CH         LINE#         58
  C:1C3FH         LINE#         60
  C:1C46H         LINE#         61
  C:1C55H         LINE#         64
  C:1C5BH         LINE#         65
  C:1C73H         LINE#         66
  C:1C8CH         LINE#         67
  C:1C9DH         LINE#         69
  C:1CA6H         LINE#         70
  C:1CAFH         LINE#         78
  C:1CB2H         LINE#         80
  C:1CB8H         LINE#         81
  C:1CD0H         LINE#         82
  C:1CE9H         LINE#         83
  C:1CFAH         LINE#         84
  C:1D0BH         LINE#         85
  C:1D0EH         LINE#         87
  C:1D14H         LINE#         88
  C:1D2CH         LINE#         89
  C:1D45H         LINE#         90
  C:1D56H         LINE#         91
  C:1D67H         LINE#         92
  C:1D78H         LINE#         93
  C:1D86H         LINE#         96
  C:1D89H         LINE#         97
  C:1D89H         LINE#         98
  C:1D9AH         LINE#         99
  C:1DABH         LINE#         103
  C:1DADH         LINE#         105
  C:1DB3H         LINE#         106
  C:1DCBH         LINE#         107
  C:1DE4H         LINE#         108
  C:1DF5H         LINE#         109
  C:1E06H         LINE#         110
  C:1E17H         LINE#         112
  C:1E22H         LINE#         113
  C:1E25H         LINE#         115
BL51 BANKED LINKER/LOCATER V6.22                                                      10/13/2015  11:38:09  PAGE 12


  C:1E2CH         LINE#         117
  C:1E32H         LINE#         118
  C:1E4AH         LINE#         119
  C:1E63H         LINE#         120
  C:1E74H         LINE#         121
  C:1E85H         LINE#         122
  C:1E96H         LINE#         124
  C:1E99H         LINE#         125
  C:1EA0H         LINE#         127
  C:1EA6H         LINE#         128
  C:1EBEH         LINE#         129
  C:1ED7H         LINE#         130
  C:1EE8H         LINE#         131
  C:1EF9H         LINE#         133
  C:1EFCH         LINE#         134
  C:1F03H         LINE#         136
  C:1F09H         LINE#         137
  C:1F21H         LINE#         138
  C:1F3AH         LINE#         139
  C:1F4BH         LINE#         140
  C:1F5CH         LINE#         141
  C:1F6DH         LINE#         142
  C:1F7EH         LINE#         143
  C:1F81H         LINE#         144
  C:1F81H         LINE#         146
  C:1F81H         LINE#         148
  C:1F87H         LINE#         149
  C:1F9FH         LINE#         150
  C:1FB8H         LINE#         151
  C:1FC9H         LINE#         152
  C:1FDAH         LINE#         153
  C:1FEBH         LINE#         154
  C:1FEEH         LINE#         155
  C:1FEEH         LINE#         156
  C:1FF1H         LINE#         157
  C:1FF8H         LINE#         158
  C:1FFAH         LINE#         159
  C:2001H         LINE#         161
  C:2007H         LINE#         162
  C:201FH         LINE#         163
  C:2038H         LINE#         164
  C:2049H         LINE#         165
  C:205AH         LINE#         166
  C:206BH         LINE#         167
  C:207CH         LINE#         168
  C:207FH         LINE#         169
  C:207FH         LINE#         170
  C:2082H         LINE#         171
  C:2089H         LINE#         172
  C:208BH         LINE#         173
  C:2092H         LINE#         175
  C:2098H         LINE#         176
  C:20B0H         LINE#         177
  C:20C9H         LINE#         178
  C:20DAH         LINE#         179
  C:20EBH         LINE#         184
  C:20EBH         LINE#         185
BL51 BANKED LINKER/LOCATER V6.22                                                      10/13/2015  11:38:09  PAGE 13


  C:20EBH         LINE#         195
  -------         ENDPROC       MAIN
  -------         ENDMOD        MAIN

  -------         MODULE        LCD
  C:0000H         SYMBOL        _ICE_DUMMY_
  D:0080H         PUBLIC        P0
  D:0090H         PUBLIC        P1
  D:00A0H         PUBLIC        P2
  D:00B0H         PUBLIC        P3
  C:4646H         PUBLIC        _LCD_ShowNum
  C:3531H         PUBLIC        Lcd_Init
  C:5E6FH         PUBLIC        _LCD_WR_DATA8
  C:5DBCH         PUBLIC        _LCD_WR_REG_DATA
  X:0370H         PUBLIC        HT
  C:5E0BH         PUBLIC        _LCD_WR_REG
  C:5389H         PUBLIC        _LCD_Clear
  X:0372H         PUBLIC        VT
  C:4F9EH         PUBLIC        _LCD_Show2Num
  C:4F18H         PUBLIC        _LCD_Fill
  C:5755H         PUBLIC        _mypow
  C:29F4H         PUBLIC        _Draw_Circle
  B:00B0H.7       PUBLIC        LCD_RD
  C:2DD7H         PUBLIC        _LCD_DrawLine
  C:5517H         PUBLIC        _LCD_DrawPoint
  C:5441H         PUBLIC        _LCD_ShowString
  C:3896H         PUBLIC        _LCD_ShowChar
  C:5D49H         PUBLIC        _LCD_WR_DATA
  B:00B0H.5       PUBLIC        LCD_RS
  X:0374H         PUBLIC        HDP
  B:00B0H.6       PUBLIC        LCD_WR
  C:4C11H         PUBLIC        _LCD_DrawRectangle
  C:4A83H         PUBLIC        _showhanzi
  C:55DEH         PUBLIC        _LCD_DrawPoint_big
  C:5E00H         PUBLIC        _LCD_Writ_Bus
  X:0376H         PUBLIC        FPS
  X:0378H         PUBLIC        VDP
  X:037AH         PUBLIC        HPS
  X:037CH         PUBLIC        POINT_COLOR
  X:037EH         PUBLIC        HPW
  X:037FH         PUBLIC        LPS
  X:0381H         PUBLIC        BACK_COLOR
  B:0090H.2       PUBLIC        LCD_REST
  C:592AH         PUBLIC        _Address_set
  X:0383H         PUBLIC        VPS
  X:0385H         PUBLIC        VPW
  -------         PROC          _LCD_WRIT_BUS
  D:0007H         SYMBOL        VH
  D:0005H         SYMBOL        VL
  C:5E00H         LINE#         36
  C:5E00H         LINE#         37
  C:5E00H         LINE#         38
  C:5E02H         LINE#         39
  C:5E06H         LINE#         40
  C:5E08H         LINE#         41
  C:5E0AH         LINE#         42
  -------         ENDPROC       _LCD_WRIT_BUS
BL51 BANKED LINKER/LOCATER V6.22                                                      10/13/2015  11:38:09  PAGE 14


  -------         PROC          _LCD_WR_DATA8
  D:0007H         SYMBOL        VH
  D:0005H         SYMBOL        VL
  C:5E6FH         LINE#         54
  C:5E6FH         LINE#         55
  C:5E6FH         LINE#         56
  C:5E71H         LINE#         57
  -------         ENDPROC       _LCD_WR_DATA8
  C:5D40H         SYMBOL        L?0110
  C:5D41H         SYMBOL        L?0111
  -------         PROC          L?0109
  -------         ENDPROC       L?0109
  C:5D40H         SYMBOL        L?0110
  C:5D41H         SYMBOL        L?0111
  -------         PROC          _LCD_WR_DATA
  D:0004H         SYMBOL        da
  C:5D49H         LINE#         59
  C:5D4DH         LINE#         60
  C:5D4DH         LINE#         61
  C:5D4FH         LINE#         62
  -------         ENDPROC       _LCD_WR_DATA
  -------         PROC          _LCD_WR_REG
  D:0004H         SYMBOL        da
  C:5E0BH         LINE#         64
  C:5E0FH         LINE#         65
  C:5E0FH         LINE#         66
  C:5E11H         LINE#         67
  -------         ENDPROC       _LCD_WR_REG
  -------         PROC          _LCD_WR_REG_DATA
  D:0006H         SYMBOL        reg
  D:0002H         SYMBOL        da
  C:5DBCH         LINE#         69
  C:5DC0H         LINE#         70
  C:5DC0H         LINE#         71
  C:5DC3H         LINE#         72
  -------         ENDPROC       _LCD_WR_REG_DATA
  -------         PROC          _ADDRESS_SET
  X:027FH         SYMBOL        x1
  X:0281H         SYMBOL        y1
  D:0002H         SYMBOL        x2
  X:0285H         SYMBOL        y2
  C:592AH         LINE#         75
  C:5938H         LINE#         76
  C:5938H         LINE#         77
  C:593FH         LINE#         78
  C:5942H         LINE#         79
  C:5945H         LINE#         80
  C:594AH         LINE#         81
  C:5951H         LINE#         82
  C:5956H         LINE#         83
  C:5956H         LINE#         84
  C:5959H         LINE#         85
  C:595CH         LINE#         86
  C:595FH         LINE#         87
  -------         ENDPROC       _ADDRESS_SET
  -------         PROC          LCD_INIT
  C:3531H         LINE#         89
BL51 BANKED LINKER/LOCATER V6.22                                                      10/13/2015  11:38:09  PAGE 15


  C:3531H         LINE#         90
  C:3531H         LINE#         94
  C:3538H         LINE#         98
  C:3540H         LINE#         99
  C:354EH         LINE#         100
  C:3564H         LINE#         101
  C:3572H         LINE#         102
  C:357AH         LINE#         103
  C:358AH         LINE#         104
  C:3593H         LINE#         107
  C:3595H         LINE#         108
  C:359CH         LINE#         109
  C:359EH         LINE#         110
  C:35A5H         LINE#         111
  C:35A7H         LINE#         113
  C:35AEH         LINE#         114
  C:35B0H         LINE#         115
  C:35B2H         LINE#         116
  C:35B9H         LINE#         118
  C:35C0H         LINE#         120
  C:35C7H         LINE#         121
  C:35CCH         LINE#         122
  C:35D1H         LINE#         123
  C:35D6H         LINE#         124
  C:35DBH         LINE#         125
  C:35E0H         LINE#         126
  C:35E5H         LINE#         127
  C:35ECH         LINE#         128
  C:35F1H         LINE#         129
  C:35F6H         LINE#         130
  C:35FDH         LINE#         131
  C:3602H         LINE#         132
  C:3609H         LINE#         133
  C:360EH         LINE#         134
  C:3613H         LINE#         135
  C:3618H         LINE#         137
  C:361DH         LINE#         138
  C:3622H         LINE#         139
  C:3627H         LINE#         140
  C:362AH         LINE#         141
  C:362DH         LINE#         142
  C:3630H         LINE#         143
  C:3633H         LINE#         144
  C:3638H         LINE#         145
  C:363DH         LINE#         146
  C:3644H         LINE#         147
  C:3647H         LINE#         148
  C:364AH         LINE#         149
  C:364DH         LINE#         150
  C:3650H         LINE#         151
  C:3658H         LINE#         152
  C:3658H         LINE#         153
  C:365BH         LINE#         154
  C:3660H         LINE#         156
  C:3665H         LINE#         157
  C:3668H         LINE#         158
  C:366BH         LINE#         159
BL51 BANKED LINKER/LOCATER V6.22                                                      10/13/2015  11:38:09  PAGE 16


  C:3673H         LINE#         160
  C:3673H         LINE#         161
  C:3676H         LINE#         162
  C:3679H         LINE#         163
  C:367CH         LINE#         166
  C:3681H         LINE#         167
  C:3686H         LINE#         169
  C:368BH         LINE#         170
  C:3690H         LINE#         173
  C:3695H         LINE#         176
  C:369CH         LINE#         178
  C:36A1H         LINE#         179
  C:36A6H         LINE#         180
  C:36ABH         LINE#         181
  C:36B0H         LINE#         182
  C:36B5H         LINE#         183
  C:36BAH         LINE#         184
  C:36BFH         LINE#         186
  C:36C4H         LINE#         187
  C:36C9H         LINE#         190
  C:36CEH         LINE#         191
  C:36D3H         LINE#         192
  C:36D8H         LINE#         194
  C:36DDH         LINE#         195
  -------         ENDPROC       LCD_INIT
  -------         PROC          _LCD_CLEAR
  D:0004H         SYMBOL        Color
  -------         DO            
  X:023BH         SYMBOL        VH
  D:0001H         SYMBOL        VL
  X:023CH         SYMBOL        i
  D:0002H         SYMBOL        j
  -------         ENDDO         
  C:5389H         LINE#         202
  C:538BH         LINE#         203
  C:538BH         LINE#         206
  C:5390H         LINE#         207
  C:5392H         LINE#         208
  C:53A8H         LINE#         209
  C:53AFH         LINE#         210
  C:53AFH         LINE#         211
  C:53B2H         LINE#         212
  C:53B2H         LINE#         213
  C:53BCH         LINE#         214
  C:53C7H         LINE#         216
  C:53E4H         LINE#         217
  -------         ENDPROC       _LCD_CLEAR
  -------         PROC          _SHOWHANZI
  X:03BFH         SYMBOL        x
  X:03C1H         SYMBOL        y
  X:03C3H         SYMBOL        index
  -------         DO            
  X:03C4H         SYMBOL        i
  X:03C5H         SYMBOL        j
  X:03C6H         SYMBOL        temp
  -------         ENDDO         
  C:4A83H         LINE#         220
BL51 BANKED LINKER/LOCATER V6.22                                                      10/13/2015  11:38:09  PAGE 17


  C:4A98H         LINE#         221
  C:4A98H         LINE#         223
  C:4AA6H         LINE#         224
  C:4AD2H         LINE#         225
  C:4AE5H         LINE#         226
  C:4AEAH         LINE#         227
  C:4AEAH         LINE#         228
  C:4AF9H         LINE#         229
  C:4AF9H         LINE#         230
  C:4B23H         LINE#         231
  C:4B23H         LINE#         232
  C:4B26H         LINE#         233
  C:4B28H         LINE#         235
  C:4B28H         LINE#         236
  C:4B33H         LINE#         237
  C:4B33H         LINE#         238
  C:4B3BH         LINE#         239
  C:4B45H         LINE#         240
  C:4B51H         LINE#         241
  -------         ENDPROC       _SHOWHANZI
  C:5502H         SYMBOL        L?0113
  C:5505H         SYMBOL        L?0114
  C:5506H         SYMBOL        L?0115
  -------         PROC          L?0112
  -------         ENDPROC       L?0112
  C:5502H         SYMBOL        L?0113
  C:5505H         SYMBOL        L?0114
  C:5506H         SYMBOL        L?0115
  -------         PROC          _LCD_DRAWPOINT
  D:0002H         SYMBOL        x
  D:0082H         SYMBOL        y
  C:5517H         LINE#         244
  C:551FH         LINE#         245
  C:551FH         LINE#         246
  C:5536H         LINE#         247
  -------         ENDPROC       _LCD_DRAWPOINT
  -------         PROC          _LCD_DRAWPOINT_BIG
  D:0002H         SYMBOL        x
  D:0082H         SYMBOL        y
  C:55DEH         LINE#         251
  C:55E6H         LINE#         252
  C:55E6H         LINE#         253
  -------         ENDPROC       _LCD_DRAWPOINT_BIG
  -------         PROC          _LCD_FILL
  X:0238H         SYMBOL        xsta
  X:023AH         SYMBOL        ysta
  X:023CH         SYMBOL        xend
  X:023EH         SYMBOL        yend
  X:0240H         SYMBOL        color
  -------         DO            
  X:0242H         SYMBOL        i
  D:0002H         SYMBOL        j
  -------         ENDDO         
  C:4F18H         LINE#         258
  C:4F2CH         LINE#         259
  C:4F2CH         LINE#         261
  C:4F40H         LINE#         262
BL51 BANKED LINKER/LOCATER V6.22                                                      10/13/2015  11:38:09  PAGE 18


  C:4F64H         LINE#         263
  C:4F64H         LINE#         264
  C:4F8DH         LINE#         265
  C:4F9DH         LINE#         266
  -------         ENDPROC       _LCD_FILL
  -------         PROC          _LCD_DRAWLINE
  X:0243H         SYMBOL        x1
  X:0245H         SYMBOL        y1
  D:0002H         SYMBOL        x2
  X:0249H         SYMBOL        y2
  -------         DO            
  X:024BH         SYMBOL        t
  X:024DH         SYMBOL        xerr
  X:024FH         SYMBOL        yerr
  X:0251H         SYMBOL        delta_x
  X:0253H         SYMBOL        delta_y
  X:0255H         SYMBOL        distance
  X:0257H         SYMBOL        incx
  X:0259H         SYMBOL        incy
  X:025BH         SYMBOL        uRow
  X:025DH         SYMBOL        uCol
  -------         ENDDO         
  C:2DD7H         LINE#         270
  C:2DE5H         LINE#         271
  C:2DE5H         LINE#         273
  C:2DF0H         LINE#         276
  C:2E05H         LINE#         277
  C:2E20H         LINE#         278
  C:2E2FH         LINE#         279
  C:2E35H         LINE#         280
  C:2E51H         LINE#         281
  C:2E5DH         LINE#         282
  C:2E72H         LINE#         283
  C:2E8EH         LINE#         284
  C:2E9AH         LINE#         285
  C:2EAFH         LINE#         286
  C:2ED5H         LINE#         287
  C:2EDAH         LINE#         288
  C:2EFFH         LINE#         289
  C:2EFFH         LINE#         290
  C:2F10H         LINE#         291
  C:2F24H         LINE#         292
  C:2F38H         LINE#         293
  C:2F54H         LINE#         294
  C:2F54H         LINE#         295
  C:2F60H         LINE#         296
  C:2F74H         LINE#         297
  C:2F74H         LINE#         298
  C:2F90H         LINE#         299
  C:2F90H         LINE#         300
  C:2F9CH         LINE#         301
  C:2FB0H         LINE#         302
  C:2FB0H         LINE#         303
  C:2FC1H         LINE#         304
  -------         ENDPROC       _LCD_DRAWLINE
  -------         PROC          _LCD_DRAWRECTANGLE
  X:023BH         SYMBOL        x1
BL51 BANKED LINKER/LOCATER V6.22                                                      10/13/2015  11:38:09  PAGE 19


  X:023DH         SYMBOL        y1
  X:023FH         SYMBOL        x2
  X:0241H         SYMBOL        y2
  C:4C11H         LINE#         306
  C:4C27H         LINE#         307
  C:4C27H         LINE#         308
  C:4C43H         LINE#         309
  C:4C6AH         LINE#         310
  C:4C92H         LINE#         311
  -------         ENDPROC       _LCD_DRAWRECTANGLE
  -------         PROC          _DRAW_CIRCLE
  X:0238H         SYMBOL        x0
  X:023AH         SYMBOL        y0
  D:0003H         SYMBOL        r
  -------         DO            
  X:023CH         SYMBOL        a
  X:023EH         SYMBOL        b
  X:0240H         SYMBOL        di
  -------         ENDDO         
  C:29F4H         LINE#         316
  C:2A02H         LINE#         317
  C:2A02H         LINE#         320
  C:2A11H         LINE#         321
  C:2A25H         LINE#         322
  C:2A43H         LINE#         323
  C:2A43H         LINE#         324
  C:2A68H         LINE#         325
  C:2A94H         LINE#         326
  C:2AABH         LINE#         327
  C:2AD8H         LINE#         328
  C:2B05H         LINE#         329
  C:2B1EH         LINE#         330
  C:2B4AH         LINE#         331
  C:2B4DH         LINE#         332
  C:2B68H         LINE#         333
  C:2B76H         LINE#         335
  C:2BA5H         LINE#         337
  C:2BA5H         LINE#         338
  C:2BD6H         LINE#         339
  C:2BE4H         LINE#         340
  C:2BE4H         LINE#         341
  C:2BE7H         LINE#         342
  C:2BEAH         LINE#         343
  -------         ENDPROC       _DRAW_CIRCLE
  -------         PROC          L?0116
  -------         ENDPROC       L?0116
  -------         PROC          _LCD_SHOWCHAR
  X:0273H         SYMBOL        x
  X:0275H         SYMBOL        y
  X:0277H         SYMBOL        num
  X:0278H         SYMBOL        mode
  -------         DO            
  X:0279H         SYMBOL        temp
  D:0001H         SYMBOL        pos
  X:027AH         SYMBOL        t
  X:027BH         SYMBOL        x0
  X:027DH         SYMBOL        colortemp
BL51 BANKED LINKER/LOCATER V6.22                                                      10/13/2015  11:38:09  PAGE 20


  -------         ENDDO         
  C:3896H         LINE#         353
  C:38A7H         LINE#         354
  C:38A7H         LINE#         357
  C:38B7H         LINE#         358
  C:38C6H         LINE#         359
  C:38E4H         LINE#         361
  C:38EBH         LINE#         362
  C:3917H         LINE#         363
  C:3920H         LINE#         364
  C:3920H         LINE#         365
  C:3921H         LINE#         366
  C:3921H         LINE#         367
  C:3943H         LINE#         368
  C:3946H         LINE#         369
  C:3946H         LINE#         370
  C:3952H         LINE#         371
  C:3961H         LINE#         372
  C:396CH         LINE#         373
  C:3973H         LINE#         374
  C:3981H         LINE#         375
  C:398DH         LINE#         376
  C:399CH         LINE#         377
  C:39AAH         LINE#         378
  C:39B5H         LINE#         379
  C:39B5H         LINE#         380
  C:39B5H         LINE#         381
  C:39B7H         LINE#         382
  C:39B7H         LINE#         383
  C:39D9H         LINE#         384
  C:39E6H         LINE#         385
  C:39E6H         LINE#         386
  C:3A0CH         LINE#         387
  C:3A13H         LINE#         388
  C:3A19H         LINE#         389
  C:3A1EH         LINE#         390
  C:3A1EH         LINE#         391
  C:3A2DH         LINE#         392
  -------         ENDPROC       _LCD_SHOWCHAR
  -------         PROC          _MYPOW
  X:024DH         SYMBOL        m
  X:024EH         SYMBOL        n
  -------         DO            
  X:024FH         SYMBOL        result
  -------         ENDDO         
  C:5755H         LINE#         394
  C:575DH         LINE#         395
  C:575DH         LINE#         396
  C:5765H         LINE#         397
  C:578FH         LINE#         398
  C:579DH         LINE#         399
  -------         ENDPROC       _MYPOW
  -------         PROC          _LCD_SHOWNUM
  X:0241H         SYMBOL        x
  X:0243H         SYMBOL        y
  X:0245H         SYMBOL        num
  X:0249H         SYMBOL        len
BL51 BANKED LINKER/LOCATER V6.22                                                      10/13/2015  11:38:09  PAGE 21


  -------         DO            
  X:024AH         SYMBOL        t
  X:024BH         SYMBOL        temp
  X:024CH         SYMBOL        enshow
  -------         ENDDO         
  C:4646H         LINE#         405
  C:4654H         LINE#         406
  C:4654H         LINE#         408
  C:4659H         LINE#         409
  C:466CH         LINE#         410
  C:4680H         LINE#         411
  C:4680H         LINE#         412
  C:46B1H         LINE#         413
  C:46C2H         LINE#         414
  C:46C2H         LINE#         415
  C:46C6H         LINE#         416
  C:46C6H         LINE#         417
  C:46E8H         LINE#         418
  C:46EAH         LINE#         419
  C:46F0H         LINE#         421
  C:46F0H         LINE#         422
  C:471DH         LINE#         423
  C:4726H         LINE#         424
  -------         ENDPROC       _LCD_SHOWNUM
  -------         PROC          _LCD_SHOW2NUM
  X:0238H         SYMBOL        x
  X:023AH         SYMBOL        y
  X:023CH         SYMBOL        num
  X:023EH         SYMBOL        len
  -------         DO            
  X:023FH         SYMBOL        t
  X:0240H         SYMBOL        temp
  -------         ENDDO         
  C:4F9EH         LINE#         428
  C:4FB2H         LINE#         429
  C:4FB2H         LINE#         431
  C:4FC3H         LINE#         432
  C:4FC3H         LINE#         433
  C:4FF3H         LINE#         434
  C:5017H         LINE#         435
  C:501FH         LINE#         436
  -------         ENDPROC       _LCD_SHOW2NUM
  -------         PROC          _LCD_SHOWSTRING
  X:026CH         SYMBOL        x0
  X:026EH         SYMBOL        y0
  X:0270H         SYMBOL        pcStr
  C:5441H         LINE#         441
  C:5458H         LINE#         442
  C:5458H         LINE#         444
  C:5468H         LINE#         445
  C:5468H         LINE#         447
  C:546DH         LINE#         448
  C:546DH         LINE#         452
  C:546DH         LINE#         454
  C:546DH         LINE#         455
  C:5481H         LINE#         456
  C:548BH         LINE#         457
BL51 BANKED LINKER/LOCATER V6.22                                                      10/13/2015  11:38:09  PAGE 22


  C:5499H         LINE#         458
  C:5499H         LINE#         460
  C:549BH         LINE#         480
  -------         ENDPROC       _LCD_SHOWSTRING
  -------         ENDMOD        LCD

  -------         MODULE        SYS
  C:0000H         SYMBOL        _ICE_DUMMY_
  C:5B7AH         PUBLIC        _delayms
  -------         PROC          _DELAYMS
  D:0006H         SYMBOL        counter
  -------         DO            
  D:0004H         SYMBOL        i
  D:0002H         SYMBOL        j
  -------         ENDDO         
  C:5B7AH         LINE#         4
  C:5B7AH         LINE#         5
  C:5B7AH         LINE#         7
  C:5B8AH         LINE#         8
  C:5B9FH         LINE#         9
  -------         ENDPROC       _DELAYMS
  -------         ENDMOD        SYS

  -------         MODULE        FONT
  C:0000H         SYMBOL        _ICE_DUMMY_
  C:162DH         PUBLIC        asc2_1608
  C:152DH         PUBLIC        hanzi
  -------         ENDMOD        FONT

  -------         MODULE        TOUCH
  C:0000H         SYMBOL        _ICE_DUMMY_
  D:0090H         PUBLIC        P1
  D:00B0H         PUBLIC        P3
  C:5C31H         PUBLIC        ReadFromCharFrom7843
  C:5E69H         PUBLIC        tpstate
  C:5E35H         PUBLIC        spistar
  B:0090H.4       PUBLIC        CS
  B:00D0H.7       PUBLIC        CY
  C:5CFEH         PUBLIC        _ADS_Read_AD
  B:0090H.7       PUBLIC        DCLK
  C:5CB2H         PUBLIC        _WriteCharTo7843
  C:4802H         PUBLIC        point
  C:526BH         PUBLIC        _Read_ADS
  B:0090H.6       PUBLIC        DOUT
  X:0386H         PUBLIC        chx
  X:0388H         PUBLIC        chy
  C:3D50H         PUBLIC        _ADS_Read_XY
  X:038AH         PUBLIC        tp_pixlcd
  C:0046H         PUBLIC        Touch_Adjust
  B:0090H.5       PUBLIC        DIN
  X:038EH         PUBLIC        tp_pixad
  C:413BH         PUBLIC        _Read_ADS2
  C:509EH         PUBLIC        Read_TP_Once
  X:0392H         PUBLIC        vx
  X:0394H         PUBLIC        vy
  C:455EH         PUBLIC        _Drow_Touch_Point
  B:00B0H.4       PUBLIC        Penirq
BL51 BANKED LINKER/LOCATER V6.22                                                      10/13/2015  11:38:09  PAGE 23


  C:426CH         PUBLIC        Convert_Pos
  -------         PROC          TPSTATE
  C:5E69H         LINE#         15
  C:5E69H         LINE#         16
  C:5E69H         LINE#         17
  C:5E6EH         LINE#         18
  -------         ENDPROC       TPSTATE
  -------         PROC          SPISTAR
  C:5E35H         LINE#         20
  C:5E35H         LINE#         21
  C:5E35H         LINE#         22
  C:5E37H         LINE#         23
  C:5E39H         LINE#         24
  C:5E3BH         LINE#         25
  C:5E3DH         LINE#         26
  -------         ENDPROC       SPISTAR
  -------         PROC          _WRITECHARTO7843
  D:0007H         SYMBOL        num
  -------         DO            
  D:0006H         SYMBOL        count
  -------         ENDDO         
  C:5CB2H         LINE#         28
  C:5CB2H         LINE#         29
  C:5CB2H         LINE#         30
  C:5CB4H         LINE#         31
  C:5CB6H         LINE#         32
  C:5CB6H         LINE#         33
  C:5CB6H         LINE#         34
  C:5CBAH         LINE#         35
  C:5CBCH         LINE#         36
  C:5CC1H         LINE#         37
  C:5CC6H         LINE#         38
  C:5CCBH         LINE#         39
  -------         ENDPROC       _WRITECHARTO7843
  -------         PROC          READFROMCHARFROM7843
  -------         DO            
  D:0005H         SYMBOL        count
  D:0006H         SYMBOL        Num
  -------         ENDDO         
  C:5C31H         LINE#         41
  C:5C31H         LINE#         42
  C:5C31H         LINE#         43
  C:5C33H         LINE#         44
  C:5C35H         LINE#         45
  C:5C35H         LINE#         46
  C:5C35H         LINE#         47
  C:5C3CH         LINE#         48
  C:5C41H         LINE#         49
  C:5C46H         LINE#         50
  C:5C49H         LINE#         51
  C:5C49H         LINE#         52
  C:5C4DH         LINE#         53
  C:5C4DH         LINE#         55
  C:5C52H         LINE#         57
  C:5C52H         LINE#         58
  -------         ENDPROC       READFROMCHARFROM7843
  -------         PROC          _ADS_READ_AD
BL51 BANKED LINKER/LOCATER V6.22                                                      10/13/2015  11:38:09  PAGE 24


  D:0007H         SYMBOL        CMD
  -------         DO            
  D:0006H         SYMBOL        l
  -------         ENDDO         
  C:5CFEH         LINE#         60
  C:5CFEH         LINE#         61
  C:5CFEH         LINE#         63
  C:5D00H         LINE#         64
  C:5D03H         LINE#         65
  C:5D09H         LINE#         66
  C:5D0FH         LINE#         67
  C:5D12H         LINE#         68
  C:5D14H         LINE#         69
  C:5D14H         LINE#         70
  -------         ENDPROC       _ADS_READ_AD
  -------         PROC          _ADS_READ_XY
  D:0001H         SYMBOL        xy
  -------         DO            
  D:0002H         SYMBOL        i
  X:032DH         SYMBOL        j
  X:032FH         SYMBOL        buf
  X:034DH         SYMBOL        sum
  X:034FH         SYMBOL        temp
  -------         ENDDO         
  C:3D50H         LINE#         76
  C:3D52H         LINE#         77
  C:3D52H         LINE#         80
  C:3D59H         LINE#         82
  C:3D5BH         LINE#         83
  C:3D5BH         LINE#         84
  C:3D7AH         LINE#         85
  C:3D85H         LINE#         86
  C:3D88H         LINE#         87
  C:3D88H         LINE#         88
  C:3DA8H         LINE#         89
  C:3DA8H         LINE#         90
  C:3DDAH         LINE#         91
  C:3DDAH         LINE#         92
  C:3DE2H         LINE#         93
  C:3E14H         LINE#         94
  C:3E38H         LINE#         95
  C:3E38H         LINE#         96
  C:3E4CH         LINE#         97
  C:3E5AH         LINE#         98
  C:3E61H         LINE#         99
  C:3E91H         LINE#         100
  C:3EA6H         LINE#         101
  C:3EA6H         LINE#         102
  -------         ENDPROC       _ADS_READ_XY
  -------         PROC          _READ_ADS
  X:03D2H         SYMBOL        x
  X:03D5H         SYMBOL        y
  -------         DO            
  X:03D8H         SYMBOL        xtemp
  D:0006H         SYMBOL        ytemp
  -------         ENDDO         
  C:526BH         LINE#         105
BL51 BANKED LINKER/LOCATER V6.22                                                      10/13/2015  11:38:09  PAGE 25


  C:5276H         LINE#         106
  C:5276H         LINE#         108
  C:5283H         LINE#         109
  C:5288H         LINE#         110
  C:52A2H         LINE#         111
  C:52BAH         LINE#         112
  C:52CBH         LINE#         113
  C:52CDH         LINE#         114
  -------         ENDPROC       _READ_ADS
  -------         PROC          _READ_ADS2
  X:0396H         SYMBOL        x
  X:0399H         SYMBOL        y
  -------         DO            
  X:039CH         SYMBOL        x1
  X:039EH         SYMBOL        y1
  X:03A0H         SYMBOL        x2
  X:03A2H         SYMBOL        y2
  D:0007H         SYMBOL        flag
  -------         ENDDO         
  C:413BH         LINE#         119
  C:4146H         LINE#         120
  C:4146H         LINE#         124
  C:415DH         LINE#         125
  C:4162H         LINE#         126
  C:4179H         LINE#         127
  C:417EH         LINE#         128
  C:4214H         LINE#         130
  C:4214H         LINE#         131
  C:423DH         LINE#         132
  C:4266H         LINE#         133
  C:4269H         LINE#         134
  C:426BH         LINE#         135
  -------         ENDPROC       _READ_ADS2
  -------         PROC          READ_TP_ONCE
  -------         DO            
  X:03E9H         SYMBOL        re
  X:03EAH         SYMBOL        x1
  X:03ECH         SYMBOL        y1
  -------         ENDDO         
  C:509EH         LINE#         137
  C:509EH         LINE#         138
  C:509EH         LINE#         139
  C:50A3H         LINE#         141
  C:50A9H         LINE#         142
  C:50A9H         LINE#         143
  C:50C3H         LINE#         144
  C:50CAH         LINE#         145
  C:50E4H         LINE#         146
  C:510CH         LINE#         147
  C:510CH         LINE#         148
  C:5111H         LINE#         149
  C:5111H         LINE#         150
  C:5113H         LINE#         151
  C:5118H         LINE#         152
  -------         ENDPROC       READ_TP_ONCE
  -------         PROC          _DROW_TOUCH_POINT
  X:040CH         SYMBOL        x
BL51 BANKED LINKER/LOCATER V6.22                                                      10/13/2015  11:38:09  PAGE 26


  X:040EH         SYMBOL        y
  C:455EH         LINE#         157
  C:456CH         LINE#         158
  C:456CH         LINE#         159
  C:4596H         LINE#         160
  C:45CAH         LINE#         161
  C:45E9H         LINE#         162
  C:4608H         LINE#         163
  C:4627H         LINE#         164
  -------         ENDPROC       _DROW_TOUCH_POINT
  -------         PROC          CONVERT_POS
  -------         DO            
  X:0429H         SYMBOL        l
  -------         ENDDO         
  C:426CH         LINE#         169
  C:426CH         LINE#         170
  C:426CH         LINE#         171
  C:4271H         LINE#         172
  C:428DH         LINE#         173
  C:428DH         LINE#         174
  C:4293H         LINE#         175
  C:42FEH         LINE#         176
  C:4369H         LINE#         177
  C:4369H         LINE#         178
  C:436EH         LINE#         179
  -------         ENDPROC       CONVERT_POS
  -------         PROC          TOUCH_ADJUST
  -------         DO            
  X:02C8H         SYMBOL        vx1
  X:02CCH         SYMBOL        vx2
  X:02D0H         SYMBOL        vy1
  X:02D4H         SYMBOL        vy2
  X:02D8H         SYMBOL        chx1
  X:02DAH         SYMBOL        chx2
  X:02DCH         SYMBOL        chy1
  X:02DEH         SYMBOL        chy2
  X:02E0H         SYMBOL        lx
  X:02E2H         SYMBOL        ly
  X:02E4H         SYMBOL        p
  X:0304H         SYMBOL        cnt
  -------         ENDDO         
  C:0046H         LINE#         184
  C:0046H         LINE#         185
  C:0046H         LINE#         190
  C:004BH         LINE#         191
  C:004CH         LINE#         192
  C:0054H         LINE#         193
  C:005CH         LINE#         194
  C:0061H         LINE#         195
  C:0069H         LINE#         196
  C:0069H         LINE#         197
  C:006CH         LINE#         198
  C:006CH         LINE#         199
  C:006CH         LINE#         200
  C:006FH         LINE#         201
  C:006FH         LINE#         202
  C:0075H         LINE#         203
BL51 BANKED LINKER/LOCATER V6.22                                                      10/13/2015  11:38:09  PAGE 27


  C:0075H         LINE#         204
  C:0095H         LINE#         205
  C:00B1H         LINE#         206
  C:00B7H         LINE#         207
  C:00B7H         LINE#         208
  C:00C9H         LINE#         209
  C:00C9H         LINE#         210
  C:00C9H         LINE#         211
  C:00D0H         LINE#         212
  C:00D3H         LINE#         213
  C:00D3H         LINE#         214
  C:00D3H         LINE#         215
  C:00D5H         LINE#         216
  C:00D7H         LINE#         217
  C:00D7H         LINE#         218
  C:00DEH         LINE#         219
  C:00E1H         LINE#         220
  C:00E1H         LINE#         221
  C:00E1H         LINE#         222
  C:00E3H         LINE#         223
  C:00E6H         LINE#         224
  C:00E6H         LINE#         225
  C:00EDH         LINE#         226
  C:00F0H         LINE#         227
  C:00F0H         LINE#         228
  C:00F0H         LINE#         229
  C:00F8H         LINE#         230
  C:00FBH         LINE#         231
  C:00FBH         LINE#         232
  C:0102H         LINE#         233
  C:0105H         LINE#         234
  C:0105H         LINE#         235
  C:0105H         LINE#         236
  C:01B0H         LINE#         237
  C:0258H         LINE#         238
  C:02EBH         LINE#         239
  C:0393H         LINE#         241
  C:043EH         LINE#         242
  C:04E6H         LINE#         243
  C:0579H         LINE#         244
  C:0621H         LINE#         247
  C:075FH         LINE#         248
  C:075FH         LINE#         249
  C:0764H         LINE#         250
  C:076BH         LINE#         251
  C:0776H         LINE#         252
  C:0779H         LINE#         253
  C:0779H         LINE#         254
  C:07DFH         LINE#         255
  C:0821H         LINE#         258
  C:0828H         LINE#         259
  C:082FH         LINE#         260
  C:0837H         LINE#         262
  C:0844H         LINE#         263
  C:0891H         LINE#         264
  C:08A6H         LINE#         265
  C:08F5H         LINE#         266
BL51 BANKED LINKER/LOCATER V6.22                                                      10/13/2015  11:38:09  PAGE 28


  C:090AH         LINE#         267
  C:0953H         LINE#         268
  C:0968H         LINE#         269
  C:09B1H         LINE#         271
  C:09C1H         LINE#         272
  C:0A0FH         LINE#         273
  C:0A26H         LINE#         274
  C:0A76H         LINE#         275
  C:0A8DH         LINE#         276
  C:0AD7H         LINE#         277
  C:0AEEH         LINE#         278
  C:0B38H         LINE#         280
  C:0B48H         LINE#         281
  C:0B90H         LINE#         282
  C:0BA7H         LINE#         283
  C:0BF1H         LINE#         284
  C:0C08H         LINE#         285
  C:0C52H         LINE#         286
  C:0C69H         LINE#         287
  C:0CB3H         LINE#         289
  C:0CCAH         LINE#         290
  C:0CDCH         LINE#         291
  C:0CDFH         LINE#         293
  C:0CE6H         LINE#         295
  C:0CE6H         LINE#         296
  C:0CE6H         LINE#         297
  C:0CE6H         LINE#         298
  -------         ENDPROC       TOUCH_ADJUST
  -------         PROC          POINT
  -------         DO            
  X:0410H         SYMBOL        t
  -------         ENDDO         
  C:4802H         LINE#         299
  C:4802H         LINE#         300
  C:4802H         LINE#         301
  C:480CH         LINE#         303
  C:480CH         LINE#         304
  C:480CH         LINE#         305
  C:4812H         LINE#         306
  C:4812H         LINE#         307
  C:481CH         LINE#         308
  C:4822H         LINE#         309
  C:4822H         LINE#         312
  C:4855H         LINE#         313
  C:4888H         LINE#         314
  C:4899H         LINE#         315
  C:4899H         LINE#         317
  C:489CH         LINE#         319
  C:489CH         LINE#         320
  C:48BAH         LINE#         321
  C:48DAH         LINE#         322
  -------         ENDPROC       POINT
  -------         ENDMOD        TOUCH

  -------         MODULE        PCF8574T
  C:0000H         SYMBOL        _ICE_DUMMY_
  D:0090H         PUBLIC        P1
BL51 BANKED LINKER/LOCATER V6.22                                                      10/13/2015  11:38:09  PAGE 29


  C:5E2BH         PUBLIC        S_ACK
  C:5828H         PUBLIC        _ReadNbyte
  C:5D32H         PUBLIC        I2C_Delay
  C:5A6DH         PUBLIC        _WriteNbyte
  C:0026H         PUBLIC        I2C_ReadAbyte
  C:5CE6H         PUBLIC        _PCF8574_Single_ReadI2C
  C:5B59H         PUBLIC        _I2C_WriteAbyte
  C:5D9DH         PUBLIC        _PCF8574_Single_WriteI2C
  C:5C5FH         PUBLIC        _I2C_Check_ACK
  C:5DE6H         PUBLIC        I2C_Start
  C:5E59H         PUBLIC        S_NoACK
  C:5E21H         PUBLIC        I2C_Stop
  B:0090H.0       PUBLIC        SDA
  B:0090H.1       PUBLIC        SCL
  B:00D0H.5       PUBLIC        F0
  C:5D2DH         SYMBOL        L?0041
  -------         PROC          L?0040
  -------         ENDPROC       L?0040
  C:5D2DH         SYMBOL        L?0041
  -------         PROC          I2C_DELAY
  -------         DO            
  D:0006H         SYMBOL        i
  -------         ENDDO         
  C:5D32H         LINE#         31
  C:5D32H         LINE#         32
  C:5D32H         LINE#         37
  C:5D36H         LINE#         38
  C:5D36H         LINE#         39
  C:5D36H         LINE#         40
  C:5D3BH         LINE#         41
  C:5D3FH         LINE#         42
  -------         ENDPROC       I2C_DELAY
  -------         PROC          I2C_START
  C:5DE6H         LINE#         45
  C:5DE6H         LINE#         46
  C:5DE6H         LINE#         47
  C:5DE6H         LINE#         48
  C:5DE6H         LINE#         49
  C:5DE6H         LINE#         50
  C:5DE9H         LINE#         51
  C:5DEBH         LINE#         52
  C:5DEEH         LINE#         53
  C:5DF0H         LINE#         54
  -------         ENDPROC       I2C_START
  -------         PROC          I2C_STOP
  C:5E21H         LINE#         58
  C:5E21H         LINE#         59
  C:5E21H         LINE#         60
  C:5E23H         LINE#         61
  C:5E23H         LINE#         62
  C:5E23H         LINE#         63
  C:5E26H         LINE#         64
  C:5E28H         LINE#         65
  -------         ENDPROC       I2C_STOP
  -------         PROC          S_ACK
  C:5E2BH         LINE#         68
  C:5E2BH         LINE#         69
BL51 BANKED LINKER/LOCATER V6.22                                                      10/13/2015  11:38:09  PAGE 30


  C:5E2BH         LINE#         70
  C:5E2DH         LINE#         71
  C:5E2DH         LINE#         72
  C:5E2DH         LINE#         73
  C:5E30H         LINE#         74
  C:5E32H         LINE#         75
  -------         ENDPROC       S_ACK
  -------         PROC          S_NOACK
  C:5E59H         LINE#         78
  C:5E59H         LINE#         79
  C:5E59H         LINE#         80
  C:5E59H         LINE#         81
  C:5E59H         LINE#         82
  C:5E59H         LINE#         83
  C:5E5CH         LINE#         84
  C:5E5EH         LINE#         85
  -------         ENDPROC       S_NOACK
  C:5C5AH         SYMBOL        L?0043
  -------         PROC          L?0042
  -------         ENDPROC       L?0042
  C:5C5AH         SYMBOL        L?0043
  -------         PROC          _I2C_CHECK_ACK
  D:0007H         SYMBOL        ack
  C:5C5FH         LINE#         89
  C:5C5FH         LINE#         90
  C:5C5FH         LINE#         91
  C:5C63H         LINE#         92
  C:5C67H         LINE#         94
  C:5C69H         LINE#         95
  C:5C69H         LINE#         96
  C:5C69H         LINE#         97
  C:5C6CH         LINE#         98
  C:5C70H         LINE#         99
  C:5C72H         LINE#         100
  -------         ENDPROC       _I2C_CHECK_ACK
  -------         PROC          L?0044
  -------         ENDPROC       L?0044
  -------         PROC          _I2C_WRITEABYTE
  D:0005H         SYMBOL        dat
  -------         DO            
  D:0004H         SYMBOL        i
  -------         ENDDO         
  C:5B59H         LINE#         104
  C:5B5BH         LINE#         105
  C:5B5BH         LINE#         107
  C:5B5DH         LINE#         109
  C:5B5DH         LINE#         110
  C:5B65H         LINE#         111
  C:5B67H         LINE#         112
  C:5B6BH         LINE#         113
  C:5B6BH         LINE#         114
  C:5B6BH         LINE#         115
  C:5B6EH         LINE#         116
  C:5B70H         LINE#         117
  C:5B73H         LINE#         118
  C:5B73H         LINE#         119
  C:5B75H         LINE#         120
BL51 BANKED LINKER/LOCATER V6.22                                                      10/13/2015  11:38:09  PAGE 31


  -------         ENDPROC       _I2C_WRITEABYTE
  -------         PROC          I2C_READABYTE
  -------         DO            
  D:0004H         SYMBOL        i
  D:0005H         SYMBOL        dat
  -------         ENDDO         
  C:0026H         LINE#         124
  C:0026H         LINE#         125
  C:0026H         LINE#         127
  C:0028H         LINE#         128
  C:002AH         LINE#         130
  C:002AH         LINE#         131
  C:002CH         LINE#         132
  C:002FH         LINE#         133
  C:0033H         LINE#         134
  C:0037H         LINE#         135
  C:0039H         LINE#         136
  C:003CH         LINE#         137
  C:003CH         LINE#         138
  C:003EH         LINE#         139
  C:0040H         LINE#         140
  -------         ENDPROC       I2C_READABYTE
  -------         PROC          _WRITENBYTE
  X:03EEH         SYMBOL        addr
  D:0001H         SYMBOL        p
  X:03F2H         SYMBOL        number
  C:5A6DH         LINE#         143
  C:5A70H         LINE#         145
  C:5A70H         LINE#         146
  C:5A70H         LINE#         147
  C:5A70H         LINE#         148
  C:5A73H         LINE#         149
  C:5A76H         LINE#         150
  C:5A76H         LINE#         151
  C:5A78H         LINE#         152
  C:5A7BH         LINE#         153
  C:5A7EH         LINE#         154
  C:5A7EH         LINE#         156
  C:5A7EH         LINE#         157
  C:5A8CH         LINE#         158
  C:5A91H         LINE#         159
  C:5A94H         LINE#         160
  C:5A94H         LINE#         161
  C:5A9CH         LINE#         162
  C:5A9CH         LINE#         163
  C:5A9CH         LINE#         164
  -------         ENDPROC       _WRITENBYTE
  -------         PROC          _READNBYTE
  X:03F3H         SYMBOL        addr
  D:0001H         SYMBOL        p
  X:03F7H         SYMBOL        number
  C:5828H         LINE#         169
  C:582BH         LINE#         171
  C:582BH         LINE#         172
  C:582BH         LINE#         173
  C:582BH         LINE#         174
  C:582EH         LINE#         175
BL51 BANKED LINKER/LOCATER V6.22                                                      10/13/2015  11:38:09  PAGE 32


  C:5831H         LINE#         176
  C:5831H         LINE#         177
  C:5833H         LINE#         178
  C:5836H         LINE#         179
  C:5839H         LINE#         180
  C:5839H         LINE#         181
  C:583CH         LINE#         182
  C:583EH         LINE#         183
  C:5841H         LINE#         184
  C:5844H         LINE#         185
  C:5844H         LINE#         187
  C:5844H         LINE#         188
  C:5852H         LINE#         189
  C:585DH         LINE#         190
  C:585DH         LINE#         191
  C:5865H         LINE#         192
  C:5868H         LINE#         193
  C:5868H         LINE#         194
  C:5868H         LINE#         195
  C:5868H         LINE#         196
  -------         ENDPROC       _READNBYTE
  -------         PROC          _PCF8574_SINGLE_WRITEI2C
  D:0007H         SYMBOL        REG_Address
  D:0003H         SYMBOL        REG_data
  -------         DO            
  D:0005H         SYMBOL        t
  -------         ENDDO         
  C:5D9DH         LINE#         203
  C:5D9FH         LINE#         204
  C:5D9FH         LINE#         205
  C:5DA2H         LINE#         206
  C:5DA2H         LINE#         207
  C:5DA5H         LINE#         208
  C:5DAAH         LINE#         209
  -------         ENDPROC       _PCF8574_SINGLE_WRITEI2C
  -------         PROC          _PCF8574_SINGLE_READI2C
  D:0007H         SYMBOL        REG_Address
  -------         DO            
  D:0005H         SYMBOL        REG_data
  D:0005H         SYMBOL        t
  -------         ENDDO         
  C:5CE6H         LINE#         215
  C:5CE6H         LINE#         216
  C:5CE6H         LINE#         224
  C:5CEBH         LINE#         225
  C:5CEBH         LINE#         227
  C:5CEEH         LINE#         228
  C:5CF3H         LINE#         229
  C:5CF8H         LINE#         230
  C:5CFBH         LINE#         231
  C:5CFDH         LINE#         232
  -------         ENDPROC       _PCF8574_SINGLE_READI2C
  -------         ENDMOD        PCF8574T

  -------         MODULE        UART
  C:0000H         SYMBOL        _ICE_DUMMY_
  D:0090H         PUBLIC        P1
BL51 BANKED LINKER/LOCATER V6.22                                                      10/13/2015  11:38:09  PAGE 33


  D:00B0H         PUBLIC        P3
  B:00A8H.7       PUBLIC        EA
  C:436FH         PUBLIC        Send_Com
  B:00A8H.4       PUBLIC        ES
  B:0098H.0       PUBLIC        RI
  B:0098H.1       PUBLIC        TI
  X:0288H         PUBLIC        DBufferFlag
  X:0289H         PUBLIC        BufferA
  C:0020H         PUBLIC        RFID_Test
  D:0099H         PUBLIC        SBUF
  D:0087H         PUBLIC        PCON
  D:0098H         PUBLIC        SCON
  D:0089H         PUBLIC        TMOD
  C:5A07H         PUBLIC        _Uart1_SendString
  C:5A3AH         PUBLIC        _Uart2_SendString
  C:5E3EH         PUBLIC        _Uart1_SendData
  C:5E47H         PUBLIC        _Uart2_SendData
  X:02BBH         PUBLIC        uart_flag
  D:00AFH         PUBLIC        IE2
  D:008EH         PUBLIC        AUXR
  C:5541H         PUBLIC        _Init_Uart1
  C:5DADH         PUBLIC        Init_Uart2
  D:00E0H         PUBLIC        ACC
  B:00A8H.3       PUBLIC        ET1
  D:008DH         PUBLIC        TH1
  X:02BCH         PUBLIC        BAUD1
  B:00D0H.0       PUBLIC        P
  C:56C1H         PUBLIC        Uart2
  D:008BH         PUBLIC        TL1
  B:0088H.6       PUBLIC        TR1
  C:549CH         PUBLIC        Uart1_Isr
  D:009BH         PUBLIC        S2BUF
  D:009AH         PUBLIC        S2CON
  D:009CH         PUBLIC        BRT
  X:02BDH         PUBLIC        BufferCount
  X:02BEH         PUBLIC        gsm_ch
  B:0020H.0       PUBLIC        busy1
  B:0020H.1       PUBLIC        busy2
  -------         PROC          _INIT_UART1
  X:0238H         SYMBOL        baud
  C:5541H         LINE#         52
  C:5547H         LINE#         53
  C:5547H         LINE#         54
  C:5549H         LINE#         57
  C:554CH         LINE#         62
  C:5565H         LINE#         63
  C:5565H         LINE#         64
  C:556FH         LINE#         65
  C:5572H         LINE#         66
  C:5572H         LINE#         68
  C:5575H         LINE#         69
  C:5578H         LINE#         70
  C:557AH         LINE#         71
  C:5584H         LINE#         72
  C:5586H         LINE#         73
  C:5588H         LINE#         74
  C:558BH         LINE#         76
BL51 BANKED LINKER/LOCATER V6.22                                                      10/13/2015  11:38:09  PAGE 34


  C:558DH         LINE#         78
  C:558FH         LINE#         79
  -------         ENDPROC       _INIT_UART1
  -------         PROC          UART1_ISR
  -------         DO            
  D:000FH         SYMBOL        ch
  -------         ENDDO         
  C:549CH         LINE#         84
  C:54A7H         LINE#         89
  C:54AAH         LINE#         90
  C:54AAH         LINE#         92
  C:54B0H         LINE#         94
  C:54B2H         LINE#         95
  C:54B4H         LINE#         97
  C:54C7H         LINE#         98
  C:54D3H         LINE#         99
  C:54D3H         LINE#         100
  C:54D6H         LINE#         101
  C:54DBH         LINE#         102
  C:54DDH         LINE#         104
  C:54DDH         LINE#         105
  C:54DFH         LINE#         106
  C:54DFH         LINE#         111
  C:54DFH         LINE#         113
  C:54E2H         LINE#         114
  C:54E2H         LINE#         115
  C:54E4H         LINE#         116
  C:54E6H         LINE#         117
  C:54E6H         LINE#         118
  -------         ENDPROC       UART1_ISR
  -------         PROC          _UART1_SENDDATA
  D:0007H         SYMBOL        dat
  C:5E3EH         LINE#         125
  C:5E3EH         LINE#         126
  C:5E3EH         LINE#         127
  C:5E41H         LINE#         128
  C:5E42H         LINE#         129
  C:5E42H         LINE#         130
  C:5E42H         LINE#         136
  C:5E42H         LINE#         138
  C:5E42H         LINE#         144
  C:5E42H         LINE#         145
  C:5E44H         LINE#         146
  C:5E46H         LINE#         147
  -------         ENDPROC       _UART1_SENDDATA
  -------         PROC          _UART1_SENDSTRING
  X:0241H         SYMBOL        s
  C:5A07H         LINE#         154
  C:5A12H         LINE#         155
  C:5A12H         LINE#         156
  C:5A22H         LINE#         157
  C:5A22H         LINE#         158
  C:5A37H         LINE#         159
  C:5A39H         LINE#         160
  -------         ENDPROC       _UART1_SENDSTRING
  -------         PROC          INIT_UART2
  C:5DADH         LINE#         162
BL51 BANKED LINKER/LOCATER V6.22                                                      10/13/2015  11:38:09  PAGE 35


  C:5DADH         LINE#         163
  C:5DADH         LINE#         165
  C:5DB0H         LINE#         172
  C:5DB3H         LINE#         173
  C:5DB6H         LINE#         174
  C:5DB9H         LINE#         175
  C:5DBBH         LINE#         176
  -------         ENDPROC       INIT_UART2
  -------         PROC          UART2
  -------         DO            
  D:000FH         SYMBOL        ch
  X:0287H         SYMBOL        gsm_count
  -------         ENDDO         
  C:56C1H         LINE#         185
  C:56CCH         LINE#         191
  C:56D1H         LINE#         192
  C:56D1H         LINE#         193
  C:56D3H         LINE#         195
  C:56E2H         LINE#         196
  C:56E8H         LINE#         198
  C:56EEH         LINE#         199
  C:56F0H         LINE#         201
  C:56F1H         LINE#         202
  C:56F2H         LINE#         203
  C:56F3H         LINE#         204
  C:56F4H         LINE#         205
  C:56F5H         LINE#         206
  C:56F8H         LINE#         226
  C:56F8H         LINE#         227
  C:56FDH         LINE#         228
  C:56FDH         LINE#         229
  C:5700H         LINE#         230
  C:5702H         LINE#         231
  C:5702H         LINE#         233
  -------         ENDPROC       UART2
  -------         PROC          _UART2_SENDDATA
  D:0007H         SYMBOL        dat
  C:5E47H         LINE#         242
  C:5E47H         LINE#         243
  C:5E47H         LINE#         244
  C:5E4AH         LINE#         245
  C:5E4BH         LINE#         246
  C:5E4BH         LINE#         247
  C:5E4BH         LINE#         253
  C:5E4BH         LINE#         255
  C:5E4BH         LINE#         261
  C:5E4BH         LINE#         262
  C:5E4DH         LINE#         263
  C:5E4FH         LINE#         264
  -------         ENDPROC       _UART2_SENDDATA
  -------         PROC          _UART2_SENDSTRING
  X:023BH         SYMBOL        s
  C:5A3AH         LINE#         271
  C:5A45H         LINE#         272
  C:5A45H         LINE#         273
  C:5A55H         LINE#         274
  C:5A55H         LINE#         275
BL51 BANKED LINKER/LOCATER V6.22                                                      10/13/2015  11:38:09  PAGE 36


  C:5A6AH         LINE#         276
  C:5A6CH         LINE#         277
  -------         ENDPROC       _UART2_SENDSTRING
  -------         PROC          SEND_COM
  -------         DO            
  D:0007H         SYMBOL        i
  X:0238H         SYMBOL        Rfid_Id
  I:0021H         SYMBOL        Rfid_Value
  -------         ENDDO         
  C:436FH         LINE#         279
  C:436FH         LINE#         280
  C:436FH         LINE#         286
  C:438FH         LINE#         287
  C:43AFH         LINE#         289
  C:43B8H         LINE#         291
  C:43BAH         LINE#         292
  C:43D7H         LINE#         293
  C:43E8H         LINE#         294
  C:43F9H         LINE#         296
  C:4402H         LINE#         298
  C:4404H         LINE#         299
  C:441BH         LINE#         300
  C:442CH         LINE#         301
  C:443DH         LINE#         302
  C:4449H         LINE#         303
  C:4458H         LINE#         304
  C:445DH         LINE#         305
  C:4461H         LINE#         307
  -------         ENDPROC       SEND_COM
  -------         PROC          RFID_TEST
  C:0020H         LINE#         310
  C:0020H         LINE#         311
  C:0020H         LINE#         312
  -------         ENDPROC       RFID_TEST
  -------         ENDMOD        UART

  -------         MODULE        BMP085
  C:0000H         SYMBOL        _ICE_DUMMY_
  X:0305H         PUBLIC        pressure
  C:5E50H         PUBLIC        BMP085_Test
  D:0090H         PUBLIC        P1
  D:00B0H         PUBLIC        P3
  C:2FD3H         PUBLIC        _bmp085_conversion
  X:0309H         PUBLIC        b1
  X:030BH         PUBLIC        b2
  C:48DBH         PUBLIC        InitBMP085
  X:030DH         PUBLIC        temperature
  C:5B01H         PUBLIC        bmp085ReadPressure
  C:51A9H         SYMBOL        _?ix1000
  C:51B9H         SYMBOL        _?ix1001
  C:51CCH         SYMBOL        _?ix1002
  C:20EDH         PUBLIC        bmp085Convert
  C:51EDH         SYMBOL        _?ix1003
  X:0311H         PUBLIC        mb
  X:0313H         PUBLIC        mc
  C:58AEH         PUBLIC        _Multiple_read
  X:0315H         PUBLIC        md
BL51 BANKED LINKER/LOCATER V6.22                                                      10/13/2015  11:38:09  PAGE 37


  C:4D5AH         PUBLIC        DATA_Diplay
  X:0317H         PUBLIC        tempdat
  X:031BH         PUBLIC        ac1
  X:031DH         PUBLIC        outdata
  X:0323H         PUBLIC        ac2
  C:5BC6H         PUBLIC        bmp085ReadTemp
  X:0325H         PUBLIC        ac3
  X:0327H         PUBLIC        ac4
  X:0329H         PUBLIC        ac5
  X:032BH         PUBLIC        ac6
  -------         PROC          _MULTIPLE_READ
  X:0262H         SYMBOL        ST_Address
  -------         DO            
  X:0263H         SYMBOL        msb
  X:0264H         SYMBOL        lsb
  D:0006H         SYMBOL        _data
  -------         ENDDO         
  C:58AEH         LINE#         24
  C:58B3H         LINE#         25
  C:58B3H         LINE#         28
  C:58B6H         LINE#         29
  C:58BBH         LINE#         30
  C:58C3H         LINE#         31
  C:58C6H         LINE#         32
  C:58CBH         LINE#         34
  C:58D3H         LINE#         36
  C:58D6H         LINE#         37
  C:58DEH         LINE#         39
  C:58E1H         LINE#         40
  C:58E4H         LINE#         42
  C:58E9H         LINE#         43
  C:58EEH         LINE#         44
  C:58EEH         LINE#         45
  -------         ENDPROC       _MULTIPLE_READ
  -------         PROC          INITBMP085
  -------         DO            
  X:0238H         SYMBOL        tmp
  X:0248H         SYMBOL        pres
  -------         ENDDO         
  C:48DBH         LINE#         51
  C:48DBH         LINE#         52
  C:48DBH         LINE#         53
  C:48EEH         LINE#         54
  C:4901H         LINE#         56
  C:490EH         LINE#         57
  C:491BH         LINE#         58
  C:4928H         LINE#         59
  C:4935H         LINE#         60
  C:4942H         LINE#         61
  C:494FH         LINE#         62
  C:495CH         LINE#         63
  C:4969H         LINE#         64
  C:4976H         LINE#         65
  C:4983H         LINE#         66
  C:4990H         LINE#         68
  C:49A1H         LINE#         69
  -------         ENDPROC       INITBMP085
BL51 BANKED LINKER/LOCATER V6.22                                                      10/13/2015  11:38:09  PAGE 38


  -------         PROC          BMP085READTEMP
  C:5BC6H         LINE#         72
  C:5BC6H         LINE#         73
  C:5BC6H         LINE#         75
  C:5BC9H         LINE#         77
  C:5BCEH         LINE#         78
  C:5BD3H         LINE#         79
  C:5BD8H         LINE#         80
  C:5BDBH         LINE#         81
  C:5BDEH         LINE#         83
  C:5BE9H         LINE#         84
  -------         ENDPROC       BMP085READTEMP
  -------         PROC          BMP085READPRESSURE
  -------         DO            
  D:0004H         SYMBOL        pressure
  -------         ENDDO         
  C:5B01H         LINE#         86
  C:5B01H         LINE#         87
  C:5B01H         LINE#         88
  C:5B09H         LINE#         90
  C:5B0CH         LINE#         91
  C:5B11H         LINE#         92
  C:5B16H         LINE#         93
  C:5B1BH         LINE#         94
  C:5B1EH         LINE#         95
  C:5B21H         LINE#         97
  C:5B26H         LINE#         98
  C:5B29H         LINE#         100
  C:5B29H         LINE#         102
  -------         ENDPROC       BMP085READPRESSURE
  -------         PROC          BMP085CONVERT
  -------         DO            
  X:0238H         SYMBOL        ut
  X:023AH         SYMBOL        up
  X:023EH         SYMBOL        x1
  X:0242H         SYMBOL        x2
  X:0246H         SYMBOL        b5
  X:024AH         SYMBOL        b6
  X:024EH         SYMBOL        x3
  X:0252H         SYMBOL        b3
  X:0256H         SYMBOL        p
  X:025AH         SYMBOL        b4
  X:025EH         SYMBOL        b7
  -------         ENDDO         
  C:20EDH         LINE#         105
  C:20EDH         LINE#         106
  C:20EDH         LINE#         107
  C:20F4H         LINE#         108
  C:20FCH         LINE#         112
  C:2107H         LINE#         113
  C:2110H         LINE#         115
  C:214AH         LINE#         116
  C:219AH         LINE#         117
  C:21C6H         LINE#         118
  C:21EAH         LINE#         120
  C:220AH         LINE#         122
  C:224BH         LINE#         123
BL51 BANKED LINKER/LOCATER V6.22                                                      10/13/2015  11:38:09  PAGE 39


  C:2275H         LINE#         124
  C:22A1H         LINE#         125
  C:22E6H         LINE#         128
  C:2310H         LINE#         129
  C:2358H         LINE#         130
  C:2396H         LINE#         131
  C:23CFH         LINE#         133
  C:240CH         LINE#         134
  C:2426H         LINE#         135
  C:244CH         LINE#         137
  C:2474H         LINE#         139
  C:24B3H         LINE#         140
  C:24D6H         LINE#         141
  C:24FAH         LINE#         142
  -------         ENDPROC       BMP085CONVERT
  -------         PROC          L?0012
  -------         ENDPROC       L?0012
  -------         PROC          _BMP085_CONVERSION
  X:026CH         SYMBOL        temp_data
  X:0270H         SYMBOL        p
  C:2FD3H         LINE#         145
  C:2FE4H         LINE#         146
  C:2FE4H         LINE#         147
  C:3015H         LINE#         148
  C:303CH         LINE#         149
  C:306CH         LINE#         150
  C:3092H         LINE#         151
  C:30C2H         LINE#         152
  C:30E8H         LINE#         153
  C:3117H         LINE#         154
  C:313CH         LINE#         155
  C:316BH         LINE#         156
  C:3190H         LINE#         157
  -------         ENDPROC       _BMP085_CONVERSION
  -------         PROC          DATA_DIPLAY
  -------         DO            
  X:0238H         SYMBOL        tmp
  X:0259H         SYMBOL        pres
  D:0004H         SYMBOL        temp_value
  -------         ENDDO         
  C:4D5AH         LINE#         161
  C:4D5AH         LINE#         162
  C:4D5AH         LINE#         163
  C:4D6DH         LINE#         164
  C:4D80H         LINE#         168
  C:4D83H         LINE#         170
  C:4D86H         LINE#         172
  C:4D8EH         LINE#         173
  C:4D96H         LINE#         174
  C:4D9EH         LINE#         175
  C:4DAFH         LINE#         178
  C:4DB2H         LINE#         179
  C:4DB5H         LINE#         181
  C:4DBDH         LINE#         182
  C:4DC5H         LINE#         183
  C:4DCDH         LINE#         184
  C:4DD5H         LINE#         185
BL51 BANKED LINKER/LOCATER V6.22                                                      10/13/2015  11:38:09  PAGE 40


  C:4DDDH         LINE#         186
  C:4DE5H         LINE#         188
  -------         ENDPROC       DATA_DIPLAY
  -------         PROC          BMP085_TEST
  C:5E50H         LINE#         192
  C:5E50H         LINE#         193
  C:5E50H         LINE#         196
  C:5E53H         LINE#         198
  C:5E56H         LINE#         199
  -------         ENDPROC       BMP085_TEST
  -------         ENDMOD        BMP085

  -------         MODULE        MMA7455
  C:0000H         SYMBOL        _ICE_DUMMY_
  D:0090H         PUBLIC        P1
  D:00B0H         PUBLIC        P3
  C:58EFH         PUBLIC        _Single_ReadI2C
  C:5B2AH         PUBLIC        _Single_WriteI2C
  C:5D15H         PUBLIC        delay5ms
  C:3A2EH         PUBLIC        MMA7455_sendxyz
  C:5DF3H         PUBLIC        MMA7455_Test
  X:03A4H         PUBLIC        xnegavalue
  X:03A5H         PUBLIC        ynegavalue
  X:03A6H         PUBLIC        table4
  C:5D7AH         SYMBOL        _?ix1000
  C:5D80H         SYMBOL        _?ix1001
  C:5D86H         SYMBOL        _?ix1002
  C:5D54H         PUBLIC        MMA7455_data_init
  X:03B0H         PUBLIC        xposivalue
  X:03B1H         PUBLIC        yposivalue
  C:53E5H         PUBLIC        MMA7455_self_test
  C:5DCAH         PUBLIC        MMA7455_delay50us
  -------         PROC          DELAY5MS
  -------         DO            
  I:0021H         SYMBOL        i
  -------         ENDDO         
  C:5D15H         LINE#         15
  C:5D15H         LINE#         16
  C:5D15H         LINE#         19
  C:5D1CH         LINE#         20
  C:5D2AH         LINE#         22
  -------         ENDPROC       DELAY5MS
  -------         PROC          MMA7455_DELAY50US
  -------         DO            
  D:0006H         SYMBOL        i
  -------         ENDDO         
  C:5DCAH         LINE#         25
  C:5DCAH         LINE#         26
  C:5DCAH         LINE#         28
  C:5DCEH         LINE#         29
  C:5DCEH         LINE#         30
  C:5DCEH         LINE#         31
  C:5DD3H         LINE#         32
  C:5DD7H         LINE#         33
  -------         ENDPROC       MMA7455_DELAY50US
  -------         PROC          _SINGLE_WRITEI2C
  X:023CH         SYMBOL        SlaveAddress
BL51 BANKED LINKER/LOCATER V6.22                                                      10/13/2015  11:38:09  PAGE 41


  X:023DH         SYMBOL        REG_Address
  X:023EH         SYMBOL        REG_data
  C:5B2AH         LINE#         38
  C:5B35H         LINE#         39
  C:5B35H         LINE#         40
  C:5B38H         LINE#         41
  C:5B40H         LINE#         42
  C:5B48H         LINE#         43
  C:5B50H         LINE#         44
  -------         ENDPROC       _SINGLE_WRITEI2C
  -------         PROC          _SINGLE_READI2C
  X:025DH         SYMBOL        SlaveAddress
  X:025EH         SYMBOL        REG_Address
  -------         DO            
  X:025FH         SYMBOL        REG_data
  -------         ENDDO         
  C:58EFH         LINE#         49
  C:58F7H         LINE#         50
  C:58F7H         LINE#         52
  C:58FAH         LINE#         53
  C:5903H         LINE#         54
  C:590BH         LINE#         55
  C:590EH         LINE#         56
  C:5916H         LINE#         57
  C:591EH         LINE#         59
  C:5921H         LINE#         60
  C:5924H         LINE#         61
  C:5929H         LINE#         62
  -------         ENDPROC       _SINGLE_READI2C
  -------         PROC          MMA7455_DATA_INIT
  C:5D54H         LINE#         67
  C:5D54H         LINE#         68
  C:5D54H         LINE#         69
  C:5D5AH         LINE#         70
  C:5D5EH         LINE#         71
  C:5D62H         LINE#         72
  C:5D66H         LINE#         73
  -------         ENDPROC       MMA7455_DATA_INIT
  -------         PROC          MMA7455_SELF_TEST
  -------         DO            
  X:0238H         SYMBOL        j
  X:0239H         SYMBOL        t
  X:023AH         SYMBOL        status
  X:023BH         SYMBOL        name
  -------         ENDDO         
  C:53E5H         LINE#         75
  C:53E5H         LINE#         76
  C:53E5H         LINE#         80
  C:53E8H         LINE#         81
  C:53F1H         LINE#         82
  C:53FDH         LINE#         83
  C:5409H         LINE#         84
  C:540CH         LINE#         85
  C:5418H         LINE#         87
  C:5421H         LINE#         88
  C:542AH         LINE#         89
  C:5433H         LINE#         91
BL51 BANKED LINKER/LOCATER V6.22                                                      10/13/2015  11:38:09  PAGE 42


  C:543BH         LINE#         92
  C:543BH         LINE#         95
  C:543EH         LINE#         96
  C:543EH         LINE#         98
  C:543EH         LINE#         101
  C:5440H         LINE#         102
  C:5440H         LINE#         103
  -------         ENDPROC       MMA7455_SELF_TEST
  -------         PROC          MMA7455_SENDXYZ
  -------         DO            
  X:0238H         SYMBOL        x1
  X:023AH         SYMBOL        x2
  X:023CH         SYMBOL        x3
  X:023EH         SYMBOL        xsign
  X:0240H         SYMBOL        x_data
  X:0244H         SYMBOL        status
  X:0245H         SYMBOL        x
  X:0247H         SYMBOL        y
  X:0249H         SYMBOL        z
  X:024BH         SYMBOL        X_Angle
  X:0251H         SYMBOL        Y_Angle
  X:0257H         SYMBOL        Z_Angle
  -------         ENDDO         
  C:3A2EH         LINE#         109
  C:3A2EH         LINE#         110
  C:3A2EH         LINE#         114
  C:3A67H         LINE#         116
  C:3A76H         LINE#         117
  C:3A85H         LINE#         118
  C:3A94H         LINE#         120
  C:3AADH         LINE#         121
  C:3ADAH         LINE#         122
  C:3AEAH         LINE#         124
  C:3AFBH         LINE#         126
  C:3B14H         LINE#         127
  C:3B41H         LINE#         128
  C:3B51H         LINE#         130
  C:3B62H         LINE#         132
  C:3B7BH         LINE#         133
  C:3BA8H         LINE#         134
  C:3BB8H         LINE#         136
  -------         ENDPROC       MMA7455_SENDXYZ
  -------         PROC          MMA7455_TEST
  C:5DF3H         LINE#         141
  C:5DF3H         LINE#         142
  C:5DF3H         LINE#         144
  C:5DF9H         LINE#         145
  C:5DF9H         LINE#         146
  C:5DFCH         LINE#         147
  C:5DFFH         LINE#         148
  C:5DFFH         LINE#         149
  -------         ENDPROC       MMA7455_TEST
  -------         ENDMOD        MMA7455

  -------         MODULE        ENC28J60_TEST
  C:0000H         SYMBOL        _ICE_DUMMY_
  D:0090H         PUBLIC        P1
BL51 BANKED LINKER/LOCATER V6.22                                                      10/13/2015  11:38:09  PAGE 43


  C:446AH         PUBLIC        enc28j60_test
  -------         PROC          ENC28J60_TEST
  -------         DO            
  I:0010H         SYMBOL        i
  I:0011H         SYMBOL        arptimer
  I:0012H         SYMBOL        j
  -------         ENDDO         
  C:446AH         LINE#         20
  C:446AH         LINE#         21
  C:446AH         LINE#         26
  C:446DH         LINE#         27
  C:4470H         LINE#         30
  C:4473H         LINE#         32
  C:4475H         LINE#         33
  C:4475H         LINE#         34
  C:4475H         LINE#         35
  C:4480H         LINE#         36
  C:4497H         LINE#         37
  C:44A1H         LINE#         38
  C:44A1H         LINE#         39
  C:44ADH         LINE#         40
  C:44ADH         LINE#         41
  C:44CBH         LINE#         42
  C:44DAH         LINE#         43
  C:44DAH         LINE#         44
  C:44DDH         LINE#         45
  C:44E0H         LINE#         46
  C:44E0H         LINE#         47
  C:44E5H         LINE#         62
  C:44EDH         LINE#         63
  C:44EDH         LINE#         64
  C:44F0H         LINE#         65
  C:44F4H         LINE#         66
  C:44F4H         LINE#         67
  C:44F7H         LINE#         68
  C:44F7H         LINE#         69
  C:450AH         LINE#         70
  C:450AH         LINE#         71
  C:450DH         LINE#         72
  C:4512H         LINE#         73
  C:4524H         LINE#         74
  C:4524H         LINE#         75
  C:4527H         LINE#         76
  C:452AH         LINE#         77
  C:452AH         LINE#         78
  C:452DH         LINE#         79
  C:4543H         LINE#         80
  C:4543H         LINE#         81
  C:4546H         LINE#         82
  C:4558H         LINE#         83
  C:4558H         LINE#         84
  C:455BH         LINE#         85
  C:455BH         LINE#         86
  C:455BH         LINE#         87
  C:455BH         LINE#         88
  -------         ENDPROC       ENC28J60_TEST
  -------         ENDMOD        ENC28J60_TEST
BL51 BANKED LINKER/LOCATER V6.22                                                      10/13/2015  11:38:09  PAGE 44



  -------         MODULE        ENC28J60
  C:0000H         SYMBOL        _ICE_DUMMY_
  D:0090H         PUBLIC        P1
  C:0006H         PUBLIC        _enc28j60Write
  C:49B2H         PUBLIC        enc28j60_init
  C:3EA7H         PUBLIC        _enc28j60PacketReceive
  C:5AD0H         PUBLIC        _enc28j60SetBank
  C:5633H         PUBLIC        _enc28j60ReadOp
  I:0014H         PUBLIC        NextPacketPtr
  C:59D3H         PUBLIC        _enc28j60PhyWrite
  C:5A9FH         PUBLIC        _enc28j60WriteOp
  C:5D8CH         PUBLIC        dev_send
  C:5676H         PUBLIC        _enc28j60ReadBuffer
  I:0016H         PUBLIC        Enc28j60Bank
  C:5C75H         PUBLIC        _delay_ms
  C:5E74H         PUBLIC        dev_init
  C:5DD8H         PUBLIC        dev_poll
  C:5E16H         PUBLIC        _delay_us
  C:4CBBH         PUBLIC        _enc28j60PacketSend
  C:570BH         PUBLIC        _enc28j60WriteBuffer
  C:586BH         PUBLIC        _enc28j60_read_phyreg
  C:5D67H         PUBLIC        _enc28j60Read
  -------         PROC          _DELAY_US
  D:0006H         SYMBOL        t1
  C:5E16H         LINE#         10
  C:5E16H         LINE#         11
  C:5E16H         LINE#         12
  C:5E20H         LINE#         13
  -------         ENDPROC       _DELAY_US
  -------         PROC          _DELAY_MS
  D:0006H         SYMBOL        t1
  -------         DO            
  I:0017H         SYMBOL        i
  -------         ENDDO         
  C:5C75H         LINE#         15
  C:5C75H         LINE#         16
  C:5C75H         LINE#         18
  C:5C7FH         LINE#         19
  C:5C7FH         LINE#         20
  C:5C86H         LINE#         21
  C:5C96H         LINE#         23
  -------         ENDPROC       _DELAY_MS
  C:562EH         SYMBOL        L?0050
  C:562FH         SYMBOL        L?0051
  -------         PROC          L?0049
  -------         ENDPROC       L?0049
  C:562EH         SYMBOL        L?0050
  C:562FH         SYMBOL        L?0051
  -------         PROC          _ENC28J60READOP
  X:0418H         SYMBOL        op
  X:0419H         SYMBOL        address
  -------         DO            
  X:041AH         SYMBOL        dat1
  -------         ENDDO         
  C:5633H         LINE#         25
  C:563BH         LINE#         26
BL51 BANKED LINKER/LOCATER V6.22                                                      10/13/2015  11:38:09  PAGE 45


  C:563BH         LINE#         30
  C:5642H         LINE#         32
  C:5652H         LINE#         33
  C:565AH         LINE#         35
  C:5669H         LINE#         38
  C:5670H         LINE#         39
  C:5675H         LINE#         40
  -------         ENDPROC       _ENC28J60READOP
  -------         PROC          _ENC28J60WRITEOP
  X:041BH         SYMBOL        op
  X:041CH         SYMBOL        address
  X:041DH         SYMBOL        mydat
  C:5A9FH         LINE#         42
  C:5AAAH         LINE#         43
  C:5AAAH         LINE#         45
  C:5AB1H         LINE#         47
  C:5AC1H         LINE#         49
  C:5AC9H         LINE#         51
  -------         ENDPROC       _ENC28J60WRITEOP
  -------         PROC          _ENC28J60SETBANK
  X:042AH         SYMBOL        address
  C:5AD0H         LINE#         54
  C:5AD5H         LINE#         55
  C:5AD5H         LINE#         56
  C:5ADCH         LINE#         57
  C:5ADCH         LINE#         58
  C:5AE5H         LINE#         59
  C:5AF7H         LINE#         60
  C:5B00H         LINE#         61
  C:5B00H         LINE#         62
  -------         ENDPROC       _ENC28J60SETBANK
  -------         PROC          _ENC28J60READ
  X:042BH         SYMBOL        address
  C:5D67H         LINE#         64
  C:5D6CH         LINE#         65
  C:5D6CH         LINE#         66
  C:5D6FH         LINE#         67
  C:5D79H         LINE#         68
  -------         ENDPROC       _ENC28J60READ
  -------         PROC          L?0052
  -------         ENDPROC       L?0052
  -------         PROC          _ENC28J60WRITE
  X:0421H         SYMBOL        address
  X:0422H         SYMBOL        mydat
  C:0006H         LINE#         70
  C:0010H         LINE#         71
  C:0010H         LINE#         72
  C:0013H         LINE#         73
  -------         ENDPROC       _ENC28J60WRITE
  -------         PROC          _ENC28J60_READ_PHYREG
  D:0007H         SYMBOL        address
  -------         DO            
  X:0423H         SYMBOL        mydat
  -------         ENDDO         
  C:586BH         LINE#         76
  C:586BH         LINE#         77
  C:586BH         LINE#         79
BL51 BANKED LINKER/LOCATER V6.22                                                      10/13/2015  11:38:09  PAGE 46


  C:5872H         LINE#         80
  C:5879H         LINE#         84
  C:5882H         LINE#         87
  C:5889H         LINE#         90
  C:5896H         LINE#         91
  C:58ADH         LINE#         93
  C:58ADH         LINE#         94
  -------         ENDPROC       _ENC28J60_READ_PHYREG
  -------         PROC          _ENC28J60PHYWRITE
  D:0007H         SYMBOL        address
  X:0425H         SYMBOL        mydat
  C:59D3H         LINE#         96
  C:59DBH         LINE#         97
  C:59DBH         LINE#         99
  C:59E2H         LINE#         101
  C:59EAH         LINE#         102
  C:59F4H         LINE#         104
  C:59FDH         LINE#         105
  C:59FDH         LINE#         106
  C:5A04H         LINE#         107
  C:5A06H         LINE#         108
  -------         ENDPROC       _ENC28J60PHYWRITE
  -------         PROC          _ENC28J60READBUFFER
  X:03F8H         SYMBOL        len
  X:03FAH         SYMBOL        dat
  C:5676H         LINE#         110
  C:5687H         LINE#         111
  C:5687H         LINE#         114
  C:568EH         LINE#         115
  C:5693H         LINE#         116
  C:56A1H         LINE#         117
  C:56A1H         LINE#         118
  C:56B8H         LINE#         119
  C:56BAH         LINE#         121
  -------         ENDPROC       _ENC28J60READBUFFER
  -------         PROC          _ENC28J60WRITEBUFFER
  X:03FDH         SYMBOL        len
  X:03FFH         SYMBOL        dat
  C:570BH         LINE#         124
  C:571CH         LINE#         125
  C:571CH         LINE#         127
  C:5723H         LINE#         128
  C:5727H         LINE#         129
  C:5735H         LINE#         130
  C:5735H         LINE#         131
  C:574CH         LINE#         132
  C:574EH         LINE#         134
  -------         ENDPROC       _ENC28J60WRITEBUFFER
  -------         PROC          _ENC28J60PACKETSEND
  X:0402H         SYMBOL        len
  X:0404H         SYMBOL        packet
  C:4CBBH         LINE#         144
  C:4CCCH         LINE#         145
  C:4CCCH         LINE#         147
  C:4CD3H         LINE#         148
  C:4CDAH         LINE#         151
  C:4CE7H         LINE#         152
BL51 BANKED LINKER/LOCATER V6.22                                                      10/13/2015  11:38:09  PAGE 47


  C:4CF9H         LINE#         155
  C:4D01H         LINE#         159
  C:4D10H         LINE#         160
  C:4D10H         LINE#         162
  C:4D19H         LINE#         163
  C:4D1BH         LINE#         165
  C:4D1BH         LINE#         166
  C:4D29H         LINE#         167
  C:4D3BH         LINE#         168
  C:4D51H         LINE#         169
  C:4D51H         LINE#         171
  -------         ENDPROC       _ENC28J60PACKETSEND
  -------         PROC          _ENC28J60PACKETRECEIVE
  X:03B2H         SYMBOL        maxlen
  X:03B4H         SYMBOL        packet
  -------         DO            
  X:03B7H         SYMBOL        rxstat
  X:03B9H         SYMBOL        len
  X:03BBH         SYMBOL        rs
  X:03BDH         SYMBOL        re
  -------         ENDDO         
  C:3EA7H         LINE#         177
  C:3EB8H         LINE#         178
  C:3EB8H         LINE#         184
  C:3EC1H         LINE#         185
  C:3EC1H         LINE#         188
  C:3EC9H         LINE#         189
  C:3ECCH         LINE#         190
  C:3ECCH         LINE#         193
  C:3ED5H         LINE#         194
  C:3EDEH         LINE#         197
  C:3EE8H         LINE#         198
  C:3EF3H         LINE#         201
  C:3EF9H         LINE#         202
  C:3F06H         LINE#         205
  C:3F0CH         LINE#         206
  C:3F1AH         LINE#         210
  C:3F3EH         LINE#         213
  C:3F4CH         LINE#         214
  C:3F59H         LINE#         215
  C:3F62H         LINE#         216
  C:3F70H         LINE#         217
  C:3F7DH         LINE#         218
  C:3F86H         LINE#         219
  C:3F94H         LINE#         220
  C:3FB9H         LINE#         221
  C:3FB9H         LINE#         222
  C:3FC1H         LINE#         223
  C:3FC5H         LINE#         224
  C:3FC7H         LINE#         226
  C:3FC7H         LINE#         227
  C:3FD1H         LINE#         228
  C:3FE0H         LINE#         229
  C:3FE0H         LINE#         232
  C:3FE9H         LINE#         234
  C:3FF1H         LINE#         235
  -------         ENDPROC       _ENC28J60PACKETRECEIVE
BL51 BANKED LINKER/LOCATER V6.22                                                      10/13/2015  11:38:09  PAGE 48


  -------         PROC          DEV_INIT
  C:5E74H         LINE#         237
  C:5E74H         LINE#         238
  C:5E74H         LINE#         239
  -------         ENDPROC       DEV_INIT
  -------         PROC          DEV_SEND
  C:5D8CH         LINE#         242
  C:5D8CH         LINE#         243
  C:5D8CH         LINE#         244
  -------         ENDPROC       DEV_SEND
  -------         PROC          DEV_POLL
  C:5DD8H         LINE#         247
  C:5DD8H         LINE#         248
  C:5DD8H         LINE#         249
  C:5DE5H         LINE#         250
  -------         ENDPROC       DEV_POLL
  -------         PROC          ENC28J60_INIT
  C:49B2H         LINE#         252
  C:49B2H         LINE#         253
  C:49B2H         LINE#         255
  C:49BBH         LINE#         256
  C:49C2H         LINE#         259
  C:49C8H         LINE#         260
  C:49CEH         LINE#         261
  C:49D5H         LINE#         264
  C:49DCH         LINE#         265
  C:49E3H         LINE#         269
  C:49EAH         LINE#         270
  C:49F1H         LINE#         274
  C:49F8H         LINE#         275
  C:49FFH         LINE#         279
  C:4A06H         LINE#         282
  C:4A0DH         LINE#         285
  C:4A16H         LINE#         288
  C:4A1DH         LINE#         289
  C:4A24H         LINE#         291
  C:4A2BH         LINE#         293
  C:4A32H         LINE#         294
  C:4A39H         LINE#         299
  C:4A40H         LINE#         300
  C:4A47H         LINE#         301
  C:4A4EH         LINE#         302
  C:4A55H         LINE#         303
  C:4A5CH         LINE#         304
  C:4A63H         LINE#         307
  C:4A6CH         LINE#         310
  C:4A71H         LINE#         313
  C:4A7AH         LINE#         316
  -------         ENDPROC       ENC28J60_INIT
  -------         ENDMOD        ENC28J60

  -------         MODULE        SPI
  C:0000H         SYMBOL        _ICE_DUMMY_
  D:0090H         PUBLIC        P1
  C:5BEAH         PUBLIC        ReadByte
  C:5CCCH         PUBLIC        _WriteByte
  B:0090H.7       PUBLIC        SCKN
BL51 BANKED LINKER/LOCATER V6.22                                                      10/13/2015  11:38:09  PAGE 49


  B:0090H.6       PUBLIC        SIN
  B:0090H.5       PUBLIC        SON
  -------         PROC          _WRITEBYTE
  D:0007H         SYMBOL        temp
  -------         DO            
  I:001BH         SYMBOL        i
  -------         ENDDO         
  C:5CCCH         LINE#         4
  C:5CCCH         LINE#         5
  C:5CCCH         LINE#         7
  C:5CD0H         LINE#         8
  C:5CD0H         LINE#         9
  C:5CD2H         LINE#         10
  C:5CD6H         LINE#         11
  C:5CD8H         LINE#         12
  C:5CDCH         LINE#         13
  C:5CE3H         LINE#         14
  C:5CE5H         LINE#         15
  -------         ENDPROC       _WRITEBYTE
  -------         PROC          READBYTE
  -------         DO            
  I:0019H         SYMBOL        i
  I:001AH         SYMBOL        dat1
  -------         ENDDO         
  C:5BEAH         LINE#         17
  C:5BEAH         LINE#         18
  C:5BEAH         LINE#         20
  C:5BECH         LINE#         21
  C:5BF0H         LINE#         22
  C:5BF2H         LINE#         23
  C:5BF2H         LINE#         24
  C:5BF4H         LINE#         25
  C:5BFBH         LINE#         26
  C:5C01H         LINE#         27
  C:5C03H         LINE#         28
  C:5C09H         LINE#         29
  C:5C0DH         LINE#         30
  -------         ENDPROC       READBYTE
  -------         ENDMOD        SPI

  -------         MODULE        UIP_ARCH
  C:0000H         SYMBOL        _ICE_DUMMY_
  C:3BC9H         PUBLIC        uip_tcpchksum
  C:5E61H         PUBLIC        uip_ipchksum
  C:472DH         PUBLIC        _uip_chksum
  C:5020H         PUBLIC        _uip_add32
  -------         PROC          _UIP_ADD32
  D:0001H         SYMBOL        op32
  X:0427H         SYMBOL        op16
  C:5020H         LINE#         7
  C:5028H         LINE#         8
  C:5028H         LINE#         9
  C:5033H         LINE#         10
  C:5043H         LINE#         11
  C:504DH         LINE#         12
  C:5054H         LINE#         14
  C:5069H         LINE#         15
BL51 BANKED LINKER/LOCATER V6.22                                                      10/13/2015  11:38:09  PAGE 50


  C:5069H         LINE#         16
  C:506FH         LINE#         17
  C:5072H         LINE#         18
  C:5072H         LINE#         19
  C:5078H         LINE#         20
  C:5078H         LINE#         21
  C:5078H         LINE#         23
  C:5085H         LINE#         24
  C:5085H         LINE#         25
  C:508BH         LINE#         26
  C:508EH         LINE#         27
  C:508EH         LINE#         28
  C:5094H         LINE#         29
  C:5097H         LINE#         30
  C:5097H         LINE#         31
  C:509DH         LINE#         32
  C:509DH         LINE#         33
  C:509DH         LINE#         34
  C:509DH         LINE#         35
  -------         ENDPROC       _UIP_ADD32
  -------         PROC          L?0033
  -------         ENDPROC       L?0033
  -------         PROC          _UIP_CHKSUM
  X:03E2H         SYMBOL        sdata
  X:03E5H         SYMBOL        len
  -------         DO            
  X:03E7H         SYMBOL        acc
  -------         ENDDO         
  C:472DH         LINE#         37
  C:473EH         LINE#         38
  C:473EH         LINE#         40
  C:4752H         LINE#         41
  C:4752H         LINE#         42
  C:476FH         LINE#         43
  C:477AH         LINE#         44
  C:477AH         LINE#         46
  C:4786H         LINE#         47
  C:4786H         LINE#         48
  C:4790H         LINE#         49
  C:47A0H         LINE#         52
  C:47ACH         LINE#         53
  C:47ACH         LINE#         54
  C:47CCH         LINE#         55
  C:47EDH         LINE#         56
  C:47EDH         LINE#         57
  C:47F9H         LINE#         58
  C:47F9H         LINE#         59
  C:47F9H         LINE#         60
  C:4801H         LINE#         61
  -------         ENDPROC       _UIP_CHKSUM
  -------         PROC          UIP_IPCHKSUM
  C:5E61H         LINE#         63
  C:5E61H         LINE#         64
  C:5E61H         LINE#         65
  C:5E68H         LINE#         66
  -------         ENDPROC       UIP_IPCHKSUM
  -------         PROC          UIP_TCPCHKSUM
BL51 BANKED LINKER/LOCATER V6.22                                                      10/13/2015  11:38:09  PAGE 51


  -------         DO            
  X:0414H         SYMBOL        hsum
  X:0416H         SYMBOL        sum
  -------         ENDDO         
  C:3BC9H         LINE#         68
  C:3BC9H         LINE#         69
  C:3BC9H         LINE#         72
  C:3BD8H         LINE#         75
  C:3C04H         LINE#         76
  C:3C1CH         LINE#         77
  C:3C1CH         LINE#         78
  C:3C2AH         LINE#         79
  C:3C2AH         LINE#         81
  C:3C44H         LINE#         82
  C:3C44H         LINE#         83
  C:3C52H         LINE#         84
  C:3C52H         LINE#         85
  C:3C6CH         LINE#         86
  C:3C6CH         LINE#         87
  C:3C7AH         LINE#         88
  C:3C7AH         LINE#         89
  C:3C94H         LINE#         90
  C:3C94H         LINE#         91
  C:3CA2H         LINE#         92
  C:3CA2H         LINE#         93
  C:3CBCH         LINE#         94
  C:3CBCH         LINE#         95
  C:3CCAH         LINE#         96
  C:3CCAH         LINE#         97
  C:3CF3H         LINE#         98
  C:3CF3H         LINE#         99
  C:3D01H         LINE#         100
  C:3D01H         LINE#         102
  C:3D21H         LINE#         104
  C:3D39H         LINE#         105
  C:3D39H         LINE#         106
  C:3D47H         LINE#         107
  C:3D47H         LINE#         108
  C:3D4FH         LINE#         109
  -------         ENDPROC       UIP_TCPCHKSUM
  -------         ENDMOD        UIP_ARCH

  -------         MODULE        UIP_ARP
  C:0000H         SYMBOL        _ICE_DUMMY_
  X:01D1H         SYMBOL        tmpage
  C:5119H         PUBLIC        uip_arp_ipin
  C:599CH         PUBLIC        uip_arp_init
  X:01D2H         PUBLIC        uip_ethaddr
  C:27F4H         PUBLIC        uip_arp_out
  X:01D8H         SYMBOL        arp_table
  C:3377H         SYMBOL        _uip_arp_update
  X:0230H         SYMBOL        c
  X:0231H         SYMBOL        i
  C:3FF2H         PUBLIC        uip_arp_arpin
  X:0232H         SYMBOL        arptime
  X:0233H         SYMBOL        ipaddr
  C:52CEH         PUBLIC        uip_arp_timer
BL51 BANKED LINKER/LOCATER V6.22                                                      10/13/2015  11:38:09  PAGE 52


  -------         PROC          UIP_ARP_INIT
  C:599CH         LINE#         86
  C:599CH         LINE#         87
  C:599CH         LINE#         88
  C:59ABH         LINE#         89
  C:59ABH         LINE#         90
  C:59CAH         LINE#         91
  C:59D2H         LINE#         92
  -------         ENDPROC       UIP_ARP_INIT
  -------         PROC          UIP_ARP_TIMER
  -------         DO            
  D:0001H         SYMBOL        tabptr
  -------         ENDDO         
  C:52CEH         LINE#         101
  C:52CEH         LINE#         102
  C:52CEH         LINE#         104
  C:52D4H         LINE#         105
  C:52E3H         LINE#         106
  C:52E3H         LINE#         107
  C:52F2H         LINE#         108
  C:531AH         LINE#         109
  C:531AH         LINE#         110
  C:5323H         LINE#         111
  C:5323H         LINE#         112
  C:532BH         LINE#         113
  -------         ENDPROC       UIP_ARP_TIMER
  -------         PROC          _UIP_ARP_UPDATE
  X:03C9H         SYMBOL        ipaddr
  X:03CCH         SYMBOL        ethaddr
  -------         DO            
  X:03CFH         SYMBOL        tabptr
  -------         ENDDO         
  C:3377H         LINE#         115
  C:3382H         LINE#         116
  C:3382H         LINE#         121
  C:3394H         LINE#         122
  C:3394H         LINE#         123
  C:33AEH         LINE#         125
  C:33CAH         LINE#         126
  C:33CAH         LINE#         129
  C:3413H         LINE#         130
  C:3413H         LINE#         133
  C:3413H         LINE#         134
  C:3416H         LINE#         136
  C:3416H         LINE#         137
  C:3416H         LINE#         138
  C:341FH         LINE#         144
  C:342EH         LINE#         145
  C:342EH         LINE#         146
  C:3448H         LINE#         147
  C:3464H         LINE#         148
  C:3464H         LINE#         149
  C:3464H         LINE#         150
  C:3464H         LINE#         151
  C:346CH         LINE#         155
  C:3474H         LINE#         156
  C:3474H         LINE#         157
BL51 BANKED LINKER/LOCATER V6.22                                                      10/13/2015  11:38:09  PAGE 53


  C:3478H         LINE#         158
  C:347CH         LINE#         159
  C:3488H         LINE#         160
  C:3488H         LINE#         161
  C:34A2H         LINE#         162
  C:34BAH         LINE#         163
  C:34BAH         LINE#         164
  C:34BCH         LINE#         165
  C:34C4H         LINE#         166
  C:34C4H         LINE#         167
  C:34CCH         LINE#         168
  C:34D2H         LINE#         169
  C:34D2H         LINE#         172
  C:34F3H         LINE#         173
  C:3519H         LINE#         174
  C:3530H         LINE#         175
  -------         ENDPROC       _UIP_ARP_UPDATE
  -------         PROC          UIP_ARP_IPIN
  C:5119H         LINE#         191
  C:5119H         LINE#         192
  C:5119H         LINE#         193
  C:5127H         LINE#         197
  C:5151H         LINE#         198
  C:5151H         LINE#         200
  C:5151H         LINE#         201
  C:517BH         LINE#         202
  C:517BH         LINE#         204
  C:517BH         LINE#         205
  C:5192H         LINE#         207
  -------         ENDPROC       UIP_ARP_IPIN
  -------         PROC          UIP_ARP_ARPIN
  C:3FF2H         LINE#         231
  C:3FF2H         LINE#         232
  C:3FF2H         LINE#         233
  C:4001H         LINE#         234
  C:4001H         LINE#         235
  C:4006H         LINE#         237
  C:4006H         LINE#         239
  C:400DH         LINE#         241
  C:4029H         LINE#         242
  C:4029H         LINE#         243
  C:4029H         LINE#         245
  C:4057H         LINE#         246
  C:4057H         LINE#         248
  C:405FH         LINE#         250
  C:4072H         LINE#         251
  C:4085H         LINE#         252
  C:4098H         LINE#         253
  C:40ABH         LINE#         255
  C:40BAH         LINE#         256
  C:40C9H         LINE#         257
  C:40D8H         LINE#         258
  C:40E7H         LINE#         260
  C:40F1H         LINE#         261
  C:40FAH         LINE#         262
  C:40FAH         LINE#         263
  C:40FBH         LINE#         264
BL51 BANKED LINKER/LOCATER V6.22                                                      10/13/2015  11:38:09  PAGE 54


  C:40FBH         LINE#         266
  C:4123H         LINE#         267
  C:4123H         LINE#         268
  C:413AH         LINE#         269
  C:413AH         LINE#         270
  C:413AH         LINE#         271
  C:413AH         LINE#         273
  -------         ENDPROC       UIP_ARP_ARPIN
  -------         PROC          UIP_ARP_OUT
  -------         DO            
  X:041EH         SYMBOL        tabptr
  -------         ENDDO         
  C:27F4H         LINE#         303
  C:27F4H         LINE#         304
  C:27F4H         LINE#         314
  C:284CH         LINE#         315
  C:284CH         LINE#         319
  C:285BH         LINE#         320
  C:286AH         LINE#         321
  C:286CH         LINE#         322
  C:286CH         LINE#         324
  C:287BH         LINE#         325
  C:2881H         LINE#         326
  C:2881H         LINE#         328
  C:2890H         LINE#         329
  C:2890H         LINE#         330
  C:28AAH         LINE#         331
  C:28D9H         LINE#         332
  C:28D9H         LINE#         333
  C:28E1H         LINE#         335
  C:28ECH         LINE#         336
  C:28ECH         LINE#         339
  C:28FAH         LINE#         340
  C:2909H         LINE#         341
  C:291CH         LINE#         342
  C:292FH         LINE#         344
  C:293EH         LINE#         345
  C:294DH         LINE#         346
  C:295CH         LINE#         347
  C:296BH         LINE#         348
  C:2973H         LINE#         349
  C:297BH         LINE#         350
  C:2982H         LINE#         351
  C:2986H         LINE#         352
  C:298AH         LINE#         353
  C:2994H         LINE#         355
  C:29A2H         LINE#         357
  C:29ACH         LINE#         359
  C:29ACH         LINE#         362
  C:29C9H         LINE#         363
  C:29DCH         LINE#         364
  C:29E5H         LINE#         365
  C:29F3H         LINE#         366
  -------         ENDPROC       UIP_ARP_OUT
  -------         ENDMOD        UIP_ARP

  -------         MODULE        KEY
BL51 BANKED LINKER/LOCATER V6.22                                                      10/13/2015  11:38:09  PAGE 55


  C:0000H         SYMBOL        _ICE_DUMMY_
  D:0090H         PUBLIC        P1
  D:00B0H         PUBLIC        P3
  B:00B0H.2       PUBLIC        KEY4
  X:0351H         PUBLIC        pause
  X:0355H         PUBLIC        mode_TF
  X:035AH         PUBLIC        play
  X:035EH         PUBLIC        prev
  X:0362H         PUBLIC        next
  X:0366H         PUBLIC        mode_U
  C:31ACH         PUBLIC        KEY_Test
  X:036BH         PUBLIC        mode_FLASH
  -------         PROC          KEY_TEST
  -------         DO            
  X:0238H         SYMBOL        i
  X:0239H         SYMBOL        key_flag
  X:023AH         SYMBOL        read_val
  -------         ENDDO         
  C:31ACH         LINE#         15
  C:31ACH         LINE#         16
  C:31ACH         LINE#         17
  C:31B1H         LINE#         19
  C:31B3H         LINE#         20
  C:31B5H         LINE#         21
  C:31BAH         LINE#         22
  C:31D2H         LINE#         23
  C:31EBH         LINE#         24
  C:31FCH         LINE#         25
  C:320DH         LINE#         26
  C:321CH         LINE#         28
  C:3227H         LINE#         29
  C:3227H         LINE#         31
  C:3244H         LINE#         33
  C:3260H         LINE#         34
  C:3271H         LINE#         36
  C:3274H         LINE#         37
  C:3274H         LINE#         38
  C:327BH         LINE#         39
  C:327EH         LINE#         40
  C:327EH         LINE#         42
  C:3281H         LINE#         43
  C:3288H         LINE#         44
  C:328FH         LINE#         46
  C:3298H         LINE#         50
  C:32A1H         LINE#         51
  C:32A1H         LINE#         52
  C:32A1H         LINE#         53
  C:32ABH         LINE#         55
  C:32AEH         LINE#         56
  C:32AEH         LINE#         57
  C:32B5H         LINE#         58
  C:32BAH         LINE#         59
  C:32C1H         LINE#         60
  C:32C1H         LINE#         64
  C:32C8H         LINE#         65
  C:32C8H         LINE#         66
  C:32CDH         LINE#         67
BL51 BANKED LINKER/LOCATER V6.22                                                      10/13/2015  11:38:09  PAGE 56


  C:32D4H         LINE#         68
  C:32DBH         LINE#         69
  C:32DBH         LINE#         71
  C:32E2H         LINE#         72
  C:32E2H         LINE#         73
  C:32E7H         LINE#         74
  C:32EEH         LINE#         75
  C:32F5H         LINE#         77
  C:32F5H         LINE#         79
  C:3314H         LINE#         80
  C:3325H         LINE#         82
  C:3328H         LINE#         83
  C:3332H         LINE#         84
  C:3346H         LINE#         86
  C:3359H         LINE#         87
  C:336DH         LINE#         89
  C:3372H         LINE#         90
  C:3376H         LINE#         92
  -------         ENDPROC       KEY_TEST
  -------         ENDMOD        KEY

  -------         MODULE        DOT_MATRIX
  C:0000H         SYMBOL        _ICE_DUMMY_
  D:0090H         PUBLIC        P1
  D:00B0H         PUBLIC        P3
  C:36E2H         PUBLIC        Dot_Matrix_test
  X:0000H         PUBLIC        ziku_table
  C:4DF6H         PUBLIC        _ABCD_port
  X:01D0H         SYMBOL        read_value_dot
  -------         PROC          _ABCD_PORT
  X:042CH         SYMBOL        dat
  C:4DF6H         LINE#         56
  C:4DFBH         LINE#         57
  C:4DFBH         LINE#         58
  C:4E00H         LINE#         59
  C:4E00H         LINE#         61
  C:4E08H         LINE#         62
  C:4E0AH         LINE#         63
  C:4E0CH         LINE#         65
  C:4E0CH         LINE#         67
  C:4E14H         LINE#         68
  C:4E1CH         LINE#         69
  C:4E1CH         LINE#         70
  C:4E25H         LINE#         71
  C:4E25H         LINE#         73
  C:4E2DH         LINE#         74
  C:4E2FH         LINE#         75
  C:4E31H         LINE#         77
  C:4E31H         LINE#         79
  C:4E39H         LINE#         80
  C:4E41H         LINE#         81
  C:4E41H         LINE#         82
  C:4E4AH         LINE#         83
  C:4E4AH         LINE#         85
  C:4E52H         LINE#         86
  C:4E54H         LINE#         87
  C:4E56H         LINE#         89
BL51 BANKED LINKER/LOCATER V6.22                                                      10/13/2015  11:38:09  PAGE 57


  C:4E56H         LINE#         91
  C:4E5EH         LINE#         92
  C:4E66H         LINE#         93
  C:4E66H         LINE#         94
  C:4E6FH         LINE#         95
  C:4E6FH         LINE#         97
  C:4E77H         LINE#         98
  C:4E79H         LINE#         99
  C:4E7BH         LINE#         101
  C:4E7BH         LINE#         103
  C:4E83H         LINE#         104
  C:4E8BH         LINE#         105
  C:4E8BH         LINE#         106
  -------         ENDPROC       _ABCD_PORT
  -------         PROC          DOT_MATRIX_TEST
  -------         DO            
  X:0407H         SYMBOL        i
  X:0408H         SYMBOL        j
  X:0409H         SYMBOL        data_buff
  X:040AH         SYMBOL        hanzi
  X:040BH         SYMBOL        shift
  -------         ENDDO         
  C:36E2H         LINE#         108
  C:36E2H         LINE#         109
  C:36E2H         LINE#         116
  C:36E8H         LINE#         121
  C:36EAH         LINE#         124
  C:36F4H         LINE#         125
  C:36FCH         LINE#         128
  C:3706H         LINE#         129
  C:370EH         LINE#         132
  C:373EH         LINE#         133
  C:3743H         LINE#         134
  C:374CH         LINE#         135
  C:374CH         LINE#         137
  C:3754H         LINE#         138
  C:3756H         LINE#         139
  C:3758H         LINE#         141
  C:3758H         LINE#         143
  C:3760H         LINE#         144
  C:3768H         LINE#         145
  C:3768H         LINE#         147
  C:3772H         LINE#         148
  C:377AH         LINE#         151
  C:3784H         LINE#         152
  C:378CH         LINE#         153
  C:3793H         LINE#         154
  C:379FH         LINE#         155
  C:37CFH         LINE#         156
  C:37D4H         LINE#         157
  C:37D4H         LINE#         158
  C:37DDH         LINE#         159
  C:37DDH         LINE#         161
  C:37E5H         LINE#         162
  C:37E7H         LINE#         163
  C:37E9H         LINE#         165
  C:37E9H         LINE#         167
BL51 BANKED LINKER/LOCATER V6.22                                                      10/13/2015  11:38:09  PAGE 58


  C:37F1H         LINE#         168
  C:37F9H         LINE#         169
  C:37F9H         LINE#         171
  C:3803H         LINE#         172
  C:380BH         LINE#         175
  C:3815H         LINE#         176
  C:381DH         LINE#         178
  C:3824H         LINE#         179
  C:3830H         LINE#         182
  C:383AH         LINE#         183
  C:3842H         LINE#         185
  C:384AH         LINE#         189
  C:3854H         LINE#         190
  C:385CH         LINE#         193
  C:3866H         LINE#         194
  C:386EH         LINE#         198
  C:3878H         LINE#         199
  C:3880H         LINE#         200
  C:388FH         LINE#         202
  -------         ENDPROC       DOT_MATRIX_TEST
  -------         ENDMOD        DOT_MATRIX

  -------         MODULE        RELAY
  C:0000H         SYMBOL        _ICE_DUMMY_
  D:0090H         PUBLIC        P1
  C:5964H         PUBLIC        Relay_Test
  D:00B0H         PUBLIC        P3
  -------         PROC          RELAY_TEST
  C:5964H         LINE#         5
  C:5964H         LINE#         6
  C:5964H         LINE#         7
  C:596BH         LINE#         8
  C:5972H         LINE#         10
  C:5979H         LINE#         11
  C:5980H         LINE#         13
  C:5987H         LINE#         14
  C:598EH         LINE#         16
  C:5995H         LINE#         17
  -------         ENDPROC       RELAY_TEST
  -------         ENDMOD        RELAY

  -------         MODULE        DC_MOTOR
  C:0000H         SYMBOL        _ICE_DUMMY_
  D:0090H         PUBLIC        P1
  D:00B0H         PUBLIC        P3
  C:5C0EH         PUBLIC        DC_motor_Test
  -------         PROC          DC_MOTOR_TEST
  C:5C0EH         LINE#         4
  C:5C0EH         LINE#         5
  C:5C0EH         LINE#         6
  C:5C15H         LINE#         7
  C:5C1CH         LINE#         8
  C:5C23H         LINE#         9
  C:5C2AH         LINE#         10
  -------         ENDPROC       DC_MOTOR_TEST
  -------         ENDMOD        DC_MOTOR

BL51 BANKED LINKER/LOCATER V6.22                                                      10/13/2015  11:38:09  PAGE 59


  -------         MODULE        STEP_MOTOR
  C:0000H         SYMBOL        _ICE_DUMMY_
  D:0090H         PUBLIC        P1
  D:00B0H         PUBLIC        P3
  C:5590H         PUBLIC        _DUJIN_port
  C:579EH         PUBLIC        STEP_motor_test
  C:5BA0H         PUBLIC        _delayus
  X:03DAH         PUBLIC        F_Rotation
  -------         PROC          _DELAYUS
  D:0006H         SYMBOL        count
  -------         DO            
  D:0004H         SYMBOL        i
  D:0002H         SYMBOL        j
  -------         ENDDO         
  C:5BA0H         LINE#         5
  C:5BA0H         LINE#         6
  C:5BA0H         LINE#         8
  C:5BB0H         LINE#         9
  C:5BC5H         LINE#         10
  -------         ENDPROC       _DELAYUS
  -------         PROC          _DUJIN_PORT
  X:023AH         SYMBOL        dat
  -------         DO            
  X:023BH         SYMBOL        read_value
  -------         ENDDO         
  C:5590H         LINE#         13
  C:5595H         LINE#         14
  C:5595H         LINE#         15
  C:5598H         LINE#         18
  C:559CH         LINE#         20
  C:559CH         LINE#         21
  C:559EH         LINE#         22
  C:55A0H         LINE#         25
  C:55A0H         LINE#         26
  C:55A7H         LINE#         27
  C:55A7H         LINE#         28
  C:55AEH         LINE#         30
  C:55AEH         LINE#         31
  C:55B0H         LINE#         32
  C:55B2H         LINE#         35
  C:55B2H         LINE#         36
  C:55B9H         LINE#         37
  C:55B9H         LINE#         38
  C:55C0H         LINE#         40
  C:55C0H         LINE#         41
  C:55C2H         LINE#         42
  C:55C4H         LINE#         45
  C:55C4H         LINE#         46
  C:55CBH         LINE#         47
  C:55CBH         LINE#         49
  C:55D2H         LINE#         51
  C:55D2H         LINE#         52
  C:55D4H         LINE#         53
  C:55D6H         LINE#         56
  C:55D6H         LINE#         57
  C:55DDH         LINE#         58
  C:55DDH         LINE#         59
BL51 BANKED LINKER/LOCATER V6.22                                                      10/13/2015  11:38:09  PAGE 60


  -------         ENDPROC       _DUJIN_PORT
  -------         PROC          STEP_MOTOR_TEST
  -------         DO            
  X:0238H         SYMBOL        i
  X:0239H         SYMBOL        j
  -------         ENDDO         
  C:579EH         LINE#         61
  C:579EH         LINE#         62
  C:579EH         LINE#         63
  C:57A5H         LINE#         65
  C:57A6H         LINE#         66
  C:57B5H         LINE#         67
  C:57B5H         LINE#         68
  C:57C4H         LINE#         69
  C:57CBH         LINE#         70
  C:57DFH         LINE#         72
  -------         ENDPROC       STEP_MOTOR_TEST
  -------         ENDMOD        STEP_MOTOR

  -------         MODULE        DHT11
  C:0000H         SYMBOL        _ICE_DUMMY_
  -------         ENDMOD        DHT11

  -------         MODULE        ?C?FPADD
  C:0CEEH         PUBLIC        ?C?FPADD
  C:0CEAH         PUBLIC        ?C?FPSUB
  -------         ENDMOD        ?C?FPADD

  -------         MODULE        ?C?FPMUL
  C:0DDFH         PUBLIC        ?C?FPMUL
  -------         ENDMOD        ?C?FPMUL

  -------         MODULE        ?C?FPDIV
  C:0EE8H         PUBLIC        ?C?FPDIV
  -------         ENDMOD        ?C?FPDIV

  -------         MODULE        ?C?FPCMP
  C:0F87H         PUBLIC        ?C?FPCMP
  C:0F85H         PUBLIC        ?C?FPCMP3
  -------         ENDMOD        ?C?FPCMP

  -------         MODULE        ?C?FCAST
  C:1008H         PUBLIC        ?C?FCASTC
  C:1003H         PUBLIC        ?C?FCASTI
  C:0FFEH         PUBLIC        ?C?FCASTL
  -------         ENDMOD        ?C?FCAST

  -------         MODULE        ?C?CASTF
  C:103CH         PUBLIC        ?C?CASTF
  -------         ENDMOD        ?C?CASTF

  -------         MODULE        ?C?COPY
  C:118DH         PUBLIC        ?C?COPY
  -------         ENDMOD        ?C?COPY

  -------         MODULE        ?C?CLDPTR
  C:11B3H         PUBLIC        ?C?CLDPTR
BL51 BANKED LINKER/LOCATER V6.22                                                      10/13/2015  11:38:09  PAGE 61


  -------         ENDMOD        ?C?CLDPTR

  -------         MODULE        ?C?CLDOPTR
  C:11CCH         PUBLIC        ?C?CLDOPTR
  -------         ENDMOD        ?C?CLDOPTR

  -------         MODULE        ?C?CSTPTR
  C:11F9H         PUBLIC        ?C?CSTPTR
  -------         ENDMOD        ?C?CSTPTR

  -------         MODULE        ?C?CSTOPTR
  C:120BH         PUBLIC        ?C?CSTOPTR
  -------         ENDMOD        ?C?CSTOPTR

  -------         MODULE        ?C?IMUL
  C:122DH         PUBLIC        ?C?IMUL
  -------         ENDMOD        ?C?IMUL

  -------         MODULE        ?C?UIDIV
  C:123FH         PUBLIC        ?C?UIDIV
  -------         ENDMOD        ?C?UIDIV

  -------         MODULE        ?C?IILDX
  C:1294H         PUBLIC        ?C?IILDX
  -------         ENDMOD        ?C?IILDX

  -------         MODULE        ?C?ILDIX
  C:12AAH         PUBLIC        ?C?ILDIX
  -------         ENDMOD        ?C?ILDIX

  -------         MODULE        ?C?ILDPTR
  C:12C0H         PUBLIC        ?C?ILDPTR
  -------         ENDMOD        ?C?ILDPTR

  -------         MODULE        ?C?ILDOPTR
  C:12EBH         PUBLIC        ?C?ILDOPTR
  -------         ENDMOD        ?C?ILDOPTR

  -------         MODULE        ?C?ISTPTR
  C:1323H         PUBLIC        ?C?ISTPTR
  -------         ENDMOD        ?C?ISTPTR

  -------         MODULE        ?C?LMUL
  C:1342H         PUBLIC        ?C?LMUL
  -------         ENDMOD        ?C?LMUL

  -------         MODULE        ?C?ULDIV
  C:13CDH         PUBLIC        ?C?ULDIV
  -------         ENDMOD        ?C?ULDIV

  -------         MODULE        ?C?SLDIV
  C:57E4H         PUBLIC        ?C?SLDIV
  -------         ENDMOD        ?C?SLDIV

  -------         MODULE        ?C?LNEG
  C:145FH         PUBLIC        ?C?LNEG
  -------         ENDMOD        ?C?LNEG
BL51 BANKED LINKER/LOCATER V6.22                                                      10/13/2015  11:38:09  PAGE 62



  -------         MODULE        ?C?ULCMP
  C:146DH         PUBLIC        ?C?ULCMP
  -------         ENDMOD        ?C?ULCMP

  -------         MODULE        ?C?ULSHR
  C:147EH         PUBLIC        ?C?ULSHR
  -------         ENDMOD        ?C?ULSHR

  -------         MODULE        ?C?SLSHR
  C:1491H         PUBLIC        ?C?SLSHR
  -------         ENDMOD        ?C?SLSHR

  -------         MODULE        ?C?LSHL
  C:14A5H         PUBLIC        ?C?LSHL
  -------         ENDMOD        ?C?LSHL

  -------         MODULE        ?C?LSTXDATA
  C:14B8H         PUBLIC        ?C?LSTXDATA
  -------         ENDMOD        ?C?LSTXDATA

  -------         MODULE        ?C?LSTKXDATA
  C:14C4H         PUBLIC        ?C?LSTKXDATA
  -------         ENDMOD        ?C?LSTKXDATA

  -------         MODULE        ?C?OFFXADD
  C:14F5H         PUBLIC        ?C?OFFXADD
  -------         ENDMOD        ?C?OFFXADD

  -------         MODULE        STRSTR
  X:023BH         PUBLIC        ?_strstr?BYTE
  C:4B52H         PUBLIC        _strstr
  -------         ENDMOD        STRSTR

  -------         MODULE        ?C?MEMSET
  C:1501H         PUBLIC        ?C?MEMSET
  -------         ENDMOD        ?C?MEMSET

*** WARNING L16: UNCALLED SEGMENT, IGNORED FOR OVERLAY PROCESS
    SEGMENT: ?PR?_SHOWHANZI?LCD

*** WARNING L16: UNCALLED SEGMENT, IGNORED FOR OVERLAY PROCESS
    SEGMENT: ?PR?TPSTATE?TOUCH

*** WARNING L16: UNCALLED SEGMENT, IGNORED FOR OVERLAY PROCESS
    SEGMENT: ?PR?TOUCH_ADJUST?TOUCH

*** WARNING L16: UNCALLED SEGMENT, IGNORED FOR OVERLAY PROCESS
    SEGMENT: ?PR?POINT?TOUCH

*** WARNING L16: UNCALLED SEGMENT, IGNORED FOR OVERLAY PROCESS
    SEGMENT: ?PR?_WRITENBYTE?PCF8574T

*** WARNING L16: UNCALLED SEGMENT, IGNORED FOR OVERLAY PROCESS
    SEGMENT: ?PR?_READNBYTE?PCF8574T

*** WARNING L16: UNCALLED SEGMENT, IGNORED FOR OVERLAY PROCESS
BL51 BANKED LINKER/LOCATER V6.22                                                      10/13/2015  11:38:09  PAGE 63


    SEGMENT: ?PR?MMA7455_DATA_INIT?MMA7455

*** WARNING L16: UNCALLED SEGMENT, IGNORED FOR OVERLAY PROCESS
    SEGMENT: ?PR?ENC28J60_TEST?ENC28J60_TEST

*** WARNING L16: UNCALLED SEGMENT, IGNORED FOR OVERLAY PROCESS
    SEGMENT: ?PR?_ENC28J60_READ_PHYREG?ENC28J60

*** WARNING L16: UNCALLED SEGMENT, IGNORED FOR OVERLAY PROCESS
    SEGMENT: ?PR?_UIP_ADD32?UIP_ARCH

*** WARNING L16: UNCALLED SEGMENT, IGNORED FOR OVERLAY PROCESS
    SEGMENT: ?PR?UIP_IPCHKSUM?UIP_ARCH

*** WARNING L16: UNCALLED SEGMENT, IGNORED FOR OVERLAY PROCESS
    SEGMENT: ?PR?UIP_TCPCHKSUM?UIP_ARCH

*** WARNING L16: UNCALLED SEGMENT, IGNORED FOR OVERLAY PROCESS
    SEGMENT: ?PR?DOT_MATRIX_TEST?DOT_MATRIX

*** WARNING L1: UNRESOLVED EXTERNAL SYMBOL
    SYMBOL:  _HTONS
    MODULE:  enc28j60_test.obj (ENC28J60_TEST)

*** WARNING L1: UNRESOLVED EXTERNAL SYMBOL
    SYMBOL:  _UIP_PROCESS
    MODULE:  enc28j60_test.obj (ENC28J60_TEST)

*** WARNING L1: UNRESOLVED EXTERNAL SYMBOL
    SYMBOL:  UIP_CONNS
    MODULE:  enc28j60_test.obj (ENC28J60_TEST)

*** WARNING L1: UNRESOLVED EXTERNAL SYMBOL
    SYMBOL:  UIP_CONN
    MODULE:  enc28j60_test.obj (ENC28J60_TEST)

*** WARNING L1: UNRESOLVED EXTERNAL SYMBOL
    SYMBOL:  UIP_INIT
    MODULE:  enc28j60_test.obj (ENC28J60_TEST)

*** WARNING L1: UNRESOLVED EXTERNAL SYMBOL
    SYMBOL:  UIP_BUF
    MODULE:  enc28j60_test.obj (ENC28J60_TEST)

*** WARNING L1: UNRESOLVED EXTERNAL SYMBOL
    SYMBOL:  UIP_LEN
    MODULE:  enc28j60_test.obj (ENC28J60_TEST)

*** WARNING L2: REFERENCE MADE TO UNRESOLVED EXTERNAL
    SYMBOL:  UIP_INIT
    MODULE:  enc28j60_test.obj (ENC28J60_TEST)
    ADDRESS: 4471H

*** WARNING L2: REFERENCE MADE TO UNRESOLVED EXTERNAL
    SYMBOL:  UIP_LEN
    MODULE:  enc28j60_test.obj (ENC28J60_TEST)
    ADDRESS: 4479H
BL51 BANKED LINKER/LOCATER V6.22                                                      10/13/2015  11:38:09  PAGE 64



*** WARNING L2: REFERENCE MADE TO UNRESOLVED EXTERNAL
    SYMBOL:  UIP_LEN
    MODULE:  enc28j60_test.obj (ENC28J60_TEST)
    ADDRESS: 4498H

*** WARNING L2: REFERENCE MADE TO UNRESOLVED EXTERNAL
    SYMBOL:  UIP_CONNS
    MODULE:  enc28j60_test.obj (ENC28J60_TEST)
    ADDRESS: 44B3H

*** WARNING L2: REFERENCE MADE TO UNRESOLVED EXTERNAL
    SYMBOL:  UIP_CONNS
    MODULE:  enc28j60_test.obj (ENC28J60_TEST)
    ADDRESS: 44B6H

*** WARNING L2: REFERENCE MADE TO UNRESOLVED EXTERNAL
    SYMBOL:  UIP_CONN
    MODULE:  enc28j60_test.obj (ENC28J60_TEST)
    ADDRESS: 44BBH

*** WARNING L2: REFERENCE MADE TO UNRESOLVED EXTERNAL
    SYMBOL:  _UIP_PROCESS
    MODULE:  enc28j60_test.obj (ENC28J60_TEST)
    ADDRESS: 44C9H

*** WARNING L2: REFERENCE MADE TO UNRESOLVED EXTERNAL
    SYMBOL:  UIP_LEN
    MODULE:  enc28j60_test.obj (ENC28J60_TEST)
    ADDRESS: 44CDH

*** WARNING L2: REFERENCE MADE TO UNRESOLVED EXTERNAL
    SYMBOL:  UIP_LEN
    MODULE:  enc28j60_test.obj (ENC28J60_TEST)
    ADDRESS: 44D3H

*** WARNING L2: REFERENCE MADE TO UNRESOLVED EXTERNAL
    SYMBOL:  _HTONS
    MODULE:  enc28j60_test.obj (ENC28J60_TEST)
    ADDRESS: 44FCH

*** WARNING L2: REFERENCE MADE TO UNRESOLVED EXTERNAL
    SYMBOL:  UIP_BUF
    MODULE:  enc28j60_test.obj (ENC28J60_TEST)
    ADDRESS: 44FFH

*** WARNING L2: REFERENCE MADE TO UNRESOLVED EXTERNAL
    SYMBOL:  _UIP_PROCESS
    MODULE:  enc28j60_test.obj (ENC28J60_TEST)
    ADDRESS: 4510H

*** WARNING L2: REFERENCE MADE TO UNRESOLVED EXTERNAL
    SYMBOL:  UIP_LEN
    MODULE:  enc28j60_test.obj (ENC28J60_TEST)
    ADDRESS: 4514H

*** WARNING L2: REFERENCE MADE TO UNRESOLVED EXTERNAL
BL51 BANKED LINKER/LOCATER V6.22                                                      10/13/2015  11:38:09  PAGE 65


    SYMBOL:  UIP_LEN
    MODULE:  enc28j60_test.obj (ENC28J60_TEST)
    ADDRESS: 451AH

*** WARNING L2: REFERENCE MADE TO UNRESOLVED EXTERNAL
    SYMBOL:  _HTONS
    MODULE:  enc28j60_test.obj (ENC28J60_TEST)
    ADDRESS: 4532H

*** WARNING L2: REFERENCE MADE TO UNRESOLVED EXTERNAL
    SYMBOL:  UIP_BUF
    MODULE:  enc28j60_test.obj (ENC28J60_TEST)
    ADDRESS: 4535H

*** WARNING L2: REFERENCE MADE TO UNRESOLVED EXTERNAL
    SYMBOL:  UIP_LEN
    MODULE:  enc28j60_test.obj (ENC28J60_TEST)
    ADDRESS: 4548H

*** WARNING L2: REFERENCE MADE TO UNRESOLVED EXTERNAL
    SYMBOL:  UIP_LEN
    MODULE:  enc28j60_test.obj (ENC28J60_TEST)
    ADDRESS: 454EH

*** WARNING L1: UNRESOLVED EXTERNAL SYMBOL
    SYMBOL:  UIP_APPDATA
    MODULE:  enc28j60.obj (ENC28J60)

*** WARNING L1: UNRESOLVED EXTERNAL SYMBOL
    SYMBOL:  UIP_BUF
    MODULE:  enc28j60.obj (ENC28J60)

*** WARNING L1: UNRESOLVED EXTERNAL SYMBOL
    SYMBOL:  UIP_LEN
    MODULE:  enc28j60.obj (ENC28J60)

*** WARNING L2: REFERENCE MADE TO UNRESOLVED EXTERNAL
    SYMBOL:  UIP_LEN
    MODULE:  enc28j60.obj (ENC28J60)
    ADDRESS: 4D03H

*** WARNING L2: REFERENCE MADE TO UNRESOLVED EXTERNAL
    SYMBOL:  UIP_LEN
    MODULE:  enc28j60.obj (ENC28J60)
    ADDRESS: 4D09H

*** WARNING L2: REFERENCE MADE TO UNRESOLVED EXTERNAL
    SYMBOL:  UIP_APPDATA
    MODULE:  enc28j60.obj (ENC28J60)
    ADDRESS: 4D44H

*** WARNING L2: REFERENCE MADE TO UNRESOLVED EXTERNAL
    SYMBOL:  UIP_LEN
    MODULE:  enc28j60.obj (ENC28J60)
    ADDRESS: 5D8DH

*** WARNING L2: REFERENCE MADE TO UNRESOLVED EXTERNAL
BL51 BANKED LINKER/LOCATER V6.22                                                      10/13/2015  11:38:09  PAGE 66


    SYMBOL:  UIP_BUF
    MODULE:  enc28j60.obj (ENC28J60)
    ADDRESS: 5D97H

*** WARNING L2: REFERENCE MADE TO UNRESOLVED EXTERNAL
    SYMBOL:  UIP_BUF
    MODULE:  enc28j60.obj (ENC28J60)
    ADDRESS: 5D99H

*** WARNING L2: REFERENCE MADE TO UNRESOLVED EXTERNAL
    SYMBOL:  UIP_BUF
    MODULE:  enc28j60.obj (ENC28J60)
    ADDRESS: 5DDBH

*** WARNING L2: REFERENCE MADE TO UNRESOLVED EXTERNAL
    SYMBOL:  UIP_BUF
    MODULE:  enc28j60.obj (ENC28J60)
    ADDRESS: 5DDDH

*** WARNING L1: UNRESOLVED EXTERNAL SYMBOL
    SYMBOL:  UIP_APPDATA
    MODULE:  uip_arch.obj (UIP_ARCH)

*** WARNING L1: UNRESOLVED EXTERNAL SYMBOL
    SYMBOL:  _HTONS
    MODULE:  uip_arch.obj (UIP_ARCH)

*** WARNING L1: UNRESOLVED EXTERNAL SYMBOL
    SYMBOL:  UIP_ACC32
    MODULE:  uip_arch.obj (UIP_ARCH)

*** WARNING L1: UNRESOLVED EXTERNAL SYMBOL
    SYMBOL:  UIP_BUF
    MODULE:  uip_arch.obj (UIP_ARCH)

*** WARNING L2: REFERENCE MADE TO UNRESOLVED EXTERNAL
    SYMBOL:  UIP_ACC32
    MODULE:  uip_arch.obj (UIP_ARCH)
    ADDRESS: 5030H

*** WARNING L2: REFERENCE MADE TO UNRESOLVED EXTERNAL
    SYMBOL:  UIP_ACC32
    MODULE:  uip_arch.obj (UIP_ARCH)
    ADDRESS: 5040H

*** WARNING L2: REFERENCE MADE TO UNRESOLVED EXTERNAL
    SYMBOL:  UIP_ACC32
    MODULE:  uip_arch.obj (UIP_ARCH)
    ADDRESS: 504AH

*** WARNING L2: REFERENCE MADE TO UNRESOLVED EXTERNAL
    SYMBOL:  UIP_ACC32
    MODULE:  uip_arch.obj (UIP_ARCH)
    ADDRESS: 5051H

*** WARNING L2: REFERENCE MADE TO UNRESOLVED EXTERNAL
    SYMBOL:  UIP_ACC32
BL51 BANKED LINKER/LOCATER V6.22                                                      10/13/2015  11:38:09  PAGE 67


    MODULE:  uip_arch.obj (UIP_ARCH)
    ADDRESS: 505FH

*** WARNING L2: REFERENCE MADE TO UNRESOLVED EXTERNAL
    SYMBOL:  UIP_ACC32
    MODULE:  uip_arch.obj (UIP_ARCH)
    ADDRESS: 506AH

*** WARNING L2: REFERENCE MADE TO UNRESOLVED EXTERNAL
    SYMBOL:  UIP_ACC32
    MODULE:  uip_arch.obj (UIP_ARCH)
    ADDRESS: 5073H

*** WARNING L2: REFERENCE MADE TO UNRESOLVED EXTERNAL
    SYMBOL:  UIP_ACC32
    MODULE:  uip_arch.obj (UIP_ARCH)
    ADDRESS: 507BH

*** WARNING L2: REFERENCE MADE TO UNRESOLVED EXTERNAL
    SYMBOL:  UIP_ACC32
    MODULE:  uip_arch.obj (UIP_ARCH)
    ADDRESS: 5086H

*** WARNING L2: REFERENCE MADE TO UNRESOLVED EXTERNAL
    SYMBOL:  UIP_ACC32
    MODULE:  uip_arch.obj (UIP_ARCH)
    ADDRESS: 508FH

*** WARNING L2: REFERENCE MADE TO UNRESOLVED EXTERNAL
    SYMBOL:  UIP_ACC32
    MODULE:  uip_arch.obj (UIP_ARCH)
    ADDRESS: 5098H

*** WARNING L2: REFERENCE MADE TO UNRESOLVED EXTERNAL
    SYMBOL:  _HTONS
    MODULE:  uip_arch.obj (UIP_ARCH)
    ADDRESS: 47BEH

*** WARNING L2: REFERENCE MADE TO UNRESOLVED EXTERNAL
    SYMBOL:  _HTONS
    MODULE:  uip_arch.obj (UIP_ARCH)
    ADDRESS: 47DEH

*** WARNING L2: REFERENCE MADE TO UNRESOLVED EXTERNAL
    SYMBOL:  UIP_BUF
    MODULE:  uip_arch.obj (UIP_ARCH)
    ADDRESS: 5E62H

*** WARNING L2: REFERENCE MADE TO UNRESOLVED EXTERNAL
    SYMBOL:  UIP_BUF
    MODULE:  uip_arch.obj (UIP_ARCH)
    ADDRESS: 5E64H

*** WARNING L2: REFERENCE MADE TO UNRESOLVED EXTERNAL
    SYMBOL:  UIP_BUF
    MODULE:  uip_arch.obj (UIP_ARCH)
    ADDRESS: 3BCAH
BL51 BANKED LINKER/LOCATER V6.22                                                      10/13/2015  11:38:09  PAGE 68



*** WARNING L2: REFERENCE MADE TO UNRESOLVED EXTERNAL
    SYMBOL:  UIP_BUF
    MODULE:  uip_arch.obj (UIP_ARCH)
    ADDRESS: 3BCCH

*** WARNING L2: REFERENCE MADE TO UNRESOLVED EXTERNAL
    SYMBOL:  UIP_APPDATA
    MODULE:  uip_arch.obj (UIP_ARCH)
    ADDRESS: 3BD9H

*** WARNING L2: REFERENCE MADE TO UNRESOLVED EXTERNAL
    SYMBOL:  UIP_BUF
    MODULE:  uip_arch.obj (UIP_ARCH)
    ADDRESS: 3BE4H

*** WARNING L2: REFERENCE MADE TO UNRESOLVED EXTERNAL
    SYMBOL:  UIP_BUF
    MODULE:  uip_arch.obj (UIP_ARCH)
    ADDRESS: 3C2BH

*** WARNING L2: REFERENCE MADE TO UNRESOLVED EXTERNAL
    SYMBOL:  UIP_BUF
    MODULE:  uip_arch.obj (UIP_ARCH)
    ADDRESS: 3C53H

*** WARNING L2: REFERENCE MADE TO UNRESOLVED EXTERNAL
    SYMBOL:  UIP_BUF
    MODULE:  uip_arch.obj (UIP_ARCH)
    ADDRESS: 3C7BH

*** WARNING L2: REFERENCE MADE TO UNRESOLVED EXTERNAL
    SYMBOL:  UIP_BUF
    MODULE:  uip_arch.obj (UIP_ARCH)
    ADDRESS: 3CA3H

*** WARNING L2: REFERENCE MADE TO UNRESOLVED EXTERNAL
    SYMBOL:  _HTONS
    MODULE:  uip_arch.obj (UIP_ARCH)
    ADDRESS: 3CCFH

*** WARNING L2: REFERENCE MADE TO UNRESOLVED EXTERNAL
    SYMBOL:  _HTONS
    MODULE:  uip_arch.obj (UIP_ARCH)
    ADDRESS: 3CE6H

*** WARNING L2: REFERENCE MADE TO UNRESOLVED EXTERNAL
    SYMBOL:  UIP_BUF
    MODULE:  uip_arch.obj (UIP_ARCH)
    ADDRESS: 3D02H

*** WARNING L2: REFERENCE MADE TO UNRESOLVED EXTERNAL
    SYMBOL:  _HTONS
    MODULE:  uip_arch.obj (UIP_ARCH)
    ADDRESS: 3D17H

*** WARNING L1: UNRESOLVED EXTERNAL SYMBOL
BL51 BANKED LINKER/LOCATER V6.22                                                      10/13/2015  11:38:09  PAGE 69


    SYMBOL:  UIP_HOSTADDR
    MODULE:  uip_arp.obj (UIP_ARP)

*** WARNING L1: UNRESOLVED EXTERNAL SYMBOL
    SYMBOL:  UIP_APPDATA
    MODULE:  uip_arp.obj (UIP_ARP)

*** WARNING L1: UNRESOLVED EXTERNAL SYMBOL
    SYMBOL:  UIP_ARP_DRADDR
    MODULE:  uip_arp.obj (UIP_ARP)

*** WARNING L1: UNRESOLVED EXTERNAL SYMBOL
    SYMBOL:  UIP_ARP_NETMASK
    MODULE:  uip_arp.obj (UIP_ARP)

*** WARNING L1: UNRESOLVED EXTERNAL SYMBOL
    SYMBOL:  UIP_BUF
    MODULE:  uip_arp.obj (UIP_ARP)

*** WARNING L1: UNRESOLVED EXTERNAL SYMBOL
    SYMBOL:  UIP_LEN
    MODULE:  uip_arp.obj (UIP_ARP)

*** WARNING L2: REFERENCE MADE TO UNRESOLVED EXTERNAL
    SYMBOL:  UIP_LEN
    MODULE:  uip_arp.obj (UIP_ARP)
    ADDRESS: 511AH

*** WARNING L2: REFERENCE MADE TO UNRESOLVED EXTERNAL
    SYMBOL:  UIP_LEN
    MODULE:  uip_arp.obj (UIP_ARP)
    ADDRESS: 5121H

*** WARNING L2: REFERENCE MADE TO UNRESOLVED EXTERNAL
    SYMBOL:  UIP_ARP_NETMASK
    MODULE:  uip_arp.obj (UIP_ARP)
    ADDRESS: 5128H

*** WARNING L2: REFERENCE MADE TO UNRESOLVED EXTERNAL
    SYMBOL:  UIP_HOSTADDR
    MODULE:  uip_arp.obj (UIP_ARP)
    ADDRESS: 5130H

*** WARNING L2: REFERENCE MADE TO UNRESOLVED EXTERNAL
    SYMBOL:  UIP_ARP_NETMASK
    MODULE:  uip_arp.obj (UIP_ARP)
    ADDRESS: 513AH

*** WARNING L2: REFERENCE MADE TO UNRESOLVED EXTERNAL
    SYMBOL:  UIP_BUF
    MODULE:  uip_arp.obj (UIP_ARP)
    ADDRESS: 5142H

*** WARNING L2: REFERENCE MADE TO UNRESOLVED EXTERNAL
    SYMBOL:  UIP_ARP_NETMASK
    MODULE:  uip_arp.obj (UIP_ARP)
    ADDRESS: 5152H
BL51 BANKED LINKER/LOCATER V6.22                                                      10/13/2015  11:38:09  PAGE 70



*** WARNING L2: REFERENCE MADE TO UNRESOLVED EXTERNAL
    SYMBOL:  UIP_HOSTADDR
    MODULE:  uip_arp.obj (UIP_ARP)
    ADDRESS: 515AH

*** WARNING L2: REFERENCE MADE TO UNRESOLVED EXTERNAL
    SYMBOL:  UIP_ARP_NETMASK
    MODULE:  uip_arp.obj (UIP_ARP)
    ADDRESS: 5164H

*** WARNING L2: REFERENCE MADE TO UNRESOLVED EXTERNAL
    SYMBOL:  UIP_BUF
    MODULE:  uip_arp.obj (UIP_ARP)
    ADDRESS: 516CH

*** WARNING L2: REFERENCE MADE TO UNRESOLVED EXTERNAL
    SYMBOL:  UIP_BUF
    MODULE:  uip_arp.obj (UIP_ARP)
    ADDRESS: 5183H

*** WARNING L2: REFERENCE MADE TO UNRESOLVED EXTERNAL
    SYMBOL:  UIP_BUF
    MODULE:  uip_arp.obj (UIP_ARP)
    ADDRESS: 5187H

*** WARNING L2: REFERENCE MADE TO UNRESOLVED EXTERNAL
    SYMBOL:  UIP_BUF
    MODULE:  uip_arp.obj (UIP_ARP)
    ADDRESS: 518CH

*** WARNING L2: REFERENCE MADE TO UNRESOLVED EXTERNAL
    SYMBOL:  UIP_BUF
    MODULE:  uip_arp.obj (UIP_ARP)
    ADDRESS: 518EH

*** WARNING L2: REFERENCE MADE TO UNRESOLVED EXTERNAL
    SYMBOL:  UIP_LEN
    MODULE:  uip_arp.obj (UIP_ARP)
    ADDRESS: 3FF4H

*** WARNING L2: REFERENCE MADE TO UNRESOLVED EXTERNAL
    SYMBOL:  UIP_LEN
    MODULE:  uip_arp.obj (UIP_ARP)
    ADDRESS: 3FFAH

*** WARNING L2: REFERENCE MADE TO UNRESOLVED EXTERNAL
    SYMBOL:  UIP_LEN
    MODULE:  uip_arp.obj (UIP_ARP)
    ADDRESS: 4008H

*** WARNING L2: REFERENCE MADE TO UNRESOLVED EXTERNAL
    SYMBOL:  UIP_BUF
    MODULE:  uip_arp.obj (UIP_ARP)
    ADDRESS: 400EH

*** WARNING L2: REFERENCE MADE TO UNRESOLVED EXTERNAL
BL51 BANKED LINKER/LOCATER V6.22                                                      10/13/2015  11:38:09  PAGE 71


    SYMBOL:  UIP_HOSTADDR
    MODULE:  uip_arp.obj (UIP_ARP)
    ADDRESS: 402AH

*** WARNING L2: REFERENCE MADE TO UNRESOLVED EXTERNAL
    SYMBOL:  UIP_BUF
    MODULE:  uip_arp.obj (UIP_ARP)
    ADDRESS: 4032H

*** WARNING L2: REFERENCE MADE TO UNRESOLVED EXTERNAL
    SYMBOL:  UIP_HOSTADDR
    MODULE:  uip_arp.obj (UIP_ARP)
    ADDRESS: 4041H

*** WARNING L2: REFERENCE MADE TO UNRESOLVED EXTERNAL
    SYMBOL:  UIP_BUF
    MODULE:  uip_arp.obj (UIP_ARP)
    ADDRESS: 4049H

*** WARNING L2: REFERENCE MADE TO UNRESOLVED EXTERNAL
    SYMBOL:  UIP_BUF
    MODULE:  uip_arp.obj (UIP_ARP)
    ADDRESS: 4058H

*** WARNING L2: REFERENCE MADE TO UNRESOLVED EXTERNAL
    SYMBOL:  UIP_BUF
    MODULE:  uip_arp.obj (UIP_ARP)
    ADDRESS: 4060H

*** WARNING L2: REFERENCE MADE TO UNRESOLVED EXTERNAL
    SYMBOL:  UIP_BUF
    MODULE:  uip_arp.obj (UIP_ARP)
    ADDRESS: 4062H

*** WARNING L2: REFERENCE MADE TO UNRESOLVED EXTERNAL
    SYMBOL:  UIP_BUF
    MODULE:  uip_arp.obj (UIP_ARP)
    ADDRESS: 4068H

*** WARNING L2: REFERENCE MADE TO UNRESOLVED EXTERNAL
    SYMBOL:  UIP_BUF
    MODULE:  uip_arp.obj (UIP_ARP)
    ADDRESS: 406AH

*** WARNING L2: REFERENCE MADE TO UNRESOLVED EXTERNAL
    SYMBOL:  UIP_BUF
    MODULE:  uip_arp.obj (UIP_ARP)
    ADDRESS: 4073H

*** WARNING L2: REFERENCE MADE TO UNRESOLVED EXTERNAL
    SYMBOL:  UIP_BUF
    MODULE:  uip_arp.obj (UIP_ARP)
    ADDRESS: 4075H

*** WARNING L2: REFERENCE MADE TO UNRESOLVED EXTERNAL
    SYMBOL:  UIP_BUF
    MODULE:  uip_arp.obj (UIP_ARP)
BL51 BANKED LINKER/LOCATER V6.22                                                      10/13/2015  11:38:09  PAGE 72


    ADDRESS: 4086H

*** WARNING L2: REFERENCE MADE TO UNRESOLVED EXTERNAL
    SYMBOL:  UIP_BUF
    MODULE:  uip_arp.obj (UIP_ARP)
    ADDRESS: 4088H

*** WARNING L2: REFERENCE MADE TO UNRESOLVED EXTERNAL
    SYMBOL:  UIP_BUF
    MODULE:  uip_arp.obj (UIP_ARP)
    ADDRESS: 4099H

*** WARNING L2: REFERENCE MADE TO UNRESOLVED EXTERNAL
    SYMBOL:  UIP_BUF
    MODULE:  uip_arp.obj (UIP_ARP)
    ADDRESS: 409BH

*** WARNING L2: REFERENCE MADE TO UNRESOLVED EXTERNAL
    SYMBOL:  UIP_BUF
    MODULE:  uip_arp.obj (UIP_ARP)
    ADDRESS: 40A1H

*** WARNING L2: REFERENCE MADE TO UNRESOLVED EXTERNAL
    SYMBOL:  UIP_BUF
    MODULE:  uip_arp.obj (UIP_ARP)
    ADDRESS: 40A3H

*** WARNING L2: REFERENCE MADE TO UNRESOLVED EXTERNAL
    SYMBOL:  UIP_BUF
    MODULE:  uip_arp.obj (UIP_ARP)
    ADDRESS: 40ACH

*** WARNING L2: REFERENCE MADE TO UNRESOLVED EXTERNAL
    SYMBOL:  UIP_BUF
    MODULE:  uip_arp.obj (UIP_ARP)
    ADDRESS: 40B3H

*** WARNING L2: REFERENCE MADE TO UNRESOLVED EXTERNAL
    SYMBOL:  UIP_BUF
    MODULE:  uip_arp.obj (UIP_ARP)
    ADDRESS: 40BBH

*** WARNING L2: REFERENCE MADE TO UNRESOLVED EXTERNAL
    SYMBOL:  UIP_BUF
    MODULE:  uip_arp.obj (UIP_ARP)
    ADDRESS: 40C2H

*** WARNING L2: REFERENCE MADE TO UNRESOLVED EXTERNAL
    SYMBOL:  UIP_HOSTADDR
    MODULE:  uip_arp.obj (UIP_ARP)
    ADDRESS: 40CAH

*** WARNING L2: REFERENCE MADE TO UNRESOLVED EXTERNAL
    SYMBOL:  UIP_BUF
    MODULE:  uip_arp.obj (UIP_ARP)
    ADDRESS: 40D1H

BL51 BANKED LINKER/LOCATER V6.22                                                      10/13/2015  11:38:09  PAGE 73


*** WARNING L2: REFERENCE MADE TO UNRESOLVED EXTERNAL
    SYMBOL:  UIP_HOSTADDR
    MODULE:  uip_arp.obj (UIP_ARP)
    ADDRESS: 40D9H

*** WARNING L2: REFERENCE MADE TO UNRESOLVED EXTERNAL
    SYMBOL:  UIP_BUF
    MODULE:  uip_arp.obj (UIP_ARP)
    ADDRESS: 40E0H

*** WARNING L2: REFERENCE MADE TO UNRESOLVED EXTERNAL
    SYMBOL:  UIP_BUF
    MODULE:  uip_arp.obj (UIP_ARP)
    ADDRESS: 40E8H

*** WARNING L2: REFERENCE MADE TO UNRESOLVED EXTERNAL
    SYMBOL:  UIP_LEN
    MODULE:  uip_arp.obj (UIP_ARP)
    ADDRESS: 40F2H

*** WARNING L2: REFERENCE MADE TO UNRESOLVED EXTERNAL
    SYMBOL:  UIP_HOSTADDR
    MODULE:  uip_arp.obj (UIP_ARP)
    ADDRESS: 40FCH

*** WARNING L2: REFERENCE MADE TO UNRESOLVED EXTERNAL
    SYMBOL:  UIP_BUF
    MODULE:  uip_arp.obj (UIP_ARP)
    ADDRESS: 4104H

*** WARNING L2: REFERENCE MADE TO UNRESOLVED EXTERNAL
    SYMBOL:  UIP_HOSTADDR
    MODULE:  uip_arp.obj (UIP_ARP)
    ADDRESS: 4110H

*** WARNING L2: REFERENCE MADE TO UNRESOLVED EXTERNAL
    SYMBOL:  UIP_BUF
    MODULE:  uip_arp.obj (UIP_ARP)
    ADDRESS: 4118H

*** WARNING L2: REFERENCE MADE TO UNRESOLVED EXTERNAL
    SYMBOL:  UIP_BUF
    MODULE:  uip_arp.obj (UIP_ARP)
    ADDRESS: 412BH

*** WARNING L2: REFERENCE MADE TO UNRESOLVED EXTERNAL
    SYMBOL:  UIP_BUF
    MODULE:  uip_arp.obj (UIP_ARP)
    ADDRESS: 412FH

*** WARNING L2: REFERENCE MADE TO UNRESOLVED EXTERNAL
    SYMBOL:  UIP_BUF
    MODULE:  uip_arp.obj (UIP_ARP)
    ADDRESS: 4134H

*** WARNING L2: REFERENCE MADE TO UNRESOLVED EXTERNAL
    SYMBOL:  UIP_BUF
BL51 BANKED LINKER/LOCATER V6.22                                                      10/13/2015  11:38:09  PAGE 74


    MODULE:  uip_arp.obj (UIP_ARP)
    ADDRESS: 4136H

*** WARNING L2: REFERENCE MADE TO UNRESOLVED EXTERNAL
    SYMBOL:  UIP_ARP_NETMASK
    MODULE:  uip_arp.obj (UIP_ARP)
    ADDRESS: 27F5H

*** WARNING L2: REFERENCE MADE TO UNRESOLVED EXTERNAL
    SYMBOL:  UIP_HOSTADDR
    MODULE:  uip_arp.obj (UIP_ARP)
    ADDRESS: 27FDH

*** WARNING L2: REFERENCE MADE TO UNRESOLVED EXTERNAL
    SYMBOL:  UIP_ARP_NETMASK
    MODULE:  uip_arp.obj (UIP_ARP)
    ADDRESS: 2807H

*** WARNING L2: REFERENCE MADE TO UNRESOLVED EXTERNAL
    SYMBOL:  UIP_BUF
    MODULE:  uip_arp.obj (UIP_ARP)
    ADDRESS: 280FH

*** WARNING L2: REFERENCE MADE TO UNRESOLVED EXTERNAL
    SYMBOL:  UIP_ARP_NETMASK
    MODULE:  uip_arp.obj (UIP_ARP)
    ADDRESS: 281FH

*** WARNING L2: REFERENCE MADE TO UNRESOLVED EXTERNAL
    SYMBOL:  UIP_HOSTADDR
    MODULE:  uip_arp.obj (UIP_ARP)
    ADDRESS: 2827H

*** WARNING L2: REFERENCE MADE TO UNRESOLVED EXTERNAL
    SYMBOL:  UIP_ARP_NETMASK
    MODULE:  uip_arp.obj (UIP_ARP)
    ADDRESS: 2831H

*** WARNING L2: REFERENCE MADE TO UNRESOLVED EXTERNAL
    SYMBOL:  UIP_BUF
    MODULE:  uip_arp.obj (UIP_ARP)
    ADDRESS: 2839H

*** WARNING L2: REFERENCE MADE TO UNRESOLVED EXTERNAL
    SYMBOL:  UIP_ARP_DRADDR
    MODULE:  uip_arp.obj (UIP_ARP)
    ADDRESS: 284DH

*** WARNING L2: REFERENCE MADE TO UNRESOLVED EXTERNAL
    SYMBOL:  UIP_ARP_DRADDR
    MODULE:  uip_arp.obj (UIP_ARP)
    ADDRESS: 285CH

*** WARNING L2: REFERENCE MADE TO UNRESOLVED EXTERNAL
    SYMBOL:  UIP_BUF
    MODULE:  uip_arp.obj (UIP_ARP)
    ADDRESS: 286DH
BL51 BANKED LINKER/LOCATER V6.22                                                      10/13/2015  11:38:09  PAGE 75



*** WARNING L2: REFERENCE MADE TO UNRESOLVED EXTERNAL
    SYMBOL:  UIP_BUF
    MODULE:  uip_arp.obj (UIP_ARP)
    ADDRESS: 28F4H

*** WARNING L2: REFERENCE MADE TO UNRESOLVED EXTERNAL
    SYMBOL:  UIP_BUF
    MODULE:  uip_arp.obj (UIP_ARP)
    ADDRESS: 28F6H

*** WARNING L2: REFERENCE MADE TO UNRESOLVED EXTERNAL
    SYMBOL:  UIP_BUF
    MODULE:  uip_arp.obj (UIP_ARP)
    ADDRESS: 2903H

*** WARNING L2: REFERENCE MADE TO UNRESOLVED EXTERNAL
    SYMBOL:  UIP_BUF
    MODULE:  uip_arp.obj (UIP_ARP)
    ADDRESS: 2905H

*** WARNING L2: REFERENCE MADE TO UNRESOLVED EXTERNAL
    SYMBOL:  UIP_BUF
    MODULE:  uip_arp.obj (UIP_ARP)
    ADDRESS: 290AH

*** WARNING L2: REFERENCE MADE TO UNRESOLVED EXTERNAL
    SYMBOL:  UIP_BUF
    MODULE:  uip_arp.obj (UIP_ARP)
    ADDRESS: 290CH

*** WARNING L2: REFERENCE MADE TO UNRESOLVED EXTERNAL
    SYMBOL:  UIP_BUF
    MODULE:  uip_arp.obj (UIP_ARP)
    ADDRESS: 291DH

*** WARNING L2: REFERENCE MADE TO UNRESOLVED EXTERNAL
    SYMBOL:  UIP_BUF
    MODULE:  uip_arp.obj (UIP_ARP)
    ADDRESS: 291FH

*** WARNING L2: REFERENCE MADE TO UNRESOLVED EXTERNAL
    SYMBOL:  UIP_BUF
    MODULE:  uip_arp.obj (UIP_ARP)
    ADDRESS: 2937H

*** WARNING L2: REFERENCE MADE TO UNRESOLVED EXTERNAL
    SYMBOL:  UIP_BUF
    MODULE:  uip_arp.obj (UIP_ARP)
    ADDRESS: 2946H

*** WARNING L2: REFERENCE MADE TO UNRESOLVED EXTERNAL
    SYMBOL:  UIP_HOSTADDR
    MODULE:  uip_arp.obj (UIP_ARP)
    ADDRESS: 294EH

*** WARNING L2: REFERENCE MADE TO UNRESOLVED EXTERNAL
BL51 BANKED LINKER/LOCATER V6.22                                                      10/13/2015  11:38:09  PAGE 76


    SYMBOL:  UIP_BUF
    MODULE:  uip_arp.obj (UIP_ARP)
    ADDRESS: 2955H

*** WARNING L2: REFERENCE MADE TO UNRESOLVED EXTERNAL
    SYMBOL:  UIP_HOSTADDR
    MODULE:  uip_arp.obj (UIP_ARP)
    ADDRESS: 295DH

*** WARNING L2: REFERENCE MADE TO UNRESOLVED EXTERNAL
    SYMBOL:  UIP_BUF
    MODULE:  uip_arp.obj (UIP_ARP)
    ADDRESS: 2964H

*** WARNING L2: REFERENCE MADE TO UNRESOLVED EXTERNAL
    SYMBOL:  UIP_BUF
    MODULE:  uip_arp.obj (UIP_ARP)
    ADDRESS: 296CH

*** WARNING L2: REFERENCE MADE TO UNRESOLVED EXTERNAL
    SYMBOL:  UIP_BUF
    MODULE:  uip_arp.obj (UIP_ARP)
    ADDRESS: 2974H

*** WARNING L2: REFERENCE MADE TO UNRESOLVED EXTERNAL
    SYMBOL:  UIP_BUF
    MODULE:  uip_arp.obj (UIP_ARP)
    ADDRESS: 298BH

*** WARNING L2: REFERENCE MADE TO UNRESOLVED EXTERNAL
    SYMBOL:  UIP_APPDATA
    MODULE:  uip_arp.obj (UIP_ARP)
    ADDRESS: 2995H

*** WARNING L2: REFERENCE MADE TO UNRESOLVED EXTERNAL
    SYMBOL:  UIP_BUF
    MODULE:  uip_arp.obj (UIP_ARP)
    ADDRESS: 299CH

*** WARNING L2: REFERENCE MADE TO UNRESOLVED EXTERNAL
    SYMBOL:  UIP_BUF
    MODULE:  uip_arp.obj (UIP_ARP)
    ADDRESS: 29A0H

*** WARNING L2: REFERENCE MADE TO UNRESOLVED EXTERNAL
    SYMBOL:  UIP_LEN
    MODULE:  uip_arp.obj (UIP_ARP)
    ADDRESS: 29A3H

*** WARNING L2: REFERENCE MADE TO UNRESOLVED EXTERNAL
    SYMBOL:  UIP_BUF
    MODULE:  uip_arp.obj (UIP_ARP)
    ADDRESS: 29BDH

*** WARNING L2: REFERENCE MADE TO UNRESOLVED EXTERNAL
    SYMBOL:  UIP_BUF
    MODULE:  uip_arp.obj (UIP_ARP)
BL51 BANKED LINKER/LOCATER V6.22                                                      10/13/2015  11:38:09  PAGE 77


    ADDRESS: 29BFH

*** WARNING L2: REFERENCE MADE TO UNRESOLVED EXTERNAL
    SYMBOL:  UIP_BUF
    MODULE:  uip_arp.obj (UIP_ARP)
    ADDRESS: 29CAH

*** WARNING L2: REFERENCE MADE TO UNRESOLVED EXTERNAL
    SYMBOL:  UIP_BUF
    MODULE:  uip_arp.obj (UIP_ARP)
    ADDRESS: 29CCH

*** WARNING L2: REFERENCE MADE TO UNRESOLVED EXTERNAL
    SYMBOL:  UIP_BUF
    MODULE:  uip_arp.obj (UIP_ARP)
    ADDRESS: 29DDH

*** WARNING L2: REFERENCE MADE TO UNRESOLVED EXTERNAL
    SYMBOL:  UIP_LEN
    MODULE:  uip_arp.obj (UIP_ARP)
    ADDRESS: 29E6H

*** WARNING L2: REFERENCE MADE TO UNRESOLVED EXTERNAL
    SYMBOL:  UIP_LEN
    MODULE:  uip_arp.obj (UIP_ARP)
    ADDRESS: 29EDH

Program Size: data=64.2 xdata=1069 code=24183
LINK/LOCATE RUN COMPLETE.  178 WARNING(S),  0 ERROR(S)
