Component: ARM Compiler 5.05 update 1 (build 106) Tool: armlink [4d0efa]

==============================================================================

Section Cross References

    main.o(.text) refers to lcd.o(.text) for LCD_Clear
    main.o(.text) refers to sys.o(.text) for inttohex
    main.o(.text) refers to touch.o(.text) for TP_Adjust
    main.o(.text) refers to delay.o(.text) for delay_ms
    main.o(.text) refers to pcf8574.o(.text) for PCF8574_I2C_GPIO_Config
    main.o(.text) refers to usart.o(.text) for Uart1_init
    main.o(.text) refers to flash.o(.text) for SPI_Flash_Init
    main.o(.text) refers to stm32f10x_gpio.o(.text) for GPIO_SetBits
    main.o(.text) refers to lcd.o(.data) for POINT_COLOR
    main.o(.text) refers to lcd.o(.bss) for lcddev
    main.o(.text) refers to main.o(.data) for state
    system_stm32f10x.o(.text) refers to system_stm32f10x.o(.data) for SystemCoreClock
    led.o(.text) refers to stm32f10x_rcc.o(.text) for RCC_APB2PeriphClockCmd
    led.o(.text) refers to stm32f10x_gpio.o(.text) for GPIO_Init
    key.o(.text) refers to stm32f10x_rcc.o(.text) for RCC_APB2PeriphClockCmd
    key.o(.text) refers to stm32f10x_gpio.o(.text) for GPIO_Init
    key.o(.text) refers to delay.o(.text) for delay_ms
    key.o(.text) refers to pcf8574.o(.text) for PCF8574_I2C_GPIO_Config
==============================================================================

Removing Unused input sections from the image.

    Removing led.o(.text), (108 bytes).
    Removing key.o(.text), (616 bytes).
    Removing key.o(.data), (34 bytes).
    Removing myiic.o(.text), (640 bytes).
    Removing 24cxx.o(.text), (378 bytes).
    Removing keypad.o(.text), (1792 bytes).
    Removing keypad.o(.constdata), (47 bytes).
    Removing keypad.o(.data), (5 bytes).
    Removing relay.o(.text), (216 bytes).
    Removing dht11.o(.text), (964 bytes).
    Removing dht11.o(.data), (34 bytes).
    Removing dc_motor.o(.text), (164 bytes).
    Removing step_motor.o(.text), (292 bytes).
    Removing step_motor.o(.data), (8 bytes).
    Removing dot_matrix.o(.text), (492 bytes).
    Removing dot_matrix.o(.constdata), (464 bytes).
    Removing dot_matrix.o(.data), (96 bytes).
    Removing bmp085.o(.text), (1720 bytes).
==============================================================================

Image Symbol Table

    Local Symbols

    Symbol Name                              Value     Ov Type        Size  Object(Section)

    ../clib/angel/boardlib.s                 0x00000000   Number         0  boardinit3.o ABSOLUTE
    ../clib/angel/boardlib.s                 0x00000000   Number         0  boardinit2.o ABSOLUTE
    ../clib/angel/boardlib.s                 0x00000000   Number         0  boardinit1.o ABSOLUTE
    ../clib/angel/boardlib.s                 0x00000000   Number         0  boardshut.o ABSOLUTE
    ../clib/angel/dczerorl2.s                0x00000000   Number         0  __dczerorl2.o ABSOLUTE
    ../clib/angel/handlers.s                 0x00000000   Number         0  __scatter_zi.o ABSOLUTE
    ../clib/angel/kernel.s                   0x00000000   Number         0  __rtentry.o ABSOLUTE
    ../clib/angel/kernel.s                   0x00000000   Number         0  rtexit.o ABSOLUTE
    ../clib/angel/kernel.s                   0x00000000   Number         0  __rtentry2.o ABSOLUTE
    ../clib/angel/kernel.s                   0x00000000   Number         0  __rtentry4.o ABSOLUTE
    ../clib/angel/kernel.s                   0x00000000   Number         0  rtexit2.o ABSOLUTE
    ../clib/angel/rt.s                       0x00000000   Number         0  rt_errno_addr_intlibspace.o ABSOLUTE
    ../clib/angel/rt.s                       0x00000000   Number         0  rt_raise.o ABSOLUTE
    ../clib/angel/rt.s                       0x00000000   Number         0  rt_errno_addr.o ABSOLUTE
    ../clib/angel/scatter.s                  0x00000000   Number         0  __scatter.o ABSOLUTE
    ../clib/angel/startup.s                  0x00000000   Number         0  __main.o ABSOLUTE
    ../clib/angel/sys.s                      0x00000000   Number         0  indicate_semi.o ABSOLUTE
    ../clib/angel/sys.s                      0x00000000   Number         0  libspace.o ABSOLUTE
    ../clib/angel/sys.s                      0x00000000   Number         0  sys_stackheap_outer.o ABSOLUTE
    ../clib/angel/sys.s                      0x00000000   Number         0  use_no_semi.o ABSOLUTE
    ../clib/angel/sys.s                      0x00000000   Number         0  use_no_semi_2.o ABSOLUTE
    ../clib/angel/sysapp.c                   0x00000000   Number         0  sys_command.o ABSOLUTE
    ../clib/armsys.c                         0x00000000   Number         0  no_argv.o ABSOLUTE
    ../clib/armsys.c                         0x00000000   Number         0  argv_veneer.o ABSOLUTE
    ../clib/armsys.c                         0x00000000   Number         0  argv_veneer.o ABSOLUTE
    ../clib/armsys.c                         0x00000000   Number         0  _get_argv_nomalloc.o ABSOLUTE
    ../clib/fenv.c                           0x00000000   Number         0  _rserrno.o ABSOLUTE
    ../clib/heapalloc.c                      0x00000000   Number         0  hrguard.o ABSOLUTE
    ../clib/heapaux.c                        0x00000000   Number         0  heapauxi.o ABSOLUTE
    ../clib/libinit.s                        0x00000000   Number         0  libshutdown2.o ABSOLUTE
    ../clib/libinit.s                        0x00000000   Number         0  libinit.o ABSOLUTE
    ../clib/libinit.s                        0x00000000   Number         0  libinit2.o ABSOLUTE
    ../clib/libinit.s                        0x00000000   Number         0  libshutdown.o ABSOLUTE
    ../clib/memcpset.s                       0x00000000   Number         0  rt_memcpy_w.o ABSOLUTE
    ../clib/printf.c                         0x00000000   Number         0  _printf_hex_int.o ABSOLUTE
    ../clib/printf.c                         0x00000000   Number         0  __2printf.o ABSOLUTE
    ../clib/printf.c                         0x00000000   Number         0  _printf_char_common.o ABSOLUTE
    ../clib/printf.c                         0x00000000   Number         0  _printf_dec.o ABSOLUTE
    ../clib/printf.c                         0x00000000   Number         0  _printf_hex_ll.o ABSOLUTE
    ../clib/printf.c                         0x00000000   Number         0  _printf_intcommon.o ABSOLUTE
    ../clib/printf.c                         0x00000000   Number         0  _printf_char.o ABSOLUTE
    ../clib/printf.c                         0x00000000   Number         0  _printf_hex_int_ll.o ABSOLUTE
    ../clib/printf.c                         0x00000000   Number         0  __printf.o ABSOLUTE
    ../clib/printf.c                         0x00000000   Number         0  __printf_flags_ss_wp.o ABSOLUTE
    ../clib/printf.c                         0x00000000   Number         0  __printf_ss_wp.o ABSOLUTE
    ../clib/printf.c                         0x00000000   Number         0  __printf_flags_wp.o ABSOLUTE
    ../clib/printf.c                         0x00000000   Number         0  __printf_wp.o ABSOLUTE
    ../clib/printf.c                         0x00000000   Number         0  __printf_flags_ss.o ABSOLUTE
    ../clib/printf.c                         0x00000000   Number         0  __printf_ss.o ABSOLUTE
    ../clib/printf.c                         0x00000000   Number         0  __printf_flags.o ABSOLUTE
    ../clib/printf.c                         0x00000000   Number         0  _printf_hex_ll_ptr.o ABSOLUTE
    ../clib/printf.c                         0x00000000   Number         0  _printf_hex_int_ptr.o ABSOLUTE
    ../clib/printf.c                         0x00000000   Number         0  _printf_hex_ptr.o ABSOLUTE
    ../clib/printf.c                         0x00000000   Number         0  noretval__2printf.o ABSOLUTE
    ../clib/printf.c                         0x00000000   Number         0  _printf_char_file.o ABSOLUTE
    ../clib/printf.c                         0x00000000   Number         0  _printf_hex_int_ll_ptr.o ABSOLUTE
    ../clib/printf.c                         0x00000000   Number         0  __printf_nopercent.o ABSOLUTE
    ../clib/printf.c                         0x00000000   Number         0  _printf_str.o ABSOLUTE
    ../clib/printf_percent.s                 0x00000000   Number         0  _printf_percent_end.o ABSOLUTE
    ../clib/printf_percent.s                 0x00000000   Number         0  _printf_c.o ABSOLUTE
    ../clib/printf_percent.s                 0x00000000   Number         0  _printf_percent.o ABSOLUTE
    ../clib/printf_percent.s                 0x00000000   Number         0  _printf_d.o ABSOLUTE
    ../clib/printf_percent.s                 0x00000000   Number         0  _printf_x.o ABSOLUTE
    ../clib/signal.c                         0x00000000   Number         0  defsig_rtmem_inner.o ABSOLUTE
    ../clib/signal.c                         0x00000000   Number         0  defsig_rtmem_formal.o ABSOLUTE
    ../clib/signal.c                         0x00000000   Number         0  defsig_rtmem_outer.o ABSOLUTE
    ../clib/signal.c                         0x00000000   Number         0  __raise.o ABSOLUTE
    ../clib/signal.c                         0x00000000   Number         0  defsig_general.o ABSOLUTE
    ../clib/signal.c                         0x00000000   Number         0  defsig_abrt_inner.o ABSOLUTE
    ../clib/signal.c                         0x00000000   Number         0  defsig_fpe_inner.o ABSOLUTE
    ../clib/signal.c                         0x00000000   Number         0  defsig_rtred_inner.o ABSOLUTE
    ../clib/signal.c                         0x00000000   Number         0  defsig_stak_inner.o ABSOLUTE
    ../clib/signal.c                         0x00000000   Number         0  defsig_pvfn_inner.o ABSOLUTE
    ../clib/signal.c                         0x00000000   Number         0  defsig_cppl_inner.o ABSOLUTE
    ../clib/signal.c                         0x00000000   Number         0  defsig_segv_inner.o ABSOLUTE
    ../clib/signal.c                         0x00000000   Number         0  defsig_other.o ABSOLUTE
    ../clib/signal.c                         0x00000000   Number         0  defsig_exit.o ABSOLUTE
    ../clib/signal.s                         0x00000000   Number         0  defsig.o ABSOLUTE
    ../clib/stdio.c                          0x00000000   Number         0  ferror.o ABSOLUTE
    ../clib/stdio.c                          0x00000000   Number         0  ferror_locked.o ABSOLUTE
    ../clib/stdlib.c                         0x00000000   Number         0  exit.o ABSOLUTE
    ../clib/string.c                         0x00000000   Number         0  strstr.o ABSOLUTE
    ../clib/string.c                         0x00000000   Number         0  strncmp.o ABSOLUTE
    ../fplib/dcmpi.s                         0x00000000   Number         0  dcmpi.o ABSOLUTE
    ../fplib/dfixu.s                         0x00000000   Number         0  dfixu.o ABSOLUTE
    ../fplib/dflt.s                          0x00000000   Number         0  dflt_clz.o ABSOLUTE
    ../fplib/dleqf.s                         0x00000000   Number         0  dleqf.o ABSOLUTE
    ../fplib/dnaninf.s                       0x00000000   Number         0  dnaninf.o ABSOLUTE
    ../fplib/dretinf.s                       0x00000000   Number         0  dretinf.o ABSOLUTE
    ../fplib/drleqf.s                        0x00000000   Number         0  drleqf.o ABSOLUTE
    ../fplib/dsqrt.s                         0x00000000   Number         0  dsqrt_noumaal.o ABSOLUTE
    ../fplib/f2d.s                           0x00000000   Number         0  f2d.o ABSOLUTE
    ../fplib/faddsub.s                       0x00000000   Number         0  faddsub_clz.o ABSOLUTE
    ../fplib/fdiv.s                          0x00000000   Number         0  fdiv.o ABSOLUTE
    ../fplib/ffix.s                          0x00000000   Number         0  ffix.o ABSOLUTE
    ../fplib/ffixu.s                         0x00000000   Number         0  ffixu.o ABSOLUTE
    ../fplib/fflt.s                          0x00000000   Number         0  fflt_clz.o ABSOLUTE
    ../fplib/fmul.s                          0x00000000   Number         0  fmul.o ABSOLUTE
    ../fplib/fnaninf.s                       0x00000000   Number         0  fnaninf.o ABSOLUTE
    ../fplib/fpinit.s                        0x00000000   Number         0  fpinit.o ABSOLUTE
    ../fplib/fretinf.s                       0x00000000   Number         0  fretinf.o ABSOLUTE
    ../fplib/usenofp.s                       0x00000000   Number         0  usenofp.o ABSOLUTE
    ../mathlib/sqrt.c                        0x00000000   Number         0  sqrt_x.o ABSOLUTE
    ../mathlib/sqrt.c                        0x00000000   Number         0  sqrt.o ABSOLUTE
    ..\CORE\core_cm3.c                       0x00000000   Number         0  core_cm3.o ABSOLUTE
    ..\CORE\startup_stm32f10x_hd.s           0x00000000   Number         0  startup_stm32f10x_hd.o ABSOLUTE
    ..\HARDWARE\24CXX\24cxx.c                0x00000000   Number         0  24cxx.o ABSOLUTE
    ..\HARDWARE\ACC_GAS_PRE\bmp085.c         0x00000000   Number         0  bmp085.o ABSOLUTE
    ..\HARDWARE\DC_MOTOR\DC_motor.c          0x00000000   Number         0  dc_motor.o ABSOLUTE
    ..\HARDWARE\DHT11\dht11.c                0x00000000   Number         0  dht11.o ABSOLUTE
    ..\HARDWARE\DIP\Dot_Matrix.c             0x00000000   Number         0  dot_matrix.o ABSOLUTE
    ..\HARDWARE\ENC28J60\SPI.C               0x00000000   Number         0  spi.o ABSOLUTE
    ..\HARDWARE\ENC28J60\enc28j60.c          0x00000000   Number         0  enc28j60.o ABSOLUTE
    ..\HARDWARE\ENC28J60\ip_arp_udp_tcp.c    0x00000000   Number         0  ip_arp_udp_tcp.o ABSOLUTE
    ..\HARDWARE\ENC28J60\simple_server.c     0x00000000   Number         0  simple_server.o ABSOLUTE
    ..\HARDWARE\FLASH\flash.c                0x00000000   Number         0  flash.o ABSOLUTE
    ..\HARDWARE\IIC\myiic.c                  0x00000000   Number         0  myiic.o ABSOLUTE
    ..\HARDWARE\KEYPAD\keypad.c              0x00000000   Number         0  keypad.o ABSOLUTE
    ..\HARDWARE\KEY\key.c                    0x00000000   Number         0  key.o ABSOLUTE
    ..\HARDWARE\LCD\lcd.c                    0x00000000   Number         0  lcd.o ABSOLUTE
    ..\HARDWARE\LED\led.c                    0x00000000   Number         0  led.o ABSOLUTE
    ..\HARDWARE\MMA7455\MMA7455.c            0x00000000   Number         0  mma7455.o ABSOLUTE
    ..\HARDWARE\PCF8574\PCF8574.c            0x00000000   Number         0  pcf8574.o ABSOLUTE
    ..\HARDWARE\RELAY\relay.c                0x00000000   Number         0  relay.o ABSOLUTE
    ..\HARDWARE\STEP_MOTOR\step_motor.c      0x00000000   Number         0  step_motor.o ABSOLUTE
    ..\HARDWARE\TOUCH\touch.c                0x00000000   Number         0  touch.o ABSOLUTE
    ..\STM32F10x_FWLib\src\misc.c            0x00000000   Number         0  misc.o ABSOLUTE
    ..\STM32F10x_FWLib\src\stm32f10x_fsmc.c  0x00000000   Number         0  stm32f10x_fsmc.o ABSOLUTE
    ..\STM32F10x_FWLib\src\stm32f10x_gpio.c  0x00000000   Number         0  stm32f10x_gpio.o ABSOLUTE
    ..\STM32F10x_FWLib\src\stm32f10x_rcc.c   0x00000000   Number         0  stm32f10x_rcc.o ABSOLUTE
    ..\STM32F10x_FWLib\src\stm32f10x_spi.c   0x00000000   Number         0  stm32f10x_spi.o ABSOLUTE
    ..\STM32F10x_FWLib\src\stm32f10x_usart.c 0x00000000   Number         0  stm32f10x_usart.o ABSOLUTE
    ..\SYSTEM\delay\delay.c                  0x00000000   Number         0  delay.o ABSOLUTE
    ..\SYSTEM\sys\sys.c                      0x00000000   Number         0  sys.o ABSOLUTE
    ..\SYSTEM\usart\usart.c                  0x00000000   Number         0  usart.o ABSOLUTE
    ..\\CORE\\core_cm3.c                     0x00000000   Number         0  core_cm3.o ABSOLUTE
    dc.s                                     0x00000000   Number         0  dc.o ABSOLUTE
    main.c                                   0x00000000   Number         0  main.o ABSOLUTE
    stm32f10x_it.c                           0x00000000   Number         0  stm32f10x_it.o ABSOLUTE
    system_stm32f10x.c                       0x00000000   Number         0  system_stm32f10x.o ABSOLUTE
    RESET                                    0x08000000   Section      304  startup_stm32f10x_hd.o(RESET)
    !!!main                                  0x08000130   Section        8  __main.o(!!!main)
    !!!scatter                               0x08000138   Section       52  __scatter.o(!!!scatter)
    !!dczerorl2                              0x0800016c   Section       90  __dczerorl2.o(!!dczerorl2)
    !!handler_zi                             0x080001c8   Section       28  __scatter_zi.o(!!handler_zi)
    .ARM.Collect$$libinit$$00000000          0x080001e4   Section        2  libinit.o(.ARM.Collect$$libinit$$00000000)
    .ARM.Collect$$libinit$$00000002          0x080001e6   Section        0  libinit2.o(.ARM.Collect$$libinit$$00000002)
    .ARM.Collect$$libinit$$00000004          0x080001e6   Section        0  libinit2.o(.ARM.Collect$$libinit$$00000004)
    .ARM.Collect$$libinit$$0000000A          0x080001e6   Section        0  libinit2.o(.ARM.Collect$$libinit$$0000000A)
    .ARM.Collect$$libinit$$0000000C          0x080001e6   Section        0  libinit2.o(.ARM.Collect$$libinit$$0000000C)
    .ARM.Collect$$libinit$$0000000E          0x080001e6   Section        0  libinit2.o(.ARM.Collect$$libinit$$0000000E)
    .ARM.Collect$$libinit$$00000011          0x080001e6   Section        0  libinit2.o(.ARM.Collect$$libinit$$00000011)
    .ARM.Collect$$libinit$$00000013          0x080001e6   Section        0  libinit2.o(.ARM.Collect$$libinit$$00000013)
    .ARM.Collect$$libinit$$00000015          0x080001e6   Section        0  libinit2.o(.ARM.Collect$$libinit$$00000015)
    .ARM.Collect$$libinit$$00000017          0x080001e6   Section        0  libinit2.o(.ARM.Collect$$libinit$$00000017)
    .ARM.Collect$$libinit$$00000019          0x080001e6   Section        0  libinit2.o(.ARM.Collect$$libinit$$00000019)
    .ARM.Collect$$libinit$$0000001B          0x080001e6   Section        0  libinit2.o(.ARM.Collect$$libinit$$0000001B)
    .ARM.Collect$$libinit$$0000001D          0x080001e6   Section        0  libinit2.o(.ARM.Collect$$libinit$$0000001D)
    .ARM.Collect$$libinit$$0000001F          0x080001e6   Section        0  libinit2.o(.ARM.Collect$$libinit$$0000001F)
    .ARM.Collect$$libinit$$00000021          0x080001e6   Section        0  libinit2.o(.ARM.Collect$$libinit$$00000021)
    .ARM.Collect$$libinit$$00000023          0x080001e6   Section        0  libinit2.o(.ARM.Collect$$libinit$$00000023)
    .ARM.Collect$$libinit$$00000025          0x080001e6   Section        0  libinit2.o(.ARM.Collect$$libinit$$00000025)
    .ARM.Collect$$libinit$$0000002C          0x080001e6   Section        0  libinit2.o(.ARM.Collect$$libinit$$0000002C)
    .ARM.Collect$$libinit$$0000002E          0x080001e6   Section        0  libinit2.o(.ARM.Collect$$libinit$$0000002E)
    .ARM.Collect$$libinit$$00000030          0x080001e6   Section        0  libinit2.o(.ARM.Collect$$libinit$$00000030)
    .ARM.Collect$$libinit$$00000032          0x080001e6   Section        0  libinit2.o(.ARM.Collect$$libinit$$00000032)
    .ARM.Collect$$libinit$$00000033          0x080001e6   Section        2  libinit2.o(.ARM.Collect$$libinit$$00000033)
    .ARM.Collect$$libshutdown$$00000000      0x080001e8   Section        2  libshutdown.o(.ARM.Collect$$libshutdown$$00000000)
    .ARM.Collect$$libshutdown$$00000003      0x080001ea   Section        0  libshutdown2.o(.ARM.Collect$$libshutdown$$00000003)
    .ARM.Collect$$libshutdown$$00000006      0x080001ea   Section        0  libshutdown2.o(.ARM.Collect$$libshutdown$$00000006)
    .ARM.Collect$$libshutdown$$00000009      0x080001ea   Section        0  libshutdown2.o(.ARM.Collect$$libshutdown$$00000009)
    .ARM.Collect$$libshutdown$$0000000B      0x080001ea   Section        0  libshutdown2.o(.ARM.Collect$$libshutdown$$0000000B)
    .ARM.Collect$$libshutdown$$0000000E      0x080001ea   Section        0  libshutdown2.o(.ARM.Collect$$libshutdown$$0000000E)
    .ARM.Collect$$libshutdown$$0000000F      0x080001ea   Section        2  libshutdown2.o(.ARM.Collect$$libshutdown$$0000000F)
    .ARM.Collect$$rtentry$$00000000          0x080001ec   Section        0  __rtentry.o(.ARM.Collect$$rtentry$$00000000)
    .ARM.Collect$$rtentry$$00000002          0x080001ec   Section        0  __rtentry2.o(.ARM.Collect$$rtentry$$00000002)
    .ARM.Collect$$rtentry$$00000004          0x080001ec   Section        6  __rtentry4.o(.ARM.Collect$$rtentry$$00000004)
    .ARM.Collect$$rtentry$$00000009          0x080001f2   Section        0  __rtentry2.o(.ARM.Collect$$rtentry$$00000009)
    .ARM.Collect$$rtentry$$0000000A          0x080001f2   Section        4  __rtentry2.o(.ARM.Collect$$rtentry$$0000000A)
    .ARM.Collect$$rtentry$$0000000C          0x080001f6   Section        0  __rtentry2.o(.ARM.Collect$$rtentry$$0000000C)
    .ARM.Collect$$rtentry$$0000000D          0x080001f6   Section        8  __rtentry2.o(.ARM.Collect$$rtentry$$0000000D)
    .ARM.Collect$$rtexit$$00000000           0x080001fe   Section        2  rtexit.o(.ARM.Collect$$rtexit$$00000000)
    .ARM.Collect$$rtexit$$00000002           0x08000200   Section        0  rtexit2.o(.ARM.Collect$$rtexit$$00000002)
    .ARM.Collect$$rtexit$$00000003           0x08000200   Section        4  rtexit2.o(.ARM.Collect$$rtexit$$00000003)
    .ARM.Collect$$rtexit$$00000004           0x08000204   Section        6  rtexit2.o(.ARM.Collect$$rtexit$$00000004)
    .text                                    0x0800020c   Section        0  main.o(.text)
    .text                                    0x0800039c   Section        0  stm32f10x_it.o(.text)
    .text                                    0x080003b8   Section        0  system_stm32f10x.o(.text)
    SetSysClockTo72                          0x080003b9   Thumb Code   214  system_stm32f10x.o(.text)
    SetSysClock                              0x0800048f   Thumb Code     8  system_stm32f10x.o(.text)
    .text                                    0x08000598   Section        0  lcd.o(.text)
    .text                                    0x0800391c   Section        0  flash.o(.text)
    .text                                    0x08003d50   Section        0  touch.o(.text)
    .text                                    0x08004c1c   Section        0  pcf8574.o(.text)
    .text                                    0x08004e58   Section        0  delay.o(.text)
    .text                                    0x08004f2c   Section        0  sys.o(.text)
    .text                                    0x08005014   Section        0  usart.o(.text)
    .text                                    0x080054b4   Section       64  startup_stm32f10x_hd.o(.text)
    .text                                    0x080054f4   Section        0  stm32f10x_fsmc.o(.text)
    .text                                    0x08005b00   Section        0  stm32f10x_gpio.o(.text)
    .text                                    0x08005e5c   Section        0  stm32f10x_rcc.o(.text)
    .text                                    0x08006200   Section        0  stm32f10x_usart.o(.text)
    .text                                    0x08006608   Section        0  misc.o(.text)
    .text                                    0x080066e4   Section        2  use_no_semi_2.o(.text)
    .text                                    0x080066e6   Section        0  heapauxi.o(.text)
    .text                                    0x080066ec   Section        2  use_no_semi.o(.text)
    .text                                    0x080066ee   Section        0  _rserrno.o(.text)
    .text                                    0x08006704   Section        8  rt_errno_addr_intlibspace.o(.text)
    .text                                    0x0800670c   Section        8  libspace.o(.text)
    .text                                    0x08006714   Section       74  sys_stackheap_outer.o(.text)
    .text                                    0x0800675e   Section        0  exit.o(.text)
    i.sqrt                                   0x0800676a   Section        0  sqrt.o(i.sqrt)
    x$fpl$dcmpinf                            0x080067b6   Section       24  dcmpi.o(x$fpl$dcmpinf)
    x$fpl$dfixu                              0x080067d0   Section       90  dfixu.o(x$fpl$dfixu)
    x$fpl$dfltu                              0x0800682a   Section       38  dflt_clz.o(x$fpl$dfltu)
    x$fpl$dleqf                              0x08006850   Section      120  dleqf.o(x$fpl$dleqf)
    x$fpl$dnaninf                            0x080068c8   Section      156  dnaninf.o(x$fpl$dnaninf)
    x$fpl$dretinf                            0x08006964   Section       12  dretinf.o(x$fpl$dretinf)
    x$fpl$drleqf                             0x08006970   Section      108  drleqf.o(x$fpl$drleqf)
    x$fpl$dsqrt                              0x080069dc   Section      460  dsqrt_noumaal.o(x$fpl$dsqrt)
    x$fpl$f2d                                0x08006ba8   Section       86  f2d.o(x$fpl$f2d)
    x$fpl$fadd                               0x08006c00   Section      196  faddsub_clz.o(x$fpl$fadd)
    _fadd1                                   0x08006c0f   Thumb Code     0  faddsub_clz.o(x$fpl$fadd)
    x$fpl$fdiv                               0x08006cc4   Section      388  fdiv.o(x$fpl$fdiv)
    _fdiv1                                   0x08006cc5   Thumb Code     0  fdiv.o(x$fpl$fdiv)
    x$fpl$ffix                               0x08006e48   Section       54  ffix.o(x$fpl$ffix)
    x$fpl$ffixu                              0x08006e80   Section       62  ffixu.o(x$fpl$ffixu)
    x$fpl$fflt                               0x08006ec0   Section       48  fflt_clz.o(x$fpl$fflt)
    x$fpl$ffltu                              0x08006ef0   Section       38  fflt_clz.o(x$fpl$ffltu)
    x$fpl$fmul                               0x08006f18   Section      258  fmul.o(x$fpl$fmul)
    x$fpl$fnaninf                            0x0800701a   Section      140  fnaninf.o(x$fpl$fnaninf)
    x$fpl$fretinf                            0x080070a6   Section       10  fretinf.o(x$fpl$fretinf)
    x$fpl$fsub                               0x080070b0   Section      234  faddsub_clz.o(x$fpl$fsub)
    _fsub1                                   0x080070bf   Thumb Code     0  faddsub_clz.o(x$fpl$fsub)
    .constdata                               0x0800719a   Section     2660  lcd.o(.constdata)
    x$fpl$usenofp                            0x0800719a   Section        0  usenofp.o(x$fpl$usenofp)
    .conststring                             0x08007c00   Section      121  touch.o(.conststring)
    .data                                    0x20000000   Section        8  main.o(.data)
    .data                                    0x20000008   Section       20  system_stm32f10x.o(.data)
    .data                                    0x2000001c   Section      284  lcd.o(.data)
    .data                                    0x20000138   Section       48  touch.o(.data)
    .data                                    0x20000168   Section        4  delay.o(.data)
    fac_us                                   0x20000168   Data           1  delay.o(.data)
    fac_ms                                   0x2000016a   Data           2  delay.o(.data)
    .data                                    0x2000016c   Section       17  usart.o(.data)
    BufferCount                              0x2000016e   Data           1  usart.o(.data)
    startadd                                 0x20000178   Data           4  usart.o(.data)
    gsm_count                                0x2000017c   Data           1  usart.o(.data)
    .data                                    0x2000017d   Section       20  stm32f10x_rcc.o(.data)
    APBAHBPrescTable                         0x2000017d   Data          16  stm32f10x_rcc.o(.data)
    ADCPrescTable                            0x2000018d   Data           4  stm32f10x_rcc.o(.data)
    .bss                                     0x20000194   Section      540  lcd.o(.bss)
    .bss                                     0x200003b0   Section      270  usart.o(.bss)
    .bss                                     0x200004c0   Section       96  libspace.o(.bss)
    HEAP                                     0x20000520   Section      512  startup_stm32f10x_hd.o(HEAP)
    Heap_Mem                                 0x20000520   Data         512  startup_stm32f10x_hd.o(HEAP)
    STACK                                    0x20000720   Section     1024  startup_stm32f10x_hd.o(STACK)
    Stack_Mem                                0x20000720   Data        1024  startup_stm32f10x_hd.o(STACK)
    __initial_sp                             0x20000b20   Data           0  startup_stm32f10x_hd.o(STACK)

    Global Symbols

    Symbol Name                              Value     Ov Type        Size  Object(Section)

    BuildAttributes$$THM_ISAv4$P$D$K$B$S$PE$A:L22UL41UL21$X:L11$S22US41US21$IEEE1$IW$USESV6$~STKCKD$USESV7$~SHL$OTIME$ROPI$IEEEJ$EBA8$UX$STANDARDLIB$REQ8$PRES8$EABIv2 0x00000000   Number         0  anon$$obj.o ABSOLUTE
    __ARM_use_no_argv                        0x00000000   Number         0  main.o ABSOLUTE
    __ARM_exceptions_init                     - Undefined Weak Reference
    __alloca_initialize                       - Undefined Weak Reference
    __arm_preinit_                            - Undefined Weak Reference
    __cpp_initialize__aeabi_                  - Undefined Weak Reference
    __cxa_finalize                            - Undefined Weak Reference
    __rt_locale                               - Undefined Weak Reference
    __sigvec_lookup                           - Undefined Weak Reference
    _atexit_init                              - Undefined Weak Reference
    _call_atexit_fns                          - Undefined Weak Reference
    _clock_init                               - Undefined Weak Reference
    _fp_trap_init                             - Undefined Weak Reference
    _fp_trap_shutdown                         - Undefined Weak Reference
    _get_lc_collate                           - Undefined Weak Reference
    _get_lc_ctype                             - Undefined Weak Reference
    _get_lc_monetary                          - Undefined Weak Reference
    _get_lc_numeric                           - Undefined Weak Reference
    _get_lc_time                              - Undefined Weak Reference
    _getenv_init                              - Undefined Weak Reference
    _handle_redirection                       - Undefined Weak Reference
    _init_alloc                               - Undefined Weak Reference
    _init_user_alloc                          - Undefined Weak Reference
    _initio                                   - Undefined Weak Reference
    _mutex_acquire                            - Undefined Weak Reference
    _mutex_release                            - Undefined Weak Reference
    _printf_mbtowc                            - Undefined Weak Reference
    _printf_post_padding                      - Undefined Weak Reference
    _printf_pre_padding                       - Undefined Weak Reference
    _printf_truncate_signed                   - Undefined Weak Reference
    _printf_truncate_unsigned                 - Undefined Weak Reference
    _rand_init                                - Undefined Weak Reference
    _signal_finish                            - Undefined Weak Reference
    _signal_init                              - Undefined Weak Reference
    _terminate_alloc                          - Undefined Weak Reference
    _terminate_user_alloc                     - Undefined Weak Reference
    _terminateio                              - Undefined Weak Reference
    __Vectors_Size                           0x00000130   Number         0  startup_stm32f10x_hd.o ABSOLUTE
    __Vectors                                0x08000000   Data           4  startup_stm32f10x_hd.o(RESET)
    __Vectors_End                            0x08000130   Data           0  startup_stm32f10x_hd.o(RESET)
    __main                                   0x08000131   Thumb Code     8  __main.o(!!!main)
    __scatterload                            0x08000139   Thumb Code     0  __scatter.o(!!!scatter)
    __scatterload_rt2                        0x08000139   Thumb Code    44  __scatter.o(!!!scatter)
    __scatterload_rt2_thumb_only             0x08000139   Thumb Code     0  __scatter.o(!!!scatter)
    __scatterload_null                       0x08000147   Thumb Code     0  __scatter.o(!!!scatter)
    __decompress                             0x0800016d   Thumb Code    90  __dczerorl2.o(!!dczerorl2)
    __decompress1                            0x0800016d   Thumb Code     0  __dczerorl2.o(!!dczerorl2)
    __scatterload_zeroinit                   0x080001c9   Thumb Code    28  __scatter_zi.o(!!handler_zi)
    __rt_lib_init                            0x080001e5   Thumb Code     0  libinit.o(.ARM.Collect$$libinit$$00000000)
    __rt_lib_init_alloca_1                   0x080001e7   Thumb Code     0  libinit2.o(.ARM.Collect$$libinit$$0000002E)
    __rt_lib_init_argv_1                     0x080001e7   Thumb Code     0  libinit2.o(.ARM.Collect$$libinit$$0000002C)
    __rt_lib_init_atexit_1                   0x080001e7   Thumb Code     0  libinit2.o(.ARM.Collect$$libinit$$0000001B)
    __rt_lib_init_clock_1                    0x080001e7   Thumb Code     0  libinit2.o(.ARM.Collect$$libinit$$00000021)
    __rt_lib_init_cpp_1                      0x080001e7   Thumb Code     0  libinit2.o(.ARM.Collect$$libinit$$00000032)
    __rt_lib_init_exceptions_1               0x080001e7   Thumb Code     0  libinit2.o(.ARM.Collect$$libinit$$00000030)
    __rt_lib_init_fp_1                       0x080001e7   Thumb Code     0  libinit2.o(.ARM.Collect$$libinit$$00000002)
    __rt_lib_init_fp_trap_1                  0x080001e7   Thumb Code     0  libinit2.o(.ARM.Collect$$libinit$$0000001F)
    __rt_lib_init_getenv_1                   0x080001e7   Thumb Code     0  libinit2.o(.ARM.Collect$$libinit$$00000023)
    __rt_lib_init_heap_1                     0x080001e7   Thumb Code     0  libinit2.o(.ARM.Collect$$libinit$$0000000A)
    __rt_lib_init_lc_collate_1               0x080001e7   Thumb Code     0  libinit2.o(.ARM.Collect$$libinit$$00000011)
    __rt_lib_init_lc_ctype_1                 0x080001e7   Thumb Code     0  libinit2.o(.ARM.Collect$$libinit$$00000013)
    __rt_lib_init_lc_monetary_1              0x080001e7   Thumb Code     0  libinit2.o(.ARM.Collect$$libinit$$00000015)
    __rt_lib_init_lc_numeric_1               0x080001e7   Thumb Code     0  libinit2.o(.ARM.Collect$$libinit$$00000017)
    __rt_lib_init_lc_time_1                  0x080001e7   Thumb Code     0  libinit2.o(.ARM.Collect$$libinit$$00000019)
    __rt_lib_init_preinit_1                  0x080001e7   Thumb Code     0  libinit2.o(.ARM.Collect$$libinit$$00000004)
    __rt_lib_init_rand_1                     0x080001e7   Thumb Code     0  libinit2.o(.ARM.Collect$$libinit$$0000000E)
    __rt_lib_init_return                     0x080001e7   Thumb Code     0  libinit2.o(.ARM.Collect$$libinit$$00000033)
    __rt_lib_init_signal_1                   0x080001e7   Thumb Code     0  libinit2.o(.ARM.Collect$$libinit$$0000001D)
    __rt_lib_init_stdio_1                    0x080001e7   Thumb Code     0  libinit2.o(.ARM.Collect$$libinit$$00000025)
    __rt_lib_init_user_alloc_1               0x080001e7   Thumb Code     0  libinit2.o(.ARM.Collect$$libinit$$0000000C)
    __rt_lib_shutdown                        0x080001e9   Thumb Code     0  libshutdown.o(.ARM.Collect$$libshutdown$$00000000)
    __rt_lib_shutdown_fp_trap_1              0x080001eb   Thumb Code     0  libshutdown2.o(.ARM.Collect$$libshutdown$$00000006)
    __rt_lib_shutdown_heap_1                 0x080001eb   Thumb Code     0  libshutdown2.o(.ARM.Collect$$libshutdown$$0000000E)
    __rt_lib_shutdown_return                 0x080001eb   Thumb Code     0  libshutdown2.o(.ARM.Collect$$libshutdown$$0000000F)
    __rt_lib_shutdown_signal_1               0x080001eb   Thumb Code     0  libshutdown2.o(.ARM.Collect$$libshutdown$$00000009)
    __rt_lib_shutdown_stdio_1                0x080001eb   Thumb Code     0  libshutdown2.o(.ARM.Collect$$libshutdown$$00000003)
    __rt_lib_shutdown_user_alloc_1           0x080001eb   Thumb Code     0  libshutdown2.o(.ARM.Collect$$libshutdown$$0000000B)
    __rt_entry                               0x080001ed   Thumb Code     0  __rtentry.o(.ARM.Collect$$rtentry$$00000000)
    __rt_entry_presh_1                       0x080001ed   Thumb Code     0  __rtentry2.o(.ARM.Collect$$rtentry$$00000002)
    __rt_entry_sh                            0x080001ed   Thumb Code     0  __rtentry4.o(.ARM.Collect$$rtentry$$00000004)
    __rt_entry_li                            0x080001f3   Thumb Code     0  __rtentry2.o(.ARM.Collect$$rtentry$$0000000A)
    __rt_entry_postsh_1                      0x080001f3   Thumb Code     0  __rtentry2.o(.ARM.Collect$$rtentry$$00000009)
    __rt_entry_main                          0x080001f7   Thumb Code     0  __rtentry2.o(.ARM.Collect$$rtentry$$0000000D)
    __rt_entry_postli_1                      0x080001f7   Thumb Code     0  __rtentry2.o(.ARM.Collect$$rtentry$$0000000C)
    __rt_exit                                0x080001ff   Thumb Code     0  rtexit.o(.ARM.Collect$$rtexit$$00000000)
    __rt_exit_ls                             0x08000201   Thumb Code     0  rtexit2.o(.ARM.Collect$$rtexit$$00000003)
    __rt_exit_prels_1                        0x08000201   Thumb Code     0  rtexit2.o(.ARM.Collect$$rtexit$$00000002)
    __rt_exit_exit                           0x08000205   Thumb Code     0  rtexit2.o(.ARM.Collect$$rtexit$$00000004)
    Load_Drow_Dialog                         0x0800020d   Thumb Code    42  main.o(.text)
    xianshi                                  0x08000237   Thumb Code    50  main.o(.text)
    refshow                                  0x08000269   Thumb Code    74  main.o(.text)
    jiance                                   0x080002b3   Thumb Code    70  main.o(.text)
    beepms                                   0x080002f9   Thumb Code    26  main.o(.text)
    main                                     0x08000313   Thumb Code    92  main.o(.text)
    NMI_Handler                              0x0800039d   Thumb Code     2  stm32f10x_it.o(.text)
    HardFault_Handler                        0x0800039f   Thumb Code     4  stm32f10x_it.o(.text)
    MemManage_Handler                        0x080003a3   Thumb Code     4  stm32f10x_it.o(.text)
    BusFault_Handler                         0x080003a7   Thumb Code     4  stm32f10x_it.o(.text)
    UsageFault_Handler                       0x080003ab   Thumb Code     4  stm32f10x_it.o(.text)
    SVC_Handler                              0x080003af   Thumb Code     2  stm32f10x_it.o(.text)
    DebugMon_Handler                         0x080003b1   Thumb Code     2  stm32f10x_it.o(.text)
    PendSV_Handler                           0x080003b3   Thumb Code     2  stm32f10x_it.o(.text)
    SysTick_Handler                          0x080003b5   Thumb Code     2  stm32f10x_it.o(.text)
    SystemInit                               0x08000497   Thumb Code    78  system_stm32f10x.o(.text)
    SystemCoreClockUpdate                    0x080004e5   Thumb Code   142  system_stm32f10x.o(.text)
    LCD_WR_REG                               0x08000599   Thumb Code    32  lcd.o(.text)
    LCD_WR_DATA                              0x080005b9   Thumb Code    38  lcd.o(.text)
    LCD_RD_DATA                              0x080005df   Thumb Code    32  lcd.o(.text)
    LCD_WR_REG_DATA                          0x080005ff   Thumb Code    20  lcd.o(.text)
    LCD_ReadReg                              0x08000613   Thumb Code    66  lcd.o(.text)
    LCD_WriteRAM_Prepare                     0x08000655   Thumb Code    12  lcd.o(.text)
    LCD_BGR2RGB                              0x08000661   Thumb Code    26  lcd.o(.text)
    opt_delay                                0x0800067b   Thumb Code    14  lcd.o(.text)
    Address_set1121                          0x08000689   Thumb Code    56  lcd.o(.text)
    LCD_SetCursor                            0x080006c1   Thumb Code   494  lcd.o(.text)
    LCD_ReadPoint                            0x080008af   Thumb Code   110  lcd.o(.text)
    LCD_DisplayOn                            0x0800091d   Thumb Code     2  lcd.o(.text)
    LCD_DisplayOff                           0x0800091f   Thumb Code     2  lcd.o(.text)
    LCD_DrawPoint                            0x08000921   Thumb Code    28  lcd.o(.text)
    LCD_Clear                                0x0800093d   Thumb Code    44  lcd.o(.text)
    LCD_Init                                 0x08000969   Thumb Code 10438  lcd.o(.text)
    LCD_Fill                                 0x0800322f   Thumb Code    80  lcd.o(.text)
    LCD_Color_Fill                           0x0800327f   Thumb Code    92  lcd.o(.text)
    LCD_DrawLine                             0x080032db   Thumb Code   206  lcd.o(.text)
    LCD_DrawRectangle                        0x080033a9   Thumb Code    60  lcd.o(.text)
    Draw_Circle                              0x080033e5   Thumb Code   184  lcd.o(.text)
    LCD_ShowChar                             0x0800349d   Thumb Code   362  lcd.o(.text)
    LCD_Pow                                  0x08003607   Thumb Code    22  lcd.o(.text)
    LCD_ShowNum                              0x0800361d   Thumb Code   148  lcd.o(.text)
    LCD_ShowxNum                             0x080036b1   Thumb Code   190  lcd.o(.text)
    LCD_ShowHzString                         0x0800376f   Thumb Code   160  lcd.o(.text)
    LCD_ShowCharString                       0x0800380f   Thumb Code    58  lcd.o(.text)
    LCD_ShowString                           0x08003849   Thumb Code    96  lcd.o(.text)
    showimage                                0x080038a9   Thumb Code    76  lcd.o(.text)
    ziku_test                                0x080038f5   Thumb Code    30  lcd.o(.text)
    SPI_Flash_Init                           0x0800391d   Thumb Code   118  flash.o(.text)
    SPI_FLASH_ReadByte                       0x08003993   Thumb Code    46  flash.o(.text)
    SPI_FLASH_SendByte                       0x080039c1   Thumb Code    58  flash.o(.text)
    SPI_FLASH_WaitForWriteEnd                0x080039fb   Thumb Code    48  flash.o(.text)
    SPI_FLASH_Write_Enable                   0x08003a2b   Thumb Code    30  flash.o(.text)
    SPI_Flash_Erase_Sector                   0x08003a49   Thumb Code    66  flash.o(.text)
    SPI_FLASH_BulkErase                      0x08003a8b   Thumb Code    38  flash.o(.text)
    SPI_FLASH_PageWrite                      0x08003ab1   Thumb Code    96  flash.o(.text)
    SPI_Flash_Write                          0x08003b11   Thumb Code   248  flash.o(.text)
    SPI_Flash_Read                           0x08003c09   Thumb Code    76  flash.o(.text)
    SPI_FLASH_ReadID                         0x08003c55   Thumb Code    72  flash.o(.text)
    SPI_FLASH_ReadDeviceID                   0x08003c9d   Thumb Code    58  flash.o(.text)
    SPI_FLASH_StartReadSequence              0x08003cd7   Thumb Code    44  flash.o(.text)
    SPI_Flash_PowerDown                      0x08003d03   Thumb Code    42  flash.o(.text)
    SPI_Flash_WAKEUP                         0x08003d2d   Thumb Code    30  flash.o(.text)
    TP_Write_Byte                            0x08003d51   Thumb Code    56  touch.o(.text)
    TP_Read_AD                               0x08003d89   Thumb Code   132  touch.o(.text)
    TP_Read_XOY                              0x08003e0d   Thumb Code   138  touch.o(.text)
    TP_Read_XY                               0x08003e97   Thumb Code    38  touch.o(.text)
    TP_Read_XY2                              0x08003ebd   Thumb Code   192  touch.o(.text)
    TP_Drow_Touch_Point                      0x08003f7d   Thumb Code   124  touch.o(.text)
    TP_Draw_Big_Point                        0x08003ff9   Thumb Code    70  touch.o(.text)
    TP_Scan                                  0x0800403f   Thumb Code   246  touch.o(.text)
    TP_Save_Adjdata                          0x08004135   Thumb Code   142  touch.o(.text)
    TP_Get_Adjdata                           0x080041c3   Thumb Code   160  touch.o(.text)
    TP_Adj_Info_Show                         0x08004263   Thumb Code   268  touch.o(.text)
    TP_Adjust                                0x0800436f   Thumb Code  2062  touch.o(.text)
    TP_Init                                  0x08004b7d   Thumb Code    92  touch.o(.text)
    PCF8574_I2C_delay                        0x08004c1d   Thumb Code    16  pcf8574.o(.text)
    PCF8574_I2C_Stop                         0x08004c2d   Thumb Code    48  pcf8574.o(.text)
    PCF8574_I2C_GPIO_Config                  0x08004c5d   Thumb Code    42  pcf8574.o(.text)
    PCF8574_i2c_SDA_input                    0x08004c87   Thumb Code    24  pcf8574.o(.text)
    PCF8574_i2c_SDA_output                   0x08004c9f   Thumb Code    30  pcf8574.o(.text)
    PCF8574_delay5ms                         0x08004cbd   Thumb Code    14  pcf8574.o(.text)
    PCF8574_delay50us                        0x08004ccb   Thumb Code    14  pcf8574.o(.text)
    PCF8574_I2C_Start                        0x08004cd9   Thumb Code    48  pcf8574.o(.text)
    PCF8574_I2C_SendACK                      0x08004d09   Thumb Code    52  pcf8574.o(.text)
    PCF8574_I2C_RecvACK                      0x08004d3d   Thumb Code    60  pcf8574.o(.text)
    PCF8574_I2C_SendByte                     0x08004d79   Thumb Code    74  pcf8574.o(.text)
    PCF8574_I2C_RecvByte                     0x08004dc3   Thumb Code    72  pcf8574.o(.text)
    PCF8574_Single_WriteI2C                  0x08004e0b   Thumb Code    32  pcf8574.o(.text)
    PCF8574_Single_ReadI2C                   0x08004e2b   Thumb Code    42  pcf8574.o(.text)
    delay_init                               0x08004e59   Thumb Code    50  delay.o(.text)
    delay_us                                 0x08004e8b   Thumb Code    72  delay.o(.text)
    delay_ms                                 0x08004ed3   Thumb Code    72  delay.o(.text)
    NVIC_Configuration                       0x08004f2d   Thumb Code   128  sys.o(.text)
    inttohex                                 0x08004fad   Thumb Code   104  sys.o(.text)
    _ttywrch                                 0x08005015   Thumb Code    24  usart.o(.text)
    _sys_exit                                0x0800502d   Thumb Code     6  usart.o(.text)
    fputc                                    0x08005033   Thumb Code    24  usart.o(.text)
    Uart1_init                               0x0800504b   Thumb Code   130  usart.o(.text)
    USART1_IRQHandler                        0x080050cd   Thumb Code    64  usart.o(.text)
    Uart3_init                               0x0800510d   Thumb Code   134  usart.o(.text)
    USART3_IRQHandler                        0x08005193   Thumb Code    66  usart.o(.text)
    Uart5_init                               0x080051d5   Thumb Code   126  usart.o(.text)
    UART5_IRQHandler                         0x08005253   Thumb Code    74  usart.o(.text)
    UART5_Send                               0x0800529d   Thumb Code    38  usart.o(.text)
    Uart4_init                               0x080052c3   Thumb Code   142  usart.o(.text)
    UART4_IRQHandler                         0x08005351   Thumb Code    88  usart.o(.text)
    UART4_Send                               0x080053a9   Thumb Code    40  usart.o(.text)
    RFID_Test                                0x080053d1   Thumb Code   204  usart.o(.text)
    Reset_Handler                            0x080054b5   Thumb Code     8  startup_stm32f10x_hd.o(.text)
    ADC1_2_IRQHandler                        0x080054cf   Thumb Code     0  startup_stm32f10x_hd.o(.text)
    ADC3_IRQHandler                          0x080054cf   Thumb Code     0  startup_stm32f10x_hd.o(.text)
    CAN1_RX1_IRQHandler                      0x080054cf   Thumb Code     0  startup_stm32f10x_hd.o(.text)
    CAN1_SCE_IRQHandler                      0x080054cf   Thumb Code     0  startup_stm32f10x_hd.o(.text)
    DMA1_Channel1_IRQHandler                 0x080054cf   Thumb Code     0  startup_stm32f10x_hd.o(.text)
    DMA1_Channel2_IRQHandler                 0x080054cf   Thumb Code     0  startup_stm32f10x_hd.o(.text)
    DMA1_Channel3_IRQHandler                 0x080054cf   Thumb Code     0  startup_stm32f10x_hd.o(.text)
    DMA1_Channel4_IRQHandler                 0x080054cf   Thumb Code     0  startup_stm32f10x_hd.o(.text)
    DMA1_Channel5_IRQHandler                 0x080054cf   Thumb Code     0  startup_stm32f10x_hd.o(.text)
    DMA1_Channel6_IRQHandler                 0x080054cf   Thumb Code     0  startup_stm32f10x_hd.o(.text)
    DMA1_Channel7_IRQHandler                 0x080054cf   Thumb Code     0  startup_stm32f10x_hd.o(.text)
    DMA2_Channel1_IRQHandler                 0x080054cf   Thumb Code     0  startup_stm32f10x_hd.o(.text)
    DMA2_Channel2_IRQHandler                 0x080054cf   Thumb Code     0  startup_stm32f10x_hd.o(.text)
    DMA2_Channel3_IRQHandler                 0x080054cf   Thumb Code     0  startup_stm32f10x_hd.o(.text)
    DMA2_Channel4_5_IRQHandler               0x080054cf   Thumb Code     0  startup_stm32f10x_hd.o(.text)
    EXTI0_IRQHandler                         0x080054cf   Thumb Code     0  startup_stm32f10x_hd.o(.text)
    EXTI15_10_IRQHandler                     0x080054cf   Thumb Code     0  startup_stm32f10x_hd.o(.text)
    EXTI1_IRQHandler                         0x080054cf   Thumb Code     0  startup_stm32f10x_hd.o(.text)
    EXTI2_IRQHandler                         0x080054cf   Thumb Code     0  startup_stm32f10x_hd.o(.text)
    EXTI3_IRQHandler                         0x080054cf   Thumb Code     0  startup_stm32f10x_hd.o(.text)
    EXTI4_IRQHandler                         0x080054cf   Thumb Code     0  startup_stm32f10x_hd.o(.text)
    EXTI9_5_IRQHandler                       0x080054cf   Thumb Code     0  startup_stm32f10x_hd.o(.text)
    FLASH_IRQHandler                         0x080054cf   Thumb Code     0  startup_stm32f10x_hd.o(.text)
    FSMC_IRQHandler                          0x080054cf   Thumb Code     0  startup_stm32f10x_hd.o(.text)
    I2C1_ER_IRQHandler                       0x080054cf   Thumb Code     0  startup_stm32f10x_hd.o(.text)
    I2C1_EV_IRQHandler                       0x080054cf   Thumb Code     0  startup_stm32f10x_hd.o(.text)
    I2C2_ER_IRQHandler                       0x080054cf   Thumb Code     0  startup_stm32f10x_hd.o(.text)
    I2C2_EV_IRQHandler                       0x080054cf   Thumb Code     0  startup_stm32f10x_hd.o(.text)
    PVD_IRQHandler                           0x080054cf   Thumb Code     0  startup_stm32f10x_hd.o(.text)
    RCC_IRQHandler                           0x080054cf   Thumb Code     0  startup_stm32f10x_hd.o(.text)
    RTCAlarm_IRQHandler                      0x080054cf   Thumb Code     0  startup_stm32f10x_hd.o(.text)
    RTC_IRQHandler                           0x080054cf   Thumb Code     0  startup_stm32f10x_hd.o(.text)
    SDIO_IRQHandler                          0x080054cf   Thumb Code     0  startup_stm32f10x_hd.o(.text)
    SPI1_IRQHandler                          0x080054cf   Thumb Code     0  startup_stm32f10x_hd.o(.text)
    SPI2_IRQHandler                          0x080054cf   Thumb Code     0  startup_stm32f10x_hd.o(.text)
    SPI3_IRQHandler                          0x080054cf   Thumb Code     0  startup_stm32f10x_hd.o(.text)
    TAMPER_IRQHandler                        0x080054cf   Thumb Code     0  startup_stm32f10x_hd.o(.text)
    TIM1_BRK_IRQHandler                      0x080054cf   Thumb Code     0  startup_stm32f10x_hd.o(.text)
    TIM1_CC_IRQHandler                       0x080054cf   Thumb Code     0  startup_stm32f10x_hd.o(.text)
    TIM1_TRG_COM_IRQHandler                  0x080054cf   Thumb Code     0  startup_stm32f10x_hd.o(.text)
    TIM1_UP_IRQHandler                       0x080054cf   Thumb Code     0  startup_stm32f10x_hd.o(.text)
    TIM2_IRQHandler                          0x080054cf   Thumb Code     0  startup_stm32f10x_hd.o(.text)
    TIM3_IRQHandler                          0x080054cf   Thumb Code     0  startup_stm32f10x_hd.o(.text)
    TIM4_IRQHandler                          0x080054cf   Thumb Code     0  startup_stm32f10x_hd.o(.text)
    TIM5_IRQHandler                          0x080054cf   Thumb Code     0  startup_stm32f10x_hd.o(.text)
    TIM6_IRQHandler                          0x080054cf   Thumb Code     0  startup_stm32f10x_hd.o(.text)
    TIM7_IRQHandler                          0x080054cf   Thumb Code     0  startup_stm32f10x_hd.o(.text)
    TIM8_BRK_IRQHandler                      0x080054cf   Thumb Code     0  startup_stm32f10x_hd.o(.text)
    TIM8_CC_IRQHandler                       0x080054cf   Thumb Code     0  startup_stm32f10x_hd.o(.text)
    TIM8_TRG_COM_IRQHandler                  0x080054cf   Thumb Code     0  startup_stm32f10x_hd.o(.text)
    TIM8_UP_IRQHandler                       0x080054cf   Thumb Code     0  startup_stm32f10x_hd.o(.text)
    USART2_IRQHandler                        0x080054cf   Thumb Code     0  startup_stm32f10x_hd.o(.text)
    USBWakeUp_IRQHandler                     0x080054cf   Thumb Code     0  startup_stm32f10x_hd.o(.text)
    USB_HP_CAN1_TX_IRQHandler                0x080054cf   Thumb Code     0  startup_stm32f10x_hd.o(.text)
    USB_LP_CAN1_RX0_IRQHandler               0x080054cf   Thumb Code     0  startup_stm32f10x_hd.o(.text)
    WWDG_IRQHandler                          0x080054cf   Thumb Code     0  startup_stm32f10x_hd.o(.text)
    __user_initial_stackheap                 0x080054d1   Thumb Code     0  startup_stm32f10x_hd.o(.text)
    FSMC_NORSRAMDeInit                       0x080054f5   Thumb Code    54  stm32f10x_fsmc.o(.text)
    FSMC_NANDDeInit                          0x0800552b   Thumb Code    62  stm32f10x_fsmc.o(.text)
    FSMC_PCCARDDeInit                        0x08005569   Thumb Code    36  stm32f10x_fsmc.o(.text)
    FSMC_NORSRAMInit                         0x0800558d   Thumb Code   230  stm32f10x_fsmc.o(.text)
    FSMC_NANDInit                            0x08005673   Thumb Code   132  stm32f10x_fsmc.o(.text)
    FSMC_PCCARDInit                          0x080056f7   Thumb Code   130  stm32f10x_fsmc.o(.text)
    FSMC_NORSRAMStructInit                   0x08005779   Thumb Code   114  stm32f10x_fsmc.o(.text)
    FSMC_NANDStructInit                      0x080057eb   Thumb Code    54  stm32f10x_fsmc.o(.text)
    FSMC_PCCARDStructInit                    0x08005821   Thumb Code    60  stm32f10x_fsmc.o(.text)
    FSMC_NORSRAMCmd                          0x0800585d   Thumb Code    46  stm32f10x_fsmc.o(.text)
    FSMC_NANDCmd                             0x0800588b   Thumb Code    86  stm32f10x_fsmc.o(.text)
    FSMC_PCCARDCmd                           0x080058e1   Thumb Code    44  stm32f10x_fsmc.o(.text)
    FSMC_NANDECCCmd                          0x0800590d   Thumb Code    90  stm32f10x_fsmc.o(.text)
    FSMC_GetECC                              0x08005967   Thumb Code    24  stm32f10x_fsmc.o(.text)
    FSMC_ITConfig                            0x0800597f   Thumb Code   128  stm32f10x_fsmc.o(.text)
    FSMC_GetFlagStatus                       0x080059ff   Thumb Code    54  stm32f10x_fsmc.o(.text)
    FSMC_ClearFlag                           0x08005a35   Thumb Code    62  stm32f10x_fsmc.o(.text)
    FSMC_GetITStatus                         0x08005a73   Thumb Code    64  stm32f10x_fsmc.o(.text)
    FSMC_ClearITPendingBit                   0x08005ab3   Thumb Code    68  stm32f10x_fsmc.o(.text)
    GPIO_DeInit                              0x08005b01   Thumb Code   172  stm32f10x_gpio.o(.text)
    GPIO_AFIODeInit                          0x08005bad   Thumb Code    20  stm32f10x_gpio.o(.text)
    GPIO_Init                                0x08005bc1   Thumb Code   278  stm32f10x_gpio.o(.text)
    GPIO_StructInit                          0x08005cd7   Thumb Code    16  stm32f10x_gpio.o(.text)
    GPIO_ReadInputDataBit                    0x08005ce7   Thumb Code    18  stm32f10x_gpio.o(.text)
    GPIO_ReadInputData                       0x08005cf9   Thumb Code     8  stm32f10x_gpio.o(.text)
    GPIO_ReadOutputDataBit                   0x08005d01   Thumb Code    18  stm32f10x_gpio.o(.text)
    GPIO_ReadOutputData                      0x08005d13   Thumb Code     8  stm32f10x_gpio.o(.text)
    GPIO_SetBits                             0x08005d1b   Thumb Code     4  stm32f10x_gpio.o(.text)
    GPIO_ResetBits                           0x08005d1f   Thumb Code     4  stm32f10x_gpio.o(.text)
    GPIO_WriteBit                            0x08005d23   Thumb Code    10  stm32f10x_gpio.o(.text)
    GPIO_Write                               0x08005d2d   Thumb Code     4  stm32f10x_gpio.o(.text)
    GPIO_PinLockConfig                       0x08005d31   Thumb Code    18  stm32f10x_gpio.o(.text)
    GPIO_EventOutputConfig                   0x08005d43   Thumb Code    26  stm32f10x_gpio.o(.text)
    GPIO_EventOutputCmd                      0x08005d5d   Thumb Code     6  stm32f10x_gpio.o(.text)
    GPIO_PinRemapConfig                      0x08005d63   Thumb Code   138  stm32f10x_gpio.o(.text)
    GPIO_EXTILineConfig                      0x08005ded   Thumb Code    66  stm32f10x_gpio.o(.text)
    GPIO_ETH_MediaInterfaceConfig            0x08005e2f   Thumb Code     8  stm32f10x_gpio.o(.text)
    RCC_DeInit                               0x08005e5d   Thumb Code    64  stm32f10x_rcc.o(.text)
    RCC_HSEConfig                            0x08005e9d   Thumb Code    70  stm32f10x_rcc.o(.text)
    RCC_GetFlagStatus                        0x08005ee3   Thumb Code    56  stm32f10x_rcc.o(.text)
    RCC_WaitForHSEStartUp                    0x08005f1b   Thumb Code    56  stm32f10x_rcc.o(.text)
    RCC_AdjustHSICalibrationValue            0x08005f53   Thumb Code    20  stm32f10x_rcc.o(.text)
    RCC_HSICmd                               0x08005f67   Thumb Code     6  stm32f10x_rcc.o(.text)
    RCC_PLLConfig                            0x08005f6d   Thumb Code    24  stm32f10x_rcc.o(.text)
    RCC_PLLCmd                               0x08005f85   Thumb Code     6  stm32f10x_rcc.o(.text)
    RCC_SYSCLKConfig                         0x08005f8b   Thumb Code    18  stm32f10x_rcc.o(.text)
    RCC_GetSYSCLKSource                      0x08005f9d   Thumb Code    10  stm32f10x_rcc.o(.text)
    RCC_HCLKConfig                           0x08005fa7   Thumb Code    18  stm32f10x_rcc.o(.text)
    RCC_PCLK1Config                          0x08005fb9   Thumb Code    18  stm32f10x_rcc.o(.text)
    RCC_PCLK2Config                          0x08005fcb   Thumb Code    20  stm32f10x_rcc.o(.text)
    RCC_ITConfig                             0x08005fdf   Thumb Code    26  stm32f10x_rcc.o(.text)
    RCC_USBCLKConfig                         0x08005ff9   Thumb Code     8  stm32f10x_rcc.o(.text)
    RCC_ADCCLKConfig                         0x08006001   Thumb Code    18  stm32f10x_rcc.o(.text)
    RCC_LSEConfig                            0x08006013   Thumb Code    50  stm32f10x_rcc.o(.text)
    RCC_LSICmd                               0x08006045   Thumb Code     6  stm32f10x_rcc.o(.text)
    RCC_RTCCLKConfig                         0x0800604b   Thumb Code    12  stm32f10x_rcc.o(.text)
    RCC_RTCCLKCmd                            0x08006057   Thumb Code     8  stm32f10x_rcc.o(.text)
    RCC_GetClocksFreq                        0x0800605f   Thumb Code   192  stm32f10x_rcc.o(.text)
    RCC_AHBPeriphClockCmd                    0x0800611f   Thumb Code    26  stm32f10x_rcc.o(.text)
    RCC_APB2PeriphClockCmd                   0x08006139   Thumb Code    26  stm32f10x_rcc.o(.text)
    RCC_APB1PeriphClockCmd                   0x08006153   Thumb Code    26  stm32f10x_rcc.o(.text)
    RCC_APB2PeriphResetCmd                   0x0800616d   Thumb Code    26  stm32f10x_rcc.o(.text)
    RCC_APB1PeriphResetCmd                   0x08006187   Thumb Code    26  stm32f10x_rcc.o(.text)
    RCC_BackupResetCmd                       0x080061a1   Thumb Code     8  stm32f10x_rcc.o(.text)
    RCC_ClockSecuritySystemCmd               0x080061a9   Thumb Code     6  stm32f10x_rcc.o(.text)
    RCC_MCOConfig                            0x080061af   Thumb Code     6  stm32f10x_rcc.o(.text)
    RCC_ClearFlag                            0x080061b5   Thumb Code    14  stm32f10x_rcc.o(.text)
    RCC_GetITStatus                          0x080061c3   Thumb Code    20  stm32f10x_rcc.o(.text)
    RCC_ClearITPendingBit                    0x080061d7   Thumb Code     6  stm32f10x_rcc.o(.text)
    USART_DeInit                             0x08006201   Thumb Code   134  stm32f10x_usart.o(.text)
    USART_Init                               0x08006287   Thumb Code   210  stm32f10x_usart.o(.text)
    USART_StructInit                         0x08006359   Thumb Code    24  stm32f10x_usart.o(.text)
    USART_ClockInit                          0x08006371   Thumb Code    34  stm32f10x_usart.o(.text)
    USART_ClockStructInit                    0x08006393   Thumb Code    12  stm32f10x_usart.o(.text)
    USART_Cmd                                0x0800639f   Thumb Code    24  stm32f10x_usart.o(.text)
    USART_ITConfig                           0x080063b7   Thumb Code    74  stm32f10x_usart.o(.text)
    USART_DMACmd                             0x08006401   Thumb Code    18  stm32f10x_usart.o(.text)
    USART_SetAddress                         0x08006413   Thumb Code    18  stm32f10x_usart.o(.text)
    USART_WakeUpConfig                       0x08006425   Thumb Code    18  stm32f10x_usart.o(.text)
    USART_ReceiverWakeUpCmd                  0x08006437   Thumb Code    24  stm32f10x_usart.o(.text)
    USART_LINBreakDetectLengthConfig         0x0800644f   Thumb Code    18  stm32f10x_usart.o(.text)
    USART_LINCmd                             0x08006461   Thumb Code    24  stm32f10x_usart.o(.text)
    USART_SendData                           0x08006479   Thumb Code     8  stm32f10x_usart.o(.text)
    USART_ReceiveData                        0x08006481   Thumb Code    10  stm32f10x_usart.o(.text)
    USART_SendBreak                          0x0800648b   Thumb Code    10  stm32f10x_usart.o(.text)
    USART_SetGuardTime                       0x08006495   Thumb Code    16  stm32f10x_usart.o(.text)
    USART_SetPrescaler                       0x080064a5   Thumb Code    16  stm32f10x_usart.o(.text)
    USART_SmartCardCmd                       0x080064b5   Thumb Code    24  stm32f10x_usart.o(.text)
    USART_SmartCardNACKCmd                   0x080064cd   Thumb Code    24  stm32f10x_usart.o(.text)
    USART_HalfDuplexCmd                      0x080064e5   Thumb Code    24  stm32f10x_usart.o(.text)
    USART_OverSampling8Cmd                   0x080064fd   Thumb Code    22  stm32f10x_usart.o(.text)
    USART_OneBitMethodCmd                    0x08006513   Thumb Code    24  stm32f10x_usart.o(.text)
    USART_IrDAConfig                         0x0800652b   Thumb Code    18  stm32f10x_usart.o(.text)
    USART_IrDACmd                            0x0800653d   Thumb Code    24  stm32f10x_usart.o(.text)
    USART_GetFlagStatus                      0x08006555   Thumb Code    26  stm32f10x_usart.o(.text)
    USART_ClearFlag                          0x0800656f   Thumb Code    18  stm32f10x_usart.o(.text)
    USART_GetITStatus                        0x08006581   Thumb Code    84  stm32f10x_usart.o(.text)
    USART_ClearITPendingBit                  0x080065d5   Thumb Code    52  stm32f10x_usart.o(.text)
    NVIC_PriorityGroupConfig                 0x08006609   Thumb Code    10  misc.o(.text)
    NVIC_Init                                0x08006613   Thumb Code   100  misc.o(.text)
    NVIC_SetVectorTable                      0x08006677   Thumb Code    14  misc.o(.text)
    NVIC_SystemLPConfig                      0x08006685   Thumb Code    34  misc.o(.text)
    SysTick_CLKSourceConfig                  0x080066a7   Thumb Code    40  misc.o(.text)
    __use_no_semihosting                     0x080066e5   Thumb Code     2  use_no_semi_2.o(.text)
    __use_two_region_memory                  0x080066e7   Thumb Code     2  heapauxi.o(.text)
    __rt_heap_escrow$2region                 0x080066e9   Thumb Code     2  heapauxi.o(.text)
    __rt_heap_expand$2region                 0x080066eb   Thumb Code     2  heapauxi.o(.text)
    __I$use$semihosting                      0x080066ed   Thumb Code     0  use_no_semi.o(.text)
    __use_no_semihosting_swi                 0x080066ed   Thumb Code     2  use_no_semi.o(.text)
    __read_errno                             0x080066ef   Thumb Code    10  _rserrno.o(.text)
    __set_errno                              0x080066f9   Thumb Code    12  _rserrno.o(.text)
    __aeabi_errno_addr                       0x08006705   Thumb Code     8  rt_errno_addr_intlibspace.o(.text)
    __errno$intlibspace                      0x08006705   Thumb Code     0  rt_errno_addr_intlibspace.o(.text)
    __rt_errno_addr$intlibspace              0x08006705   Thumb Code     0  rt_errno_addr_intlibspace.o(.text)
    __user_libspace                          0x0800670d   Thumb Code     8  libspace.o(.text)
    __user_perproc_libspace                  0x0800670d   Thumb Code     0  libspace.o(.text)
    __user_perthread_libspace                0x0800670d   Thumb Code     0  libspace.o(.text)
    __user_setup_stackheap                   0x08006715   Thumb Code    74  sys_stackheap_outer.o(.text)
    exit                                     0x0800675f   Thumb Code    12  exit.o(.text)
    sqrt                                     0x0800676b   Thumb Code    76  sqrt.o(i.sqrt)
    __fpl_dcmp_Inf                           0x080067b7   Thumb Code    24  dcmpi.o(x$fpl$dcmpinf)
    __aeabi_d2uiz                            0x080067d1   Thumb Code     0  dfixu.o(x$fpl$dfixu)
    _dfixu                                   0x080067d1   Thumb Code    90  dfixu.o(x$fpl$dfixu)
    __aeabi_ui2d                             0x0800682b   Thumb Code     0  dflt_clz.o(x$fpl$dfltu)
    _dfltu                                   0x0800682b   Thumb Code    38  dflt_clz.o(x$fpl$dfltu)
    __aeabi_cdcmple                          0x08006851   Thumb Code     0  dleqf.o(x$fpl$dleqf)
    _dcmple                                  0x08006851   Thumb Code   120  dleqf.o(x$fpl$dleqf)
    __fpl_dcmple_InfNaN                      0x080068b3   Thumb Code     0  dleqf.o(x$fpl$dleqf)
    __fpl_dnaninf                            0x080068c9   Thumb Code   156  dnaninf.o(x$fpl$dnaninf)
    __fpl_dretinf                            0x08006965   Thumb Code    12  dretinf.o(x$fpl$dretinf)
    __aeabi_cdrcmple                         0x08006971   Thumb Code     0  drleqf.o(x$fpl$drleqf)
    _drcmple                                 0x08006971   Thumb Code   108  drleqf.o(x$fpl$drleqf)
    _dsqrt                                   0x080069dd   Thumb Code   456  dsqrt_noumaal.o(x$fpl$dsqrt)
    __aeabi_f2d                              0x08006ba9   Thumb Code     0  f2d.o(x$fpl$f2d)
    _f2d                                     0x08006ba9   Thumb Code    86  f2d.o(x$fpl$f2d)
    __aeabi_fadd                             0x08006c01   Thumb Code     0  faddsub_clz.o(x$fpl$fadd)
    _fadd                                    0x08006c01   Thumb Code   196  faddsub_clz.o(x$fpl$fadd)
    __aeabi_fdiv                             0x08006cc5   Thumb Code     0  fdiv.o(x$fpl$fdiv)
    _fdiv                                    0x08006cc5   Thumb Code   384  fdiv.o(x$fpl$fdiv)
    __aeabi_f2iz                             0x08006e49   Thumb Code     0  ffix.o(x$fpl$ffix)
    _ffix                                    0x08006e49   Thumb Code    54  ffix.o(x$fpl$ffix)
    __aeabi_f2uiz                            0x08006e81   Thumb Code     0  ffixu.o(x$fpl$ffixu)
    _ffixu                                   0x08006e81   Thumb Code    62  ffixu.o(x$fpl$ffixu)
    __aeabi_i2f                              0x08006ec1   Thumb Code     0  fflt_clz.o(x$fpl$fflt)
    _fflt                                    0x08006ec1   Thumb Code    48  fflt_clz.o(x$fpl$fflt)
    __aeabi_ui2f                             0x08006ef1   Thumb Code     0  fflt_clz.o(x$fpl$ffltu)
    _ffltu                                   0x08006ef1   Thumb Code    38  fflt_clz.o(x$fpl$ffltu)
    __aeabi_fmul                             0x08006f19   Thumb Code     0  fmul.o(x$fpl$fmul)
    _fmul                                    0x08006f19   Thumb Code   258  fmul.o(x$fpl$fmul)
    __fpl_fnaninf                            0x0800701b   Thumb Code   140  fnaninf.o(x$fpl$fnaninf)
    __fpl_fretinf                            0x080070a7   Thumb Code    10  fretinf.o(x$fpl$fretinf)
    __aeabi_fsub                             0x080070b1   Thumb Code     0  faddsub_clz.o(x$fpl$fsub)
    _fsub                                    0x080070b1   Thumb Code   234  faddsub_clz.o(x$fpl$fsub)
    __I$use$fp                               0x0800719a   Number         0  usenofp.o(x$fpl$usenofp)
    asc2_1206                                0x0800719a   Data        1140  lcd.o(.constdata)
    asc2_1608                                0x0800760e   Data        1520  lcd.o(.constdata)
    Region$$Table$$Base                      0x08007c7c   Number         0  anon$$obj.o(Region$$Table)
    Region$$Table$$Limit                     0x08007c9c   Number         0  anon$$obj.o(Region$$Table)
    state                                    0x20000000   Data           1  main.o(.data)
    address                                  0x20000004   Data           4  main.o(.data)
    SystemCoreClock                          0x20000008   Data           4  system_stm32f10x.o(.data)
    AHBPrescTable                            0x2000000c   Data          16  system_stm32f10x.o(.data)
    POINT_COLOR                              0x2000001c   Data           2  lcd.o(.data)
    BACK_COLOR                               0x2000001e   Data           2  lcd.o(.data)
    abx                                      0x20000020   Data           1  lcd.o(.data)
    HDP                                      0x20000022   Data           2  lcd.o(.data)
    HT                                       0x20000024   Data           2  lcd.o(.data)
    HPS                                      0x20000026   Data           2  lcd.o(.data)
    LPS                                      0x20000028   Data           2  lcd.o(.data)
    HPW                                      0x2000002a   Data           1  lcd.o(.data)
    VDP                                      0x2000002c   Data           2  lcd.o(.data)
    VT                                       0x2000002e   Data           2  lcd.o(.data)
    VPS                                      0x20000030   Data           2  lcd.o(.data)
    FPS                                      0x20000032   Data           2  lcd.o(.data)
    VPW                                      0x20000034   Data           1  lcd.o(.data)
    i                                        0x20000036   Data           2  lcd.o(.data)
    b_flash                                  0x20000038   Data         256  lcd.o(.data)
    tp_dev                                   0x20000138   Data          40  touch.o(.data)
    CMD_RDX                                  0x20000160   Data           1  touch.o(.data)
    CMD_RDY                                  0x20000161   Data           1  touch.o(.data)
    TP_REMIND_MSG_TBL                        0x20000164   Data           4  touch.o(.data)
    DBufferFlag                              0x2000016c   Data           1  usart.o(.data)
    mark                                     0x2000016d   Data           1  usart.o(.data)
    __stdout                                 0x20000170   Data           4  usart.o(.data)
    USART_RX_STA                             0x20000174   Data           2  usart.o(.data)
    lcddev                                   0x20000194   Data          12  lcd.o(.bss)
    b                                        0x200001a0   Data         272  lcd.o(.bss)
    a_flash                                  0x200002b0   Data         256  lcd.o(.bss)
    Date_Buf                                 0x200003b0   Data          10  usart.o(.bss)
    BufferA                                  0x200003ba   Data          50  usart.o(.bss)
    USART_RX_BUF                             0x200003ec   Data         200  usart.o(.bss)
    gsm_ch                                   0x200004b4   Data          10  usart.o(.bss)
    __libspace_start                         0x200004c0   Data          96  libspace.o(.bss)
    __temporary_stack_top$libspace           0x20000520   Data           0  libspace.o(.bss)



==============================================================================

Memory Map of the image

  Image Entry point : 0x08000131

  Load Region LR_IROM1 (Base: 0x08000000, Size: 0x00007e30, Max: 0x00040000, ABSOLUTE, COMPRESSED[0x00007cec])

    Execution Region ER_IROM1 (Base: 0x08000000, Size: 0x00007c9c, Max: 0x00040000, ABSOLUTE)

    Base Addr    Size         Type   Attr      Idx    E Section Name        Object

    0x08000000   0x00000130   Data   RO          647    RESET               startup_stm32f10x_hd.o
    0x08000130   0x00000008   Code   RO          793  * !!!main             c_w.l(__main.o)
    0x08000138   0x00000034   Code   RO         1032    !!!scatter          c_w.l(__scatter.o)
    0x0800016c   0x0000005a   Code   RO         1030    !!dczerorl2         c_w.l(__dczerorl2.o)
    0x080001c6   0x00000002   PAD
    0x080001c8   0x0000001c   Code   RO         1034    !!handler_zi        c_w.l(__scatter_zi.o)
    0x080001e4   0x00000002   Code   RO          910    .ARM.Collect$$libinit$$00000000  c_w.l(libinit.o)
    0x080001e6   0x00000000   Code   RO          914    .ARM.Collect$$libinit$$00000002  c_w.l(libinit2.o)
    0x080001e6   0x00000000   Code   RO          916    .ARM.Collect$$libinit$$00000004  c_w.l(libinit2.o)
    0x080001e6   0x00000000   Code   RO          919    .ARM.Collect$$libinit$$0000000A  c_w.l(libinit2.o)
    0x080001e6   0x00000000   Code   RO          921    .ARM.Collect$$libinit$$0000000C  c_w.l(libinit2.o)
    0x080001e6   0x00000000   Code   RO          923    .ARM.Collect$$libinit$$0000000E  c_w.l(libinit2.o)
    0x080001e6   0x00000000   Code   RO          926    .ARM.Collect$$libinit$$00000011  c_w.l(libinit2.o)
    0x080001e6   0x00000000   Code   RO          928    .ARM.Collect$$libinit$$00000013  c_w.l(libinit2.o)
    0x080001e6   0x00000000   Code   RO          930    .ARM.Collect$$libinit$$00000015  c_w.l(libinit2.o)
    0x080001e6   0x00000000   Code   RO          932    .ARM.Collect$$libinit$$00000017  c_w.l(libinit2.o)
    0x080001e6   0x00000000   Code   RO          934    .ARM.Collect$$libinit$$00000019  c_w.l(libinit2.o)
    0x080001e6   0x00000000   Code   RO          936    .ARM.Collect$$libinit$$0000001B  c_w.l(libinit2.o)
    0x080001e6   0x00000000   Code   RO          938    .ARM.Collect$$libinit$$0000001D  c_w.l(libinit2.o)
    0x080001e6   0x00000000   Code   RO          940    .ARM.Collect$$libinit$$0000001F  c_w.l(libinit2.o)
    0x080001e6   0x00000000   Code   RO          942    .ARM.Collect$$libinit$$00000021  c_w.l(libinit2.o)
    0x080001e6   0x00000000   Code   RO          944    .ARM.Collect$$libinit$$00000023  c_w.l(libinit2.o)
    0x080001e6   0x00000000   Code   RO          946    .ARM.Collect$$libinit$$00000025  c_w.l(libinit2.o)
    0x080001e6   0x00000000   Code   RO          950    .ARM.Collect$$libinit$$0000002C  c_w.l(libinit2.o)
    0x080001e6   0x00000000   Code   RO          952    .ARM.Collect$$libinit$$0000002E  c_w.l(libinit2.o)
    0x080001e6   0x00000000   Code   RO          954    .ARM.Collect$$libinit$$00000030  c_w.l(libinit2.o)
    0x080001e6   0x00000000   Code   RO          956    .ARM.Collect$$libinit$$00000032  c_w.l(libinit2.o)
    0x080001e6   0x00000002   Code   RO          957    .ARM.Collect$$libinit$$00000033  c_w.l(libinit2.o)
    0x080001e8   0x00000002   Code   RO          975    .ARM.Collect$$libshutdown$$00000000  c_w.l(libshutdown.o)
    0x080001ea   0x00000000   Code   RO          986    .ARM.Collect$$libshutdown$$00000003  c_w.l(libshutdown2.o)
    0x080001ea   0x00000000   Code   RO          989    .ARM.Collect$$libshutdown$$00000006  c_w.l(libshutdown2.o)
    0x080001ea   0x00000000   Code   RO          992    .ARM.Collect$$libshutdown$$00000009  c_w.l(libshutdown2.o)
    0x080001ea   0x00000000   Code   RO          994    .ARM.Collect$$libshutdown$$0000000B  c_w.l(libshutdown2.o)
    0x080001ea   0x00000000   Code   RO          997    .ARM.Collect$$libshutdown$$0000000E  c_w.l(libshutdown2.o)
    0x080001ea   0x00000002   Code   RO          998    .ARM.Collect$$libshutdown$$0000000F  c_w.l(libshutdown2.o)
    0x080001ec   0x00000000   Code   RO          847    .ARM.Collect$$rtentry$$00000000  c_w.l(__rtentry.o)
    0x080001ec   0x00000000   Code   RO          871    .ARM.Collect$$rtentry$$00000002  c_w.l(__rtentry2.o)
    0x080001ec   0x00000006   Code   RO          883    .ARM.Collect$$rtentry$$00000004  c_w.l(__rtentry4.o)
    0x080001f2   0x00000000   Code   RO          873    .ARM.Collect$$rtentry$$00000009  c_w.l(__rtentry2.o)
    0x080001f2   0x00000004   Code   RO          874    .ARM.Collect$$rtentry$$0000000A  c_w.l(__rtentry2.o)
    0x080001f6   0x00000000   Code   RO          876    .ARM.Collect$$rtentry$$0000000C  c_w.l(__rtentry2.o)
    0x080001f6   0x00000008   Code   RO          877    .ARM.Collect$$rtentry$$0000000D  c_w.l(__rtentry2.o)
    0x080001fe   0x00000002   Code   RO          911    .ARM.Collect$$rtexit$$00000000  c_w.l(rtexit.o)
    0x08000200   0x00000000   Code   RO          959    .ARM.Collect$$rtexit$$00000002  c_w.l(rtexit2.o)
    0x08000200   0x00000004   Code   RO          960    .ARM.Collect$$rtexit$$00000003  c_w.l(rtexit2.o)
    0x08000204   0x00000006   Code   RO          961    .ARM.Collect$$rtexit$$00000004  c_w.l(rtexit2.o)
    0x0800020a   0x00000002   PAD
    0x0800020c   0x00000190   Code   RO            1    .text               main.o
    0x0800039c   0x0000001a   Code   RO          183    .text               stm32f10x_it.o
    0x080003b6   0x00000002   PAD
    0x080003b8   0x000001e0   Code   RO          198    .text               system_stm32f10x.o
    0x08000598   0x00003384   Code   RO          277    .text               lcd.o
    0x0800391c   0x00000434   Code   RO          324    .text               flash.o
    0x08003d50   0x00000ecc   Code   RO          339    .text               touch.o
    0x08004c1c   0x0000023c   Code   RO          480    .text               pcf8574.o
    0x08004e58   0x000000d4   Code   RO          582    .text               delay.o
    0x08004f2c   0x000000e8   Code   RO          596    .text               sys.o
    0x08005014   0x000004a0   Code   RO          608    .text               usart.o
    0x080054b4   0x00000040   Code   RO          648    .text               startup_stm32f10x_hd.o
    0x080054f4   0x0000060c   Code   RO          652    .text               stm32f10x_fsmc.o
    0x08005b00   0x0000035c   Code   RO          664    .text               stm32f10x_gpio.o
    0x08005e5c   0x000003a4   Code   RO          676    .text               stm32f10x_rcc.o
    0x08006200   0x00000408   Code   RO          702    .text               stm32f10x_usart.o
    0x08006608   0x000000dc   Code   RO          714    .text               misc.o
    0x080066e4   0x00000002   Code   RO          728    .text               c_w.l(use_no_semi_2.o)
    0x080066e6   0x00000006   Code   RO          791    .text               c_w.l(heapauxi.o)
    0x080066ec   0x00000002   Code   RO          845    .text               c_w.l(use_no_semi.o)
    0x080066ee   0x00000016   Code   RO          848    .text               c_w.l(_rserrno.o)
    0x08006704   0x00000008   Code   RO          888    .text               c_w.l(rt_errno_addr_intlibspace.o)
    0x0800670c   0x00000008   Code   RO          896    .text               c_w.l(libspace.o)
    0x08006714   0x0000004a   Code   RO          899    .text               c_w.l(sys_stackheap_outer.o)
    0x0800675e   0x0000000c   Code   RO          903    .text               c_w.l(exit.o)
    0x0800676a   0x0000004c   Code   RO          838    i.sqrt              m_ws.l(sqrt.o)
    0x080067b6   0x00000018   Code   RO          857    x$fpl$dcmpinf       fz_ws.l(dcmpi.o)
    0x080067ce   0x00000002   PAD
    0x080067d0   0x0000005a   Code   RO          795    x$fpl$dfixu         fz_ws.l(dfixu.o)
    0x0800682a   0x00000026   Code   RO          799    x$fpl$dfltu         fz_ws.l(dflt_clz.o)
    0x08006850   0x00000078   Code   RO          805    x$fpl$dleqf         fz_ws.l(dleqf.o)
    0x080068c8   0x0000009c   Code   RO          859    x$fpl$dnaninf       fz_ws.l(dnaninf.o)
    0x08006964   0x0000000c   Code   RO          861    x$fpl$dretinf       fz_ws.l(dretinf.o)
    0x08006970   0x0000006c   Code   RO          807    x$fpl$drleqf        fz_ws.l(drleqf.o)
    0x080069dc   0x000001cc   Code   RO          863    x$fpl$dsqrt         fz_ws.l(dsqrt_noumaal.o)
    0x08006ba8   0x00000056   Code   RO          809    x$fpl$f2d           fz_ws.l(f2d.o)
    0x08006bfe   0x00000002   PAD
    0x08006c00   0x000000c4   Code   RO          811    x$fpl$fadd          fz_ws.l(faddsub_clz.o)
    0x08006cc4   0x00000184   Code   RO          818    x$fpl$fdiv          fz_ws.l(fdiv.o)
    0x08006e48   0x00000036   Code   RO          821    x$fpl$ffix          fz_ws.l(ffix.o)
    0x08006e7e   0x00000002   PAD
    0x08006e80   0x0000003e   Code   RO          825    x$fpl$ffixu         fz_ws.l(ffixu.o)
    0x08006ebe   0x00000002   PAD
    0x08006ec0   0x00000030   Code   RO          830    x$fpl$fflt          fz_ws.l(fflt_clz.o)
    0x08006ef0   0x00000026   Code   RO          829    x$fpl$ffltu         fz_ws.l(fflt_clz.o)
    0x08006f16   0x00000002   PAD
    0x08006f18   0x00000102   Code   RO          835    x$fpl$fmul          fz_ws.l(fmul.o)
    0x0800701a   0x0000008c   Code   RO          865    x$fpl$fnaninf       fz_ws.l(fnaninf.o)
    0x080070a6   0x0000000a   Code   RO          867    x$fpl$fretinf       fz_ws.l(fretinf.o)
    0x080070b0   0x000000ea   Code   RO          813    x$fpl$fsub          fz_ws.l(faddsub_clz.o)
    0x0800719a   0x00000000   Code   RO          869    x$fpl$usenofp       fz_ws.l(usenofp.o)
    0x0800719a   0x00000a64   Data   RO          279    .constdata          lcd.o
    0x08007bfe   0x00000002   PAD
    0x08007c00   0x00000079   Data   RO          340    .conststring        touch.o
    0x08007c79   0x00000003   PAD
    0x08007c7c   0x00000020   Data   RO         1028    Region$$Table       anon$$obj.o


    Execution Region RW_IRAM1 (Base: 0x20000000, Size: 0x00000b20, Max: 0x0000c000, ABSOLUTE, COMPRESSED[0x00000050])

    Base Addr    Size         Type   Attr      Idx    E Section Name        Object

    0x20000000   0x00000008   Data   RW            2    .data               main.o
    0x20000008   0x00000014   Data   RW          199    .data               system_stm32f10x.o
    0x2000001c   0x0000011c   Data   RW          280    .data               lcd.o
    0x20000138   0x00000030   Data   RW          341    .data               touch.o
    0x20000168   0x00000004   Data   RW          583    .data               delay.o
    0x2000016c   0x00000011   Data   RW          610    .data               usart.o
    0x2000017d   0x00000014   Data   RW          677    .data               stm32f10x_rcc.o
    0x20000191   0x00000003   PAD
    0x20000194   0x0000021c   Zero   RW          278    .bss                lcd.o
    0x200003b0   0x0000010e   Zero   RW          609    .bss                usart.o
    0x200004be   0x00000002   PAD
    0x200004c0   0x00000060   Zero   RW          897    .bss                c_w.l(libspace.o)
    0x20000520   0x00000200   Zero   RW          646    HEAP                startup_stm32f10x_hd.o
    0x20000720   0x00000400   Zero   RW          645    STACK               startup_stm32f10x_hd.o


==============================================================================

Image component sizes


      Code (inc. data)   RO Data    RW Data    ZI Data      Debug   Object Name

         0          0          0          0          0         32   core_cm3.o
       212         18          0          4          0       1223   delay.o
      1076         18          0          0          0       4995   flash.o
     13188        214       2660        284        540      18428   lcd.o
         0          0          0          0          0     204984   led.o
       400         52          0          8          0     240886   main.o
       220         22          0          0          0       2009   misc.o
       572          4          0          0          0       3148   pcf8574.o
        64         26        304          0       1536        872   startup_stm32f10x_hd.o
      1548         18          0          0          0       5555   stm32f10x_fsmc.o
       860         38          0          0          0       5853   stm32f10x_gpio.o
        26          0          0          0          0       1286   stm32f10x_it.o
       932         36          0         20          0       9128   stm32f10x_rcc.o
      1032         22          0          0          0       8580   stm32f10x_usart.o
       232          0          0          0          0       1266   sys.o
       480         38          0         20          0       2055   system_stm32f10x.o
      3788        196        121         48          0       6897   touch.o
      1184         92          0         17        270       6214   usart.o

    ----------------------------------------------------------------------
     25816        794       3122        404       2348     523411   Object Totals
         0          0         32          0          0          0   (incl. Generated)
         2          0          5          3          2          0   (incl. Padding)

    ----------------------------------------------------------------------

      Code (inc. data)   RO Data    RW Data    ZI Data      Debug   Library Member Name

        90          0          0          0          0          0   __dczerorl2.o
         8          0          0          0          0         68   __main.o
         0          0          0          0          0          0   __rtentry.o
        12          0          0          0          0          0   __rtentry2.o
         6          0          0          0          0          0   __rtentry4.o
        52          8          0          0          0          0   __scatter.o
        28          0          0          0          0          0   __scatter_zi.o
        22          0          0          0          0        100   _rserrno.o
        12          0          0          0          0         72   exit.o
         6          0          0          0          0        152   heapauxi.o
         2          0          0          0          0          0   libinit.o
         2          0          0          0          0          0   libinit2.o
         2          0          0          0          0          0   libshutdown.o
         2          0          0          0          0          0   libshutdown2.o
         8          4          0          0         96         68   libspace.o
         8          4          0          0          0         68   rt_errno_addr_intlibspace.o
         2          0          0          0          0          0   rtexit.o
        10          0          0          0          0          0   rtexit2.o
        74          0          0          0          0         80   sys_stackheap_outer.o
         2          0          0          0          0         68   use_no_semi.o
         2          0          0          0          0         68   use_no_semi_2.o
        24          0          0          0          0         68   dcmpi.o
        90          4          0          0          0         92   dfixu.o
        38          0          0          0          0         68   dflt_clz.o
       120          4          0          0          0         92   dleqf.o
       156          4          0          0          0         92   dnaninf.o
        12          0          0          0          0         68   dretinf.o
       108          0          0          0          0         80   drleqf.o
       460         56          0          0          0        120   dsqrt_noumaal.o
        86          4          0          0          0         84   f2d.o
       430          8          0          0          0        168   faddsub_clz.o
       388         76          0          0          0         96   fdiv.o
        54          4          0          0          0         84   ffix.o
        62          4          0          0          0         84   ffixu.o
        86          0          0          0          0        136   fflt_clz.o
       258          4          0          0          0         84   fmul.o
       140          4          0          0          0         84   fnaninf.o
        10          0          0          0          0         68   fretinf.o
         0          0          0          0          0          0   usenofp.o
        76          0          0          0          0         84   sqrt.o

    ----------------------------------------------------------------------
      2962        188          0          0         96       2396   Library Totals
        14          0          0          0          0          0   (incl. Padding)

    ----------------------------------------------------------------------

      Code (inc. data)   RO Data    RW Data    ZI Data      Debug   Library Name

       350         16          0          0         96        744   c_w.l
      2522        172          0          0          0       1568   fz_ws.l
        76          0          0          0          0         84   m_ws.l

    ----------------------------------------------------------------------
      2962        188          0          0         96       2396   Library Totals

    ----------------------------------------------------------------------

==============================================================================


      Code (inc. data)   RO Data    RW Data    ZI Data      Debug   

     28778        982       3122        404       2444     523203   Grand Totals
     28778        982       3122         80       2444     523203   ELF Image Totals (compressed)
     28778        982       3122         80          0          0   ROM Totals

==============================================================================

    Total RO  Size (Code + RO Data)                31900 (  31.15kB)
    Total RW  Size (RW Data + ZI Data)              2848 (   2.78kB)
    Total ROM Size (Code + RO Data + RW Data)      31980 (  31.23kB)

==============================================================================

