Component: ARM Compiler 5.06 (build 20) Tool: armlink [4d35a3]

==============================================================================

Section Cross References

    main.o(.text) refers to lcd.o(.text) for LCD_Clear
    main.o(.text) refers to sys.o(.text) for inttohex
    main.o(.text) refers to touch.o(.text) for TP_Adjust
    main.o(.text) refers to delay.o(.text) for delay_ms
    main.o(.text) refers to usart.o(.text) for Uart1_init
    main.o(.text) refers to led.o(.text) for LED_Init
    main.o(.text) refers to flash.o(.text) for SPI_Flash_Init
    main.o(.text) refers to key.o(.text) for KEY_Init
    main.o(.text) refers to bmp085.o(.text) for I2C_Gpio_Init
    main.o(.text) refers to mma7455.o(.text) for MMA7455_self_test7455
    main.o(.text) refers to lcd.o(.data) for POINT_COLOR
    main.o(.text) refers to lcd.o(.bss) for lcddev
    main.o(.text) refers to main.o(.data) for state
    main.o(.text) refers to touch.o(.data) for tp_dev
    system_stm32f10x.o(.text) refers to system_stm32f10x.o(.data) for SystemCoreClock
    led.o(.text) refers to stm32f10x_rcc.o(.text) for RCC_APB2PeriphClockCmd
    led.o(.text) refers to stm32f10x_gpio.o(.text) for GPIO_Init
    key.o(.text) refers to stm32f10x_rcc.o(.text) for RCC_APB2PeriphClockCmd
==============================================================================

Removing Unused input sections from the image.

    Removing myiic.o(.text), (640 bytes).
    Removing 24cxx.o(.text), (378 bytes).
    Removing keypad.o(.text), (1792 bytes).
    Removing keypad.o(.constdata), (47 bytes).
    Removing keypad.o(.data), (5 bytes).
    Removing relay.o(.text), (360 bytes).
    Removing dht11.o(.text), (980 bytes).
    Removing dht11.o(.data), (34 bytes).
    Removing dc_motor.o(.text), (316 bytes).
    Removing step_motor.o(.text), (444 bytes).
    Removing step_motor.o(.data), (8 bytes).
    Removing dot_matrix.o(.text), (492 bytes).
    Removing dot_matrix.o(.constdata), (464 bytes).
    Removing dot_matrix.o(.data), (96 bytes).
    Removing core_cm3.o(.emb_text), (32 bytes).

15 unused section(s) (total 6088 bytes) removed from the image.

==============================================================================

Image Symbol Table

    Local Symbols

    Symbol Name                              Value     Ov Type        Size  Object(Section)

    ../clib/angel/boardlib.s                 0x00000000   Number         0  boardinit3.o ABSOLUTE
    ../clib/angel/boardlib.s                 0x00000000   Number         0  boardinit2.o ABSOLUTE
    ../clib/angel/boardlib.s                 0x00000000   Number         0  boardinit1.o ABSOLUTE
    ../clib/angel/boardlib.s                 0x00000000   Number         0  boardshut.o ABSOLUTE
    ../clib/angel/handlers.s                 0x00000000   Number         0  __scatter_zi.o ABSOLUTE
    ../clib/angel/handlers.s                 0x00000000   Number         0  __scatter_copy.o ABSOLUTE
    ../clib/angel/kernel.s                   0x00000000   Number         0  __rtentry4.o ABSOLUTE
    ../clib/angel/kernel.s                   0x00000000   Number         0  __rtentry.o ABSOLUTE
    ../clib/angel/kernel.s                   0x00000000   Number         0  rtexit.o ABSOLUTE
    ../clib/angel/kernel.s                   0x00000000   Number         0  rtexit2.o ABSOLUTE
    ../clib/angel/kernel.s                   0x00000000   Number         0  __rtentry2.o ABSOLUTE
    ../clib/angel/rt.s                       0x00000000   Number         0  rt_raise.o ABSOLUTE
    ../clib/angel/rt.s                       0x00000000   Number         0  rt_errno_addr.o ABSOLUTE
    ../clib/angel/rt.s                       0x00000000   Number         0  rt_errno_addr_intlibspace.o ABSOLUTE
    ../clib/angel/scatter.s                  0x00000000   Number         0  __scatter.o ABSOLUTE
    ../clib/angel/startup.s                  0x00000000   Number         0  __main.o ABSOLUTE
    ../clib/angel/sys.s                      0x00000000   Number         0  use_no_semi_2.o ABSOLUTE
    ../clib/angel/sys.s                      0x00000000   Number         0  use_no_semi.o ABSOLUTE
    ../clib/angel/sys.s                      0x00000000   Number         0  sys_stackheap_outer.o ABSOLUTE
    ../clib/angel/sys.s                      0x00000000   Number         0  libspace.o ABSOLUTE
    ../clib/angel/sys.s                      0x00000000   Number         0  indicate_semi.o ABSOLUTE
    ../clib/angel/sysapp.c                   0x00000000   Number         0  sys_command.o ABSOLUTE
    ../clib/armsys.c                         0x00000000   Number         0  _get_argv_nomalloc.o ABSOLUTE
    ../clib/armsys.c                         0x00000000   Number         0  no_argv.o ABSOLUTE
    ../clib/armsys.c                         0x00000000   Number         0  argv_veneer.o ABSOLUTE
    ../clib/armsys.c                         0x00000000   Number         0  argv_veneer.o ABSOLUTE
    ../clib/fenv.c                           0x00000000   Number         0  _rserrno.o ABSOLUTE
    ../clib/heapalloc.c                      0x00000000   Number         0  hrguard.o ABSOLUTE
    ../clib/heapaux.c                        0x00000000   Number         0  heapauxi.o ABSOLUTE
    ../clib/libinit.s                        0x00000000   Number         0  libshutdown.o ABSOLUTE
    ../clib/libinit.s                        0x00000000   Number         0  libinit2.o ABSOLUTE
    ../clib/libinit.s                        0x00000000   Number         0  libshutdown2.o ABSOLUTE
    ../clib/libinit.s                        0x00000000   Number         0  libinit.o ABSOLUTE
    ../clib/memcpset.s                       0x00000000   Number         0  rt_memcpy_w.o ABSOLUTE
    ../clib/printf.c                         0x00000000   Number         0  __printf.o ABSOLUTE
    ../clib/printf.c                         0x00000000   Number         0  __printf_flags.o ABSOLUTE
    ../clib/printf.c                         0x00000000   Number         0  __printf_nopercent.o ABSOLUTE
    ../clib/printf.c                         0x00000000   Number         0  __printf_ss.o ABSOLUTE
    ../clib/printf.c                         0x00000000   Number         0  __printf_wp.o ABSOLUTE
    ../clib/printf.c                         0x00000000   Number         0  __printf_flags_wp.o ABSOLUTE
    ../clib/printf.c                         0x00000000   Number         0  noretval__2printf.o ABSOLUTE
    ../clib/printf.c                         0x00000000   Number         0  __printf_ss_wp.o ABSOLUTE
    ../clib/printf.c                         0x00000000   Number         0  __printf_flags_ss_wp.o ABSOLUTE
    ../clib/printf.c                         0x00000000   Number         0  _printf_char.o ABSOLUTE
    ../clib/printf.c                         0x00000000   Number         0  __printf_flags_ss.o ABSOLUTE
    ../clib/printf.c                         0x00000000   Number         0  _printf_char_file.o ABSOLUTE
    ../clib/printf.c                         0x00000000   Number         0  __2printf.o ABSOLUTE
    ../clib/printf.c                         0x00000000   Number         0  _printf_str.o ABSOLUTE
    ../clib/printf.c                         0x00000000   Number         0  _printf_char_common.o ABSOLUTE
    ../clib/printf_percent.s                 0x00000000   Number         0  _printf_c.o ABSOLUTE
    ../clib/printf_percent.s                 0x00000000   Number         0  _printf_percent.o ABSOLUTE
    ../clib/printf_percent.s                 0x00000000   Number         0  _printf_percent_end.o ABSOLUTE
    ../clib/signal.c                         0x00000000   Number         0  defsig_rtred_inner.o ABSOLUTE
    ../clib/signal.c                         0x00000000   Number         0  defsig_abrt_inner.o ABSOLUTE
    ../clib/signal.c                         0x00000000   Number         0  defsig_general.o ABSOLUTE
    ../clib/signal.c                         0x00000000   Number         0  __raise.o ABSOLUTE
    ../clib/signal.c                         0x00000000   Number         0  defsig_rtmem_inner.o ABSOLUTE
    ../clib/signal.c                         0x00000000   Number         0  defsig_exit.o ABSOLUTE
    ../clib/signal.c                         0x00000000   Number         0  defsig_rtmem_formal.o ABSOLUTE
    ../clib/signal.c                         0x00000000   Number         0  defsig_rtmem_outer.o ABSOLUTE
    ../clib/signal.c                         0x00000000   Number         0  defsig_fpe_inner.o ABSOLUTE
    ../clib/signal.c                         0x00000000   Number         0  defsig_other.o ABSOLUTE
    ../clib/signal.c                         0x00000000   Number         0  defsig_segv_inner.o ABSOLUTE
    ../clib/signal.c                         0x00000000   Number         0  defsig_cppl_inner.o ABSOLUTE
    ../clib/signal.c                         0x00000000   Number         0  defsig_pvfn_inner.o ABSOLUTE
    ../clib/signal.c                         0x00000000   Number         0  defsig_stak_inner.o ABSOLUTE
    ../clib/signal.s                         0x00000000   Number         0  defsig.o ABSOLUTE
    ../clib/stdio.c                          0x00000000   Number         0  ferror_locked.o ABSOLUTE
    ../clib/stdio.c                          0x00000000   Number         0  ferror.o ABSOLUTE
    ../clib/stdlib.c                         0x00000000   Number         0  exit.o ABSOLUTE
    ../fplib/dcmpi.s                         0x00000000   Number         0  dcmpi.o ABSOLUTE
    ../fplib/dfixu.s                         0x00000000   Number         0  dfixu.o ABSOLUTE
    ../fplib/dflt.s                          0x00000000   Number         0  dflt_clz.o ABSOLUTE
    ../fplib/dleqf.s                         0x00000000   Number         0  dleqf.o ABSOLUTE
    ../fplib/dnaninf.s                       0x00000000   Number         0  dnaninf.o ABSOLUTE
    ../fplib/dretinf.s                       0x00000000   Number         0  dretinf.o ABSOLUTE
    ../fplib/drleqf.s                        0x00000000   Number         0  drleqf.o ABSOLUTE
    ../fplib/dsqrt.s                         0x00000000   Number         0  dsqrt_noumaal.o ABSOLUTE
    ../fplib/f2d.s                           0x00000000   Number         0  f2d.o ABSOLUTE
    ../fplib/faddsub.s                       0x00000000   Number         0  faddsub_clz.o ABSOLUTE
    ../fplib/fdiv.s                          0x00000000   Number         0  fdiv.o ABSOLUTE
    ../fplib/ffix.s                          0x00000000   Number         0  ffix.o ABSOLUTE
    ../fplib/ffixu.s                         0x00000000   Number         0  ffixu.o ABSOLUTE
    ../fplib/fflt.s                          0x00000000   Number         0  fflt_clz.o ABSOLUTE
    ../fplib/fmul.s                          0x00000000   Number         0  fmul.o ABSOLUTE
    ../fplib/fnaninf.s                       0x00000000   Number         0  fnaninf.o ABSOLUTE
    ../fplib/fpinit.s                        0x00000000   Number         0  fpinit.o ABSOLUTE
    ../fplib/fretinf.s                       0x00000000   Number         0  fretinf.o ABSOLUTE
    ../fplib/usenofp.s                       0x00000000   Number         0  usenofp.o ABSOLUTE
    ../mathlib/sqrt.c                        0x00000000   Number         0  sqrt_x.o ABSOLUTE
    ../mathlib/sqrt.c                        0x00000000   Number         0  sqrt.o ABSOLUTE
    ..\CORE\core_cm3.c                       0x00000000   Number         0  core_cm3.o ABSOLUTE
    ..\CORE\startup_stm32f10x_hd.s           0x00000000   Number         0  startup_stm32f10x_hd.o ABSOLUTE
    ..\HARDWARE\24CXX\24cxx.c                0x00000000   Number         0  24cxx.o ABSOLUTE
    ..\HARDWARE\ACC_GAS_PRE\bmp085.c         0x00000000   Number         0  bmp085.o ABSOLUTE
    ..\HARDWARE\DC_MOTOR\DC_motor.c          0x00000000   Number         0  dc_motor.o ABSOLUTE
    ..\HARDWARE\DHT11\dht11.c                0x00000000   Number         0  dht11.o ABSOLUTE
    ..\HARDWARE\DIP\Dot_Matrix.c             0x00000000   Number         0  dot_matrix.o ABSOLUTE
    ..\HARDWARE\FLASH\flash.c                0x00000000   Number         0  flash.o ABSOLUTE
    ..\HARDWARE\IIC\myiic.c                  0x00000000   Number         0  myiic.o ABSOLUTE
    ..\HARDWARE\KEYPAD\keypad.c              0x00000000   Number         0  keypad.o ABSOLUTE
    ..\HARDWARE\KEY\key.c                    0x00000000   Number         0  key.o ABSOLUTE
    ..\HARDWARE\LCD\lcd.c                    0x00000000   Number         0  lcd.o ABSOLUTE
    ..\HARDWARE\LED\led.c                    0x00000000   Number         0  led.o ABSOLUTE
    ..\HARDWARE\MMA7455\MMA7455.c            0x00000000   Number         0  mma7455.o ABSOLUTE
    ..\HARDWARE\RELAY\relay.c                0x00000000   Number         0  relay.o ABSOLUTE
    ..\HARDWARE\SPI\spi.c                    0x00000000   Number         0  spi.o ABSOLUTE
    ..\HARDWARE\STEP_MOTOR\step_motor.c      0x00000000   Number         0  step_motor.o ABSOLUTE
    ..\HARDWARE\TOUCH\touch.c                0x00000000   Number         0  touch.o ABSOLUTE
    ..\STM32F10x_FWLib\src\misc.c            0x00000000   Number         0  misc.o ABSOLUTE
    ..\STM32F10x_FWLib\src\stm32f10x_fsmc.c  0x00000000   Number         0  stm32f10x_fsmc.o ABSOLUTE
    ..\STM32F10x_FWLib\src\stm32f10x_gpio.c  0x00000000   Number         0  stm32f10x_gpio.o ABSOLUTE
    ..\STM32F10x_FWLib\src\stm32f10x_rcc.c   0x00000000   Number         0  stm32f10x_rcc.o ABSOLUTE
    ..\STM32F10x_FWLib\src\stm32f10x_spi.c   0x00000000   Number         0  stm32f10x_spi.o ABSOLUTE
    ..\STM32F10x_FWLib\src\stm32f10x_usart.c 0x00000000   Number         0  stm32f10x_usart.o ABSOLUTE
    ..\SYSTEM\delay\delay.c                  0x00000000   Number         0  delay.o ABSOLUTE
    ..\SYSTEM\sys\sys.c                      0x00000000   Number         0  sys.o ABSOLUTE
    ..\SYSTEM\usart\usart.c                  0x00000000   Number         0  usart.o ABSOLUTE
    ..\\CORE\\core_cm3.c                     0x00000000   Number         0  core_cm3.o ABSOLUTE
    dc.s                                     0x00000000   Number         0  dc.o ABSOLUTE
    main.c                                   0x00000000   Number         0  main.o ABSOLUTE
    stm32f10x_it.c                           0x00000000   Number         0  stm32f10x_it.o ABSOLUTE
    system_stm32f10x.c                       0x00000000   Number         0  system_stm32f10x.o ABSOLUTE
    RESET                                    0x08000000   Section      304  startup_stm32f10x_hd.o(RESET)
    !!!main                                  0x08000130   Section        8  __main.o(!!!main)
    !!!scatter                               0x08000138   Section       52  __scatter.o(!!!scatter)
    !!handler_copy                           0x0800016c   Section       26  __scatter_copy.o(!!handler_copy)
    !!handler_zi                             0x08000188   Section       28  __scatter_zi.o(!!handler_zi)
    .ARM.Collect$$_printf_percent$$00000000  0x080001a4   Section        0  _printf_percent.o(.ARM.Collect$$_printf_percent$$00000000)
    .ARM.Collect$$_printf_percent$$00000013  0x080001a4   Section        6  _printf_c.o(.ARM.Collect$$_printf_percent$$00000013)
    .ARM.Collect$$_printf_percent$$00000017  0x080001aa   Section        4  _printf_percent_end.o(.ARM.Collect$$_printf_percent$$00000017)
    .ARM.Collect$$libinit$$00000000          0x080001ae   Section        2  libinit.o(.ARM.Collect$$libinit$$00000000)
    .ARM.Collect$$libinit$$00000002          0x080001b0   Section        0  libinit2.o(.ARM.Collect$$libinit$$00000002)
    .ARM.Collect$$libinit$$00000004          0x080001b0   Section        0  libinit2.o(.ARM.Collect$$libinit$$00000004)
    .ARM.Collect$$libinit$$0000000A          0x080001b0   Section        0  libinit2.o(.ARM.Collect$$libinit$$0000000A)
    .ARM.Collect$$libinit$$0000000C          0x080001b0   Section        0  libinit2.o(.ARM.Collect$$libinit$$0000000C)
    .ARM.Collect$$libinit$$0000000E          0x080001b0   Section        0  libinit2.o(.ARM.Collect$$libinit$$0000000E)
    .ARM.Collect$$libinit$$00000011          0x080001b0   Section        0  libinit2.o(.ARM.Collect$$libinit$$00000011)
    .ARM.Collect$$libinit$$00000013          0x080001b0   Section        0  libinit2.o(.ARM.Collect$$libinit$$00000013)
    .ARM.Collect$$libinit$$00000015          0x080001b0   Section        0  libinit2.o(.ARM.Collect$$libinit$$00000015)
    .ARM.Collect$$libinit$$00000017          0x080001b0   Section        0  libinit2.o(.ARM.Collect$$libinit$$00000017)
    .ARM.Collect$$libinit$$00000019          0x080001b0   Section        0  libinit2.o(.ARM.Collect$$libinit$$00000019)
    .ARM.Collect$$libinit$$0000001B          0x080001b0   Section        0  libinit2.o(.ARM.Collect$$libinit$$0000001B)
    .ARM.Collect$$libinit$$0000001D          0x080001b0   Section        0  libinit2.o(.ARM.Collect$$libinit$$0000001D)
    .ARM.Collect$$libinit$$0000001F          0x080001b0   Section        0  libinit2.o(.ARM.Collect$$libinit$$0000001F)
    .ARM.Collect$$libinit$$00000021          0x080001b0   Section        0  libinit2.o(.ARM.Collect$$libinit$$00000021)
    .ARM.Collect$$libinit$$00000023          0x080001b0   Section        0  libinit2.o(.ARM.Collect$$libinit$$00000023)
    .ARM.Collect$$libinit$$00000025          0x080001b0   Section        0  libinit2.o(.ARM.Collect$$libinit$$00000025)
    .ARM.Collect$$libinit$$0000002C          0x080001b0   Section        0  libinit2.o(.ARM.Collect$$libinit$$0000002C)
    .ARM.Collect$$libinit$$0000002E          0x080001b0   Section        0  libinit2.o(.ARM.Collect$$libinit$$0000002E)
    .ARM.Collect$$libinit$$00000030          0x080001b0   Section        0  libinit2.o(.ARM.Collect$$libinit$$00000030)
    .ARM.Collect$$libinit$$00000032          0x080001b0   Section        0  libinit2.o(.ARM.Collect$$libinit$$00000032)
    .ARM.Collect$$libinit$$00000033          0x080001b0   Section        2  libinit2.o(.ARM.Collect$$libinit$$00000033)
    .ARM.Collect$$libshutdown$$00000000      0x080001b2   Section        2  libshutdown.o(.ARM.Collect$$libshutdown$$00000000)
    .ARM.Collect$$libshutdown$$00000002      0x080001b4   Section        0  libshutdown2.o(.ARM.Collect$$libshutdown$$00000002)
    .ARM.Collect$$libshutdown$$00000004      0x080001b4   Section        0  libshutdown2.o(.ARM.Collect$$libshutdown$$00000004)
    .ARM.Collect$$libshutdown$$00000007      0x080001b4   Section        0  libshutdown2.o(.ARM.Collect$$libshutdown$$00000007)
    .ARM.Collect$$libshutdown$$0000000A      0x080001b4   Section        0  libshutdown2.o(.ARM.Collect$$libshutdown$$0000000A)
    .ARM.Collect$$libshutdown$$0000000C      0x080001b4   Section        0  libshutdown2.o(.ARM.Collect$$libshutdown$$0000000C)
    .ARM.Collect$$libshutdown$$0000000F      0x080001b4   Section        0  libshutdown2.o(.ARM.Collect$$libshutdown$$0000000F)
    .ARM.Collect$$libshutdown$$00000010      0x080001b4   Section        2  libshutdown2.o(.ARM.Collect$$libshutdown$$00000010)
    .ARM.Collect$$rtentry$$00000000          0x080001b6   Section        0  __rtentry.o(.ARM.Collect$$rtentry$$00000000)
    .ARM.Collect$$rtentry$$00000002          0x080001b6   Section        0  __rtentry2.o(.ARM.Collect$$rtentry$$00000002)
    .ARM.Collect$$rtentry$$00000004          0x080001b6   Section        6  __rtentry4.o(.ARM.Collect$$rtentry$$00000004)
    .ARM.Collect$$rtentry$$00000009          0x080001bc   Section        0  __rtentry2.o(.ARM.Collect$$rtentry$$00000009)
    .ARM.Collect$$rtentry$$0000000A          0x080001bc   Section        4  __rtentry2.o(.ARM.Collect$$rtentry$$0000000A)
    .ARM.Collect$$rtentry$$0000000C          0x080001c0   Section        0  __rtentry2.o(.ARM.Collect$$rtentry$$0000000C)
    .ARM.Collect$$rtentry$$0000000D          0x080001c0   Section        8  __rtentry2.o(.ARM.Collect$$rtentry$$0000000D)
    .ARM.Collect$$rtexit$$00000000           0x080001c8   Section        2  rtexit.o(.ARM.Collect$$rtexit$$00000000)
    .ARM.Collect$$rtexit$$00000002           0x080001ca   Section        0  rtexit2.o(.ARM.Collect$$rtexit$$00000002)
    .ARM.Collect$$rtexit$$00000003           0x080001ca   Section        4  rtexit2.o(.ARM.Collect$$rtexit$$00000003)
    .ARM.Collect$$rtexit$$00000004           0x080001ce   Section        6  rtexit2.o(.ARM.Collect$$rtexit$$00000004)
    .text                                    0x080001d4   Section        0  main.o(.text)
    .text                                    0x08000390   Section        0  stm32f10x_it.o(.text)
    .text                                    0x080003ac   Section        0  system_stm32f10x.o(.text)
    SetSysClockTo72                          0x080003ad   Thumb Code   214  system_stm32f10x.o(.text)
    SetSysClock                              0x08000483   Thumb Code     8  system_stm32f10x.o(.text)
    .text                                    0x0800058c   Section        0  led.o(.text)
    .text                                    0x080005f8   Section        0  key.o(.text)
    .text                                    0x080006f4   Section        0  lcd.o(.text)
    .text                                    0x08003aa0   Section        0  spi.o(.text)
    .text                                    0x08003ba8   Section        0  flash.o(.text)
    .text                                    0x08003f28   Section        0  touch.o(.text)
    .text                                    0x08004df4   Section        0  bmp085.o(.text)
    .text                                    0x08005500   Section        0  mma7455.o(.text)
    .text                                    0x080057c4   Section        0  delay.o(.text)
    .text                                    0x08005898   Section        0  sys.o(.text)
    .text                                    0x08005944   Section        0  usart.o(.text)
    .text                                    0x08005c5c   Section       64  startup_stm32f10x_hd.o(.text)
    .text                                    0x08005c9c   Section        0  stm32f10x_fsmc.o(.text)
    .text                                    0x080062a8   Section        0  stm32f10x_gpio.o(.text)
    .text                                    0x08006604   Section        0  stm32f10x_rcc.o(.text)
    .text                                    0x080069a8   Section        0  stm32f10x_spi.o(.text)
    .text                                    0x08006cb4   Section        0  stm32f10x_usart.o(.text)
    .text                                    0x080070bc   Section        0  misc.o(.text)
    .text                                    0x08007198   Section        2  use_no_semi_2.o(.text)
    .text                                    0x0800719c   Section        0  noretval__2printf.o(.text)
    .text                                    0x080071b4   Section        0  __printf.o(.text)
    .text                                    0x0800721c   Section        0  _printf_str.o(.text)
    .text                                    0x0800726e   Section      100  rt_memcpy_w.o(.text)
    .text                                    0x080072d2   Section        0  heapauxi.o(.text)
    .text                                    0x080072d8   Section        2  use_no_semi.o(.text)
    .text                                    0x080072da   Section        0  _rserrno.o(.text)
    .text                                    0x080072f0   Section        0  _printf_char.o(.text)
    .text                                    0x0800731c   Section        0  _printf_char_file.o(.text)
    .text                                    0x08007340   Section        8  rt_errno_addr_intlibspace.o(.text)
    .text                                    0x08007348   Section        0  _printf_char_common.o(.text)
    _printf_input_char                       0x08007349   Thumb Code    10  _printf_char_common.o(.text)
    .text                                    0x08007378   Section        0  ferror.o(.text)
    .text                                    0x08007380   Section        8  libspace.o(.text)
    .text                                    0x08007388   Section       74  sys_stackheap_outer.o(.text)
    .text                                    0x080073d2   Section        0  exit.o(.text)
    i.sqrt                                   0x080073e4   Section        0  sqrt.o(i.sqrt)
    x$fpl$dcmpinf                            0x08007430   Section       24  dcmpi.o(x$fpl$dcmpinf)
    x$fpl$dfixu                              0x08007448   Section       90  dfixu.o(x$fpl$dfixu)
    x$fpl$dfltu                              0x080074a2   Section       38  dflt_clz.o(x$fpl$dfltu)
    x$fpl$dleqf                              0x080074c8   Section      120  dleqf.o(x$fpl$dleqf)
    x$fpl$dnaninf                            0x08007540   Section      156  dnaninf.o(x$fpl$dnaninf)
    x$fpl$dretinf                            0x080075dc   Section       12  dretinf.o(x$fpl$dretinf)
    x$fpl$drleqf                             0x080075e8   Section      108  drleqf.o(x$fpl$drleqf)
    x$fpl$dsqrt                              0x08007654   Section      460  dsqrt_noumaal.o(x$fpl$dsqrt)
    x$fpl$f2d                                0x08007820   Section       86  f2d.o(x$fpl$f2d)
    x$fpl$fadd                               0x08007878   Section      196  faddsub_clz.o(x$fpl$fadd)
    _fadd1                                   0x08007887   Thumb Code     0  faddsub_clz.o(x$fpl$fadd)
    x$fpl$fdiv                               0x0800793c   Section      388  fdiv.o(x$fpl$fdiv)
    _fdiv1                                   0x0800793d   Thumb Code     0  fdiv.o(x$fpl$fdiv)
    x$fpl$ffix                               0x08007ac0   Section       54  ffix.o(x$fpl$ffix)
    x$fpl$ffixu                              0x08007af8   Section       62  ffixu.o(x$fpl$ffixu)
    x$fpl$fflt                               0x08007b38   Section       48  fflt_clz.o(x$fpl$fflt)
    x$fpl$ffltu                              0x08007b68   Section       38  fflt_clz.o(x$fpl$ffltu)
    x$fpl$fmul                               0x08007b90   Section      258  fmul.o(x$fpl$fmul)
    x$fpl$fnaninf                            0x08007c92   Section      140  fnaninf.o(x$fpl$fnaninf)
    x$fpl$fretinf                            0x08007d1e   Section       10  fretinf.o(x$fpl$fretinf)
    x$fpl$fsub                               0x08007d28   Section      234  faddsub_clz.o(x$fpl$fsub)
    _fsub1                                   0x08007d37   Thumb Code     0  faddsub_clz.o(x$fpl$fsub)
    .constdata                               0x08007e12   Section     5860  lcd.o(.constdata)
    x$fpl$usenofp                            0x08007e12   Section        0  usenofp.o(x$fpl$usenofp)
    .conststring                             0x080094f8   Section      121  touch.o(.conststring)
    .data                                    0x20000000   Section        8  main.o(.data)
    .data                                    0x20000008   Section       20  system_stm32f10x.o(.data)
    .data                                    0x2000001c   Section        1  key.o(.data)
    key_up                                   0x2000001c   Data           1  key.o(.data)
    .data                                    0x2000001e   Section       28  lcd.o(.data)
    .data                                    0x2000003a   Section        2  flash.o(.data)
    .data                                    0x2000003c   Section       48  touch.o(.data)
    .data                                    0x2000006c   Section       46  bmp085.o(.data)
    .data                                    0x2000009a   Section       14  mma7455.o(.data)
    .data                                    0x200000a8   Section        4  delay.o(.data)
    fac_us                                   0x200000a8   Data           1  delay.o(.data)
    fac_ms                                   0x200000aa   Data           2  delay.o(.data)
    .data                                    0x200000ac   Section       16  usart.o(.data)
    BufferCount                              0x200000ae   Data           1  usart.o(.data)
    startadd                                 0x200000b8   Data           4  usart.o(.data)
    .data                                    0x200000bc   Section       20  stm32f10x_rcc.o(.data)
    APBAHBPrescTable                         0x200000bc   Data          16  stm32f10x_rcc.o(.data)
    ADCPrescTable                            0x200000cc   Data           4  stm32f10x_rcc.o(.data)
    .bss                                     0x200000d0   Section      284  lcd.o(.bss)
    .bss                                     0x200001ec   Section     4096  flash.o(.bss)
    .bss                                     0x200011ec   Section      260  usart.o(.bss)
    .bss                                     0x200012f0   Section       96  libspace.o(.bss)
    HEAP                                     0x20001350   Section      512  startup_stm32f10x_hd.o(HEAP)
    Heap_Mem                                 0x20001350   Data         512  startup_stm32f10x_hd.o(HEAP)
    STACK                                    0x20001550   Section     1024  startup_stm32f10x_hd.o(STACK)
    Stack_Mem                                0x20001550   Data        1024  startup_stm32f10x_hd.o(STACK)
    __initial_sp                             0x20001950   Data           0  startup_stm32f10x_hd.o(STACK)

    Global Symbols

    Symbol Name                              Value     Ov Type        Size  Object(Section)

    BuildAttributes$$THM_ISAv4$P$D$K$B$S$PE$A:L22UL41UL21$X:L11$S22US41US21$IEEE1$IW$USESV6$~STKCKD$USESV7$~SHL$OTIME$ROPI$IEEEJ$EBA8$UX$STANDARDLIB$REQ8$PRES8$EABIv2 0x00000000   Number         0  anon$$obj.o ABSOLUTE
    __ARM_use_no_argv                        0x00000000   Number         0  main.o ABSOLUTE
    __ARM_exceptions_init                     - Undefined Weak Reference
    __alloca_initialize                       - Undefined Weak Reference
    __arm_preinit_                            - Undefined Weak Reference
    __cpp_initialize__aeabi_                  - Undefined Weak Reference
    __cxa_finalize                            - Undefined Weak Reference
    __rt_locale                               - Undefined Weak Reference
    __sigvec_lookup                           - Undefined Weak Reference
    _atexit_init                              - Undefined Weak Reference
    _call_atexit_fns                          - Undefined Weak Reference
    _clock_init                               - Undefined Weak Reference
    _fp_trap_init                             - Undefined Weak Reference
    _fp_trap_shutdown                         - Undefined Weak Reference
    _get_lc_collate                           - Undefined Weak Reference
    _get_lc_ctype                             - Undefined Weak Reference
    _get_lc_monetary                          - Undefined Weak Reference
    _get_lc_numeric                           - Undefined Weak Reference
    _get_lc_time                              - Undefined Weak Reference
    _getenv_init                              - Undefined Weak Reference
    _handle_redirection                       - Undefined Weak Reference
    _init_alloc                               - Undefined Weak Reference
    _init_user_alloc                          - Undefined Weak Reference
    _initio                                   - Undefined Weak Reference
    _mutex_acquire                            - Undefined Weak Reference
    _mutex_release                            - Undefined Weak Reference
    _printf_mbtowc                            - Undefined Weak Reference
    _printf_post_padding                      - Undefined Weak Reference
    _printf_pre_padding                       - Undefined Weak Reference
    _rand_init                                - Undefined Weak Reference
    _signal_finish                            - Undefined Weak Reference
    _signal_init                              - Undefined Weak Reference
    _terminate_alloc                          - Undefined Weak Reference
    _terminate_user_alloc                     - Undefined Weak Reference
    _terminateio                              - Undefined Weak Reference
    __Vectors_Size                           0x00000130   Number         0  startup_stm32f10x_hd.o ABSOLUTE
    __Vectors                                0x08000000   Data           4  startup_stm32f10x_hd.o(RESET)
    __Vectors_End                            0x08000130   Data           0  startup_stm32f10x_hd.o(RESET)
    __main                                   0x08000131   Thumb Code     8  __main.o(!!!main)
    __scatterload                            0x08000139   Thumb Code     0  __scatter.o(!!!scatter)
    __scatterload_rt2                        0x08000139   Thumb Code    44  __scatter.o(!!!scatter)
    __scatterload_rt2_thumb_only             0x08000139   Thumb Code     0  __scatter.o(!!!scatter)
    __scatterload_null                       0x08000147   Thumb Code     0  __scatter.o(!!!scatter)
    __scatterload_copy                       0x0800016d   Thumb Code    26  __scatter_copy.o(!!handler_copy)
    __scatterload_zeroinit                   0x08000189   Thumb Code    28  __scatter_zi.o(!!handler_zi)
    _printf_c                                0x080001a5   Thumb Code     0  _printf_c.o(.ARM.Collect$$_printf_percent$$00000013)
    _printf_percent                          0x080001a5   Thumb Code     0  _printf_percent.o(.ARM.Collect$$_printf_percent$$00000000)
    _printf_percent_end                      0x080001ab   Thumb Code     0  _printf_percent_end.o(.ARM.Collect$$_printf_percent$$00000017)
    __rt_lib_init                            0x080001af   Thumb Code     0  libinit.o(.ARM.Collect$$libinit$$00000000)
    __rt_lib_init_alloca_1                   0x080001b1   Thumb Code     0  libinit2.o(.ARM.Collect$$libinit$$0000002E)
    __rt_lib_init_argv_1                     0x080001b1   Thumb Code     0  libinit2.o(.ARM.Collect$$libinit$$0000002C)
    __rt_lib_init_atexit_1                   0x080001b1   Thumb Code     0  libinit2.o(.ARM.Collect$$libinit$$0000001B)
    __rt_lib_init_clock_1                    0x080001b1   Thumb Code     0  libinit2.o(.ARM.Collect$$libinit$$00000021)
    __rt_lib_init_cpp_1                      0x080001b1   Thumb Code     0  libinit2.o(.ARM.Collect$$libinit$$00000032)
    __rt_lib_init_exceptions_1               0x080001b1   Thumb Code     0  libinit2.o(.ARM.Collect$$libinit$$00000030)
    __rt_lib_init_fp_1                       0x080001b1   Thumb Code     0  libinit2.o(.ARM.Collect$$libinit$$00000002)
    __rt_lib_init_fp_trap_1                  0x080001b1   Thumb Code     0  libinit2.o(.ARM.Collect$$libinit$$0000001F)
    __rt_lib_init_getenv_1                   0x080001b1   Thumb Code     0  libinit2.o(.ARM.Collect$$libinit$$00000023)
    __rt_lib_init_heap_1                     0x080001b1   Thumb Code     0  libinit2.o(.ARM.Collect$$libinit$$0000000A)
    __rt_lib_init_lc_collate_1               0x080001b1   Thumb Code     0  libinit2.o(.ARM.Collect$$libinit$$00000011)
    __rt_lib_init_lc_ctype_1                 0x080001b1   Thumb Code     0  libinit2.o(.ARM.Collect$$libinit$$00000013)
    __rt_lib_init_lc_monetary_1              0x080001b1   Thumb Code     0  libinit2.o(.ARM.Collect$$libinit$$00000015)
    __rt_lib_init_lc_numeric_1               0x080001b1   Thumb Code     0  libinit2.o(.ARM.Collect$$libinit$$00000017)
    __rt_lib_init_lc_time_1                  0x080001b1   Thumb Code     0  libinit2.o(.ARM.Collect$$libinit$$00000019)
    __rt_lib_init_preinit_1                  0x080001b1   Thumb Code     0  libinit2.o(.ARM.Collect$$libinit$$00000004)
    __rt_lib_init_rand_1                     0x080001b1   Thumb Code     0  libinit2.o(.ARM.Collect$$libinit$$0000000E)
    __rt_lib_init_return                     0x080001b1   Thumb Code     0  libinit2.o(.ARM.Collect$$libinit$$00000033)
    __rt_lib_init_signal_1                   0x080001b1   Thumb Code     0  libinit2.o(.ARM.Collect$$libinit$$0000001D)
    __rt_lib_init_stdio_1                    0x080001b1   Thumb Code     0  libinit2.o(.ARM.Collect$$libinit$$00000025)
    __rt_lib_init_user_alloc_1               0x080001b1   Thumb Code     0  libinit2.o(.ARM.Collect$$libinit$$0000000C)
    __rt_lib_shutdown                        0x080001b3   Thumb Code     0  libshutdown.o(.ARM.Collect$$libshutdown$$00000000)
    __rt_lib_shutdown_cpp_1                  0x080001b5   Thumb Code     0  libshutdown2.o(.ARM.Collect$$libshutdown$$00000002)
    __rt_lib_shutdown_fp_trap_1              0x080001b5   Thumb Code     0  libshutdown2.o(.ARM.Collect$$libshutdown$$00000007)
    __rt_lib_shutdown_heap_1                 0x080001b5   Thumb Code     0  libshutdown2.o(.ARM.Collect$$libshutdown$$0000000F)
    __rt_lib_shutdown_return                 0x080001b5   Thumb Code     0  libshutdown2.o(.ARM.Collect$$libshutdown$$00000010)
    __rt_lib_shutdown_signal_1               0x080001b5   Thumb Code     0  libshutdown2.o(.ARM.Collect$$libshutdown$$0000000A)
    __rt_lib_shutdown_stdio_1                0x080001b5   Thumb Code     0  libshutdown2.o(.ARM.Collect$$libshutdown$$00000004)
    __rt_lib_shutdown_user_alloc_1           0x080001b5   Thumb Code     0  libshutdown2.o(.ARM.Collect$$libshutdown$$0000000C)
    __rt_entry                               0x080001b7   Thumb Code     0  __rtentry.o(.ARM.Collect$$rtentry$$00000000)
    __rt_entry_presh_1                       0x080001b7   Thumb Code     0  __rtentry2.o(.ARM.Collect$$rtentry$$00000002)
    __rt_entry_sh                            0x080001b7   Thumb Code     0  __rtentry4.o(.ARM.Collect$$rtentry$$00000004)
    __rt_entry_li                            0x080001bd   Thumb Code     0  __rtentry2.o(.ARM.Collect$$rtentry$$0000000A)
    __rt_entry_postsh_1                      0x080001bd   Thumb Code     0  __rtentry2.o(.ARM.Collect$$rtentry$$00000009)
    __rt_entry_main                          0x080001c1   Thumb Code     0  __rtentry2.o(.ARM.Collect$$rtentry$$0000000D)
    __rt_entry_postli_1                      0x080001c1   Thumb Code     0  __rtentry2.o(.ARM.Collect$$rtentry$$0000000C)
    __rt_exit                                0x080001c9   Thumb Code     0  rtexit.o(.ARM.Collect$$rtexit$$00000000)
    __rt_exit_ls                             0x080001cb   Thumb Code     0  rtexit2.o(.ARM.Collect$$rtexit$$00000003)
    __rt_exit_prels_1                        0x080001cb   Thumb Code     0  rtexit2.o(.ARM.Collect$$rtexit$$00000002)
    __rt_exit_exit                           0x080001cf   Thumb Code     0  rtexit2.o(.ARM.Collect$$rtexit$$00000004)
    Load_Drow_Dialog                         0x080001d5   Thumb Code    42  main.o(.text)
    xianshi                                  0x080001ff   Thumb Code    50  main.o(.text)
    refshow                                  0x08000231   Thumb Code    74  main.o(.text)
    jiance                                   0x0800027b   Thumb Code    70  main.o(.text)
    beepms                                   0x080002c1   Thumb Code    26  main.o(.text)
    main                                     0x080002db   Thumb Code   142  main.o(.text)
    NMI_Handler                              0x08000391   Thumb Code     2  stm32f10x_it.o(.text)
    HardFault_Handler                        0x08000393   Thumb Code     4  stm32f10x_it.o(.text)
    MemManage_Handler                        0x08000397   Thumb Code     4  stm32f10x_it.o(.text)
    BusFault_Handler                         0x0800039b   Thumb Code     4  stm32f10x_it.o(.text)
    UsageFault_Handler                       0x0800039f   Thumb Code     4  stm32f10x_it.o(.text)
    SVC_Handler                              0x080003a3   Thumb Code     2  stm32f10x_it.o(.text)
    DebugMon_Handler                         0x080003a5   Thumb Code     2  stm32f10x_it.o(.text)
    PendSV_Handler                           0x080003a7   Thumb Code     2  stm32f10x_it.o(.text)
    SysTick_Handler                          0x080003a9   Thumb Code     2  stm32f10x_it.o(.text)
    SystemInit                               0x0800048b   Thumb Code    78  system_stm32f10x.o(.text)
    SystemCoreClockUpdate                    0x080004d9   Thumb Code   142  system_stm32f10x.o(.text)
    LED_Init                                 0x0800058d   Thumb Code    94  led.o(.text)
    KEY_Init                                 0x080005f9   Thumb Code    52  key.o(.text)
    KEY_Scan                                 0x0800062d   Thumb Code   188  key.o(.text)
    LCD_WR_REG                               0x080006f5   Thumb Code    32  lcd.o(.text)
    LCD_WR_DATA                              0x08000715   Thumb Code    38  lcd.o(.text)
    LCD_RD_DATA                              0x0800073b   Thumb Code    32  lcd.o(.text)
    LCD_WR_REG_DATA                          0x0800075b   Thumb Code    20  lcd.o(.text)
    LCD_ReadReg                              0x0800076f   Thumb Code    66  lcd.o(.text)
    LCD_WriteRAM_Prepare                     0x080007b1   Thumb Code    12  lcd.o(.text)
    LCD_BGR2RGB                              0x080007bd   Thumb Code    26  lcd.o(.text)
    opt_delay                                0x080007d7   Thumb Code    14  lcd.o(.text)
    Address_set1121                          0x080007e5   Thumb Code    56  lcd.o(.text)
    LCD_SetCursor                            0x0800081d   Thumb Code   494  lcd.o(.text)
    LCD_ReadPoint                            0x08000a0b   Thumb Code   110  lcd.o(.text)
    LCD_DisplayOn                            0x08000a79   Thumb Code     2  lcd.o(.text)
    LCD_DisplayOff                           0x08000a7b   Thumb Code     2  lcd.o(.text)
    LCD_DrawPoint                            0x08000a7d   Thumb Code    28  lcd.o(.text)
    LCD_Clear                                0x08000a99   Thumb Code    44  lcd.o(.text)
    LCD_Init                                 0x08000ac5   Thumb Code 10410  lcd.o(.text)
    LCD_Fill                                 0x0800336f   Thumb Code    80  lcd.o(.text)
    LCD_Color_Fill                           0x080033bf   Thumb Code    92  lcd.o(.text)
    LCD_DrawLine                             0x0800341b   Thumb Code   206  lcd.o(.text)
    LCD_DrawRectangle                        0x080034e9   Thumb Code    60  lcd.o(.text)
    Draw_Circle                              0x08003525   Thumb Code   184  lcd.o(.text)
    LCD_ShowChar                             0x080035dd   Thumb Code   362  lcd.o(.text)
    LCD_Pow                                  0x08003747   Thumb Code    22  lcd.o(.text)
    LCD_ShowNum                              0x0800375d   Thumb Code   148  lcd.o(.text)
    LCD_ShowxNum                             0x080037f1   Thumb Code   190  lcd.o(.text)
    LCD_ShowHzString                         0x080038af   Thumb Code   160  lcd.o(.text)
    LCD_ShowCharString                       0x0800394f   Thumb Code    58  lcd.o(.text)
    LCD_ShowString                           0x08003989   Thumb Code    96  lcd.o(.text)
    showimage                                0x080039e9   Thumb Code    96  lcd.o(.text)
    ziku_test                                0x08003a49   Thumb Code    68  lcd.o(.text)
    SPI2_ReadWriteByte                       0x08003aa1   Thumb Code    78  spi.o(.text)
    SPI2_Init                                0x08003aef   Thumb Code   140  spi.o(.text)
    SPI2_SetSpeed                            0x08003b7b   Thumb Code    36  spi.o(.text)
    SPI_Flash_ReadID                         0x08003ba9   Thumb Code    64  flash.o(.text)
    SPI_Flash_Init                           0x08003be9   Thumb Code   114  flash.o(.text)
    SPI_Flash_ReadSR                         0x08003c5b   Thumb Code    36  flash.o(.text)
    SPI_FLASH_Write_SR                       0x08003c7f   Thumb Code    32  flash.o(.text)
    SPI_FLASH_Write_Enable                   0x08003c9f   Thumb Code    24  flash.o(.text)
    SPI_FLASH_Write_Disable                  0x08003cb7   Thumb Code    24  flash.o(.text)
    SPI_Flash_Read                           0x08003ccf   Thumb Code    74  flash.o(.text)
    SPI_Flash_Wait_Busy                      0x08003d19   Thumb Code    18  flash.o(.text)
    SPI_Flash_Write_Page                     0x08003d2b   Thumb Code    80  flash.o(.text)
    SPI_Flash_Write_NoCheck                  0x08003d7b   Thumb Code    70  flash.o(.text)
    SPI_Flash_Erase_Sector                   0x08003dc1   Thumb Code    62  flash.o(.text)
    SPI_Flash_Write                          0x08003dff   Thumb Code   174  flash.o(.text)
    SPI_Flash_Erase_Chip                     0x08003ead   Thumb Code    36  flash.o(.text)
    SPI_Flash_PowerDown                      0x08003ed1   Thumb Code    30  flash.o(.text)
    SPI_Flash_WAKEUP                         0x08003eef   Thumb Code    30  flash.o(.text)
    TP_Write_Byte                            0x08003f29   Thumb Code    56  touch.o(.text)
    TP_Read_AD                               0x08003f61   Thumb Code   132  touch.o(.text)
    TP_Read_XOY                              0x08003fe5   Thumb Code   138  touch.o(.text)
    TP_Read_XY                               0x0800406f   Thumb Code    38  touch.o(.text)
    TP_Read_XY2                              0x08004095   Thumb Code   192  touch.o(.text)
    TP_Drow_Touch_Point                      0x08004155   Thumb Code   124  touch.o(.text)
    TP_Draw_Big_Point                        0x080041d1   Thumb Code    70  touch.o(.text)
    TP_Scan                                  0x08004217   Thumb Code   246  touch.o(.text)
    TP_Save_Adjdata                          0x0800430d   Thumb Code   142  touch.o(.text)
    TP_Get_Adjdata                           0x0800439b   Thumb Code   160  touch.o(.text)
    TP_Adj_Info_Show                         0x0800443b   Thumb Code   268  touch.o(.text)
    TP_Adjust                                0x08004547   Thumb Code  2062  touch.o(.text)
    TP_Init                                  0x08004d55   Thumb Code    92  touch.o(.text)
    string_shift                             0x08004df5   Thumb Code    78  bmp085.o(.text)
    DATA_printf                              0x08004e43   Thumb Code    84  bmp085.o(.text)
    I2C_Gpio_Init                            0x08004e97   Thumb Code    46  bmp085.o(.text)
    i2c_SDA_input                            0x08004ec5   Thumb Code    24  bmp085.o(.text)
    i2c_SDA_output                           0x08004edd   Thumb Code    30  bmp085.o(.text)
    I2C_delay                                0x08004efb   Thumb Code    16  bmp085.o(.text)
    delay5ms                                 0x08004f0b   Thumb Code    14  bmp085.o(.text)
    I2C_Start                                0x08004f19   Thumb Code    48  bmp085.o(.text)
    I2C_Stop                                 0x08004f49   Thumb Code    48  bmp085.o(.text)
    I2C_SendACK                              0x08004f79   Thumb Code    52  bmp085.o(.text)
    I2C_RecvACK                              0x08004fad   Thumb Code    60  bmp085.o(.text)
    I2C_SendByte                             0x08004fe9   Thumb Code    74  bmp085.o(.text)
    I2C_RecvByte                             0x08005033   Thumb Code    72  bmp085.o(.text)
    Single_WriteI2C                          0x0800507b   Thumb Code    36  bmp085.o(.text)
    Single_ReadI2C                           0x0800509f   Thumb Code    54  bmp085.o(.text)
    Multiple_read                            0x080050d5   Thumb Code    78  bmp085.o(.text)
    InitBMP085                               0x08005123   Thumb Code   136  bmp085.o(.text)
    bmp085ReadTemp                           0x080051ab   Thumb Code    42  bmp085.o(.text)
    bmp085ReadPressure                       0x080051d5   Thumb Code   104  bmp085.o(.text)
    bmp085Convert                            0x0800523d   Thumb Code   240  bmp085.o(.text)
    bmp085_conversion                        0x0800532d   Thumb Code   128  bmp085.o(.text)
    DATA_Diplay                              0x080053ad   Thumb Code   142  bmp085.o(.text)
    BMP085_Test                              0x0800543b   Thumb Code    68  bmp085.o(.text)
    MMA7455_delay50us                        0x08005501   Thumb Code    14  mma7455.o(.text)
    MMA7455_data_init                        0x0800550f   Thumb Code    20  mma7455.o(.text)
    MMA7455_self_test7455                    0x08005523   Thumb Code    98  mma7455.o(.text)
    MMA7455_sendxyz                          0x08005585   Thumb Code   370  mma7455.o(.text)
    MMA7455_Test                             0x080056f7   Thumb Code    66  mma7455.o(.text)
    delay_init                               0x080057c5   Thumb Code    50  delay.o(.text)
    delay_us                                 0x080057f7   Thumb Code    72  delay.o(.text)
    delay_ms                                 0x0800583f   Thumb Code    72  delay.o(.text)
    NVIC_Configuration                       0x08005899   Thumb Code    68  sys.o(.text)
    inttohex                                 0x080058dd   Thumb Code   104  sys.o(.text)
    _ttywrch                                 0x08005945   Thumb Code    24  usart.o(.text)
    _sys_exit                                0x0800595d   Thumb Code     6  usart.o(.text)
    fputc                                    0x08005963   Thumb Code    24  usart.o(.text)
    Uart1_init                               0x0800597b   Thumb Code   130  usart.o(.text)
    USART1_IRQHandler                        0x080059fd   Thumb Code    64  usart.o(.text)
    Uart3_init                               0x08005a3d   Thumb Code   134  usart.o(.text)
    USART3_IRQHandler                        0x08005ac3   Thumb Code    66  usart.o(.text)
    RFID_Test                                0x08005b05   Thumb Code   204  usart.o(.text)
    Reset_Handler                            0x08005c5d   Thumb Code     8  startup_stm32f10x_hd.o(.text)
    ADC1_2_IRQHandler                        0x08005c77   Thumb Code     0  startup_stm32f10x_hd.o(.text)
    ADC3_IRQHandler                          0x08005c77   Thumb Code     0  startup_stm32f10x_hd.o(.text)
    CAN1_RX1_IRQHandler                      0x08005c77   Thumb Code     0  startup_stm32f10x_hd.o(.text)
    CAN1_SCE_IRQHandler                      0x08005c77   Thumb Code     0  startup_stm32f10x_hd.o(.text)
    DMA1_Channel1_IRQHandler                 0x08005c77   Thumb Code     0  startup_stm32f10x_hd.o(.text)
    DMA1_Channel2_IRQHandler                 0x08005c77   Thumb Code     0  startup_stm32f10x_hd.o(.text)
    DMA1_Channel3_IRQHandler                 0x08005c77   Thumb Code     0  startup_stm32f10x_hd.o(.text)
    DMA1_Channel4_IRQHandler                 0x08005c77   Thumb Code     0  startup_stm32f10x_hd.o(.text)
    DMA1_Channel5_IRQHandler                 0x08005c77   Thumb Code     0  startup_stm32f10x_hd.o(.text)
    DMA1_Channel6_IRQHandler                 0x08005c77   Thumb Code     0  startup_stm32f10x_hd.o(.text)
    DMA1_Channel7_IRQHandler                 0x08005c77   Thumb Code     0  startup_stm32f10x_hd.o(.text)
    DMA2_Channel1_IRQHandler                 0x08005c77   Thumb Code     0  startup_stm32f10x_hd.o(.text)
    DMA2_Channel2_IRQHandler                 0x08005c77   Thumb Code     0  startup_stm32f10x_hd.o(.text)
    DMA2_Channel3_IRQHandler                 0x08005c77   Thumb Code     0  startup_stm32f10x_hd.o(.text)
    DMA2_Channel4_5_IRQHandler               0x08005c77   Thumb Code     0  startup_stm32f10x_hd.o(.text)
    EXTI0_IRQHandler                         0x08005c77   Thumb Code     0  startup_stm32f10x_hd.o(.text)
    EXTI15_10_IRQHandler                     0x08005c77   Thumb Code     0  startup_stm32f10x_hd.o(.text)
    EXTI1_IRQHandler                         0x08005c77   Thumb Code     0  startup_stm32f10x_hd.o(.text)
    EXTI2_IRQHandler                         0x08005c77   Thumb Code     0  startup_stm32f10x_hd.o(.text)
    EXTI3_IRQHandler                         0x08005c77   Thumb Code     0  startup_stm32f10x_hd.o(.text)
    EXTI4_IRQHandler                         0x08005c77   Thumb Code     0  startup_stm32f10x_hd.o(.text)
    EXTI9_5_IRQHandler                       0x08005c77   Thumb Code     0  startup_stm32f10x_hd.o(.text)
    FLASH_IRQHandler                         0x08005c77   Thumb Code     0  startup_stm32f10x_hd.o(.text)
    FSMC_IRQHandler                          0x08005c77   Thumb Code     0  startup_stm32f10x_hd.o(.text)
    I2C1_ER_IRQHandler                       0x08005c77   Thumb Code     0  startup_stm32f10x_hd.o(.text)
    I2C1_EV_IRQHandler                       0x08005c77   Thumb Code     0  startup_stm32f10x_hd.o(.text)
    I2C2_ER_IRQHandler                       0x08005c77   Thumb Code     0  startup_stm32f10x_hd.o(.text)
    I2C2_EV_IRQHandler                       0x08005c77   Thumb Code     0  startup_stm32f10x_hd.o(.text)
    PVD_IRQHandler                           0x08005c77   Thumb Code     0  startup_stm32f10x_hd.o(.text)
    RCC_IRQHandler                           0x08005c77   Thumb Code     0  startup_stm32f10x_hd.o(.text)
    RTCAlarm_IRQHandler                      0x08005c77   Thumb Code     0  startup_stm32f10x_hd.o(.text)
    RTC_IRQHandler                           0x08005c77   Thumb Code     0  startup_stm32f10x_hd.o(.text)
    SDIO_IRQHandler                          0x08005c77   Thumb Code     0  startup_stm32f10x_hd.o(.text)
    SPI1_IRQHandler                          0x08005c77   Thumb Code     0  startup_stm32f10x_hd.o(.text)
    SPI2_IRQHandler                          0x08005c77   Thumb Code     0  startup_stm32f10x_hd.o(.text)
    SPI3_IRQHandler                          0x08005c77   Thumb Code     0  startup_stm32f10x_hd.o(.text)
    TAMPER_IRQHandler                        0x08005c77   Thumb Code     0  startup_stm32f10x_hd.o(.text)
    TIM1_BRK_IRQHandler                      0x08005c77   Thumb Code     0  startup_stm32f10x_hd.o(.text)
    TIM1_CC_IRQHandler                       0x08005c77   Thumb Code     0  startup_stm32f10x_hd.o(.text)
    TIM1_TRG_COM_IRQHandler                  0x08005c77   Thumb Code     0  startup_stm32f10x_hd.o(.text)
    TIM1_UP_IRQHandler                       0x08005c77   Thumb Code     0  startup_stm32f10x_hd.o(.text)
    TIM2_IRQHandler                          0x08005c77   Thumb Code     0  startup_stm32f10x_hd.o(.text)
    TIM3_IRQHandler                          0x08005c77   Thumb Code     0  startup_stm32f10x_hd.o(.text)
    TIM4_IRQHandler                          0x08005c77   Thumb Code     0  startup_stm32f10x_hd.o(.text)
    TIM5_IRQHandler                          0x08005c77   Thumb Code     0  startup_stm32f10x_hd.o(.text)
    TIM6_IRQHandler                          0x08005c77   Thumb Code     0  startup_stm32f10x_hd.o(.text)
    TIM7_IRQHandler                          0x08005c77   Thumb Code     0  startup_stm32f10x_hd.o(.text)
    TIM8_BRK_IRQHandler                      0x08005c77   Thumb Code     0  startup_stm32f10x_hd.o(.text)
    TIM8_CC_IRQHandler                       0x08005c77   Thumb Code     0  startup_stm32f10x_hd.o(.text)
    TIM8_TRG_COM_IRQHandler                  0x08005c77   Thumb Code     0  startup_stm32f10x_hd.o(.text)
    TIM8_UP_IRQHandler                       0x08005c77   Thumb Code     0  startup_stm32f10x_hd.o(.text)
    UART4_IRQHandler                         0x08005c77   Thumb Code     0  startup_stm32f10x_hd.o(.text)
    UART5_IRQHandler                         0x08005c77   Thumb Code     0  startup_stm32f10x_hd.o(.text)
    USART2_IRQHandler                        0x08005c77   Thumb Code     0  startup_stm32f10x_hd.o(.text)
    USBWakeUp_IRQHandler                     0x08005c77   Thumb Code     0  startup_stm32f10x_hd.o(.text)
    USB_HP_CAN1_TX_IRQHandler                0x08005c77   Thumb Code     0  startup_stm32f10x_hd.o(.text)
    USB_LP_CAN1_RX0_IRQHandler               0x08005c77   Thumb Code     0  startup_stm32f10x_hd.o(.text)
    WWDG_IRQHandler                          0x08005c77   Thumb Code     0  startup_stm32f10x_hd.o(.text)
    __user_initial_stackheap                 0x08005c79   Thumb Code     0  startup_stm32f10x_hd.o(.text)
    FSMC_NORSRAMDeInit                       0x08005c9d   Thumb Code    54  stm32f10x_fsmc.o(.text)
    FSMC_NANDDeInit                          0x08005cd3   Thumb Code    62  stm32f10x_fsmc.o(.text)
    FSMC_PCCARDDeInit                        0x08005d11   Thumb Code    36  stm32f10x_fsmc.o(.text)
    FSMC_NORSRAMInit                         0x08005d35   Thumb Code   230  stm32f10x_fsmc.o(.text)
    FSMC_NANDInit                            0x08005e1b   Thumb Code   132  stm32f10x_fsmc.o(.text)
    FSMC_PCCARDInit                          0x08005e9f   Thumb Code   130  stm32f10x_fsmc.o(.text)
    FSMC_NORSRAMStructInit                   0x08005f21   Thumb Code   114  stm32f10x_fsmc.o(.text)
    FSMC_NANDStructInit                      0x08005f93   Thumb Code    54  stm32f10x_fsmc.o(.text)
    FSMC_PCCARDStructInit                    0x08005fc9   Thumb Code    60  stm32f10x_fsmc.o(.text)
    FSMC_NORSRAMCmd                          0x08006005   Thumb Code    46  stm32f10x_fsmc.o(.text)
    FSMC_NANDCmd                             0x08006033   Thumb Code    86  stm32f10x_fsmc.o(.text)
    FSMC_PCCARDCmd                           0x08006089   Thumb Code    44  stm32f10x_fsmc.o(.text)
    FSMC_NANDECCCmd                          0x080060b5   Thumb Code    90  stm32f10x_fsmc.o(.text)
    FSMC_GetECC                              0x0800610f   Thumb Code    24  stm32f10x_fsmc.o(.text)
    FSMC_ITConfig                            0x08006127   Thumb Code   128  stm32f10x_fsmc.o(.text)
    FSMC_GetFlagStatus                       0x080061a7   Thumb Code    54  stm32f10x_fsmc.o(.text)
    FSMC_ClearFlag                           0x080061dd   Thumb Code    62  stm32f10x_fsmc.o(.text)
    FSMC_GetITStatus                         0x0800621b   Thumb Code    64  stm32f10x_fsmc.o(.text)
    FSMC_ClearITPendingBit                   0x0800625b   Thumb Code    68  stm32f10x_fsmc.o(.text)
    GPIO_DeInit                              0x080062a9   Thumb Code   172  stm32f10x_gpio.o(.text)
    GPIO_AFIODeInit                          0x08006355   Thumb Code    20  stm32f10x_gpio.o(.text)
    GPIO_Init                                0x08006369   Thumb Code   278  stm32f10x_gpio.o(.text)
    GPIO_StructInit                          0x0800647f   Thumb Code    16  stm32f10x_gpio.o(.text)
    GPIO_ReadInputDataBit                    0x0800648f   Thumb Code    18  stm32f10x_gpio.o(.text)
    GPIO_ReadInputData                       0x080064a1   Thumb Code     8  stm32f10x_gpio.o(.text)
    GPIO_ReadOutputDataBit                   0x080064a9   Thumb Code    18  stm32f10x_gpio.o(.text)
    GPIO_ReadOutputData                      0x080064bb   Thumb Code     8  stm32f10x_gpio.o(.text)
    GPIO_SetBits                             0x080064c3   Thumb Code     4  stm32f10x_gpio.o(.text)
    GPIO_ResetBits                           0x080064c7   Thumb Code     4  stm32f10x_gpio.o(.text)
    GPIO_WriteBit                            0x080064cb   Thumb Code    10  stm32f10x_gpio.o(.text)
    GPIO_Write                               0x080064d5   Thumb Code     4  stm32f10x_gpio.o(.text)
    GPIO_PinLockConfig                       0x080064d9   Thumb Code    18  stm32f10x_gpio.o(.text)
    GPIO_EventOutputConfig                   0x080064eb   Thumb Code    26  stm32f10x_gpio.o(.text)
    GPIO_EventOutputCmd                      0x08006505   Thumb Code     6  stm32f10x_gpio.o(.text)
    GPIO_PinRemapConfig                      0x0800650b   Thumb Code   138  stm32f10x_gpio.o(.text)
    GPIO_EXTILineConfig                      0x08006595   Thumb Code    66  stm32f10x_gpio.o(.text)
    GPIO_ETH_MediaInterfaceConfig            0x080065d7   Thumb Code     8  stm32f10x_gpio.o(.text)
    RCC_DeInit                               0x08006605   Thumb Code    64  stm32f10x_rcc.o(.text)
    RCC_HSEConfig                            0x08006645   Thumb Code    70  stm32f10x_rcc.o(.text)
    RCC_GetFlagStatus                        0x0800668b   Thumb Code    56  stm32f10x_rcc.o(.text)
    RCC_WaitForHSEStartUp                    0x080066c3   Thumb Code    56  stm32f10x_rcc.o(.text)
    RCC_AdjustHSICalibrationValue            0x080066fb   Thumb Code    20  stm32f10x_rcc.o(.text)
    RCC_HSICmd                               0x0800670f   Thumb Code     6  stm32f10x_rcc.o(.text)
    RCC_PLLConfig                            0x08006715   Thumb Code    24  stm32f10x_rcc.o(.text)
    RCC_PLLCmd                               0x0800672d   Thumb Code     6  stm32f10x_rcc.o(.text)
    RCC_SYSCLKConfig                         0x08006733   Thumb Code    18  stm32f10x_rcc.o(.text)
    RCC_GetSYSCLKSource                      0x08006745   Thumb Code    10  stm32f10x_rcc.o(.text)
    RCC_HCLKConfig                           0x0800674f   Thumb Code    18  stm32f10x_rcc.o(.text)
    RCC_PCLK1Config                          0x08006761   Thumb Code    18  stm32f10x_rcc.o(.text)
    RCC_PCLK2Config                          0x08006773   Thumb Code    20  stm32f10x_rcc.o(.text)
    RCC_ITConfig                             0x08006787   Thumb Code    26  stm32f10x_rcc.o(.text)
    RCC_USBCLKConfig                         0x080067a1   Thumb Code     8  stm32f10x_rcc.o(.text)
    RCC_ADCCLKConfig                         0x080067a9   Thumb Code    18  stm32f10x_rcc.o(.text)
    RCC_LSEConfig                            0x080067bb   Thumb Code    50  stm32f10x_rcc.o(.text)
    RCC_LSICmd                               0x080067ed   Thumb Code     6  stm32f10x_rcc.o(.text)
    RCC_RTCCLKConfig                         0x080067f3   Thumb Code    12  stm32f10x_rcc.o(.text)
    RCC_RTCCLKCmd                            0x080067ff   Thumb Code     8  stm32f10x_rcc.o(.text)
    RCC_GetClocksFreq                        0x08006807   Thumb Code   192  stm32f10x_rcc.o(.text)
    RCC_AHBPeriphClockCmd                    0x080068c7   Thumb Code    26  stm32f10x_rcc.o(.text)
    RCC_APB2PeriphClockCmd                   0x080068e1   Thumb Code    26  stm32f10x_rcc.o(.text)
    RCC_APB1PeriphClockCmd                   0x080068fb   Thumb Code    26  stm32f10x_rcc.o(.text)
    RCC_APB2PeriphResetCmd                   0x08006915   Thumb Code    26  stm32f10x_rcc.o(.text)
    RCC_APB1PeriphResetCmd                   0x0800692f   Thumb Code    26  stm32f10x_rcc.o(.text)
    RCC_BackupResetCmd                       0x08006949   Thumb Code     8  stm32f10x_rcc.o(.text)
    RCC_ClockSecuritySystemCmd               0x08006951   Thumb Code     6  stm32f10x_rcc.o(.text)
    RCC_MCOConfig                            0x08006957   Thumb Code     6  stm32f10x_rcc.o(.text)
    RCC_ClearFlag                            0x0800695d   Thumb Code    14  stm32f10x_rcc.o(.text)
    RCC_GetITStatus                          0x0800696b   Thumb Code    20  stm32f10x_rcc.o(.text)
    RCC_ClearITPendingBit                    0x0800697f   Thumb Code     6  stm32f10x_rcc.o(.text)
    SPI_I2S_DeInit                           0x080069a9   Thumb Code    76  stm32f10x_spi.o(.text)
    SPI_Init                                 0x080069f5   Thumb Code    60  stm32f10x_spi.o(.text)
    I2S_Init                                 0x08006a31   Thumb Code   226  stm32f10x_spi.o(.text)
    SPI_StructInit                           0x08006b13   Thumb Code    24  stm32f10x_spi.o(.text)
    I2S_StructInit                           0x08006b2b   Thumb Code    20  stm32f10x_spi.o(.text)
    SPI_Cmd                                  0x08006b3f   Thumb Code    24  stm32f10x_spi.o(.text)
    I2S_Cmd                                  0x08006b57   Thumb Code    24  stm32f10x_spi.o(.text)
    SPI_I2S_ITConfig                         0x08006b6f   Thumb Code    32  stm32f10x_spi.o(.text)
    SPI_I2S_DMACmd                           0x08006b8f   Thumb Code    18  stm32f10x_spi.o(.text)
    SPI_I2S_SendData                         0x08006ba1   Thumb Code     4  stm32f10x_spi.o(.text)
    SPI_I2S_ReceiveData                      0x08006ba5   Thumb Code     6  stm32f10x_spi.o(.text)
    SPI_NSSInternalSoftwareConfig            0x08006bab   Thumb Code    30  stm32f10x_spi.o(.text)
    SPI_SSOutputCmd                          0x08006bc9   Thumb Code    24  stm32f10x_spi.o(.text)
    SPI_DataSizeConfig                       0x08006be1   Thumb Code    18  stm32f10x_spi.o(.text)
    SPI_TransmitCRC                          0x08006bf3   Thumb Code    10  stm32f10x_spi.o(.text)
    SPI_CalculateCRC                         0x08006bfd   Thumb Code    24  stm32f10x_spi.o(.text)
    SPI_GetCRC                               0x08006c15   Thumb Code    16  stm32f10x_spi.o(.text)
    SPI_GetCRCPolynomial                     0x08006c25   Thumb Code     6  stm32f10x_spi.o(.text)
    SPI_BiDirectionalLineConfig              0x08006c2b   Thumb Code    28  stm32f10x_spi.o(.text)
    SPI_I2S_GetFlagStatus                    0x08006c47   Thumb Code    18  stm32f10x_spi.o(.text)
    SPI_I2S_ClearFlag                        0x08006c59   Thumb Code     6  stm32f10x_spi.o(.text)
    SPI_I2S_GetITStatus                      0x08006c5f   Thumb Code    52  stm32f10x_spi.o(.text)
    SPI_I2S_ClearITPendingBit                0x08006c93   Thumb Code    20  stm32f10x_spi.o(.text)
    USART_DeInit                             0x08006cb5   Thumb Code   134  stm32f10x_usart.o(.text)
    USART_Init                               0x08006d3b   Thumb Code   210  stm32f10x_usart.o(.text)
    USART_StructInit                         0x08006e0d   Thumb Code    24  stm32f10x_usart.o(.text)
    USART_ClockInit                          0x08006e25   Thumb Code    34  stm32f10x_usart.o(.text)
    USART_ClockStructInit                    0x08006e47   Thumb Code    12  stm32f10x_usart.o(.text)
    USART_Cmd                                0x08006e53   Thumb Code    24  stm32f10x_usart.o(.text)
    USART_ITConfig                           0x08006e6b   Thumb Code    74  stm32f10x_usart.o(.text)
    USART_DMACmd                             0x08006eb5   Thumb Code    18  stm32f10x_usart.o(.text)
    USART_SetAddress                         0x08006ec7   Thumb Code    18  stm32f10x_usart.o(.text)
    USART_WakeUpConfig                       0x08006ed9   Thumb Code    18  stm32f10x_usart.o(.text)
    USART_ReceiverWakeUpCmd                  0x08006eeb   Thumb Code    24  stm32f10x_usart.o(.text)
    USART_LINBreakDetectLengthConfig         0x08006f03   Thumb Code    18  stm32f10x_usart.o(.text)
    USART_LINCmd                             0x08006f15   Thumb Code    24  stm32f10x_usart.o(.text)
    USART_SendData                           0x08006f2d   Thumb Code     8  stm32f10x_usart.o(.text)
    USART_ReceiveData                        0x08006f35   Thumb Code    10  stm32f10x_usart.o(.text)
    USART_SendBreak                          0x08006f3f   Thumb Code    10  stm32f10x_usart.o(.text)
    USART_SetGuardTime                       0x08006f49   Thumb Code    16  stm32f10x_usart.o(.text)
    USART_SetPrescaler                       0x08006f59   Thumb Code    16  stm32f10x_usart.o(.text)
    USART_SmartCardCmd                       0x08006f69   Thumb Code    24  stm32f10x_usart.o(.text)
    USART_SmartCardNACKCmd                   0x08006f81   Thumb Code    24  stm32f10x_usart.o(.text)
    USART_HalfDuplexCmd                      0x08006f99   Thumb Code    24  stm32f10x_usart.o(.text)
    USART_OverSampling8Cmd                   0x08006fb1   Thumb Code    22  stm32f10x_usart.o(.text)
    USART_OneBitMethodCmd                    0x08006fc7   Thumb Code    24  stm32f10x_usart.o(.text)
    USART_IrDAConfig                         0x08006fdf   Thumb Code    18  stm32f10x_usart.o(.text)
    USART_IrDACmd                            0x08006ff1   Thumb Code    24  stm32f10x_usart.o(.text)
    USART_GetFlagStatus                      0x08007009   Thumb Code    26  stm32f10x_usart.o(.text)
    USART_ClearFlag                          0x08007023   Thumb Code    18  stm32f10x_usart.o(.text)
    USART_GetITStatus                        0x08007035   Thumb Code    84  stm32f10x_usart.o(.text)
    USART_ClearITPendingBit                  0x08007089   Thumb Code    52  stm32f10x_usart.o(.text)
    NVIC_PriorityGroupConfig                 0x080070bd   Thumb Code    10  misc.o(.text)
    NVIC_Init                                0x080070c7   Thumb Code   100  misc.o(.text)
    NVIC_SetVectorTable                      0x0800712b   Thumb Code    14  misc.o(.text)
    NVIC_SystemLPConfig                      0x08007139   Thumb Code    34  misc.o(.text)
    SysTick_CLKSourceConfig                  0x0800715b   Thumb Code    40  misc.o(.text)
    __use_no_semihosting                     0x08007199   Thumb Code     2  use_no_semi_2.o(.text)
    __2printf                                0x0800719d   Thumb Code    20  noretval__2printf.o(.text)
    __printf                                 0x080071b5   Thumb Code   104  __printf.o(.text)
    _printf_str                              0x0800721d   Thumb Code    82  _printf_str.o(.text)
    __aeabi_memcpy4                          0x0800726f   Thumb Code     0  rt_memcpy_w.o(.text)
    __aeabi_memcpy8                          0x0800726f   Thumb Code     0  rt_memcpy_w.o(.text)
    __rt_memcpy_w                            0x0800726f   Thumb Code   100  rt_memcpy_w.o(.text)
    _memcpy_lastbytes_aligned                0x080072b7   Thumb Code     0  rt_memcpy_w.o(.text)
    __use_two_region_memory                  0x080072d3   Thumb Code     2  heapauxi.o(.text)
    __rt_heap_escrow$2region                 0x080072d5   Thumb Code     2  heapauxi.o(.text)
    __rt_heap_expand$2region                 0x080072d7   Thumb Code     2  heapauxi.o(.text)
    __I$use$semihosting                      0x080072d9   Thumb Code     0  use_no_semi.o(.text)
    __use_no_semihosting_swi                 0x080072d9   Thumb Code     2  use_no_semi.o(.text)
    __read_errno                             0x080072db   Thumb Code    10  _rserrno.o(.text)
    __set_errno                              0x080072e5   Thumb Code    12  _rserrno.o(.text)
    _printf_cs_common                        0x080072f1   Thumb Code    20  _printf_char.o(.text)
    _printf_char                             0x08007305   Thumb Code    16  _printf_char.o(.text)
    _printf_string                           0x08007315   Thumb Code     8  _printf_char.o(.text)
    _printf_char_file                        0x0800731d   Thumb Code    32  _printf_char_file.o(.text)
    __aeabi_errno_addr                       0x08007341   Thumb Code     8  rt_errno_addr_intlibspace.o(.text)
    __errno$intlibspace                      0x08007341   Thumb Code     0  rt_errno_addr_intlibspace.o(.text)
    __rt_errno_addr$intlibspace              0x08007341   Thumb Code     0  rt_errno_addr_intlibspace.o(.text)
    _printf_char_common                      0x08007353   Thumb Code    32  _printf_char_common.o(.text)
    ferror                                   0x08007379   Thumb Code     8  ferror.o(.text)
    __user_libspace                          0x08007381   Thumb Code     8  libspace.o(.text)
    __user_perproc_libspace                  0x08007381   Thumb Code     0  libspace.o(.text)
    __user_perthread_libspace                0x08007381   Thumb Code     0  libspace.o(.text)
    __user_setup_stackheap                   0x08007389   Thumb Code    74  sys_stackheap_outer.o(.text)
    exit                                     0x080073d3   Thumb Code    18  exit.o(.text)
    sqrt                                     0x080073e5   Thumb Code    76  sqrt.o(i.sqrt)
    __fpl_dcmp_Inf                           0x08007431   Thumb Code    24  dcmpi.o(x$fpl$dcmpinf)
    __aeabi_d2uiz                            0x08007449   Thumb Code     0  dfixu.o(x$fpl$dfixu)
    _dfixu                                   0x08007449   Thumb Code    90  dfixu.o(x$fpl$dfixu)
    __aeabi_ui2d                             0x080074a3   Thumb Code     0  dflt_clz.o(x$fpl$dfltu)
    _dfltu                                   0x080074a3   Thumb Code    38  dflt_clz.o(x$fpl$dfltu)
    __aeabi_cdcmple                          0x080074c9   Thumb Code     0  dleqf.o(x$fpl$dleqf)
    _dcmple                                  0x080074c9   Thumb Code   120  dleqf.o(x$fpl$dleqf)
    __fpl_dcmple_InfNaN                      0x0800752b   Thumb Code     0  dleqf.o(x$fpl$dleqf)
    __fpl_dnaninf                            0x08007541   Thumb Code   156  dnaninf.o(x$fpl$dnaninf)
    __fpl_dretinf                            0x080075dd   Thumb Code    12  dretinf.o(x$fpl$dretinf)
    __aeabi_cdrcmple                         0x080075e9   Thumb Code     0  drleqf.o(x$fpl$drleqf)
    _drcmple                                 0x080075e9   Thumb Code   108  drleqf.o(x$fpl$drleqf)
    _dsqrt                                   0x08007655   Thumb Code   456  dsqrt_noumaal.o(x$fpl$dsqrt)
    __aeabi_f2d                              0x08007821   Thumb Code     0  f2d.o(x$fpl$f2d)
    _f2d                                     0x08007821   Thumb Code    86  f2d.o(x$fpl$f2d)
    __aeabi_fadd                             0x08007879   Thumb Code     0  faddsub_clz.o(x$fpl$fadd)
    _fadd                                    0x08007879   Thumb Code   196  faddsub_clz.o(x$fpl$fadd)
    __aeabi_fdiv                             0x0800793d   Thumb Code     0  fdiv.o(x$fpl$fdiv)
    _fdiv                                    0x0800793d   Thumb Code   384  fdiv.o(x$fpl$fdiv)
    __aeabi_f2iz                             0x08007ac1   Thumb Code     0  ffix.o(x$fpl$ffix)
    _ffix                                    0x08007ac1   Thumb Code    54  ffix.o(x$fpl$ffix)
    __aeabi_f2uiz                            0x08007af9   Thumb Code     0  ffixu.o(x$fpl$ffixu)
    _ffixu                                   0x08007af9   Thumb Code    62  ffixu.o(x$fpl$ffixu)
    __aeabi_i2f                              0x08007b39   Thumb Code     0  fflt_clz.o(x$fpl$fflt)
    _fflt                                    0x08007b39   Thumb Code    48  fflt_clz.o(x$fpl$fflt)
    __aeabi_ui2f                             0x08007b69   Thumb Code     0  fflt_clz.o(x$fpl$ffltu)
    _ffltu                                   0x08007b69   Thumb Code    38  fflt_clz.o(x$fpl$ffltu)
    __aeabi_fmul                             0x08007b91   Thumb Code     0  fmul.o(x$fpl$fmul)
    _fmul                                    0x08007b91   Thumb Code   258  fmul.o(x$fpl$fmul)
    __fpl_fnaninf                            0x08007c93   Thumb Code   140  fnaninf.o(x$fpl$fnaninf)
    __fpl_fretinf                            0x08007d1f   Thumb Code    10  fretinf.o(x$fpl$fretinf)
    __aeabi_fsub                             0x08007d29   Thumb Code     0  faddsub_clz.o(x$fpl$fsub)
    _fsub                                    0x08007d29   Thumb Code   234  faddsub_clz.o(x$fpl$fsub)
    __I$use$fp                               0x08007e12   Number         0  usenofp.o(x$fpl$usenofp)
    qqimage                                  0x08007e12   Data        3200  lcd.o(.constdata)
    asc2_1206                                0x08008a92   Data        1140  lcd.o(.constdata)
    asc2_1608                                0x08008f06   Data        1520  lcd.o(.constdata)
    Region$$Table$$Base                      0x08009574   Number         0  anon$$obj.o(Region$$Table)
    Region$$Table$$Limit                     0x08009594   Number         0  anon$$obj.o(Region$$Table)
    state                                    0x20000000   Data           1  main.o(.data)
    a                                        0x20000004   Data           4  main.o(.data)
    SystemCoreClock                          0x20000008   Data           4  system_stm32f10x.o(.data)
    AHBPrescTable                            0x2000000c   Data          16  system_stm32f10x.o(.data)
    POINT_COLOR                              0x2000001e   Data           2  lcd.o(.data)
    BACK_COLOR                               0x20000020   Data           2  lcd.o(.data)
    abx                                      0x20000022   Data           1  lcd.o(.data)
    HDP                                      0x20000024   Data           2  lcd.o(.data)
    HT                                       0x20000026   Data           2  lcd.o(.data)
    HPS                                      0x20000028   Data           2  lcd.o(.data)
    LPS                                      0x2000002a   Data           2  lcd.o(.data)
    HPW                                      0x2000002c   Data           1  lcd.o(.data)
    VDP                                      0x2000002e   Data           2  lcd.o(.data)
    VT                                       0x20000030   Data           2  lcd.o(.data)
    VPS                                      0x20000032   Data           2  lcd.o(.data)
    FPS                                      0x20000034   Data           2  lcd.o(.data)
    VPW                                      0x20000036   Data           1  lcd.o(.data)
    i                                        0x20000038   Data           2  lcd.o(.data)
    SPI_FLASH_TYPE                           0x2000003a   Data           2  flash.o(.data)
    tp_dev                                   0x2000003c   Data          40  touch.o(.data)
    CMD_RDX                                  0x20000064   Data           1  touch.o(.data)
    CMD_RDY                                  0x20000065   Data           1  touch.o(.data)
    TP_REMIND_MSG_TBL                        0x20000068   Data           4  touch.o(.data)
    ge                                       0x2000006c   Data           1  bmp085.o(.data)
    shi                                      0x2000006d   Data           1  bmp085.o(.data)
    bai                                      0x2000006e   Data           1  bmp085.o(.data)
    qian                                     0x2000006f   Data           1  bmp085.o(.data)
    wan                                      0x20000070   Data           1  bmp085.o(.data)
    shiwan                                   0x20000071   Data           1  bmp085.o(.data)
    ac1                                      0x20000072   Data           2  bmp085.o(.data)
    ac2                                      0x20000074   Data           2  bmp085.o(.data)
    ac3                                      0x20000076   Data           2  bmp085.o(.data)
    ac4                                      0x20000078   Data           2  bmp085.o(.data)
    ac5                                      0x2000007a   Data           2  bmp085.o(.data)
    ac6                                      0x2000007c   Data           2  bmp085.o(.data)
    b1                                       0x2000007e   Data           2  bmp085.o(.data)
    b2                                       0x20000080   Data           2  bmp085.o(.data)
    mb                                       0x20000082   Data           2  bmp085.o(.data)
    mc                                       0x20000084   Data           2  bmp085.o(.data)
    md                                       0x20000086   Data           2  bmp085.o(.data)
    temperature                              0x20000088   Data           4  bmp085.o(.data)
    pressure                                 0x2000008c   Data           4  bmp085.o(.data)
    tempdat                                  0x20000090   Data           4  bmp085.o(.data)
    outdata                                  0x20000094   Data           6  bmp085.o(.data)
    table4                                   0x2000009a   Data          10  mma7455.o(.data)
    xposivalue                               0x200000a4   Data           1  mma7455.o(.data)
    xnegavalue                               0x200000a5   Data           1  mma7455.o(.data)
    yposivalue                               0x200000a6   Data           1  mma7455.o(.data)
    ynegavalue                               0x200000a7   Data           1  mma7455.o(.data)
    DBufferFlag                              0x200000ac   Data           1  usart.o(.data)
    mark                                     0x200000ad   Data           1  usart.o(.data)
    __stdout                                 0x200000b0   Data           4  usart.o(.data)
    USART_RX_STA                             0x200000b4   Data           2  usart.o(.data)
    lcddev                                   0x200000d0   Data          12  lcd.o(.bss)
    b                                        0x200000dc   Data         272  lcd.o(.bss)
    SPI_FLASH_BUF                            0x200001ec   Data        4096  flash.o(.bss)
    Date_Buf                                 0x200011ec   Data          10  usart.o(.bss)
    BufferA                                  0x200011f6   Data          50  usart.o(.bss)
    USART_RX_BUF                             0x20001228   Data         200  usart.o(.bss)
    __libspace_start                         0x200012f0   Data          96  libspace.o(.bss)
    __temporary_stack_top$libspace           0x20001350   Data           0  libspace.o(.bss)



==============================================================================

Memory Map of the image

  Image Entry point : 0x08000131

  Load Region LR_IROM1 (Base: 0x08000000, Size: 0x00009664, Max: 0x00040000, ABSOLUTE)

    Execution Region ER_IROM1 (Base: 0x08000000, Size: 0x00009594, Max: 0x00040000, ABSOLUTE)

    Base Addr    Size         Type   Attr      Idx    E Section Name        Object

    0x08000000   0x00000130   Data   RO          546    RESET               startup_stm32f10x_hd.o
    0x08000130   0x00000008   Code   RO          663  * !!!main             c_w.l(__main.o)
    0x08000138   0x00000034   Code   RO          899    !!!scatter          c_w.l(__scatter.o)
    0x0800016c   0x0000001a   Code   RO          901    !!handler_copy      c_w.l(__scatter_copy.o)
    0x08000186   0x00000002   PAD
    0x08000188   0x0000001c   Code   RO          903    !!handler_zi        c_w.l(__scatter_zi.o)
    0x080001a4   0x00000000   Code   RO          658    .ARM.Collect$$_printf_percent$$00000000  c_w.l(_printf_percent.o)
    0x080001a4   0x00000006   Code   RO          657    .ARM.Collect$$_printf_percent$$00000013  c_w.l(_printf_c.o)
    0x080001aa   0x00000004   Code   RO          724    .ARM.Collect$$_printf_percent$$00000017  c_w.l(_printf_percent_end.o)
    0x080001ae   0x00000002   Code   RO          778    .ARM.Collect$$libinit$$00000000  c_w.l(libinit.o)
    0x080001b0   0x00000000   Code   RO          782    .ARM.Collect$$libinit$$00000002  c_w.l(libinit2.o)
    0x080001b0   0x00000000   Code   RO          784    .ARM.Collect$$libinit$$00000004  c_w.l(libinit2.o)
    0x080001b0   0x00000000   Code   RO          787    .ARM.Collect$$libinit$$0000000A  c_w.l(libinit2.o)
    0x080001b0   0x00000000   Code   RO          789    .ARM.Collect$$libinit$$0000000C  c_w.l(libinit2.o)
    0x080001b0   0x00000000   Code   RO          791    .ARM.Collect$$libinit$$0000000E  c_w.l(libinit2.o)
    0x080001b0   0x00000000   Code   RO          794    .ARM.Collect$$libinit$$00000011  c_w.l(libinit2.o)
    0x080001b0   0x00000000   Code   RO          796    .ARM.Collect$$libinit$$00000013  c_w.l(libinit2.o)
    0x080001b0   0x00000000   Code   RO          798    .ARM.Collect$$libinit$$00000015  c_w.l(libinit2.o)
    0x080001b0   0x00000000   Code   RO          800    .ARM.Collect$$libinit$$00000017  c_w.l(libinit2.o)
    0x080001b0   0x00000000   Code   RO          802    .ARM.Collect$$libinit$$00000019  c_w.l(libinit2.o)
    0x080001b0   0x00000000   Code   RO          804    .ARM.Collect$$libinit$$0000001B  c_w.l(libinit2.o)
    0x080001b0   0x00000000   Code   RO          806    .ARM.Collect$$libinit$$0000001D  c_w.l(libinit2.o)
    0x080001b0   0x00000000   Code   RO          808    .ARM.Collect$$libinit$$0000001F  c_w.l(libinit2.o)
    0x080001b0   0x00000000   Code   RO          810    .ARM.Collect$$libinit$$00000021  c_w.l(libinit2.o)
    0x080001b0   0x00000000   Code   RO          812    .ARM.Collect$$libinit$$00000023  c_w.l(libinit2.o)
    0x080001b0   0x00000000   Code   RO          814    .ARM.Collect$$libinit$$00000025  c_w.l(libinit2.o)
    0x080001b0   0x00000000   Code   RO          818    .ARM.Collect$$libinit$$0000002C  c_w.l(libinit2.o)
    0x080001b0   0x00000000   Code   RO          820    .ARM.Collect$$libinit$$0000002E  c_w.l(libinit2.o)
    0x080001b0   0x00000000   Code   RO          822    .ARM.Collect$$libinit$$00000030  c_w.l(libinit2.o)
    0x080001b0   0x00000000   Code   RO          824    .ARM.Collect$$libinit$$00000032  c_w.l(libinit2.o)
    0x080001b0   0x00000002   Code   RO          825    .ARM.Collect$$libinit$$00000033  c_w.l(libinit2.o)
    0x080001b2   0x00000002   Code   RO          843    .ARM.Collect$$libshutdown$$00000000  c_w.l(libshutdown.o)
    0x080001b4   0x00000000   Code   RO          853    .ARM.Collect$$libshutdown$$00000002  c_w.l(libshutdown2.o)
    0x080001b4   0x00000000   Code   RO          855    .ARM.Collect$$libshutdown$$00000004  c_w.l(libshutdown2.o)
    0x080001b4   0x00000000   Code   RO          858    .ARM.Collect$$libshutdown$$00000007  c_w.l(libshutdown2.o)
    0x080001b4   0x00000000   Code   RO          861    .ARM.Collect$$libshutdown$$0000000A  c_w.l(libshutdown2.o)
    0x080001b4   0x00000000   Code   RO          863    .ARM.Collect$$libshutdown$$0000000C  c_w.l(libshutdown2.o)
    0x080001b4   0x00000000   Code   RO          866    .ARM.Collect$$libshutdown$$0000000F  c_w.l(libshutdown2.o)
    0x080001b4   0x00000002   Code   RO          867    .ARM.Collect$$libshutdown$$00000010  c_w.l(libshutdown2.o)
    0x080001b6   0x00000000   Code   RO          717    .ARM.Collect$$rtentry$$00000000  c_w.l(__rtentry.o)
    0x080001b6   0x00000000   Code   RO          739    .ARM.Collect$$rtentry$$00000002  c_w.l(__rtentry2.o)
    0x080001b6   0x00000006   Code   RO          751    .ARM.Collect$$rtentry$$00000004  c_w.l(__rtentry4.o)
    0x080001bc   0x00000000   Code   RO          741    .ARM.Collect$$rtentry$$00000009  c_w.l(__rtentry2.o)
    0x080001bc   0x00000004   Code   RO          742    .ARM.Collect$$rtentry$$0000000A  c_w.l(__rtentry2.o)
    0x080001c0   0x00000000   Code   RO          744    .ARM.Collect$$rtentry$$0000000C  c_w.l(__rtentry2.o)
    0x080001c0   0x00000008   Code   RO          745    .ARM.Collect$$rtentry$$0000000D  c_w.l(__rtentry2.o)
    0x080001c8   0x00000002   Code   RO          779    .ARM.Collect$$rtexit$$00000000  c_w.l(rtexit.o)
    0x080001ca   0x00000000   Code   RO          827    .ARM.Collect$$rtexit$$00000002  c_w.l(rtexit2.o)
    0x080001ca   0x00000004   Code   RO          828    .ARM.Collect$$rtexit$$00000003  c_w.l(rtexit2.o)
    0x080001ce   0x00000006   Code   RO          829    .ARM.Collect$$rtexit$$00000004  c_w.l(rtexit2.o)
    0x080001d4   0x000001bc   Code   RO            1    .text               main.o
    0x08000390   0x0000001a   Code   RO          171    .text               stm32f10x_it.o
    0x080003aa   0x00000002   PAD
    0x080003ac   0x000001e0   Code   RO          212    .text               system_stm32f10x.o
    0x0800058c   0x0000006c   Code   RO          230    .text               led.o
    0x080005f8   0x000000fc   Code   RO          242    .text               key.o
    0x080006f4   0x000033ac   Code   RO          255    .text               lcd.o
    0x08003aa0   0x00000108   Code   RO          309    .text               spi.o
    0x08003ba8   0x00000380   Code   RO          324    .text               flash.o
    0x08003f28   0x00000ecc   Code   RO          343    .text               touch.o
    0x08004df4   0x0000070c   Code   RO          454    .text               bmp085.o
    0x08005500   0x000002c4   Code   RO          469    .text               mma7455.o
    0x080057c4   0x000000d4   Code   RO          484    .text               delay.o
    0x08005898   0x000000ac   Code   RO          498    .text               sys.o
    0x08005944   0x00000318   Code   RO          510    .text               usart.o
    0x08005c5c   0x00000040   Code   RO          547    .text               startup_stm32f10x_hd.o
    0x08005c9c   0x0000060c   Code   RO          551    .text               stm32f10x_fsmc.o
    0x080062a8   0x0000035c   Code   RO          563    .text               stm32f10x_gpio.o
    0x08006604   0x000003a4   Code   RO          575    .text               stm32f10x_rcc.o
    0x080069a8   0x0000030c   Code   RO          589    .text               stm32f10x_spi.o
    0x08006cb4   0x00000408   Code   RO          601    .text               stm32f10x_usart.o
    0x080070bc   0x000000dc   Code   RO          613    .text               misc.o
    0x08007198   0x00000002   Code   RO          627    .text               c_w.l(use_no_semi_2.o)
    0x0800719a   0x00000002   PAD
    0x0800719c   0x00000018   Code   RO          631    .text               c_w.l(noretval__2printf.o)
    0x080071b4   0x00000068   Code   RO          633    .text               c_w.l(__printf.o)
    0x0800721c   0x00000052   Code   RO          635    .text               c_w.l(_printf_str.o)
    0x0800726e   0x00000064   Code   RO          659    .text               c_w.l(rt_memcpy_w.o)
    0x080072d2   0x00000006   Code   RO          661    .text               c_w.l(heapauxi.o)
    0x080072d8   0x00000002   Code   RO          715    .text               c_w.l(use_no_semi.o)
    0x080072da   0x00000016   Code   RO          718    .text               c_w.l(_rserrno.o)
    0x080072f0   0x0000002c   Code   RO          720    .text               c_w.l(_printf_char.o)
    0x0800731c   0x00000024   Code   RO          722    .text               c_w.l(_printf_char_file.o)
    0x08007340   0x00000008   Code   RO          756    .text               c_w.l(rt_errno_addr_intlibspace.o)
    0x08007348   0x00000030   Code   RO          758    .text               c_w.l(_printf_char_common.o)
    0x08007378   0x00000008   Code   RO          760    .text               c_w.l(ferror.o)
    0x08007380   0x00000008   Code   RO          764    .text               c_w.l(libspace.o)
    0x08007388   0x0000004a   Code   RO          767    .text               c_w.l(sys_stackheap_outer.o)
    0x080073d2   0x00000012   Code   RO          771    .text               c_w.l(exit.o)
    0x080073e4   0x0000004c   Code   RO          708    i.sqrt              m_ws.l(sqrt.o)
    0x08007430   0x00000018   Code   RO          725    x$fpl$dcmpinf       fz_ws.l(dcmpi.o)
    0x08007448   0x0000005a   Code   RO          665    x$fpl$dfixu         fz_ws.l(dfixu.o)
    0x080074a2   0x00000026   Code   RO          669    x$fpl$dfltu         fz_ws.l(dflt_clz.o)
    0x080074c8   0x00000078   Code   RO          675    x$fpl$dleqf         fz_ws.l(dleqf.o)
    0x08007540   0x0000009c   Code   RO          727    x$fpl$dnaninf       fz_ws.l(dnaninf.o)
    0x080075dc   0x0000000c   Code   RO          729    x$fpl$dretinf       fz_ws.l(dretinf.o)
    0x080075e8   0x0000006c   Code   RO          677    x$fpl$drleqf        fz_ws.l(drleqf.o)
    0x08007654   0x000001cc   Code   RO          731    x$fpl$dsqrt         fz_ws.l(dsqrt_noumaal.o)
    0x08007820   0x00000056   Code   RO          679    x$fpl$f2d           fz_ws.l(f2d.o)
    0x08007876   0x00000002   PAD
    0x08007878   0x000000c4   Code   RO          681    x$fpl$fadd          fz_ws.l(faddsub_clz.o)
    0x0800793c   0x00000184   Code   RO          688    x$fpl$fdiv          fz_ws.l(fdiv.o)
    0x08007ac0   0x00000036   Code   RO          691    x$fpl$ffix          fz_ws.l(ffix.o)
    0x08007af6   0x00000002   PAD
    0x08007af8   0x0000003e   Code   RO          695    x$fpl$ffixu         fz_ws.l(ffixu.o)
    0x08007b36   0x00000002   PAD
    0x08007b38   0x00000030   Code   RO          700    x$fpl$fflt          fz_ws.l(fflt_clz.o)
    0x08007b68   0x00000026   Code   RO          699    x$fpl$ffltu         fz_ws.l(fflt_clz.o)
    0x08007b8e   0x00000002   PAD
    0x08007b90   0x00000102   Code   RO          705    x$fpl$fmul          fz_ws.l(fmul.o)
    0x08007c92   0x0000008c   Code   RO          733    x$fpl$fnaninf       fz_ws.l(fnaninf.o)
    0x08007d1e   0x0000000a   Code   RO          735    x$fpl$fretinf       fz_ws.l(fretinf.o)
    0x08007d28   0x000000ea   Code   RO          683    x$fpl$fsub          fz_ws.l(faddsub_clz.o)
    0x08007e12   0x00000000   Code   RO          737    x$fpl$usenofp       fz_ws.l(usenofp.o)
    0x08007e12   0x000016e4   Data   RO          257    .constdata          lcd.o
    0x080094f6   0x00000002   PAD
    0x080094f8   0x00000079   Data   RO          344    .conststring        touch.o
    0x08009571   0x00000003   PAD
    0x08009574   0x00000020   Data   RO          897    Region$$Table       anon$$obj.o


    Execution Region RW_IRAM1 (Base: 0x20000000, Size: 0x00001950, Max: 0x0000c000, ABSOLUTE)

    Base Addr    Size         Type   Attr      Idx    E Section Name        Object

    0x20000000   0x00000008   Data   RW            2    .data               main.o
    0x20000008   0x00000014   Data   RW          213    .data               system_stm32f10x.o
    0x2000001c   0x00000001   Data   RW          243    .data               key.o
    0x2000001d   0x00000001   PAD
    0x2000001e   0x0000001c   Data   RW          258    .data               lcd.o
    0x2000003a   0x00000002   Data   RW          326    .data               flash.o
    0x2000003c   0x00000030   Data   RW          345    .data               touch.o
    0x2000006c   0x0000002e   Data   RW          455    .data               bmp085.o
    0x2000009a   0x0000000e   Data   RW          470    .data               mma7455.o
    0x200000a8   0x00000004   Data   RW          485    .data               delay.o
    0x200000ac   0x00000010   Data   RW          512    .data               usart.o
    0x200000bc   0x00000014   Data   RW          576    .data               stm32f10x_rcc.o
    0x200000d0   0x0000011c   Zero   RW          256    .bss                lcd.o
    0x200001ec   0x00001000   Zero   RW          325    .bss                flash.o
    0x200011ec   0x00000104   Zero   RW          511    .bss                usart.o
    0x200012f0   0x00000060   Zero   RW          765    .bss                c_w.l(libspace.o)
    0x20001350   0x00000200   Zero   RW          545    HEAP                startup_stm32f10x_hd.o
    0x20001550   0x00000400   Zero   RW          544    STACK               startup_stm32f10x_hd.o


==============================================================================

Image component sizes


      Code (inc. data)   RO Data    RW Data    ZI Data      Debug   Object Name

      1804        182          0         46          0       6549   bmp085.o
         0          0          0          0          0         32   core_cm3.o
       212         18          0          4          0        979   delay.o
       896         28          0          2       4096       4433   flash.o
       252         12          0          1          0        816   key.o
     13228        226       5860         28        284      18396   lcd.o
       108         14          0          0          0        479   led.o
       444         46          0          8          0     249332   main.o
       220         22          0          0          0       1745   misc.o
       708        140          0         14          0       2354   mma7455.o
       264         10          0          0          0       1081   spi.o
        64         26        304          0       1536        772   startup_stm32f10x_hd.o
      1548         18          0          0          0       5323   stm32f10x_fsmc.o
       860         38          0          0          0       5677   stm32f10x_gpio.o
        26          0          0          0          0       1154   stm32f10x_it.o
       932         36          0         20          0       8828   stm32f10x_rcc.o
       780         14          0          0          0       6558   stm32f10x_spi.o
      1032         22          0          0          0       8404   stm32f10x_usart.o
       172          0          0          0          0        974   sys.o
       480         38          0         20          0       1659   system_stm32f10x.o
      3788        196        121         48          0       6557   touch.o
       792        140          0         16        260       4329   usart.o

    ----------------------------------------------------------------------
     28612       1226       6322        208       6176     336431   Object Totals
         0          0         32          0          0          0   (incl. Generated)
         2          0          5          1          0          0   (incl. Padding)

    ----------------------------------------------------------------------

      Code (inc. data)   RO Data    RW Data    ZI Data      Debug   Library Member Name

         8          0          0          0          0         68   __main.o
       104          0          0          0          0         84   __printf.o
         0          0          0          0          0          0   __rtentry.o
        12          0          0          0          0          0   __rtentry2.o
         6          0          0          0          0          0   __rtentry4.o
        52          8          0          0          0          0   __scatter.o
        26          0          0          0          0          0   __scatter_copy.o
        28          0          0          0          0          0   __scatter_zi.o
         6          0          0          0          0          0   _printf_c.o
        44          0          0          0          0        108   _printf_char.o
        48          6          0          0          0         96   _printf_char_common.o
        36          4          0          0          0         80   _printf_char_file.o
         0          0          0          0          0          0   _printf_percent.o
         4          0          0          0          0          0   _printf_percent_end.o
        82          0          0          0          0         80   _printf_str.o
        22          0          0          0          0        100   _rserrno.o
        18          0          0          0          0         80   exit.o
         8          0          0          0          0         68   ferror.o
         6          0          0          0          0        152   heapauxi.o
         2          0          0          0          0          0   libinit.o
         2          0          0          0          0          0   libinit2.o
         2          0          0          0          0          0   libshutdown.o
         2          0          0          0          0          0   libshutdown2.o
         8          4          0          0         96         68   libspace.o
        24          4          0          0          0         84   noretval__2printf.o
         8          4          0          0          0         68   rt_errno_addr_intlibspace.o
       100          0          0          0          0         80   rt_memcpy_w.o
         2          0          0          0          0          0   rtexit.o
        10          0          0          0          0          0   rtexit2.o
        74          0          0          0          0         80   sys_stackheap_outer.o
         2          0          0          0          0         68   use_no_semi.o
         2          0          0          0          0         68   use_no_semi_2.o
        24          0          0          0          0         68   dcmpi.o
        90          4          0          0          0         92   dfixu.o
        38          0          0          0          0         68   dflt_clz.o
       120          4          0          0          0         92   dleqf.o
       156          4          0          0          0         92   dnaninf.o
        12          0          0          0          0         68   dretinf.o
       108          0          0          0          0         80   drleqf.o
       460         56          0          0          0        120   dsqrt_noumaal.o
        86          4          0          0          0         84   f2d.o
       430          8          0          0          0        168   faddsub_clz.o
       388         76          0          0          0         96   fdiv.o
        54          4          0          0          0         84   ffix.o
        62          4          0          0          0         84   ffixu.o
        86          0          0          0          0        136   fflt_clz.o
       258          4          0          0          0         84   fmul.o
       140          4          0          0          0         84   fnaninf.o
        10          0          0          0          0         68   fretinf.o
         0          0          0          0          0          0   usenofp.o
        76          0          0          0          0         84   sqrt.o

    ----------------------------------------------------------------------
      3358        202          0          0         96       3084   Library Totals
        12          0          0          0          0          0   (incl. Padding)

    ----------------------------------------------------------------------

      Code (inc. data)   RO Data    RW Data    ZI Data      Debug   Library Name

       748         30          0          0         96       1432   c_w.l
      2522        172          0          0          0       1568   fz_ws.l
        76          0          0          0          0         84   m_ws.l

    ----------------------------------------------------------------------
      3358        202          0          0         96       3084   Library Totals

    ----------------------------------------------------------------------

==============================================================================


      Code (inc. data)   RO Data    RW Data    ZI Data      Debug   

     31970       1428       6322        208       6272     336027   Grand Totals
     31970       1428       6322        208       6272     336027   ELF Image Totals
     31970       1428       6322        208          0          0   ROM Totals

==============================================================================

    Total RO  Size (Code + RO Data)                38292 (  37.39kB)
    Total RW  Size (RW Data + ZI Data)              6480 (   6.33kB)
    Total ROM Size (Code + RO Data + RW Data)      38500 (  37.60kB)

==============================================================================

