Component: ARM Compiler 5.05 update 1 (build 106) Tool: armlink [4d0efa]

==============================================================================

Section Cross References

    system_stm32f4xx.o(i.SystemCoreClockUpdate) refers to system_stm32f4xx.o(.data) for .data
    system_stm32f4xx.o(i.SystemInit) refers to system_stm32f4xx.o(i.SetSysClock) for SetSysClock
    startup_stm32f4xx.o(RESET) refers to startup_stm32f4xx.o(STACK) for __initial_sp
    startup_stm32f4xx.o(RESET) refers to startup_stm32f4xx.o(.text) for Reset_Handler
    startup_stm32f4xx.o(RESET) refers to stm32f4xx_it.o(i.NMI_Handler) for NMI_Handler
    startup_stm32f4xx.o(RESET) refers to stm32f4xx_it.o(i.HardFault_Handler) for HardFault_Handler
    startup_stm32f4xx.o(RESET) refers to stm32f4xx_it.o(i.MemManage_Handler) for MemManage_Handler
    startup_stm32f4xx.o(RESET) refers to stm32f4xx_it.o(i.BusFault_Handler) for BusFault_Handler
    startup_stm32f4xx.o(RESET) refers to stm32f4xx_it.o(i.UsageFault_Handler) for UsageFault_Handler
    startup_stm32f4xx.o(RESET) refers to stm32f4xx_it.o(i.SVC_Handler) for SVC_Handler
    startup_stm32f4xx.o(RESET) refers to stm32f4xx_it.o(i.DebugMon_Handler) for DebugMon_Handler
    startup_stm32f4xx.o(RESET) refers to stm32f4xx_it.o(i.PendSV_Handler) for PendSV_Handler
    startup_stm32f4xx.o(RESET) refers to stm32f4xx_it.o(i.SysTick_Handler) for SysTick_Handler
    startup_stm32f4xx.o(RESET) refers to stm32f4xx_it.o(i.EXTI9_5_IRQHandler) for EXTI9_5_IRQHandler
    startup_stm32f4xx.o(RESET) refers to stm32f4xx_it.o(i.USART3_IRQHandler) for USART3_IRQHandler
    startup_stm32f4xx.o(RESET) refers to stm32f4xx_it.o(i.USART6_IRQHandler) for USART6_IRQHandler
    startup_stm32f4xx.o(.text) refers to system_stm32f4xx.o(i.SystemInit) for SystemInit
    startup_stm32f4xx.o(.text) refers to entry.o(.ARM.Collect$$$$00000000) for __main
==============================================================================

Removing Unused input sections from the image.

    Removing system_stm32f4xx.o(.emb_text), (8 bytes).
    Removing system_stm32f4xx.o(i.SystemCoreClockUpdate), (136 bytes).
    Removing startup_stm32f4xx.o(HEAP), (512 bytes).
    Removing main.o(.emb_text), (8 bytes).
    Removing stm32f4xx_it.o(.emb_text), (8 bytes).
    Removing misc.o(.emb_text), (8 bytes).
    Removing misc.o(i.NVIC_SetVectorTable), (20 bytes).
    Removing misc.o(i.NVIC_SystemLPConfig), (28 bytes).
    Removing misc.o(i.SysTick_CLKSourceConfig), (28 bytes).
    Removing stm32f4xx_adc.o(.emb_text), (8 bytes).
    Removing stm32f4xx_adc.o(i.ADC_AnalogWatchdogCmd), (16 bytes).
    Removing stm32f4xx_adc.o(i.ADC_AnalogWatchdogSingleChannelConfig), (12 bytes).
    Removing stm32f4xx_adc.o(i.ADC_AnalogWatchdogThresholdsConfig), (6 bytes).
    Removing stm32f4xx_adc.o(i.ADC_AutoInjectedConvCmd), (24 bytes).
    Removing stm32f4xx_adc.o(i.ADC_ClearFlag), (6 bytes).
    Removing stm32f4xx_adc.o(i.ADC_ClearITPendingBit), (8 bytes).
    Removing stm32f4xx_adc.o(i.ADC_Cmd), (24 bytes).
    Removing stm32f4xx_adc.o(i.ADC_CommonInit), (40 bytes).
==============================================================================

Image Symbol Table

    Local Symbols

    Symbol Name                              Value     Ov Type        Size  Object(Section)

    ../clib/microlib/division.c              0x00000000   Number         0  uldiv.o ABSOLUTE
    ../clib/microlib/division.c              0x00000000   Number         0  uidiv.o ABSOLUTE
    ../clib/microlib/errno.c                 0x00000000   Number         0  errno.o ABSOLUTE
    ../clib/microlib/init/entry.s            0x00000000   Number         0  entry11b.o ABSOLUTE
    ../clib/microlib/init/entry.s            0x00000000   Number         0  entry8a.o ABSOLUTE
    ../clib/microlib/init/entry.s            0x00000000   Number         0  entry7b.o ABSOLUTE
    ../clib/microlib/init/entry.s            0x00000000   Number         0  entry7a.o ABSOLUTE
    ../clib/microlib/init/entry.s            0x00000000   Number         0  entry5.o ABSOLUTE
    ../clib/microlib/init/entry.s            0x00000000   Number         0  entry2.o ABSOLUTE
    ../clib/microlib/init/entry.s            0x00000000   Number         0  entry8b.o ABSOLUTE
    ../clib/microlib/init/entry.s            0x00000000   Number         0  entry10b.o ABSOLUTE
    ../clib/microlib/init/entry.s            0x00000000   Number         0  entry.o ABSOLUTE
    ../clib/microlib/init/entry.s            0x00000000   Number         0  entry11a.o ABSOLUTE
    ../clib/microlib/init/entry.s            0x00000000   Number         0  entry10a.o ABSOLUTE
    ../clib/microlib/init/entry.s            0x00000000   Number         0  entry9b.o ABSOLUTE
    ../clib/microlib/init/entry.s            0x00000000   Number         0  entry9a.o ABSOLUTE
    ../clib/microlib/longlong.c              0x00000000   Number         0  llsshr.o ABSOLUTE
    ../clib/microlib/longlong.c              0x00000000   Number         0  llushr.o ABSOLUTE
    ../clib/microlib/longlong.c              0x00000000   Number         0  llshl.o ABSOLUTE
    ../clib/microlib/printf/printf.c         0x00000000   Number         0  printf4.o ABSOLUTE
    ../clib/microlib/printf/printf.c         0x00000000   Number         0  printfa.o ABSOLUTE
    ../clib/microlib/printf/printf.c         0x00000000   Number         0  printf3.o ABSOLUTE
    ../clib/microlib/printf/printf.c         0x00000000   Number         0  printf2.o ABSOLUTE
    ../clib/microlib/printf/printf.c         0x00000000   Number         0  printfb.o ABSOLUTE
    ../clib/microlib/printf/printf.c         0x00000000   Number         0  printf1.o ABSOLUTE
    ../clib/microlib/printf/printf.c         0x00000000   Number         0  printf5.o ABSOLUTE
    ../clib/microlib/printf/printf.c         0x00000000   Number         0  printf0.o ABSOLUTE
    ../clib/microlib/printf/printf.c         0x00000000   Number         0  printf8.o ABSOLUTE
    ../clib/microlib/printf/printf.c         0x00000000   Number         0  printf7.o ABSOLUTE
    ../clib/microlib/printf/printf.c         0x00000000   Number         0  printf6.o ABSOLUTE
    ../clib/microlib/printf/stubs.s          0x00000000   Number         0  stubs.o ABSOLUTE
    ../clib/microlib/stdio/streams.c         0x00000000   Number         0  stdout.o ABSOLUTE
    ../clib/microlib/stubs.s                 0x00000000   Number         0  iusefp.o ABSOLUTE
    ../fplib/microlib/f2d.c                  0x00000000   Number         0  f2d.o ABSOLUTE
    ../fplib/microlib/fpadd.c                0x00000000   Number         0  dadd.o ABSOLUTE
    ../fplib/microlib/fpdiv.c                0x00000000   Number         0  ddiv.o ABSOLUTE
    ../fplib/microlib/fpepilogue.c           0x00000000   Number         0  depilogue.o ABSOLUTE
    ../fplib/microlib/fpfix.c                0x00000000   Number         0  dfixul.o ABSOLUTE
    ../fplib/microlib/fpfix.c                0x00000000   Number         0  dfixui.o ABSOLUTE
    ../fplib/microlib/fpflt.c                0x00000000   Number         0  dfltui.o ABSOLUTE
    ../fplib/microlib/fpmul.c                0x00000000   Number         0  dmul.o ABSOLUTE
    ../fplib/microlib/fpsqrt.c               0x00000000   Number         0  dsqrt.o ABSOLUTE
    ../mathlib/sqrt.c                        0x00000000   Number         0  sqrt_x.o ABSOLUTE
    ../mathlib/sqrt.c                        0x00000000   Number         0  sqrt.o ABSOLUTE
    ..\BaseDrive\Gpio.c                      0x00000000   Number         0  gpio.o ABSOLUTE
    ..\BaseDrive\SysTick.c                   0x00000000   Number         0  systick.o ABSOLUTE
    ..\BaseDrive\Uart.c                      0x00000000   Number         0  uart.o ABSOLUTE
    ..\ExternalDrive\Touch\Touch.c           0x00000000   Number         0  touch.o ABSOLUTE
    ..\ExternalDrive\lcd\lcd.c               0x00000000   Number         0  lcd.o ABSOLUTE
    ..\Libraries\CMSIS\Device\ST\STM32F4xx\Source\Templates\arm\startup_stm32f4xx.s 0x00000000   Number         0  startup_stm32f4xx.o ABSOLUTE
    ..\Libraries\CMSIS\Device\ST\STM32F4xx\Source\Templates\system_stm32f4xx.c 0x00000000   Number         0  system_stm32f4xx.o ABSOLUTE
    ..\Libraries\STM32F4xx_StdPeriph_Driver\src\misc.c 0x00000000   Number         0  misc.o ABSOLUTE
    ..\Libraries\STM32F4xx_StdPeriph_Driver\src\stm32f4xx_adc.c 0x00000000   Number         0  stm32f4xx_adc.o ABSOLUTE
    ..\Libraries\STM32F4xx_StdPeriph_Driver\src\stm32f4xx_can.c 0x00000000   Number         0  stm32f4xx_can.o ABSOLUTE
    ..\Libraries\STM32F4xx_StdPeriph_Driver\src\stm32f4xx_crc.c 0x00000000   Number         0  stm32f4xx_crc.o ABSOLUTE
    ..\Libraries\STM32F4xx_StdPeriph_Driver\src\stm32f4xx_cryp.c 0x00000000   Number         0  stm32f4xx_cryp.o ABSOLUTE
    ..\Libraries\STM32F4xx_StdPeriph_Driver\src\stm32f4xx_cryp_aes.c 0x00000000   Number         0  stm32f4xx_cryp_aes.o ABSOLUTE
    ..\Libraries\STM32F4xx_StdPeriph_Driver\src\stm32f4xx_cryp_des.c 0x00000000   Number         0  stm32f4xx_cryp_des.o ABSOLUTE
    ..\Libraries\STM32F4xx_StdPeriph_Driver\src\stm32f4xx_cryp_tdes.c 0x00000000   Number         0  stm32f4xx_cryp_tdes.o ABSOLUTE
    ..\Libraries\STM32F4xx_StdPeriph_Driver\src\stm32f4xx_dac.c 0x00000000   Number         0  stm32f4xx_dac.o ABSOLUTE
    ..\Libraries\STM32F4xx_StdPeriph_Driver\src\stm32f4xx_dbgmcu.c 0x00000000   Number         0  stm32f4xx_dbgmcu.o ABSOLUTE
    ..\Libraries\STM32F4xx_StdPeriph_Driver\src\stm32f4xx_dcmi.c 0x00000000   Number         0  stm32f4xx_dcmi.o ABSOLUTE
    ..\Libraries\STM32F4xx_StdPeriph_Driver\src\stm32f4xx_dma.c 0x00000000   Number         0  stm32f4xx_dma.o ABSOLUTE
    ..\Libraries\STM32F4xx_StdPeriph_Driver\src\stm32f4xx_exti.c 0x00000000   Number         0  stm32f4xx_exti.o ABSOLUTE
    ..\Libraries\STM32F4xx_StdPeriph_Driver\src\stm32f4xx_flash.c 0x00000000   Number         0  stm32f4xx_flash.o ABSOLUTE
    ..\Libraries\STM32F4xx_StdPeriph_Driver\src\stm32f4xx_fsmc.c 0x00000000   Number         0  stm32f4xx_fsmc.o ABSOLUTE
    ..\Libraries\STM32F4xx_StdPeriph_Driver\src\stm32f4xx_gpio.c 0x00000000   Number         0  stm32f4xx_gpio.o ABSOLUTE
    ..\Libraries\STM32F4xx_StdPeriph_Driver\src\stm32f4xx_hash.c 0x00000000   Number         0  stm32f4xx_hash.o ABSOLUTE
    ..\Libraries\STM32F4xx_StdPeriph_Driver\src\stm32f4xx_hash_md5.c 0x00000000   Number         0  stm32f4xx_hash_md5.o ABSOLUTE
    ..\Libraries\STM32F4xx_StdPeriph_Driver\src\stm32f4xx_hash_sha1.c 0x00000000   Number         0  stm32f4xx_hash_sha1.o ABSOLUTE
    ..\Libraries\STM32F4xx_StdPeriph_Driver\src\stm32f4xx_i2c.c 0x00000000   Number         0  stm32f4xx_i2c.o ABSOLUTE
    ..\Libraries\STM32F4xx_StdPeriph_Driver\src\stm32f4xx_iwdg.c 0x00000000   Number         0  stm32f4xx_iwdg.o ABSOLUTE
    ..\Libraries\STM32F4xx_StdPeriph_Driver\src\stm32f4xx_pwr.c 0x00000000   Number         0  stm32f4xx_pwr.o ABSOLUTE
    ..\Libraries\STM32F4xx_StdPeriph_Driver\src\stm32f4xx_rcc.c 0x00000000   Number         0  stm32f4xx_rcc.o ABSOLUTE
    ..\Libraries\STM32F4xx_StdPeriph_Driver\src\stm32f4xx_rng.c 0x00000000   Number         0  stm32f4xx_rng.o ABSOLUTE
    ..\Libraries\STM32F4xx_StdPeriph_Driver\src\stm32f4xx_rtc.c 0x00000000   Number         0  stm32f4xx_rtc.o ABSOLUTE
    ..\Libraries\STM32F4xx_StdPeriph_Driver\src\stm32f4xx_sdio.c 0x00000000   Number         0  stm32f4xx_sdio.o ABSOLUTE
    ..\Libraries\STM32F4xx_StdPeriph_Driver\src\stm32f4xx_spi.c 0x00000000   Number         0  stm32f4xx_spi.o ABSOLUTE
    ..\Libraries\STM32F4xx_StdPeriph_Driver\src\stm32f4xx_syscfg.c 0x00000000   Number         0  stm32f4xx_syscfg.o ABSOLUTE
    ..\Libraries\STM32F4xx_StdPeriph_Driver\src\stm32f4xx_tim.c 0x00000000   Number         0  stm32f4xx_tim.o ABSOLUTE
    ..\Libraries\STM32F4xx_StdPeriph_Driver\src\stm32f4xx_usart.c 0x00000000   Number         0  stm32f4xx_usart.o ABSOLUTE
    ..\Libraries\STM32F4xx_StdPeriph_Driver\src\stm32f4xx_wwdg.c 0x00000000   Number         0  stm32f4xx_wwdg.o ABSOLUTE
    ..\User\main.c                           0x00000000   Number         0  main.o ABSOLUTE
    ..\User\stm32f4xx_it.c                   0x00000000   Number         0  stm32f4xx_it.o ABSOLUTE
    ..\\BaseDrive\\Gpio.c                    0x00000000   Number         0  gpio.o ABSOLUTE
    ..\\BaseDrive\\SysTick.c                 0x00000000   Number         0  systick.o ABSOLUTE
    ..\\BaseDrive\\Uart.c                    0x00000000   Number         0  uart.o ABSOLUTE
    ..\\ExternalDrive\\Touch\\Touch.c        0x00000000   Number         0  touch.o ABSOLUTE
    ..\\ExternalDrive\\lcd\\lcd.c            0x00000000   Number         0  lcd.o ABSOLUTE
    ..\\Libraries\\CMSIS\\Device\\ST\\STM32F4xx\\Source\\Templates\\system_stm32f4xx.c 0x00000000   Number         0  system_stm32f4xx.o ABSOLUTE
    ..\\Libraries\\STM32F4xx_StdPeriph_Driver\\src\\misc.c 0x00000000   Number         0  misc.o ABSOLUTE
    ..\\Libraries\\STM32F4xx_StdPeriph_Driver\\src\\stm32f4xx_adc.c 0x00000000   Number         0  stm32f4xx_adc.o ABSOLUTE
    ..\\Libraries\\STM32F4xx_StdPeriph_Driver\\src\\stm32f4xx_can.c 0x00000000   Number         0  stm32f4xx_can.o ABSOLUTE
    ..\\Libraries\\STM32F4xx_StdPeriph_Driver\\src\\stm32f4xx_crc.c 0x00000000   Number         0  stm32f4xx_crc.o ABSOLUTE
    ..\\Libraries\\STM32F4xx_StdPeriph_Driver\\src\\stm32f4xx_cryp.c 0x00000000   Number         0  stm32f4xx_cryp.o ABSOLUTE
    ..\\Libraries\\STM32F4xx_StdPeriph_Driver\\src\\stm32f4xx_cryp_aes.c 0x00000000   Number         0  stm32f4xx_cryp_aes.o ABSOLUTE
    ..\\Libraries\\STM32F4xx_StdPeriph_Driver\\src\\stm32f4xx_cryp_des.c 0x00000000   Number         0  stm32f4xx_cryp_des.o ABSOLUTE
    ..\\Libraries\\STM32F4xx_StdPeriph_Driver\\src\\stm32f4xx_cryp_tdes.c 0x00000000   Number         0  stm32f4xx_cryp_tdes.o ABSOLUTE
    ..\\Libraries\\STM32F4xx_StdPeriph_Driver\\src\\stm32f4xx_dac.c 0x00000000   Number         0  stm32f4xx_dac.o ABSOLUTE
    ..\\Libraries\\STM32F4xx_StdPeriph_Driver\\src\\stm32f4xx_dbgmcu.c 0x00000000   Number         0  stm32f4xx_dbgmcu.o ABSOLUTE
    ..\\Libraries\\STM32F4xx_StdPeriph_Driver\\src\\stm32f4xx_dcmi.c 0x00000000   Number         0  stm32f4xx_dcmi.o ABSOLUTE
    ..\\Libraries\\STM32F4xx_StdPeriph_Driver\\src\\stm32f4xx_dma.c 0x00000000   Number         0  stm32f4xx_dma.o ABSOLUTE
    ..\\Libraries\\STM32F4xx_StdPeriph_Driver\\src\\stm32f4xx_exti.c 0x00000000   Number         0  stm32f4xx_exti.o ABSOLUTE
    ..\\Libraries\\STM32F4xx_StdPeriph_Driver\\src\\stm32f4xx_flash.c 0x00000000   Number         0  stm32f4xx_flash.o ABSOLUTE
    ..\\Libraries\\STM32F4xx_StdPeriph_Driver\\src\\stm32f4xx_fsmc.c 0x00000000   Number         0  stm32f4xx_fsmc.o ABSOLUTE
    ..\\Libraries\\STM32F4xx_StdPeriph_Driver\\src\\stm32f4xx_gpio.c 0x00000000   Number         0  stm32f4xx_gpio.o ABSOLUTE
    ..\\Libraries\\STM32F4xx_StdPeriph_Driver\\src\\stm32f4xx_hash.c 0x00000000   Number         0  stm32f4xx_hash.o ABSOLUTE
    ..\\Libraries\\STM32F4xx_StdPeriph_Driver\\src\\stm32f4xx_hash_md5.c 0x00000000   Number         0  stm32f4xx_hash_md5.o ABSOLUTE
    ..\\Libraries\\STM32F4xx_StdPeriph_Driver\\src\\stm32f4xx_hash_sha1.c 0x00000000   Number         0  stm32f4xx_hash_sha1.o ABSOLUTE
    ..\\Libraries\\STM32F4xx_StdPeriph_Driver\\src\\stm32f4xx_i2c.c 0x00000000   Number         0  stm32f4xx_i2c.o ABSOLUTE
    ..\\Libraries\\STM32F4xx_StdPeriph_Driver\\src\\stm32f4xx_iwdg.c 0x00000000   Number         0  stm32f4xx_iwdg.o ABSOLUTE
    ..\\Libraries\\STM32F4xx_StdPeriph_Driver\\src\\stm32f4xx_pwr.c 0x00000000   Number         0  stm32f4xx_pwr.o ABSOLUTE
    ..\\Libraries\\STM32F4xx_StdPeriph_Driver\\src\\stm32f4xx_rcc.c 0x00000000   Number         0  stm32f4xx_rcc.o ABSOLUTE
    ..\\Libraries\\STM32F4xx_StdPeriph_Driver\\src\\stm32f4xx_rng.c 0x00000000   Number         0  stm32f4xx_rng.o ABSOLUTE
    ..\\Libraries\\STM32F4xx_StdPeriph_Driver\\src\\stm32f4xx_rtc.c 0x00000000   Number         0  stm32f4xx_rtc.o ABSOLUTE
    ..\\Libraries\\STM32F4xx_StdPeriph_Driver\\src\\stm32f4xx_sdio.c 0x00000000   Number         0  stm32f4xx_sdio.o ABSOLUTE
    ..\\Libraries\\STM32F4xx_StdPeriph_Driver\\src\\stm32f4xx_spi.c 0x00000000   Number         0  stm32f4xx_spi.o ABSOLUTE
    ..\\Libraries\\STM32F4xx_StdPeriph_Driver\\src\\stm32f4xx_syscfg.c 0x00000000   Number         0  stm32f4xx_syscfg.o ABSOLUTE
    ..\\Libraries\\STM32F4xx_StdPeriph_Driver\\src\\stm32f4xx_tim.c 0x00000000   Number         0  stm32f4xx_tim.o ABSOLUTE
    ..\\Libraries\\STM32F4xx_StdPeriph_Driver\\src\\stm32f4xx_usart.c 0x00000000   Number         0  stm32f4xx_usart.o ABSOLUTE
    ..\\Libraries\\STM32F4xx_StdPeriph_Driver\\src\\stm32f4xx_wwdg.c 0x00000000   Number         0  stm32f4xx_wwdg.o ABSOLUTE
    ..\\User\\main.c                         0x00000000   Number         0  main.o ABSOLUTE
    ..\\User\\stm32f4xx_it.c                 0x00000000   Number         0  stm32f4xx_it.o ABSOLUTE
    cdcmple.s                                0x00000000   Number         0  cdcmple.o ABSOLUTE
    cdrcmple.s                               0x00000000   Number         0  cdrcmple.o ABSOLUTE
    dc.s                                     0x00000000   Number         0  dc.o ABSOLUTE
    handlers.s                               0x00000000   Number         0  handlers.o ABSOLUTE
    init.s                                   0x00000000   Number         0  init.o ABSOLUTE
    RESET                                    0x08000000   Section      392  startup_stm32f4xx.o(RESET)
    .ARM.Collect$$$$00000000                 0x08000188   Section        0  entry.o(.ARM.Collect$$$$00000000)
    .ARM.Collect$$$$00000001                 0x08000188   Section        4  entry2.o(.ARM.Collect$$$$00000001)
    .ARM.Collect$$$$00000004                 0x0800018c   Section        4  entry5.o(.ARM.Collect$$$$00000004)
    .ARM.Collect$$$$00000008                 0x08000190   Section        0  entry7b.o(.ARM.Collect$$$$00000008)
    .ARM.Collect$$$$0000000A                 0x08000190   Section        0  entry8b.o(.ARM.Collect$$$$0000000A)
    .ARM.Collect$$$$0000000B                 0x08000190   Section        8  entry9a.o(.ARM.Collect$$$$0000000B)
    .ARM.Collect$$$$0000000D                 0x08000198   Section        0  entry10a.o(.ARM.Collect$$$$0000000D)
    .ARM.Collect$$$$0000000F                 0x08000198   Section        0  entry11a.o(.ARM.Collect$$$$0000000F)
    .ARM.Collect$$$$00002712                 0x08000198   Section        4  entry2.o(.ARM.Collect$$$$00002712)
    __lit__00000000                          0x08000198   Data           4  entry2.o(.ARM.Collect$$$$00002712)
    .text                                    0x0800019c   Section       36  startup_stm32f4xx.o(.text)
    $v0                                      0x0800019c   Number         0  startup_stm32f4xx.o(.text)
    .text                                    0x080001c0   Section        0  dfltui.o(.text)
    .text                                    0x080001da   Section        0  dfixui.o(.text)
    .text                                    0x0800020c   Section        0  f2d.o(.text)
    .text                                    0x08000234   Section       48  cdcmple.o(.text)
    .text                                    0x08000264   Section       48  cdrcmple.o(.text)
    .text                                    0x08000294   Section        0  uidiv.o(.text)
    .text                                    0x080002c0   Section        0  llushr.o(.text)
    .text                                    0x080002e0   Section        0  depilogue.o(.text)
    .text                                    0x080002e0   Section        0  iusefp.o(.text)
    .text                                    0x0800039a   Section        0  dsqrt.o(.text)
    .text                                    0x0800043c   Section       36  init.o(.text)
    .text                                    0x08000460   Section        0  llshl.o(.text)
    i.ADS_Read_AD                            0x08000480   Section        0  touch.o(i.ADS_Read_AD)
    i.ADS_Read_XY                            0x080004dc   Section        0  touch.o(i.ADS_Read_XY)
    i.BusFault_Handler                       0x08000542   Section        0  stm32f4xx_it.o(i.BusFault_Handler)
    i.Convert_Pos                            0x08000544   Section        0  touch.o(i.Convert_Pos)
    i.DebugMon_Handler                       0x080005ac   Section        0  stm32f4xx_it.o(i.DebugMon_Handler)
    i.Delay                                  0x080005b0   Section        0  systick.o(i.Delay)
    i.Draw_Big_Point                         0x080005c4   Section        0  touch.o(i.Draw_Big_Point)
    i.Draw_Circle                            0x080005fa   Section        0  lcd.o(i.Draw_Circle)
    i.Drow_Touch_Point                       0x080006de   Section        0  touch.o(i.Drow_Touch_Point)
    i.EXTI9_5_IRQHandler                     0x080006e8   Section        0  stm32f4xx_it.o(i.EXTI9_5_IRQHandler)
    i.EXTI_ClearITPendingBit                 0x080006ec   Section        0  stm32f4xx_exti.o(i.EXTI_ClearITPendingBit)
    i.EXTI_GenerateSWInterrupt               0x080006f8   Section        0  stm32f4xx_exti.o(i.EXTI_GenerateSWInterrupt)
    i.EXTI_GetITStatus                       0x08000708   Section        0  stm32f4xx_exti.o(i.EXTI_GetITStatus)
    i.EXTI_Init                              0x08000728   Section        0  stm32f4xx_exti.o(i.EXTI_Init)
    i.FSMC_NORSRAMCmd                        0x0800079c   Section        0  stm32f4xx_fsmc.o(i.FSMC_NORSRAMCmd)
    i.FSMC_NORSRAMInit                       0x080007c0   Section        0  stm32f4xx_fsmc.o(i.FSMC_NORSRAMInit)
    i.FSMC_NORSRAMStructInit                 0x0800088a   Section        0  stm32f4xx_fsmc.o(i.FSMC_NORSRAMStructInit)
    i.GPIO_Init                              0x080008ec   Section        0  stm32f4xx_gpio.o(i.GPIO_Init)
    i.GPIO_PinAFConfig                       0x08000968   Section        0  stm32f4xx_gpio.o(i.GPIO_PinAFConfig)
    i.GPIO_ReadInputDataBit                  0x08000988   Section        0  stm32f4xx_gpio.o(i.GPIO_ReadInputDataBit)
    i.GPIO_ResetBits                         0x08000996   Section        0  stm32f4xx_gpio.o(i.GPIO_ResetBits)
    i.GPIO_SetBits                           0x0800099a   Section        0  stm32f4xx_gpio.o(i.GPIO_SetBits)
    i.HardFault_Handler                      0x0800099e   Section        0  stm32f4xx_it.o(i.HardFault_Handler)
    i.LCD_DrawPicture                        0x080009a0   Section        0  lcd.o(i.LCD_DrawPicture)
    i.LCD_DrawPoint                          0x080009f8   Section        0  lcd.o(i.LCD_DrawPoint)
    i.LCD_SetCursor                          0x08000a0e   Section        0  lcd.o(i.LCD_SetCursor)
    i.LCD_ShowChar                           0x08000a54   Section        0  lcd.o(i.LCD_ShowChar)
    i.LCD_ShowCharString                     0x08000ae0   Section        0  lcd.o(i.LCD_ShowCharString)
    i.LCD_ShowHzString                       0x08000b24   Section        0  lcd.o(i.LCD_ShowHzString)
    i.LCD_ShowString                         0x08000bb4   Section        0  lcd.o(i.LCD_ShowString)
    i.MemManage_Handler                      0x08000bfc   Section        0  stm32f4xx_it.o(i.MemManage_Handler)
    i.NMI_Handler                            0x08000bfe   Section        0  stm32f4xx_it.o(i.NMI_Handler)
    i.NVIC_Init                              0x08000c00   Section        0  misc.o(i.NVIC_Init)
    i.NVIC_PriorityGroupConfig               0x08000c68   Section        0  misc.o(i.NVIC_PriorityGroupConfig)
    i.Pen_Int_Set                            0x08000c7c   Section        0  touch.o(i.Pen_Int_Set)
    i.PendSV_Handler                         0x08000c9c   Section        0  stm32f4xx_it.o(i.PendSV_Handler)
    i.RCC_AHB1PeriphClockCmd                 0x08000ca0   Section        0  stm32f4xx_rcc.o(i.RCC_AHB1PeriphClockCmd)
    i.RCC_AHB3PeriphClockCmd                 0x08000cbc   Section        0  stm32f4xx_rcc.o(i.RCC_AHB3PeriphClockCmd)
    i.RCC_APB1PeriphClockCmd                 0x08000cd8   Section        0  stm32f4xx_rcc.o(i.RCC_APB1PeriphClockCmd)
    i.RCC_APB2PeriphClockCmd                 0x08000cf4   Section        0  stm32f4xx_rcc.o(i.RCC_APB2PeriphClockCmd)
    i.RCC_GetClocksFreq                      0x08000d10   Section        0  stm32f4xx_rcc.o(i.RCC_GetClocksFreq)
    i.Read_ADS                               0x08000db4   Section        0  touch.o(i.Read_ADS)
    i.Read_ADS2                              0x08000ddc   Section        0  touch.o(i.Read_ADS2)
    i.Read_TP_Once                           0x08000e64   Section        0  touch.o(i.Read_TP_Once)
    i.Refreshes_Screen                       0x08000ea4   Section        0  touch.o(i.Refreshes_Screen)
    i.SPI_Cmd                                0x08000ec8   Section        0  stm32f4xx_spi.o(i.SPI_Cmd)
    i.SPI_I2S_GetFlagStatus                  0x08000ee0   Section        0  stm32f4xx_spi.o(i.SPI_I2S_GetFlagStatus)
    i.SPI_I2S_ReceiveData                    0x08000eee   Section        0  stm32f4xx_spi.o(i.SPI_I2S_ReceiveData)
    i.SPI_I2S_SendData                       0x08000ef2   Section        0  stm32f4xx_spi.o(i.SPI_I2S_SendData)
    i.SPI_Init                               0x08000ef6   Section        0  stm32f4xx_spi.o(i.SPI_Init)
    i.SPI_SendByte                           0x08000f30   Section        0  touch.o(i.SPI_SendByte)
    i.SVC_Handler                            0x08000f64   Section        0  stm32f4xx_it.o(i.SVC_Handler)
    i.SYSCFG_EXTILineConfig                  0x08000f68   Section        0  stm32f4xx_syscfg.o(i.SYSCFG_EXTILineConfig)
    i.SetSysClock                            0x08000f94   Section        0  system_stm32f4xx.o(i.SetSysClock)
    SetSysClock                              0x08000f95   Thumb Code   168  system_stm32f4xx.o(i.SetSysClock)
    i.SysTick_Handler                        0x0800104c   Section        0  stm32f4xx_it.o(i.SysTick_Handler)
    i.SysTick_Init                           0x08001050   Section        0  systick.o(i.SysTick_Init)
    i.SystemInit                             0x08001094   Section        0  system_stm32f4xx.o(i.SystemInit)
    i.TOUCH_EXTI_Configuration               0x080010f0   Section        0  touch.o(i.TOUCH_EXTI_Configuration)
    TOUCH_EXTI_Configuration                 0x080010f1   Thumb Code   110  touch.o(i.TOUCH_EXTI_Configuration)
    i.TimingDelay_Decrement                  0x08001164   Section        0  systick.o(i.TimingDelay_Decrement)
    i.Touch_Adjust                           0x08001178   Section        0  touch.o(i.Touch_Adjust)
    i.Touch_Gpio_Init                        0x0800157c   Section        0  touch.o(i.Touch_Gpio_Init)
    Touch_Gpio_Init                          0x0800157d   Thumb Code   306  touch.o(i.Touch_Gpio_Init)
    i.Touch_IRQ                              0x080016c4   Section        0  touch.o(i.Touch_IRQ)
    i.Touch_Init                             0x080016ec   Section        0  touch.o(i.Touch_Init)
    i.USART3_IRQHandler                      0x080016fe   Section        0  stm32f4xx_it.o(i.USART3_IRQHandler)
    i.USART6_IRQHandler                      0x08001700   Section        0  stm32f4xx_it.o(i.USART6_IRQHandler)
    i.USART_Cmd                              0x08001744   Section        0  stm32f4xx_usart.o(i.USART_Cmd)
    i.USART_GetFlagStatus                    0x0800175c   Section        0  stm32f4xx_usart.o(i.USART_GetFlagStatus)
    i.USART_GetITStatus                      0x0800176a   Section        0  stm32f4xx_usart.o(i.USART_GetITStatus)
    i.USART_ITConfig                         0x080017aa   Section        0  stm32f4xx_usart.o(i.USART_ITConfig)
    i.USART_Init                             0x080017e0   Section        0  stm32f4xx_usart.o(i.USART_Init)
    i.USART_ReceiveData                      0x0800189c   Section        0  stm32f4xx_usart.o(i.USART_ReceiveData)
    i.USART_SendData                         0x080018a4   Section        0  stm32f4xx_usart.o(i.USART_SendData)
    i.UsageFault_Handler                     0x080018ac   Section        0  stm32f4xx_it.o(i.UsageFault_Handler)
    i.__0printf$3                            0x080018b0   Section        0  printf3.o(i.__0printf$3)
    i.__hardfp_sqrt                          0x080018d0   Section        0  sqrt.o(i.__hardfp_sqrt)
    i.__scatterload_copy                     0x0800194a   Section       14  handlers.o(i.__scatterload_copy)
    i.__scatterload_null                     0x08001958   Section        2  handlers.o(i.__scatterload_null)
    i.__scatterload_zeroinit                 0x0800195a   Section       14  handlers.o(i.__scatterload_zeroinit)
    i.__set_errno                            0x08001968   Section        0  errno.o(i.__set_errno)
    i._printf_core                           0x08001974   Section        0  printf3.o(i._printf_core)
    _printf_core                             0x08001975   Thumb Code   436  printf3.o(i._printf_core)
    i.delay                                  0x08001b2c   Section        0  lcd.o(i.delay)
    delay                                    0x08001b2d   Thumb Code    34  lcd.o(i.delay)
    i.fputc                                  0x08001b50   Section        0  uart.o(i.fputc)
    i.lcd_clear                              0x08001b74   Section        0  lcd.o(i.lcd_clear)
    i.lcd_init                               0x08001bd4   Section        0  lcd.o(i.lcd_init)
    i.main                                   0x08001d88   Section        0  main.o(i.main)
    i.nvic_config                            0x08001ed0   Section        0  main.o(i.nvic_config)
    i.port_fsmc_init                         0x08001ef8   Section        0  lcd.o(i.port_fsmc_init)
    i.read_data                              0x080020dc   Section        0  lcd.o(i.read_data)
    i.read_reg                               0x080020e6   Section        0  lcd.o(i.read_reg)
    i.uart_init                              0x080020f4   Section        0  uart.o(i.uart_init)
    i.write_cmd                              0x08002194   Section        0  lcd.o(i.write_cmd)
    i.write_data                             0x0800219c   Section        0  lcd.o(i.write_data)
    i.write_data_Prepare                     0x080021a4   Section        0  lcd.o(i.write_data_Prepare)
    .constdata                               0x080021aa   Section    271704  lcd.o(.constdata)
    .constdata                               0x08044702   Section    153600  lcd.o(.constdata)
    .data                                    0x20000000   Section       20  system_stm32f4xx.o(.data)
    .data                                    0x20000014   Section       16  stm32f4xx_rcc.o(.data)
    APBAHBPrescTable                         0x20000014   Data          16  stm32f4xx_rcc.o(.data)
    .data                                    0x20000024   Section        4  systick.o(.data)
    .data                                    0x20000028   Section        6  lcd.o(.data)
    i                                        0x20000028   Data           2  lcd.o(.data)
    j                                        0x2000002a   Data           2  lcd.o(.data)
    .data                                    0x20000030   Section        4  stdout.o(.data)
    .data                                    0x20000034   Section        4  errno.o(.data)
    _errno                                   0x20000034   Data           4  errno.o(.data)
    .bss                                     0x20000038   Section       24  touch.o(.bss)
    STACK                                    0x20000050   Section     1024  startup_stm32f4xx.o(STACK)

    Global Symbols

    Symbol Name                              Value     Ov Type        Size  Object(Section)

    BuildAttributes$$THM_ISAv4$E$P$D$K$B$S$7EM$VFPi3$EXTD16$VFPS$VFMA$PE$A:L22UL41UL21$X:L11$S22US41US21$IEEE1$IW$USESV6$~STKCKD$USESV7$~SHL$OTIME$ROPI$IEEEJ$EBA8$MICROLIB$REQ8$PRES8$EABIv2 0x00000000   Number         0  anon$$obj.o ABSOLUTE
    __ARM_use_no_argv                        0x00000000   Number         0  main.o ABSOLUTE
    _printf_a                                0x00000000   Number         0  stubs.o ABSOLUTE
    _printf_c                                0x00000000   Number         0  stubs.o ABSOLUTE
    _printf_charcount                        0x00000000   Number         0  stubs.o ABSOLUTE
    _printf_d                                0x00000000   Number         0  stubs.o ABSOLUTE
    _printf_e                                0x00000000   Number         0  stubs.o ABSOLUTE
    _printf_f                                0x00000000   Number         0  stubs.o ABSOLUTE
    _printf_flags                            0x00000000   Number         0  stubs.o ABSOLUTE
    _printf_fp_dec                           0x00000000   Number         0  stubs.o ABSOLUTE
    _printf_fp_hex                           0x00000000   Number         0  stubs.o ABSOLUTE
    _printf_g                                0x00000000   Number         0  stubs.o ABSOLUTE
    _printf_i                                0x00000000   Number         0  stubs.o ABSOLUTE
    _printf_int_dec                          0x00000000   Number         0  stubs.o ABSOLUTE
    _printf_l                                0x00000000   Number         0  stubs.o ABSOLUTE
    _printf_lc                               0x00000000   Number         0  stubs.o ABSOLUTE
    _printf_ll                               0x00000000   Number         0  stubs.o ABSOLUTE
    _printf_lld                              0x00000000   Number         0  stubs.o ABSOLUTE
    _printf_lli                              0x00000000   Number         0  stubs.o ABSOLUTE
    _printf_llo                              0x00000000   Number         0  stubs.o ABSOLUTE
    _printf_llu                              0x00000000   Number         0  stubs.o ABSOLUTE
    _printf_llx                              0x00000000   Number         0  stubs.o ABSOLUTE
    _printf_longlong_dec                     0x00000000   Number         0  stubs.o ABSOLUTE
    _printf_longlong_hex                     0x00000000   Number         0  stubs.o ABSOLUTE
    _printf_longlong_oct                     0x00000000   Number         0  stubs.o ABSOLUTE
    _printf_ls                               0x00000000   Number         0  stubs.o ABSOLUTE
    _printf_mbtowc                           0x00000000   Number         0  stubs.o ABSOLUTE
    _printf_n                                0x00000000   Number         0  stubs.o ABSOLUTE
    _printf_o                                0x00000000   Number         0  stubs.o ABSOLUTE
    _printf_p                                0x00000000   Number         0  stubs.o ABSOLUTE
    _printf_percent                          0x00000000   Number         0  stubs.o ABSOLUTE
    _printf_pre_padding                      0x00000000   Number         0  stubs.o ABSOLUTE
    _printf_return_value                     0x00000000   Number         0  stubs.o ABSOLUTE
    _printf_s                                0x00000000   Number         0  stubs.o ABSOLUTE
    _printf_sizespec                         0x00000000   Number         0  stubs.o ABSOLUTE
    _printf_str                              0x00000000   Number         0  stubs.o ABSOLUTE
    _printf_truncate_signed                  0x00000000   Number         0  stubs.o ABSOLUTE
    _printf_truncate_unsigned                0x00000000   Number         0  stubs.o ABSOLUTE
    _printf_u                                0x00000000   Number         0  stubs.o ABSOLUTE
    _printf_wc                               0x00000000   Number         0  stubs.o ABSOLUTE
    _printf_wctomb                           0x00000000   Number         0  stubs.o ABSOLUTE
    _printf_widthprec                        0x00000000   Number         0  stubs.o ABSOLUTE
    _printf_x                                0x00000000   Number         0  stubs.o ABSOLUTE
    __cpp_initialize__aeabi_                  - Undefined Weak Reference
    __cxa_finalize                            - Undefined Weak Reference
    __decompress                              - Undefined Weak Reference
    _clock_init                               - Undefined Weak Reference
    _microlib_exit                            - Undefined Weak Reference
    __Vectors_Size                           0x00000188   Number         0  startup_stm32f4xx.o ABSOLUTE
    __Vectors                                0x08000000   Data           4  startup_stm32f4xx.o(RESET)
    __Vectors_End                            0x08000188   Data           0  startup_stm32f4xx.o(RESET)
    __main                                   0x08000189   Thumb Code     0  entry.o(.ARM.Collect$$$$00000000)
    _main_stk                                0x08000189   Thumb Code     0  entry2.o(.ARM.Collect$$$$00000001)
    _main_scatterload                        0x0800018d   Thumb Code     0  entry5.o(.ARM.Collect$$$$00000004)
    __main_after_scatterload                 0x08000191   Thumb Code     0  entry5.o(.ARM.Collect$$$$00000004)
    _main_clock                              0x08000191   Thumb Code     0  entry7b.o(.ARM.Collect$$$$00000008)
    _main_cpp_init                           0x08000191   Thumb Code     0  entry8b.o(.ARM.Collect$$$$0000000A)
    _main_init                               0x08000191   Thumb Code     0  entry9a.o(.ARM.Collect$$$$0000000B)
    __rt_final_cpp                           0x08000199   Thumb Code     0  entry10a.o(.ARM.Collect$$$$0000000D)
    __rt_final_exit                          0x08000199   Thumb Code     0  entry11a.o(.ARM.Collect$$$$0000000F)
    Reset_Handler                            0x0800019d   Thumb Code     8  startup_stm32f4xx.o(.text)
    ADC_IRQHandler                           0x080001b7   Thumb Code     0  startup_stm32f4xx.o(.text)
    CAN1_RX0_IRQHandler                      0x080001b7   Thumb Code     0  startup_stm32f4xx.o(.text)
    CAN1_RX1_IRQHandler                      0x080001b7   Thumb Code     0  startup_stm32f4xx.o(.text)
    CAN1_SCE_IRQHandler                      0x080001b7   Thumb Code     0  startup_stm32f4xx.o(.text)
    CAN1_TX_IRQHandler                       0x080001b7   Thumb Code     0  startup_stm32f4xx.o(.text)
    CAN2_RX0_IRQHandler                      0x080001b7   Thumb Code     0  startup_stm32f4xx.o(.text)
    CAN2_RX1_IRQHandler                      0x080001b7   Thumb Code     0  startup_stm32f4xx.o(.text)
    CAN2_SCE_IRQHandler                      0x080001b7   Thumb Code     0  startup_stm32f4xx.o(.text)
    CAN2_TX_IRQHandler                       0x080001b7   Thumb Code     0  startup_stm32f4xx.o(.text)
    CRYP_IRQHandler                          0x080001b7   Thumb Code     0  startup_stm32f4xx.o(.text)
    DCMI_IRQHandler                          0x080001b7   Thumb Code     0  startup_stm32f4xx.o(.text)
    DMA1_Stream0_IRQHandler                  0x080001b7   Thumb Code     0  startup_stm32f4xx.o(.text)
    DMA1_Stream1_IRQHandler                  0x080001b7   Thumb Code     0  startup_stm32f4xx.o(.text)
    DMA1_Stream2_IRQHandler                  0x080001b7   Thumb Code     0  startup_stm32f4xx.o(.text)
    DMA1_Stream3_IRQHandler                  0x080001b7   Thumb Code     0  startup_stm32f4xx.o(.text)
    DMA1_Stream4_IRQHandler                  0x080001b7   Thumb Code     0  startup_stm32f4xx.o(.text)
    DMA1_Stream5_IRQHandler                  0x080001b7   Thumb Code     0  startup_stm32f4xx.o(.text)
    DMA1_Stream6_IRQHandler                  0x080001b7   Thumb Code     0  startup_stm32f4xx.o(.text)
    DMA1_Stream7_IRQHandler                  0x080001b7   Thumb Code     0  startup_stm32f4xx.o(.text)
    DMA2_Stream0_IRQHandler                  0x080001b7   Thumb Code     0  startup_stm32f4xx.o(.text)
    DMA2_Stream1_IRQHandler                  0x080001b7   Thumb Code     0  startup_stm32f4xx.o(.text)
    DMA2_Stream2_IRQHandler                  0x080001b7   Thumb Code     0  startup_stm32f4xx.o(.text)
    DMA2_Stream3_IRQHandler                  0x080001b7   Thumb Code     0  startup_stm32f4xx.o(.text)
    DMA2_Stream4_IRQHandler                  0x080001b7   Thumb Code     0  startup_stm32f4xx.o(.text)
    DMA2_Stream5_IRQHandler                  0x080001b7   Thumb Code     0  startup_stm32f4xx.o(.text)
    DMA2_Stream6_IRQHandler                  0x080001b7   Thumb Code     0  startup_stm32f4xx.o(.text)
    DMA2_Stream7_IRQHandler                  0x080001b7   Thumb Code     0  startup_stm32f4xx.o(.text)
    ETH_IRQHandler                           0x080001b7   Thumb Code     0  startup_stm32f4xx.o(.text)
    ETH_WKUP_IRQHandler                      0x080001b7   Thumb Code     0  startup_stm32f4xx.o(.text)
    EXTI0_IRQHandler                         0x080001b7   Thumb Code     0  startup_stm32f4xx.o(.text)
    EXTI15_10_IRQHandler                     0x080001b7   Thumb Code     0  startup_stm32f4xx.o(.text)
    EXTI1_IRQHandler                         0x080001b7   Thumb Code     0  startup_stm32f4xx.o(.text)
    EXTI2_IRQHandler                         0x080001b7   Thumb Code     0  startup_stm32f4xx.o(.text)
    EXTI3_IRQHandler                         0x080001b7   Thumb Code     0  startup_stm32f4xx.o(.text)
    EXTI4_IRQHandler                         0x080001b7   Thumb Code     0  startup_stm32f4xx.o(.text)
    FLASH_IRQHandler                         0x080001b7   Thumb Code     0  startup_stm32f4xx.o(.text)
    FPU_IRQHandler                           0x080001b7   Thumb Code     0  startup_stm32f4xx.o(.text)
    FSMC_IRQHandler                          0x080001b7   Thumb Code     0  startup_stm32f4xx.o(.text)
    HASH_RNG_IRQHandler                      0x080001b7   Thumb Code     0  startup_stm32f4xx.o(.text)
    I2C1_ER_IRQHandler                       0x080001b7   Thumb Code     0  startup_stm32f4xx.o(.text)
    I2C1_EV_IRQHandler                       0x080001b7   Thumb Code     0  startup_stm32f4xx.o(.text)
    I2C2_ER_IRQHandler                       0x080001b7   Thumb Code     0  startup_stm32f4xx.o(.text)
    I2C2_EV_IRQHandler                       0x080001b7   Thumb Code     0  startup_stm32f4xx.o(.text)
    I2C3_ER_IRQHandler                       0x080001b7   Thumb Code     0  startup_stm32f4xx.o(.text)
    I2C3_EV_IRQHandler                       0x080001b7   Thumb Code     0  startup_stm32f4xx.o(.text)
    OTG_FS_IRQHandler                        0x080001b7   Thumb Code     0  startup_stm32f4xx.o(.text)
    OTG_FS_WKUP_IRQHandler                   0x080001b7   Thumb Code     0  startup_stm32f4xx.o(.text)
    OTG_HS_EP1_IN_IRQHandler                 0x080001b7   Thumb Code     0  startup_stm32f4xx.o(.text)
    OTG_HS_EP1_OUT_IRQHandler                0x080001b7   Thumb Code     0  startup_stm32f4xx.o(.text)
    OTG_HS_IRQHandler                        0x080001b7   Thumb Code     0  startup_stm32f4xx.o(.text)
    OTG_HS_WKUP_IRQHandler                   0x080001b7   Thumb Code     0  startup_stm32f4xx.o(.text)
    PVD_IRQHandler                           0x080001b7   Thumb Code     0  startup_stm32f4xx.o(.text)
    RCC_IRQHandler                           0x080001b7   Thumb Code     0  startup_stm32f4xx.o(.text)
    RTC_Alarm_IRQHandler                     0x080001b7   Thumb Code     0  startup_stm32f4xx.o(.text)
    RTC_WKUP_IRQHandler                      0x080001b7   Thumb Code     0  startup_stm32f4xx.o(.text)
    SDIO_IRQHandler                          0x080001b7   Thumb Code     0  startup_stm32f4xx.o(.text)
    SPI1_IRQHandler                          0x080001b7   Thumb Code     0  startup_stm32f4xx.o(.text)
    SPI2_IRQHandler                          0x080001b7   Thumb Code     0  startup_stm32f4xx.o(.text)
    SPI3_IRQHandler                          0x080001b7   Thumb Code     0  startup_stm32f4xx.o(.text)
    TAMP_STAMP_IRQHandler                    0x080001b7   Thumb Code     0  startup_stm32f4xx.o(.text)
    TIM1_BRK_TIM9_IRQHandler                 0x080001b7   Thumb Code     0  startup_stm32f4xx.o(.text)
    TIM1_CC_IRQHandler                       0x080001b7   Thumb Code     0  startup_stm32f4xx.o(.text)
    TIM1_TRG_COM_TIM11_IRQHandler            0x080001b7   Thumb Code     0  startup_stm32f4xx.o(.text)
    TIM1_UP_TIM10_IRQHandler                 0x080001b7   Thumb Code     0  startup_stm32f4xx.o(.text)
    TIM2_IRQHandler                          0x080001b7   Thumb Code     0  startup_stm32f4xx.o(.text)
    TIM3_IRQHandler                          0x080001b7   Thumb Code     0  startup_stm32f4xx.o(.text)
    TIM4_IRQHandler                          0x080001b7   Thumb Code     0  startup_stm32f4xx.o(.text)
    TIM5_IRQHandler                          0x080001b7   Thumb Code     0  startup_stm32f4xx.o(.text)
    TIM6_DAC_IRQHandler                      0x080001b7   Thumb Code     0  startup_stm32f4xx.o(.text)
    TIM7_IRQHandler                          0x080001b7   Thumb Code     0  startup_stm32f4xx.o(.text)
    TIM8_BRK_TIM12_IRQHandler                0x080001b7   Thumb Code     0  startup_stm32f4xx.o(.text)
    TIM8_CC_IRQHandler                       0x080001b7   Thumb Code     0  startup_stm32f4xx.o(.text)
    TIM8_TRG_COM_TIM14_IRQHandler            0x080001b7   Thumb Code     0  startup_stm32f4xx.o(.text)
    TIM8_UP_TIM13_IRQHandler                 0x080001b7   Thumb Code     0  startup_stm32f4xx.o(.text)
    UART4_IRQHandler                         0x080001b7   Thumb Code     0  startup_stm32f4xx.o(.text)
    UART5_IRQHandler                         0x080001b7   Thumb Code     0  startup_stm32f4xx.o(.text)
    USART1_IRQHandler                        0x080001b7   Thumb Code     0  startup_stm32f4xx.o(.text)
    USART2_IRQHandler                        0x080001b7   Thumb Code     0  startup_stm32f4xx.o(.text)
    WWDG_IRQHandler                          0x080001b7   Thumb Code     0  startup_stm32f4xx.o(.text)
    __aeabi_ui2d                             0x080001c1   Thumb Code    26  dfltui.o(.text)
    __aeabi_d2uiz                            0x080001db   Thumb Code    50  dfixui.o(.text)
    __aeabi_f2d                              0x0800020d   Thumb Code    38  f2d.o(.text)
    __aeabi_cdcmpeq                          0x08000235   Thumb Code     0  cdcmple.o(.text)
    __aeabi_cdcmple                          0x08000235   Thumb Code    48  cdcmple.o(.text)
    __aeabi_cdrcmple                         0x08000265   Thumb Code    48  cdrcmple.o(.text)
    __aeabi_uidiv                            0x08000295   Thumb Code     0  uidiv.o(.text)
    __aeabi_uidivmod                         0x08000295   Thumb Code    44  uidiv.o(.text)
    __aeabi_llsr                             0x080002c1   Thumb Code    32  llushr.o(.text)
    _ll_ushift_r                             0x080002c1   Thumb Code     0  llushr.o(.text)
    __I$use$fp                               0x080002e1   Thumb Code     0  iusefp.o(.text)
    _double_round                            0x080002e1   Thumb Code    30  depilogue.o(.text)
    _double_epilogue                         0x080002ff   Thumb Code   156  depilogue.o(.text)
    _dsqrt                                   0x0800039b   Thumb Code   162  dsqrt.o(.text)
    __scatterload                            0x0800043d   Thumb Code    28  init.o(.text)
    __scatterload_rt2                        0x0800043d   Thumb Code     0  init.o(.text)
    __aeabi_llsl                             0x08000461   Thumb Code    30  llshl.o(.text)
    _ll_shift_l                              0x08000461   Thumb Code     0  llshl.o(.text)
    ADS_Read_AD                              0x08000481   Thumb Code    78  touch.o(i.ADS_Read_AD)
    ADS_Read_XY                              0x080004dd   Thumb Code   102  touch.o(i.ADS_Read_XY)
    BusFault_Handler                         0x08000543   Thumb Code     2  stm32f4xx_it.o(i.BusFault_Handler)
    Convert_Pos                              0x08000545   Thumb Code    98  touch.o(i.Convert_Pos)
    DebugMon_Handler                         0x080005ad   Thumb Code     2  stm32f4xx_it.o(i.DebugMon_Handler)
    Delay                                    0x080005b1   Thumb Code    16  systick.o(i.Delay)
    Draw_Big_Point                           0x080005c5   Thumb Code    54  touch.o(i.Draw_Big_Point)
    Draw_Circle                              0x080005fb   Thumb Code   228  lcd.o(i.Draw_Circle)
    Drow_Touch_Point                         0x080006df   Thumb Code    10  touch.o(i.Drow_Touch_Point)
    EXTI9_5_IRQHandler                       0x080006e9   Thumb Code     4  stm32f4xx_it.o(i.EXTI9_5_IRQHandler)
    EXTI_ClearITPendingBit                   0x080006ed   Thumb Code     6  stm32f4xx_exti.o(i.EXTI_ClearITPendingBit)
    EXTI_GenerateSWInterrupt                 0x080006f9   Thumb Code    10  stm32f4xx_exti.o(i.EXTI_GenerateSWInterrupt)
    EXTI_GetITStatus                         0x08000709   Thumb Code    28  stm32f4xx_exti.o(i.EXTI_GetITStatus)
    EXTI_Init                                0x08000729   Thumb Code   110  stm32f4xx_exti.o(i.EXTI_Init)
    FSMC_NORSRAMCmd                          0x0800079d   Thumb Code    30  stm32f4xx_fsmc.o(i.FSMC_NORSRAMCmd)
    FSMC_NORSRAMInit                         0x080007c1   Thumb Code   202  stm32f4xx_fsmc.o(i.FSMC_NORSRAMInit)
    FSMC_NORSRAMStructInit                   0x0800088b   Thumb Code    98  stm32f4xx_fsmc.o(i.FSMC_NORSRAMStructInit)
    GPIO_Init                                0x080008ed   Thumb Code   124  stm32f4xx_gpio.o(i.GPIO_Init)
    GPIO_PinAFConfig                         0x08000969   Thumb Code    32  stm32f4xx_gpio.o(i.GPIO_PinAFConfig)
    GPIO_ReadInputDataBit                    0x08000989   Thumb Code    14  stm32f4xx_gpio.o(i.GPIO_ReadInputDataBit)
    GPIO_ResetBits                           0x08000997   Thumb Code     4  stm32f4xx_gpio.o(i.GPIO_ResetBits)
    GPIO_SetBits                             0x0800099b   Thumb Code     4  stm32f4xx_gpio.o(i.GPIO_SetBits)
    HardFault_Handler                        0x0800099f   Thumb Code     2  stm32f4xx_it.o(i.HardFault_Handler)
    LCD_DrawPicture                          0x080009a1   Thumb Code    84  lcd.o(i.LCD_DrawPicture)
    LCD_DrawPoint                            0x080009f9   Thumb Code    22  lcd.o(i.LCD_DrawPoint)
    LCD_SetCursor                            0x08000a0f   Thumb Code    70  lcd.o(i.LCD_SetCursor)
    LCD_ShowChar                             0x08000a55   Thumb Code   130  lcd.o(i.LCD_ShowChar)
    LCD_ShowCharString                       0x08000ae1   Thumb Code    66  lcd.o(i.LCD_ShowCharString)
    LCD_ShowHzString                         0x08000b25   Thumb Code   140  lcd.o(i.LCD_ShowHzString)
    LCD_ShowString                           0x08000bb5   Thumb Code    72  lcd.o(i.LCD_ShowString)
    MemManage_Handler                        0x08000bfd   Thumb Code     2  stm32f4xx_it.o(i.MemManage_Handler)
    NMI_Handler                              0x08000bff   Thumb Code     2  stm32f4xx_it.o(i.NMI_Handler)
    NVIC_Init                                0x08000c01   Thumb Code    98  misc.o(i.NVIC_Init)
    NVIC_PriorityGroupConfig                 0x08000c69   Thumb Code    10  misc.o(i.NVIC_PriorityGroupConfig)
    Pen_Int_Set                              0x08000c7d   Thumb Code    26  touch.o(i.Pen_Int_Set)
    PendSV_Handler                           0x08000c9d   Thumb Code     2  stm32f4xx_it.o(i.PendSV_Handler)
    RCC_AHB1PeriphClockCmd                   0x08000ca1   Thumb Code    22  stm32f4xx_rcc.o(i.RCC_AHB1PeriphClockCmd)
    RCC_AHB3PeriphClockCmd                   0x08000cbd   Thumb Code    22  stm32f4xx_rcc.o(i.RCC_AHB3PeriphClockCmd)
    RCC_APB1PeriphClockCmd                   0x08000cd9   Thumb Code    22  stm32f4xx_rcc.o(i.RCC_APB1PeriphClockCmd)
    RCC_APB2PeriphClockCmd                   0x08000cf5   Thumb Code    22  stm32f4xx_rcc.o(i.RCC_APB2PeriphClockCmd)
    RCC_GetClocksFreq                        0x08000d11   Thumb Code   148  stm32f4xx_rcc.o(i.RCC_GetClocksFreq)
    Read_ADS                                 0x08000db5   Thumb Code    40  touch.o(i.Read_ADS)
    Read_ADS2                                0x08000ddd   Thumb Code   134  touch.o(i.Read_ADS2)
    Read_TP_Once                             0x08000e65   Thumb Code    58  touch.o(i.Read_TP_Once)
    Refreshes_Screen                         0x08000ea5   Thumb Code    32  touch.o(i.Refreshes_Screen)
    SPI_Cmd                                  0x08000ec9   Thumb Code    24  stm32f4xx_spi.o(i.SPI_Cmd)
    SPI_I2S_GetFlagStatus                    0x08000ee1   Thumb Code    14  stm32f4xx_spi.o(i.SPI_I2S_GetFlagStatus)
    SPI_I2S_ReceiveData                      0x08000eef   Thumb Code     4  stm32f4xx_spi.o(i.SPI_I2S_ReceiveData)
    SPI_I2S_SendData                         0x08000ef3   Thumb Code     4  stm32f4xx_spi.o(i.SPI_I2S_SendData)
    SPI_Init                                 0x08000ef7   Thumb Code    56  stm32f4xx_spi.o(i.SPI_Init)
    SPI_SendByte                             0x08000f31   Thumb Code    48  touch.o(i.SPI_SendByte)
    SVC_Handler                              0x08000f65   Thumb Code     2  stm32f4xx_it.o(i.SVC_Handler)
    SYSCFG_EXTILineConfig                    0x08000f69   Thumb Code    38  stm32f4xx_syscfg.o(i.SYSCFG_EXTILineConfig)
    SysTick_Handler                          0x0800104d   Thumb Code     4  stm32f4xx_it.o(i.SysTick_Handler)
    SysTick_Init                             0x08001051   Thumb Code    58  systick.o(i.SysTick_Init)
    SystemInit                               0x08001095   Thumb Code    74  system_stm32f4xx.o(i.SystemInit)
    TimingDelay_Decrement                    0x08001165   Thumb Code    16  systick.o(i.TimingDelay_Decrement)
    Touch_Adjust                             0x08001179   Thumb Code   948  touch.o(i.Touch_Adjust)
    Touch_IRQ                                0x080016c5   Thumb Code    34  touch.o(i.Touch_IRQ)
    Touch_Init                               0x080016ed   Thumb Code    18  touch.o(i.Touch_Init)
    USART3_IRQHandler                        0x080016ff   Thumb Code     2  stm32f4xx_it.o(i.USART3_IRQHandler)
    USART6_IRQHandler                        0x08001701   Thumb Code    38  stm32f4xx_it.o(i.USART6_IRQHandler)
    USART_Cmd                                0x08001745   Thumb Code    24  stm32f4xx_usart.o(i.USART_Cmd)
    USART_GetFlagStatus                      0x0800175d   Thumb Code    14  stm32f4xx_usart.o(i.USART_GetFlagStatus)
    USART_GetITStatus                        0x0800176b   Thumb Code    64  stm32f4xx_usart.o(i.USART_GetITStatus)
    USART_ITConfig                           0x080017ab   Thumb Code    54  stm32f4xx_usart.o(i.USART_ITConfig)
    USART_Init                               0x080017e1   Thumb Code   180  stm32f4xx_usart.o(i.USART_Init)
    USART_ReceiveData                        0x0800189d   Thumb Code     8  stm32f4xx_usart.o(i.USART_ReceiveData)
    USART_SendData                           0x080018a5   Thumb Code     8  stm32f4xx_usart.o(i.USART_SendData)
    UsageFault_Handler                       0x080018ad   Thumb Code     2  stm32f4xx_it.o(i.UsageFault_Handler)
    __0printf$3                              0x080018b1   Thumb Code    22  printf3.o(i.__0printf$3)
    __1printf$3                              0x080018b1   Thumb Code     0  printf3.o(i.__0printf$3)
    __2printf                                0x080018b1   Thumb Code     0  printf3.o(i.__0printf$3)
    __hardfp_sqrt                            0x080018d1   Thumb Code   122  sqrt.o(i.__hardfp_sqrt)
    __scatterload_copy                       0x0800194b   Thumb Code    14  handlers.o(i.__scatterload_copy)
    __scatterload_null                       0x08001959   Thumb Code     2  handlers.o(i.__scatterload_null)
    __scatterload_zeroinit                   0x0800195b   Thumb Code    14  handlers.o(i.__scatterload_zeroinit)
    __set_errno                              0x08001969   Thumb Code     6  errno.o(i.__set_errno)
    fputc                                    0x08001b51   Thumb Code    30  uart.o(i.fputc)
    lcd_clear                                0x08001b75   Thumb Code    96  lcd.o(i.lcd_clear)
    lcd_init                                 0x08001bd5   Thumb Code   428  lcd.o(i.lcd_init)
    main                                     0x08001d89   Thumb Code   288  main.o(i.main)
    nvic_config                              0x08001ed1   Thumb Code    40  main.o(i.nvic_config)
    port_fsmc_init                           0x08001ef9   Thumb Code   468  lcd.o(i.port_fsmc_init)
    read_data                                0x080020dd   Thumb Code    10  lcd.o(i.read_data)
    read_reg                                 0x080020e7   Thumb Code    14  lcd.o(i.read_reg)
    uart_init                                0x080020f5   Thumb Code   152  uart.o(i.uart_init)
    write_cmd                                0x08002195   Thumb Code     8  lcd.o(i.write_cmd)
    write_data                               0x0800219d   Thumb Code     8  lcd.o(i.write_data)
    write_data_Prepare                       0x080021a5   Thumb Code     6  lcd.o(i.write_data_Prepare)
    asc2_1206                                0x080021aa   Data        1140  lcd.o(.constdata)
    asc2_1608                                0x0800261e   Data        1520  lcd.o(.constdata)
    GBHZ_16                                  0x08002c0e   Data        1428  lcd.o(.constdata)
    Hzk16                                    0x080031a2   Data       267616  lcd.o(.constdata)
    gImage_fg                                0x08044702   Data       153600  lcd.o(.constdata)
    Region$$Table$$Base                      0x08069f04   Number         0  anon$$obj.o(Region$$Table)
    Region$$Table$$Limit                     0x08069f24   Number         0  anon$$obj.o(Region$$Table)
    SystemCoreClock                          0x20000000   Data           4  system_stm32f4xx.o(.data)
    AHBPrescTable                            0x20000004   Data          16  system_stm32f4xx.o(.data)
    TimingDelay                              0x20000024   Data           4  systick.o(.data)
    DeviceCode                               0x2000002c   Data           2  lcd.o(.data)
    __stdout                                 0x20000030   Data           4  stdout.o(.data)
    Pen_Point                                0x20000038   Data          24  touch.o(.bss)
    __initial_sp                             0x20000450   Data           0  startup_stm32f4xx.o(STACK)



==============================================================================

Memory Map of the image

  Image Entry point : 0x08000189

  Load Region LR_IROM1 (Base: 0x08000000, Size: 0x00069f5c, Max: 0x00100000, ABSOLUTE)

    Execution Region ER_IROM1 (Base: 0x08000000, Size: 0x00069f24, Max: 0x00100000, ABSOLUTE)

    Base Addr    Size         Type   Attr      Idx    E Section Name        Object

    0x08000000   0x00000188   Data   RO          139    RESET               startup_stm32f4xx.o
    0x08000188   0x00000000   Code   RO         4538  * .ARM.Collect$$$$00000000  mc_w.l(entry.o)
    0x08000188   0x00000004   Code   RO         4812    .ARM.Collect$$$$00000001  mc_w.l(entry2.o)
    0x0800018c   0x00000004   Code   RO         4815    .ARM.Collect$$$$00000004  mc_w.l(entry5.o)
    0x08000190   0x00000000   Code   RO         4817    .ARM.Collect$$$$00000008  mc_w.l(entry7b.o)
    0x08000190   0x00000000   Code   RO         4819    .ARM.Collect$$$$0000000A  mc_w.l(entry8b.o)
    0x08000190   0x00000008   Code   RO         4820    .ARM.Collect$$$$0000000B  mc_w.l(entry9a.o)
    0x08000198   0x00000000   Code   RO         4822    .ARM.Collect$$$$0000000D  mc_w.l(entry10a.o)
    0x08000198   0x00000000   Code   RO         4824    .ARM.Collect$$$$0000000F  mc_w.l(entry11a.o)
    0x08000198   0x00000004   Code   RO         4813    .ARM.Collect$$$$00002712  mc_w.l(entry2.o)
    0x0800019c   0x00000024   Code   RO          140    .text               startup_stm32f4xx.o
    0x080001c0   0x0000001a   Code   RO         4802    .text               mf_w.l(dfltui.o)
    0x080001da   0x00000032   Code   RO         4804    .text               mf_w.l(dfixui.o)
    0x0800020c   0x00000026   Code   RO         4806    .text               mf_w.l(f2d.o)
    0x08000232   0x00000002   PAD
    0x08000234   0x00000030   Code   RO         4808    .text               mf_w.l(cdcmple.o)
    0x08000264   0x00000030   Code   RO         4810    .text               mf_w.l(cdrcmple.o)
    0x08000294   0x0000002c   Code   RO         4827    .text               mc_w.l(uidiv.o)
    0x080002c0   0x00000020   Code   RO         4831    .text               mc_w.l(llushr.o)
    0x080002e0   0x00000000   Code   RO         4840    .text               mc_w.l(iusefp.o)
    0x080002e0   0x000000ba   Code   RO         4841    .text               mf_w.l(depilogue.o)
    0x0800039a   0x000000a2   Code   RO         4849    .text               mf_w.l(dsqrt.o)
    0x0800043c   0x00000024   Code   RO         4853    .text               mc_w.l(init.o)
    0x08000460   0x0000001e   Code   RO         4855    .text               mc_w.l(llshl.o)
    0x0800047e   0x00000002   PAD
    0x08000480   0x0000005c   Code   RO         4414    i.ADS_Read_AD       touch.o
    0x080004dc   0x00000066   Code   RO         4415    i.ADS_Read_XY       touch.o
    0x08000542   0x00000002   Code   RO          192    i.BusFault_Handler  stm32f4xx_it.o
    0x08000544   0x00000068   Code   RO         4416    i.Convert_Pos       touch.o
    0x080005ac   0x00000002   Code   RO          193    i.DebugMon_Handler  stm32f4xx_it.o
    0x080005ae   0x00000002   PAD
    0x080005b0   0x00000014   Code   RO         4186    i.Delay             systick.o
    0x080005c4   0x00000036   Code   RO         4417    i.Draw_Big_Point    touch.o
    0x080005fa   0x000000e4   Code   RO         4246    i.Draw_Circle       lcd.o
    0x080006de   0x0000000a   Code   RO         4418    i.Drow_Touch_Point  touch.o
    0x080006e8   0x00000004   Code   RO          194    i.EXTI9_5_IRQHandler  stm32f4xx_it.o
    0x080006ec   0x0000000c   Code   RO         1321    i.EXTI_ClearITPendingBit  stm32f4xx_exti.o
    0x080006f8   0x00000010   Code   RO         1323    i.EXTI_GenerateSWInterrupt  stm32f4xx_exti.o
    0x08000708   0x00000020   Code   RO         1325    i.EXTI_GetITStatus  stm32f4xx_exti.o
    0x08000728   0x00000074   Code   RO         1326    i.EXTI_Init         stm32f4xx_exti.o
    0x0800079c   0x00000024   Code   RO         1579    i.FSMC_NORSRAMCmd   stm32f4xx_fsmc.o
    0x080007c0   0x000000ca   Code   RO         1581    i.FSMC_NORSRAMInit  stm32f4xx_fsmc.o
    0x0800088a   0x00000062   Code   RO         1582    i.FSMC_NORSRAMStructInit  stm32f4xx_fsmc.o
    0x080008ec   0x0000007c   Code   RO         1693    i.GPIO_Init         stm32f4xx_gpio.o
    0x08000968   0x00000020   Code   RO         1694    i.GPIO_PinAFConfig  stm32f4xx_gpio.o
    0x08000988   0x0000000e   Code   RO         1697    i.GPIO_ReadInputDataBit  stm32f4xx_gpio.o
    0x08000996   0x00000004   Code   RO         1700    i.GPIO_ResetBits    stm32f4xx_gpio.o
    0x0800099a   0x00000004   Code   RO         1701    i.GPIO_SetBits      stm32f4xx_gpio.o
    0x0800099e   0x00000002   Code   RO          195    i.HardFault_Handler  stm32f4xx_it.o
    0x080009a0   0x00000058   Code   RO         4248    i.LCD_DrawPicture   lcd.o
    0x080009f8   0x00000016   Code   RO         4249    i.LCD_DrawPoint     lcd.o
    0x08000a0e   0x00000046   Code   RO         4252    i.LCD_SetCursor     lcd.o
    0x08000a54   0x0000008c   Code   RO         4253    i.LCD_ShowChar      lcd.o
    0x08000ae0   0x00000042   Code   RO         4254    i.LCD_ShowCharString  lcd.o
    0x08000b22   0x00000002   PAD
    0x08000b24   0x00000090   Code   RO         4255    i.LCD_ShowHzString  lcd.o
    0x08000bb4   0x00000048   Code   RO         4256    i.LCD_ShowString    lcd.o
    0x08000bfc   0x00000002   Code   RO          196    i.MemManage_Handler  stm32f4xx_it.o
    0x08000bfe   0x00000002   Code   RO          197    i.NMI_Handler       stm32f4xx_it.o
    0x08000c00   0x00000068   Code   RO          277    i.NVIC_Init         misc.o
    0x08000c68   0x00000014   Code   RO          278    i.NVIC_PriorityGroupConfig  misc.o
    0x08000c7c   0x00000020   Code   RO         4419    i.Pen_Int_Set       touch.o
    0x08000c9c   0x00000002   Code   RO          198    i.PendSV_Handler    stm32f4xx_it.o
    0x08000c9e   0x00000002   PAD
    0x08000ca0   0x0000001c   Code   RO         2278    i.RCC_AHB1PeriphClockCmd  stm32f4xx_rcc.o
    0x08000cbc   0x0000001c   Code   RO         2284    i.RCC_AHB3PeriphClockCmd  stm32f4xx_rcc.o
    0x08000cd8   0x0000001c   Code   RO         2287    i.RCC_APB1PeriphClockCmd  stm32f4xx_rcc.o
    0x08000cf4   0x0000001c   Code   RO         2290    i.RCC_APB2PeriphClockCmd  stm32f4xx_rcc.o
    0x08000d10   0x000000a4   Code   RO         2299    i.RCC_GetClocksFreq  stm32f4xx_rcc.o
    0x08000db4   0x00000028   Code   RO         4420    i.Read_ADS          touch.o
    0x08000ddc   0x00000086   Code   RO         4421    i.Read_ADS2         touch.o
    0x08000e62   0x00000002   PAD
    0x08000e64   0x00000040   Code   RO         4422    i.Read_TP_Once      touch.o
    0x08000ea4   0x00000024   Code   RO         4423    i.Refreshes_Screen  touch.o
    0x08000ec8   0x00000018   Code   RO         3158    i.SPI_Cmd           stm32f4xx_spi.o
    0x08000ee0   0x0000000e   Code   RO         3166    i.SPI_I2S_GetFlagStatus  stm32f4xx_spi.o
    0x08000eee   0x00000004   Code   RO         3169    i.SPI_I2S_ReceiveData  stm32f4xx_spi.o
    0x08000ef2   0x00000004   Code   RO         3170    i.SPI_I2S_SendData  stm32f4xx_spi.o
    0x08000ef6   0x00000038   Code   RO         3171    i.SPI_Init          stm32f4xx_spi.o
    0x08000f2e   0x00000002   PAD
    0x08000f30   0x00000034   Code   RO         4424    i.SPI_SendByte      touch.o
    0x08000f64   0x00000002   Code   RO          199    i.SVC_Handler       stm32f4xx_it.o
    0x08000f66   0x00000002   PAD
    0x08000f68   0x0000002c   Code   RO         3315    i.SYSCFG_EXTILineConfig  stm32f4xx_syscfg.o
    0x08000f94   0x000000b8   Code   RO            2    i.SetSysClock       system_stm32f4xx.o
    0x0800104c   0x00000004   Code   RO          200    i.SysTick_Handler   stm32f4xx_it.o
    0x08001050   0x00000044   Code   RO         4187    i.SysTick_Init      systick.o
    0x08001094   0x0000005c   Code   RO            4    i.SystemInit        system_stm32f4xx.o
    0x080010f0   0x00000074   Code   RO         4425    i.TOUCH_EXTI_Configuration  touch.o
    0x08001164   0x00000014   Code   RO         4188    i.TimingDelay_Decrement  systick.o
    0x08001178   0x00000404   Code   RO         4426    i.Touch_Adjust      touch.o
    0x0800157c   0x00000148   Code   RO         4427    i.Touch_Gpio_Init   touch.o
    0x080016c4   0x00000028   Code   RO         4428    i.Touch_IRQ         touch.o
    0x080016ec   0x00000012   Code   RO         4429    i.Touch_Init        touch.o
    0x080016fe   0x00000002   Code   RO          201    i.USART3_IRQHandler  stm32f4xx_it.o
    0x08001700   0x00000044   Code   RO          202    i.USART6_IRQHandler  stm32f4xx_it.o
    0x08001744   0x00000018   Code   RO         3920    i.USART_Cmd         stm32f4xx_usart.o
    0x0800175c   0x0000000e   Code   RO         3923    i.USART_GetFlagStatus  stm32f4xx_usart.o
    0x0800176a   0x00000040   Code   RO         3924    i.USART_GetITStatus  stm32f4xx_usart.o
    0x080017aa   0x00000036   Code   RO         3926    i.USART_ITConfig    stm32f4xx_usart.o
    0x080017e0   0x000000bc   Code   RO         3927    i.USART_Init        stm32f4xx_usart.o
    0x0800189c   0x00000008   Code   RO         3934    i.USART_ReceiveData  stm32f4xx_usart.o
    0x080018a4   0x00000008   Code   RO         3937    i.USART_SendData    stm32f4xx_usart.o
    0x080018ac   0x00000002   Code   RO          203    i.UsageFault_Handler  stm32f4xx_it.o
    0x080018ae   0x00000002   PAD
    0x080018b0   0x00000020   Code   RO         4630    i.__0printf$3       mc_w.l(printf3.o)
    0x080018d0   0x0000007a   Code   RO         4526    i.__hardfp_sqrt     m_wm.l(sqrt.o)
    0x0800194a   0x0000000e   Code   RO         4861    i.__scatterload_copy  mc_w.l(handlers.o)
    0x08001958   0x00000002   Code   RO         4862    i.__scatterload_null  mc_w.l(handlers.o)
    0x0800195a   0x0000000e   Code   RO         4863    i.__scatterload_zeroinit  mc_w.l(handlers.o)
    0x08001968   0x0000000c   Code   RO         4835    i.__set_errno       mc_w.l(errno.o)
    0x08001974   0x000001b8   Code   RO         4637    i._printf_core      mc_w.l(printf3.o)
    0x08001b2c   0x00000022   Code   RO         4259    i.delay             lcd.o
    0x08001b4e   0x00000002   PAD
    0x08001b50   0x00000024   Code   RO         4221    i.fputc             uart.o
    0x08001b74   0x00000060   Code   RO         4262    i.lcd_clear         lcd.o
    0x08001bd4   0x000001b4   Code   RO         4263    i.lcd_init          lcd.o
    0x08001d88   0x00000148   Code   RO          145    i.main              main.o
    0x08001ed0   0x00000028   Code   RO          146    i.nvic_config       main.o
    0x08001ef8   0x000001e4   Code   RO         4264    i.port_fsmc_init    lcd.o
    0x080020dc   0x0000000a   Code   RO         4265    i.read_data         lcd.o
    0x080020e6   0x0000000e   Code   RO         4266    i.read_reg          lcd.o
    0x080020f4   0x000000a0   Code   RO         4222    i.uart_init         uart.o
    0x08002194   0x00000008   Code   RO         4267    i.write_cmd         lcd.o
    0x0800219c   0x00000008   Code   RO         4268    i.write_data        lcd.o
    0x080021a4   0x00000006   Code   RO         4269    i.write_data_Prepare  lcd.o
    0x080021aa   0x00042558   Data   RO         4271    .constdata          lcd.o
    0x08044702   0x00025800   Data   RO         4272    .constdata          lcd.o
    0x08069f02   0x00000002   PAD
    0x08069f04   0x00000020   Data   RO         4859    Region$$Table       anon$$obj.o


    Execution Region RW_IRAM1 (Base: 0x20000000, Size: 0x00000450, Max: 0x00020000, ABSOLUTE)

    Base Addr    Size         Type   Attr      Idx    E Section Name        Object

    0x20000000   0x00000014   Data   RW            5    .data               system_stm32f4xx.o
    0x20000014   0x00000010   Data   RW         2322    .data               stm32f4xx_rcc.o
    0x20000024   0x00000004   Data   RW         4189    .data               systick.o
    0x20000028   0x00000006   Data   RW         4273    .data               lcd.o
    0x2000002e   0x00000002   PAD
    0x20000030   0x00000004   Data   RW         4826    .data               mc_w.l(stdout.o)
    0x20000034   0x00000004   Data   RW         4836    .data               mc_w.l(errno.o)
    0x20000038   0x00000018   Zero   RW         4430    .bss                touch.o
    0x20000050   0x00000400   Zero   RW          137    STACK               startup_stm32f4xx.o


==============================================================================

Image component sizes


      Code (inc. data)   RO Data    RW Data    ZI Data      Debug   Object Name

      1926         42     425304          6          0      15162   lcd.o
       368         40          0          0          0       4321   main.o
       124         16          0          0          0       2003   misc.o
        36          8        392          0       1024        976   startup_stm32f4xx.o
       176         22          0          0          0       3495   stm32f4xx_exti.o
       336          6          0          0          0       3094   stm32f4xx_fsmc.o
       178          0          0          0          0       4347   stm32f4xx_gpio.o
        94         30          0          0          0       6555   stm32f4xx_it.o
       276         40          0         16          0       6088   stm32f4xx_rcc.o
       102          0          0          0          0       4362   stm32f4xx_spi.o
        44          6          0          0          0        796   stm32f4xx_syscfg.o
       360          8          0          0          0       6841   stm32f4xx_usart.o
       276         34          0         20          0     260677   system_stm32f4xx.o
       108         18          0          4          0      20820   systick.o
      2250        154          0          0         24      13088   touch.o
       196         14          0          0          0       1340   uart.o

    ----------------------------------------------------------------------
      6866        438     425730         48       1048     353965   Object Totals
         0          0         32          0          0          0   (incl. Generated)
        16          0          2          2          0          0   (incl. Padding)

    ----------------------------------------------------------------------

      Code (inc. data)   RO Data    RW Data    ZI Data      Debug   Library Member Name

       122          0          0          0          0        148   sqrt.o
         0          0          0          0          0          0   entry.o
         0          0          0          0          0          0   entry10a.o
         0          0          0          0          0          0   entry11a.o
         8          4          0          0          0          0   entry2.o
         4          0          0          0          0          0   entry5.o
         0          0          0          0          0          0   entry7b.o
         0          0          0          0          0          0   entry8b.o
         8          4          0          0          0          0   entry9a.o
        12          6          0          4          0         68   errno.o
        30          0          0          0          0          0   handlers.o
        36          8          0          0          0         68   init.o
         0          0          0          0          0          0   iusefp.o
        30          0          0          0          0         68   llshl.o
        32          0          0          0          0         68   llushr.o
       472         14          0          0          0        184   printf3.o
         0          0          0          4          0          0   stdout.o
        44          0          0          0          0         80   uidiv.o
        48          0          0          0          0         68   cdcmple.o
        48          0          0          0          0         68   cdrcmple.o
       186          0          0          0          0        176   depilogue.o
        50          0          0          0          0         76   dfixui.o
        26          0          0          0          0         76   dfltui.o
       162          0          0          0          0        100   dsqrt.o
        38          0          0          0          0         68   f2d.o

    ----------------------------------------------------------------------
      1360         36          0          8          0       1316   Library Totals
         4          0          0          0          0          0   (incl. Padding)

    ----------------------------------------------------------------------

      Code (inc. data)   RO Data    RW Data    ZI Data      Debug   Library Name

       122          0          0          0          0        148   m_wm.l
       676         36          0          8          0        536   mc_w.l
       558          0          0          0          0        632   mf_w.l

    ----------------------------------------------------------------------
      1360         36          0          8          0       1316   Library Totals

    ----------------------------------------------------------------------

==============================================================================


      Code (inc. data)   RO Data    RW Data    ZI Data      Debug   

      8226        474     425730         56       1048     346965   Grand Totals
      8226        474     425730         56       1048     346965   ELF Image Totals
      8226        474     425730         56          0          0   ROM Totals

==============================================================================

    Total RO  Size (Code + RO Data)               433956 ( 423.79kB)
    Total RW  Size (RW Data + ZI Data)              1104 (   1.08kB)
    Total ROM Size (Code + RO Data + RW Data)     434012 ( 423.84kB)

==============================================================================

