ARM Linker, 5.03 [Build 76] [MDK-ARM Standard]

==============================================================================

Section Cross References

    system_stm32f4xx.o(i.SystemCoreClockUpdate) refers to system_stm32f4xx.o(.data) for SystemCoreClock
    system_stm32f4xx.o(i.SystemInit) refers to system_stm32f4xx.o(i.SetSysClock) for SetSysClock
    startup_stm32f4xx.o(RESET) refers to startup_stm32f4xx.o(STACK) for __initial_sp
    startup_stm32f4xx.o(RESET) refers to startup_stm32f4xx.o(.text) for Reset_Handler
    startup_stm32f4xx.o(RESET) refers to stm32f4xx_it.o(i.NMI_Handler) for NMI_Handler
    startup_stm32f4xx.o(RESET) refers to stm32f4xx_it.o(i.HardFault_Handler) for HardFault_Handler
    startup_stm32f4xx.o(RESET) refers to stm32f4xx_it.o(i.MemManage_Handler) for MemManage_Handler
    startup_stm32f4xx.o(RESET) refers to stm32f4xx_it.o(i.BusFault_Handler) for BusFault_Handler
    startup_stm32f4xx.o(RESET) refers to stm32f4xx_it.o(i.UsageFault_Handler) for UsageFault_Handler
    startup_stm32f4xx.o(RESET) refers to stm32f4xx_it.o(i.SVC_Handler) for SVC_Handler
    startup_stm32f4xx.o(RESET) refers to stm32f4xx_it.o(i.DebugMon_Handler) for DebugMon_Handler
    startup_stm32f4xx.o(RESET) refers to stm32f4xx_it.o(i.PendSV_Handler) for PendSV_Handler
    startup_stm32f4xx.o(RESET) refers to stm32f4xx_it.o(i.SysTick_Handler) for SysTick_Handler
    startup_stm32f4xx.o(RESET) refers to stm32f4xx_it.o(i.USART3_IRQHandler) for USART3_IRQHandler
    startup_stm32f4xx.o(RESET) refers to stm32f4xx_it.o(i.USART6_IRQHandler) for USART6_IRQHandler
    startup_stm32f4xx.o(.text) refers to system_stm32f4xx.o(i.SystemInit) for SystemInit
    startup_stm32f4xx.o(.text) refers to entry.o(.ARM.Collect$$$$00000000) for __main
    main.o(i.GAS_IN) refers to stm32f4xx_rcc.o(i.RCC_AHB1PeriphClockCmd) for RCC_AHB1PeriphClockCmd
==============================================================================

Removing Unused input sections from the image.

    Removing system_stm32f4xx.o(.rev16_text), (4 bytes).
    Removing system_stm32f4xx.o(.revsh_text), (4 bytes).
    Removing system_stm32f4xx.o(i.SystemCoreClockUpdate), (192 bytes).
    Removing startup_stm32f4xx.o(HEAP), (512 bytes).
    Removing main.o(.rev16_text), (4 bytes).
    Removing main.o(.revsh_text), (4 bytes).
    Removing main.o(i.LEDTest), (180 bytes).
    Removing main.o(i.delay_1ms), (28 bytes).
    Removing stm32f4xx_it.o(.rev16_text), (4 bytes).
    Removing stm32f4xx_it.o(.revsh_text), (4 bytes).
    Removing misc.o(.rev16_text), (4 bytes).
    Removing misc.o(.revsh_text), (4 bytes).
    Removing misc.o(i.NVIC_SetVectorTable), (20 bytes).
    Removing misc.o(i.NVIC_SystemLPConfig), (32 bytes).
    Removing misc.o(i.SysTick_CLKSourceConfig), (40 bytes).
    Removing stm32f4xx_adc.o(.rev16_text), (4 bytes).
    Removing stm32f4xx_adc.o(.revsh_text), (4 bytes).
    Removing stm32f4xx_adc.o(i.ADC_AnalogWatchdogCmd), (20 bytes).
==============================================================================

Image Symbol Table

    Local Symbols

    Symbol Name                              Value     Ov Type        Size  Object(Section)

    ../clib/../cmprslib/zerorunl2.c          0x00000000   Number         0  __dczerorl2.o ABSOLUTE
    ../clib/microlib/division.c              0x00000000   Number         0  uidiv.o ABSOLUTE
    ../clib/microlib/division.c              0x00000000   Number         0  uldiv.o ABSOLUTE
    ../clib/microlib/init/entry.s            0x00000000   Number         0  entry5.o ABSOLUTE
    ../clib/microlib/init/entry.s            0x00000000   Number         0  entry9a.o ABSOLUTE
    ../clib/microlib/init/entry.s            0x00000000   Number         0  entry10b.o ABSOLUTE
    ../clib/microlib/init/entry.s            0x00000000   Number         0  entry11a.o ABSOLUTE
    ../clib/microlib/init/entry.s            0x00000000   Number         0  entry2.o ABSOLUTE
    ../clib/microlib/init/entry.s            0x00000000   Number         0  entry9b.o ABSOLUTE
    ../clib/microlib/init/entry.s            0x00000000   Number         0  entry10a.o ABSOLUTE
    ../clib/microlib/init/entry.s            0x00000000   Number         0  entry11b.o ABSOLUTE
    ../clib/microlib/init/entry.s            0x00000000   Number         0  entry8a.o ABSOLUTE
    ../clib/microlib/init/entry.s            0x00000000   Number         0  entry7b.o ABSOLUTE
    ../clib/microlib/init/entry.s            0x00000000   Number         0  entry7a.o ABSOLUTE
    ../clib/microlib/init/entry.s            0x00000000   Number         0  entry8b.o ABSOLUTE
    ../clib/microlib/init/entry.s            0x00000000   Number         0  entry.o ABSOLUTE
    ../clib/microlib/longlong.c              0x00000000   Number         0  llsshr.o ABSOLUTE
    ../clib/microlib/longlong.c              0x00000000   Number         0  llushr.o ABSOLUTE
    ../clib/microlib/longlong.c              0x00000000   Number         0  llshl.o ABSOLUTE
    ../clib/microlib/printf/printf.c         0x00000000   Number         0  printf6.o ABSOLUTE
    ../clib/microlib/printf/printf.c         0x00000000   Number         0  printf5.o ABSOLUTE
    ../clib/microlib/printf/printf.c         0x00000000   Number         0  printf1.o ABSOLUTE
    ../clib/microlib/printf/printf.c         0x00000000   Number         0  printfa.o ABSOLUTE
    ../clib/microlib/printf/printf.c         0x00000000   Number         0  printf2.o ABSOLUTE
    ../clib/microlib/printf/printf.c         0x00000000   Number         0  printf8.o ABSOLUTE
    ../clib/microlib/printf/printf.c         0x00000000   Number         0  printf3.o ABSOLUTE
    ../clib/microlib/printf/printf.c         0x00000000   Number         0  printf4.o ABSOLUTE
    ../clib/microlib/printf/printf.c         0x00000000   Number         0  printf7.o ABSOLUTE
    ../clib/microlib/printf/printf.c         0x00000000   Number         0  printf0.o ABSOLUTE
    ../clib/microlib/printf/printf.c         0x00000000   Number         0  printfb.o ABSOLUTE
    ../clib/microlib/printf/stubs.s          0x00000000   Number         0  stubs.o ABSOLUTE
    ../clib/microlib/stdio/streams.c         0x00000000   Number         0  stdout.o ABSOLUTE
    ../clib/microlib/string/memcpy.c         0x00000000   Number         0  memcpya.o ABSOLUTE
    ../clib/microlib/string/memcpy.c         0x00000000   Number         0  memcpyb.o ABSOLUTE
    ../clib/microlib/stubs.s                 0x00000000   Number         0  iusefp.o ABSOLUTE
    ../fplib/microlib/fpadd.c                0x00000000   Number         0  dadd.o ABSOLUTE
    ../fplib/microlib/fpdiv.c                0x00000000   Number         0  ddiv.o ABSOLUTE
    ../fplib/microlib/fpepilogue.c           0x00000000   Number         0  depilogue.o ABSOLUTE
    ../fplib/microlib/fpfix.c                0x00000000   Number         0  dfixul.o ABSOLUTE
    ../fplib/microlib/fpmul.c                0x00000000   Number         0  dmul.o ABSOLUTE
    ..\BaseDrive\Gpio.c                      0x00000000   Number         0  gpio.o ABSOLUTE
    ..\BaseDrive\SysTick.c                   0x00000000   Number         0  systick.o ABSOLUTE
    ..\BaseDrive\Uart.c                      0x00000000   Number         0  uart.o ABSOLUTE
    ..\ExternalDrive\BMP085\BMP085.C         0x00000000   Number         0  bmp085.o ABSOLUTE
    ..\ExternalDrive\DTH11\DTH11.c           0x00000000   Number         0  dth11.o ABSOLUTE
    ..\ExternalDrive\TM1638\tm1638.c         0x00000000   Number         0  tm1638.o ABSOLUTE
    ..\ExternalDrive\delay\delay.c           0x00000000   Number         0  delay.o ABSOLUTE
    ..\ExternalDrive\lcd\lcd.c               0x00000000   Number         0  lcd.o ABSOLUTE
    ..\Libraries\CMSIS\Device\ST\STM32F4xx\Source\Templates\arm\startup_stm32f4xx.s 0x00000000   Number         0  startup_stm32f4xx.o ABSOLUTE
    ..\Libraries\CMSIS\Device\ST\STM32F4xx\Source\Templates\system_stm32f4xx.c 0x00000000   Number         0  system_stm32f4xx.o ABSOLUTE
    ..\Libraries\STM32F4xx_StdPeriph_Driver\src\misc.c 0x00000000   Number         0  misc.o ABSOLUTE
    ..\Libraries\STM32F4xx_StdPeriph_Driver\src\stm32f4xx_adc.c 0x00000000   Number         0  stm32f4xx_adc.o ABSOLUTE
    ..\Libraries\STM32F4xx_StdPeriph_Driver\src\stm32f4xx_can.c 0x00000000   Number         0  stm32f4xx_can.o ABSOLUTE
    ..\Libraries\STM32F4xx_StdPeriph_Driver\src\stm32f4xx_crc.c 0x00000000   Number         0  stm32f4xx_crc.o ABSOLUTE
    ..\Libraries\STM32F4xx_StdPeriph_Driver\src\stm32f4xx_cryp.c 0x00000000   Number         0  stm32f4xx_cryp.o ABSOLUTE
    ..\Libraries\STM32F4xx_StdPeriph_Driver\src\stm32f4xx_cryp_aes.c 0x00000000   Number         0  stm32f4xx_cryp_aes.o ABSOLUTE
    ..\Libraries\STM32F4xx_StdPeriph_Driver\src\stm32f4xx_cryp_des.c 0x00000000   Number         0  stm32f4xx_cryp_des.o ABSOLUTE
    ..\Libraries\STM32F4xx_StdPeriph_Driver\src\stm32f4xx_cryp_tdes.c 0x00000000   Number         0  stm32f4xx_cryp_tdes.o ABSOLUTE
    ..\Libraries\STM32F4xx_StdPeriph_Driver\src\stm32f4xx_dac.c 0x00000000   Number         0  stm32f4xx_dac.o ABSOLUTE
    ..\Libraries\STM32F4xx_StdPeriph_Driver\src\stm32f4xx_dbgmcu.c 0x00000000   Number         0  stm32f4xx_dbgmcu.o ABSOLUTE
    ..\Libraries\STM32F4xx_StdPeriph_Driver\src\stm32f4xx_dcmi.c 0x00000000   Number         0  stm32f4xx_dcmi.o ABSOLUTE
    ..\Libraries\STM32F4xx_StdPeriph_Driver\src\stm32f4xx_dma.c 0x00000000   Number         0  stm32f4xx_dma.o ABSOLUTE
    ..\Libraries\STM32F4xx_StdPeriph_Driver\src\stm32f4xx_exti.c 0x00000000   Number         0  stm32f4xx_exti.o ABSOLUTE
    ..\Libraries\STM32F4xx_StdPeriph_Driver\src\stm32f4xx_flash.c 0x00000000   Number         0  stm32f4xx_flash.o ABSOLUTE
    ..\Libraries\STM32F4xx_StdPeriph_Driver\src\stm32f4xx_fsmc.c 0x00000000   Number         0  stm32f4xx_fsmc.o ABSOLUTE
    ..\Libraries\STM32F4xx_StdPeriph_Driver\src\stm32f4xx_gpio.c 0x00000000   Number         0  stm32f4xx_gpio.o ABSOLUTE
    ..\Libraries\STM32F4xx_StdPeriph_Driver\src\stm32f4xx_hash.c 0x00000000   Number         0  stm32f4xx_hash.o ABSOLUTE
    ..\Libraries\STM32F4xx_StdPeriph_Driver\src\stm32f4xx_hash_md5.c 0x00000000   Number         0  stm32f4xx_hash_md5.o ABSOLUTE
    ..\Libraries\STM32F4xx_StdPeriph_Driver\src\stm32f4xx_hash_sha1.c 0x00000000   Number         0  stm32f4xx_hash_sha1.o ABSOLUTE
    ..\Libraries\STM32F4xx_StdPeriph_Driver\src\stm32f4xx_i2c.c 0x00000000   Number         0  stm32f4xx_i2c.o ABSOLUTE
    ..\Libraries\STM32F4xx_StdPeriph_Driver\src\stm32f4xx_iwdg.c 0x00000000   Number         0  stm32f4xx_iwdg.o ABSOLUTE
    ..\Libraries\STM32F4xx_StdPeriph_Driver\src\stm32f4xx_pwr.c 0x00000000   Number         0  stm32f4xx_pwr.o ABSOLUTE
    ..\Libraries\STM32F4xx_StdPeriph_Driver\src\stm32f4xx_rcc.c 0x00000000   Number         0  stm32f4xx_rcc.o ABSOLUTE
    ..\Libraries\STM32F4xx_StdPeriph_Driver\src\stm32f4xx_rng.c 0x00000000   Number         0  stm32f4xx_rng.o ABSOLUTE
    ..\Libraries\STM32F4xx_StdPeriph_Driver\src\stm32f4xx_rtc.c 0x00000000   Number         0  stm32f4xx_rtc.o ABSOLUTE
    ..\Libraries\STM32F4xx_StdPeriph_Driver\src\stm32f4xx_sdio.c 0x00000000   Number         0  stm32f4xx_sdio.o ABSOLUTE
    ..\Libraries\STM32F4xx_StdPeriph_Driver\src\stm32f4xx_spi.c 0x00000000   Number         0  stm32f4xx_spi.o ABSOLUTE
    ..\Libraries\STM32F4xx_StdPeriph_Driver\src\stm32f4xx_syscfg.c 0x00000000   Number         0  stm32f4xx_syscfg.o ABSOLUTE
    ..\Libraries\STM32F4xx_StdPeriph_Driver\src\stm32f4xx_tim.c 0x00000000   Number         0  stm32f4xx_tim.o ABSOLUTE
    ..\Libraries\STM32F4xx_StdPeriph_Driver\src\stm32f4xx_usart.c 0x00000000   Number         0  stm32f4xx_usart.o ABSOLUTE
    ..\Libraries\STM32F4xx_StdPeriph_Driver\src\stm32f4xx_wwdg.c 0x00000000   Number         0  stm32f4xx_wwdg.o ABSOLUTE
    ..\User\main.c                           0x00000000   Number         0  main.o ABSOLUTE
    ..\User\stm32f4xx_it.c                   0x00000000   Number         0  stm32f4xx_it.o ABSOLUTE
    ..\\BaseDrive\\Gpio.c                    0x00000000   Number         0  gpio.o ABSOLUTE
    ..\\BaseDrive\\SysTick.c                 0x00000000   Number         0  systick.o ABSOLUTE
    ..\\BaseDrive\\Uart.c                    0x00000000   Number         0  uart.o ABSOLUTE
    ..\\ExternalDrive\\BMP085\\BMP085.C      0x00000000   Number         0  bmp085.o ABSOLUTE
    ..\\ExternalDrive\\DTH11\\DTH11.c        0x00000000   Number         0  dth11.o ABSOLUTE
    ..\\ExternalDrive\\TM1638\\tm1638.c      0x00000000   Number         0  tm1638.o ABSOLUTE
    ..\\ExternalDrive\\delay\\delay.c        0x00000000   Number         0  delay.o ABSOLUTE
    ..\\ExternalDrive\\lcd\\lcd.c            0x00000000   Number         0  lcd.o ABSOLUTE
    ..\\Libraries\\CMSIS\\Device\\ST\\STM32F4xx\\Source\\Templates\\system_stm32f4xx.c 0x00000000   Number         0  system_stm32f4xx.o ABSOLUTE
    ..\\Libraries\\STM32F4xx_StdPeriph_Driver\\src\\misc.c 0x00000000   Number         0  misc.o ABSOLUTE
    ..\\Libraries\\STM32F4xx_StdPeriph_Driver\\src\\stm32f4xx_adc.c 0x00000000   Number         0  stm32f4xx_adc.o ABSOLUTE
    ..\\Libraries\\STM32F4xx_StdPeriph_Driver\\src\\stm32f4xx_can.c 0x00000000   Number         0  stm32f4xx_can.o ABSOLUTE
    ..\\Libraries\\STM32F4xx_StdPeriph_Driver\\src\\stm32f4xx_crc.c 0x00000000   Number         0  stm32f4xx_crc.o ABSOLUTE
    ..\\Libraries\\STM32F4xx_StdPeriph_Driver\\src\\stm32f4xx_cryp.c 0x00000000   Number         0  stm32f4xx_cryp.o ABSOLUTE
    ..\\Libraries\\STM32F4xx_StdPeriph_Driver\\src\\stm32f4xx_cryp_aes.c 0x00000000   Number         0  stm32f4xx_cryp_aes.o ABSOLUTE
    ..\\Libraries\\STM32F4xx_StdPeriph_Driver\\src\\stm32f4xx_cryp_des.c 0x00000000   Number         0  stm32f4xx_cryp_des.o ABSOLUTE
    ..\\Libraries\\STM32F4xx_StdPeriph_Driver\\src\\stm32f4xx_cryp_tdes.c 0x00000000   Number         0  stm32f4xx_cryp_tdes.o ABSOLUTE
    ..\\Libraries\\STM32F4xx_StdPeriph_Driver\\src\\stm32f4xx_dac.c 0x00000000   Number         0  stm32f4xx_dac.o ABSOLUTE
    ..\\Libraries\\STM32F4xx_StdPeriph_Driver\\src\\stm32f4xx_dbgmcu.c 0x00000000   Number         0  stm32f4xx_dbgmcu.o ABSOLUTE
    ..\\Libraries\\STM32F4xx_StdPeriph_Driver\\src\\stm32f4xx_dcmi.c 0x00000000   Number         0  stm32f4xx_dcmi.o ABSOLUTE
    ..\\Libraries\\STM32F4xx_StdPeriph_Driver\\src\\stm32f4xx_dma.c 0x00000000   Number         0  stm32f4xx_dma.o ABSOLUTE
    ..\\Libraries\\STM32F4xx_StdPeriph_Driver\\src\\stm32f4xx_exti.c 0x00000000   Number         0  stm32f4xx_exti.o ABSOLUTE
    ..\\Libraries\\STM32F4xx_StdPeriph_Driver\\src\\stm32f4xx_flash.c 0x00000000   Number         0  stm32f4xx_flash.o ABSOLUTE
    ..\\Libraries\\STM32F4xx_StdPeriph_Driver\\src\\stm32f4xx_fsmc.c 0x00000000   Number         0  stm32f4xx_fsmc.o ABSOLUTE
    ..\\Libraries\\STM32F4xx_StdPeriph_Driver\\src\\stm32f4xx_gpio.c 0x00000000   Number         0  stm32f4xx_gpio.o ABSOLUTE
    ..\\Libraries\\STM32F4xx_StdPeriph_Driver\\src\\stm32f4xx_hash.c 0x00000000   Number         0  stm32f4xx_hash.o ABSOLUTE
    ..\\Libraries\\STM32F4xx_StdPeriph_Driver\\src\\stm32f4xx_hash_md5.c 0x00000000   Number         0  stm32f4xx_hash_md5.o ABSOLUTE
    ..\\Libraries\\STM32F4xx_StdPeriph_Driver\\src\\stm32f4xx_hash_sha1.c 0x00000000   Number         0  stm32f4xx_hash_sha1.o ABSOLUTE
    ..\\Libraries\\STM32F4xx_StdPeriph_Driver\\src\\stm32f4xx_i2c.c 0x00000000   Number         0  stm32f4xx_i2c.o ABSOLUTE
    ..\\Libraries\\STM32F4xx_StdPeriph_Driver\\src\\stm32f4xx_iwdg.c 0x00000000   Number         0  stm32f4xx_iwdg.o ABSOLUTE
    ..\\Libraries\\STM32F4xx_StdPeriph_Driver\\src\\stm32f4xx_pwr.c 0x00000000   Number         0  stm32f4xx_pwr.o ABSOLUTE
    ..\\Libraries\\STM32F4xx_StdPeriph_Driver\\src\\stm32f4xx_rcc.c 0x00000000   Number         0  stm32f4xx_rcc.o ABSOLUTE
    ..\\Libraries\\STM32F4xx_StdPeriph_Driver\\src\\stm32f4xx_rng.c 0x00000000   Number         0  stm32f4xx_rng.o ABSOLUTE
    ..\\Libraries\\STM32F4xx_StdPeriph_Driver\\src\\stm32f4xx_rtc.c 0x00000000   Number         0  stm32f4xx_rtc.o ABSOLUTE
    ..\\Libraries\\STM32F4xx_StdPeriph_Driver\\src\\stm32f4xx_sdio.c 0x00000000   Number         0  stm32f4xx_sdio.o ABSOLUTE
    ..\\Libraries\\STM32F4xx_StdPeriph_Driver\\src\\stm32f4xx_spi.c 0x00000000   Number         0  stm32f4xx_spi.o ABSOLUTE
    ..\\Libraries\\STM32F4xx_StdPeriph_Driver\\src\\stm32f4xx_syscfg.c 0x00000000   Number         0  stm32f4xx_syscfg.o ABSOLUTE
    ..\\Libraries\\STM32F4xx_StdPeriph_Driver\\src\\stm32f4xx_tim.c 0x00000000   Number         0  stm32f4xx_tim.o ABSOLUTE
    ..\\Libraries\\STM32F4xx_StdPeriph_Driver\\src\\stm32f4xx_usart.c 0x00000000   Number         0  stm32f4xx_usart.o ABSOLUTE
    ..\\Libraries\\STM32F4xx_StdPeriph_Driver\\src\\stm32f4xx_wwdg.c 0x00000000   Number         0  stm32f4xx_wwdg.o ABSOLUTE
    ..\\User\\main.c                         0x00000000   Number         0  main.o ABSOLUTE
    ..\\User\\stm32f4xx_it.c                 0x00000000   Number         0  stm32f4xx_it.o ABSOLUTE
    cdrcmple.s                               0x00000000   Number         0  cdrcmple.o ABSOLUTE
    dc.s                                     0x00000000   Number         0  dc.o ABSOLUTE
    handlers.s                               0x00000000   Number         0  handlers.o ABSOLUTE
    init.s                                   0x00000000   Number         0  init.o ABSOLUTE
    RESET                                    0x08000000   Section      392  startup_stm32f4xx.o(RESET)
    .ARM.Collect$$$$00000000                 0x08000188   Section        0  entry.o(.ARM.Collect$$$$00000000)
    .ARM.Collect$$$$00000001                 0x08000188   Section        4  entry2.o(.ARM.Collect$$$$00000001)
    .ARM.Collect$$$$00000004                 0x0800018c   Section        4  entry5.o(.ARM.Collect$$$$00000004)
    .ARM.Collect$$$$00000008                 0x08000190   Section        0  entry7b.o(.ARM.Collect$$$$00000008)
    .ARM.Collect$$$$0000000A                 0x08000190   Section        0  entry8b.o(.ARM.Collect$$$$0000000A)
    .ARM.Collect$$$$0000000B                 0x08000190   Section        8  entry9a.o(.ARM.Collect$$$$0000000B)
    .ARM.Collect$$$$0000000D                 0x08000198   Section        0  entry10a.o(.ARM.Collect$$$$0000000D)
    .ARM.Collect$$$$0000000F                 0x08000198   Section        0  entry11a.o(.ARM.Collect$$$$0000000F)
    .ARM.Collect$$$$00002712                 0x08000198   Section        4  entry2.o(.ARM.Collect$$$$00002712)
    __lit__00000000                          0x08000198   Data           4  entry2.o(.ARM.Collect$$$$00002712)
    .text                                    0x0800019c   Section       36  startup_stm32f4xx.o(.text)
    $v0                                      0x0800019c   Number         0  startup_stm32f4xx.o(.text)
    .text                                    0x080001c0   Section        0  memcpya.o(.text)
    .text                                    0x080001e4   Section        0  uidiv.o(.text)
    .text                                    0x08000210   Section       36  init.o(.text)
    .text                                    0x08000234   Section        0  __dczerorl2.o(.text)
    i.ABCD_port                              0x08000290   Section        0  gpio.o(i.ABCD_port)
    i.BusFault_Handler                       0x08000314   Section        0  stm32f4xx_it.o(i.BusFault_Handler)
    i.DIO_IN                                 0x08000318   Section        0  tm1638.o(i.DIO_IN)
    i.DIO_OUT                                0x08000340   Section        0  tm1638.o(i.DIO_OUT)
    i.DPGpio_Init                            0x08000380   Section        0  gpio.o(i.DPGpio_Init)
    i.DTH11_COM                              0x080003f8   Section        0  dth11.o(i.DTH11_COM)
    i.DTH11_Delay                            0x08000470   Section        0  dth11.o(i.DTH11_Delay)
    i.DTH11_IN                               0x08000488   Section        0  dth11.o(i.DTH11_IN)
    i.DTH11_OUT                              0x080004a4   Section        0  dth11.o(i.DTH11_OUT)
    i.DTH11_RH                               0x080004c4   Section        0  dth11.o(i.DTH11_RH)
    i.DUJIN_port                             0x080005f8   Section        0  gpio.o(i.DUJIN_port)
    i.DebugMon_Handler                       0x08000678   Section        0  stm32f4xx_it.o(i.DebugMon_Handler)
    i.Delay                                  0x0800067c   Section        0  systick.o(i.Delay)
    i.DuojiGpio_Init                         0x08000694   Section        0  gpio.o(i.DuojiGpio_Init)
    i.FSMC_NORSRAMCmd                        0x0800070c   Section        0  stm32f4xx_fsmc.o(i.FSMC_NORSRAMCmd)
    i.FSMC_NORSRAMInit                       0x08000740   Section        0  stm32f4xx_fsmc.o(i.FSMC_NORSRAMInit)
    i.FSMC_NORSRAMStructInit                 0x08000820   Section        0  stm32f4xx_fsmc.o(i.FSMC_NORSRAMStructInit)
    i.GAS_IN                                 0x08000894   Section        0  main.o(i.GAS_IN)
    i.GPIO_Init                              0x080008bc   Section        0  stm32f4xx_gpio.o(i.GPIO_Init)
    i.GPIO_PinAFConfig                       0x0800094c   Section        0  stm32f4xx_gpio.o(i.GPIO_PinAFConfig)
    i.GPIO_ReadInputDataBit                  0x08000992   Section        0  stm32f4xx_gpio.o(i.GPIO_ReadInputDataBit)
    i.GPIO_ResetBits                         0x080009a4   Section        0  stm32f4xx_gpio.o(i.GPIO_ResetBits)
    i.GPIO_SetBits                           0x080009a8   Section        0  stm32f4xx_gpio.o(i.GPIO_SetBits)
    i.GPIO_WriteBit                          0x080009ac   Section        0  stm32f4xx_gpio.o(i.GPIO_WriteBit)
    i.HUMEN_IN                               0x080009b8   Section        0  main.o(i.HUMEN_IN)
    i.HardFault_Handler                      0x080009e4   Section        0  stm32f4xx_it.o(i.HardFault_Handler)
    i.KEYGpio_Init                           0x080009e8   Section        0  gpio.o(i.KEYGpio_Init)
    i.LCD_DrawLine                           0x08000a38   Section        0  lcd.o(i.LCD_DrawLine)
    i.LCD_DrawPoint                          0x08000afa   Section        0  lcd.o(i.LCD_DrawPoint)
    i.LCD_DrawRectangle                      0x08000b16   Section        0  lcd.o(i.LCD_DrawRectangle)
    i.LCD_SetCursor                          0x08000b60   Section        0  lcd.o(i.LCD_SetCursor)
    i.LCD_ShowChar                           0x08000ba4   Section        0  lcd.o(i.LCD_ShowChar)
    i.LCD_ShowCharString                     0x08000c48   Section        0  lcd.o(i.LCD_ShowCharString)
    i.LCD_ShowHzString                       0x08000c90   Section        0  lcd.o(i.LCD_ShowHzString)
    i.LCD_ShowString                         0x08000d4c   Section        0  lcd.o(i.LCD_ShowString)
    i.LEDGpio_Init                           0x08000d9c   Section        0  gpio.o(i.LEDGpio_Init)
    i.MemManage_Handler                      0x08000e14   Section        0  stm32f4xx_it.o(i.MemManage_Handler)
    i.Menu_DCMOTORTest                       0x08000e18   Section        0  main.o(i.Menu_DCMOTORTest)
    i.Menu_RFIDTest                          0x08000e9c   Section        0  main.o(i.Menu_RFIDTest)
    i.NMI_Handler                            0x08000ea4   Section        0  stm32f4xx_it.o(i.NMI_Handler)
    i.NVIC_Init                              0x08000ea8   Section        0  misc.o(i.NVIC_Init)
    i.NVIC_PriorityGroupConfig               0x08000f20   Section        0  misc.o(i.NVIC_PriorityGroupConfig)
    i.PendSV_Handler                         0x08000f34   Section        0  stm32f4xx_it.o(i.PendSV_Handler)
    i.RCC_AHB1PeriphClockCmd                 0x08000f38   Section        0  stm32f4xx_rcc.o(i.RCC_AHB1PeriphClockCmd)
    i.RCC_AHB3PeriphClockCmd                 0x08000f58   Section        0  stm32f4xx_rcc.o(i.RCC_AHB3PeriphClockCmd)
    i.RCC_APB1PeriphClockCmd                 0x08000f78   Section        0  stm32f4xx_rcc.o(i.RCC_APB1PeriphClockCmd)
    i.RCC_APB2PeriphClockCmd                 0x08000f98   Section        0  stm32f4xx_rcc.o(i.RCC_APB2PeriphClockCmd)
    i.RCC_GetClocksFreq                      0x08000fb8   Section        0  stm32f4xx_rcc.o(i.RCC_GetClocksFreq)
    i.RELAYGpio_Init                         0x080010a0   Section        0  gpio.o(i.RELAYGpio_Init)
    i.RELAYTest                              0x08001118   Section        0  main.o(i.RELAYTest)
    i.Read_key                               0x080011ac   Section        0  tm1638.o(i.Read_key)
    i.STEP_delay_1ms                         0x080012c4   Section        0  main.o(i.STEP_delay_1ms)
    i.SVC_Handler                            0x080012ee   Section        0  stm32f4xx_it.o(i.SVC_Handler)
    i.Send_Com                               0x080012f0   Section        0  uart.o(i.Send_Com)
    i.Send_DTH11                             0x080013c8   Section        0  dth11.o(i.Send_DTH11)
    i.SetSysClock                            0x08001508   Section        0  system_stm32f4xx.o(i.SetSysClock)
    SetSysClock                              0x08001509   Thumb Code   218  system_stm32f4xx.o(i.SetSysClock)
    i.SysTick_Handler                        0x080015f4   Section        0  stm32f4xx_it.o(i.SysTick_Handler)
    i.SysTick_Init                           0x080015fc   Section        0  systick.o(i.SysTick_Init)
    i.SystemInit                             0x08001664   Section        0  system_stm32f4xx.o(i.SystemInit)
    i.TM1638Test                             0x080016cc   Section        0  main.o(i.TM1638Test)
    i.TM1638_GPIO_Configuration              0x08001bbc   Section        0  tm1638.o(i.TM1638_GPIO_Configuration)
    i.TM1638_Read                            0x08001c34   Section        0  tm1638.o(i.TM1638_Read)
    i.TM1638_Write                           0x08001c8c   Section        0  tm1638.o(i.TM1638_Write)
    i.TimingDelay_Decrement                  0x08001ce0   Section        0  systick.o(i.TimingDelay_Decrement)
    i.USART3_IRQ                             0x08001cf8   Section        0  uart.o(i.USART3_IRQ)
    i.USART3_IRQHandler                      0x08001d38   Section        0  stm32f4xx_it.o(i.USART3_IRQHandler)
    i.USART3_Send                            0x08001d40   Section        0  uart.o(i.USART3_Send)
    i.USART6_IRQ                             0x08001d6c   Section        0  uart.o(i.USART6_IRQ)
    i.USART6_IRQHandler                      0x08001dc0   Section        0  stm32f4xx_it.o(i.USART6_IRQHandler)
    i.USART_Cmd                              0x08001dc8   Section        0  stm32f4xx_usart.o(i.USART_Cmd)
    i.USART_GetFlagStatus                    0x08001de0   Section        0  stm32f4xx_usart.o(i.USART_GetFlagStatus)
    i.USART_ITConfig                         0x08001dfa   Section        0  stm32f4xx_usart.o(i.USART_ITConfig)
    i.USART_Init                             0x08001e44   Section        0  stm32f4xx_usart.o(i.USART_Init)
    i.USART_ReceiveData                      0x08001f18   Section        0  stm32f4xx_usart.o(i.USART_ReceiveData)
    i.USART_SendData                         0x08001f22   Section        0  stm32f4xx_usart.o(i.USART_SendData)
    i.UsageFault_Handler                     0x08001f2a   Section        0  stm32f4xx_it.o(i.UsageFault_Handler)
    i.Write_COM                              0x08001f30   Section        0  tm1638.o(i.Write_COM)
    i.Write_DATA                             0x08001f54   Section        0  tm1638.o(i.Write_DATA)
    i.Write_oneLED                           0x08001f88   Section        0  tm1638.o(i.Write_oneLED)
    i.__0printf$3                            0x08001f98   Section        0  printf3.o(i.__0printf$3)
    i.__scatterload_copy                     0x08001fb8   Section       14  handlers.o(i.__scatterload_copy)
    i.__scatterload_null                     0x08001fc6   Section        2  handlers.o(i.__scatterload_null)
    i.__scatterload_zeroinit                 0x08001fc8   Section       14  handlers.o(i.__scatterload_zeroinit)
    i._printf_core                           0x08001fd8   Section        0  printf3.o(i._printf_core)
    _printf_core                             0x08001fd9   Thumb Code   436  printf3.o(i._printf_core)
    i.delay                                  0x08002190   Section        0  lcd.o(i.delay)
    delay                                    0x08002191   Thumb Code    34  lcd.o(i.delay)
    i.delay_tim                              0x080021b2   Section        0  tm1638.o(i.delay_tim)
    i.fputc                                  0x080021cc   Section        0  uart.o(i.fputc)
    i.init_TM1638                            0x080021f0   Section        0  tm1638.o(i.init_TM1638)
    i.lcd_clear                              0x08002238   Section        0  lcd.o(i.lcd_clear)
    i.lcd_init                               0x08002298   Section        0  lcd.o(i.lcd_init)
    i.main                                   0x0800244c   Section        0  main.o(i.main)
    i.nvic_config                            0x08002e38   Section        0  main.o(i.nvic_config)
    i.port_fsmc_init                         0x08002e7c   Section        0  lcd.o(i.port_fsmc_init)
    i.read_data                              0x0800306c   Section        0  lcd.o(i.read_data)
    i.read_reg                               0x08003078   Section        0  lcd.o(i.read_reg)
    i.uart6_init                             0x08003090   Section        0  uart.o(i.uart6_init)
    i.uart_init                              0x08003134   Section        0  uart.o(i.uart_init)
    i.write_cmd                              0x080031d8   Section        0  lcd.o(i.write_cmd)
    i.write_data                             0x080031e0   Section        0  lcd.o(i.write_data)
    i.write_data_Prepare                     0x080031ec   Section        0  lcd.o(i.write_data_Prepare)
    .constdata                               0x080031f6   Section      511  main.o(.constdata)
    .constdata                               0x080033f5   Section    425304  lcd.o(.constdata)
    .data                                    0x20000000   Section       20  system_stm32f4xx.o(.data)
    .data                                    0x20000014   Section       34  main.o(.data)
    .data                                    0x20000036   Section       16  stm32f4xx_rcc.o(.data)
    APBAHBPrescTable                         0x20000036   Data          16  stm32f4xx_rcc.o(.data)
    .data                                    0x20000048   Section      312  gpio.o(.data)
    .data                                    0x20000180   Section        4  systick.o(.data)
    .data                                    0x20000184   Section        3  uart.o(.data)
    BufferCount                              0x20000186   Data           1  uart.o(.data)
    .data                                    0x20000188   Section        6  lcd.o(.data)
    i                                        0x20000188   Data           2  lcd.o(.data)
    j                                        0x2000018a   Data           2  lcd.o(.data)
    .data                                    0x2000018e   Section        4  tm1638.o(.data)
    .data                                    0x20000192   Section       34  dth11.o(.data)
    .data                                    0x200001b4   Section        4  stdout.o(.data)
    .bss                                     0x200001b8   Section       60  uart.o(.bss)
    STACK                                    0x200001f8   Section     1024  startup_stm32f4xx.o(STACK)

    Global Symbols

    Symbol Name                              Value     Ov Type        Size  Object(Section)

    BuildAttributes$$THM_ISAv4$E$P$D$K$B$S$7EM$VFPi3$EXTD16$VFPS$VFMA$PE$A:L22UL41UL21$X:L11$S22US41US21$IEEE1$IW$USESV6$~STKCKD$USESV7$~SHL$OSPACE$ROPI$EBA8$MICROLIB$REQ8$PRES8$EABIv2 0x00000000   Number         0  anon$$obj.o ABSOLUTE
    __ARM_use_no_argv                        0x00000000   Number         0  main.o ABSOLUTE
    _printf_a                                0x00000000   Number         0  stubs.o ABSOLUTE
    _printf_c                                0x00000000   Number         0  stubs.o ABSOLUTE
    _printf_charcount                        0x00000000   Number         0  stubs.o ABSOLUTE
    _printf_d                                0x00000000   Number         0  stubs.o ABSOLUTE
    _printf_e                                0x00000000   Number         0  stubs.o ABSOLUTE
    _printf_f                                0x00000000   Number         0  stubs.o ABSOLUTE
    _printf_flags                            0x00000000   Number         0  stubs.o ABSOLUTE
    _printf_fp_dec                           0x00000000   Number         0  stubs.o ABSOLUTE
    _printf_fp_hex                           0x00000000   Number         0  stubs.o ABSOLUTE
    _printf_g                                0x00000000   Number         0  stubs.o ABSOLUTE
    _printf_i                                0x00000000   Number         0  stubs.o ABSOLUTE
    _printf_int_dec                          0x00000000   Number         0  stubs.o ABSOLUTE
    _printf_l                                0x00000000   Number         0  stubs.o ABSOLUTE
    _printf_lc                               0x00000000   Number         0  stubs.o ABSOLUTE
    _printf_ll                               0x00000000   Number         0  stubs.o ABSOLUTE
    _printf_lld                              0x00000000   Number         0  stubs.o ABSOLUTE
    _printf_lli                              0x00000000   Number         0  stubs.o ABSOLUTE
    _printf_llo                              0x00000000   Number         0  stubs.o ABSOLUTE
    _printf_llu                              0x00000000   Number         0  stubs.o ABSOLUTE
    _printf_llx                              0x00000000   Number         0  stubs.o ABSOLUTE
    _printf_longlong_dec                     0x00000000   Number         0  stubs.o ABSOLUTE
    _printf_longlong_hex                     0x00000000   Number         0  stubs.o ABSOLUTE
    _printf_longlong_oct                     0x00000000   Number         0  stubs.o ABSOLUTE
    _printf_ls                               0x00000000   Number         0  stubs.o ABSOLUTE
    _printf_mbtowc                           0x00000000   Number         0  stubs.o ABSOLUTE
    _printf_n                                0x00000000   Number         0  stubs.o ABSOLUTE
    _printf_o                                0x00000000   Number         0  stubs.o ABSOLUTE
    _printf_p                                0x00000000   Number         0  stubs.o ABSOLUTE
    _printf_percent                          0x00000000   Number         0  stubs.o ABSOLUTE
    _printf_pre_padding                      0x00000000   Number         0  stubs.o ABSOLUTE
    _printf_return_value                     0x00000000   Number         0  stubs.o ABSOLUTE
    _printf_s                                0x00000000   Number         0  stubs.o ABSOLUTE
    _printf_sizespec                         0x00000000   Number         0  stubs.o ABSOLUTE
    _printf_str                              0x00000000   Number         0  stubs.o ABSOLUTE
    _printf_truncate_signed                  0x00000000   Number         0  stubs.o ABSOLUTE
    _printf_truncate_unsigned                0x00000000   Number         0  stubs.o ABSOLUTE
    _printf_u                                0x00000000   Number         0  stubs.o ABSOLUTE
    _printf_wc                               0x00000000   Number         0  stubs.o ABSOLUTE
    _printf_wctomb                           0x00000000   Number         0  stubs.o ABSOLUTE
    _printf_widthprec                        0x00000000   Number         0  stubs.o ABSOLUTE
    _printf_x                                0x00000000   Number         0  stubs.o ABSOLUTE
    __cpp_initialize__aeabi_                  - Undefined Weak Reference
    __cxa_finalize                            - Undefined Weak Reference
    _clock_init                               - Undefined Weak Reference
    _microlib_exit                            - Undefined Weak Reference
    __Vectors_Size                           0x00000188   Number         0  startup_stm32f4xx.o ABSOLUTE
    __Vectors                                0x08000000   Data           4  startup_stm32f4xx.o(RESET)
    __Vectors_End                            0x08000188   Data           0  startup_stm32f4xx.o(RESET)
    __main                                   0x08000189   Thumb Code     0  entry.o(.ARM.Collect$$$$00000000)
    _main_stk                                0x08000189   Thumb Code     0  entry2.o(.ARM.Collect$$$$00000001)
    _main_scatterload                        0x0800018d   Thumb Code     0  entry5.o(.ARM.Collect$$$$00000004)
    __main_after_scatterload                 0x08000191   Thumb Code     0  entry5.o(.ARM.Collect$$$$00000004)
    _main_clock                              0x08000191   Thumb Code     0  entry7b.o(.ARM.Collect$$$$00000008)
    _main_cpp_init                           0x08000191   Thumb Code     0  entry8b.o(.ARM.Collect$$$$0000000A)
    _main_init                               0x08000191   Thumb Code     0  entry9a.o(.ARM.Collect$$$$0000000B)
    __rt_final_cpp                           0x08000199   Thumb Code     0  entry10a.o(.ARM.Collect$$$$0000000D)
    __rt_final_exit                          0x08000199   Thumb Code     0  entry11a.o(.ARM.Collect$$$$0000000F)
    Reset_Handler                            0x0800019d   Thumb Code     8  startup_stm32f4xx.o(.text)
    ADC_IRQHandler                           0x080001b7   Thumb Code     0  startup_stm32f4xx.o(.text)
    CAN1_RX0_IRQHandler                      0x080001b7   Thumb Code     0  startup_stm32f4xx.o(.text)
    CAN1_RX1_IRQHandler                      0x080001b7   Thumb Code     0  startup_stm32f4xx.o(.text)
    CAN1_SCE_IRQHandler                      0x080001b7   Thumb Code     0  startup_stm32f4xx.o(.text)
    CAN1_TX_IRQHandler                       0x080001b7   Thumb Code     0  startup_stm32f4xx.o(.text)
    CAN2_RX0_IRQHandler                      0x080001b7   Thumb Code     0  startup_stm32f4xx.o(.text)
    CAN2_RX1_IRQHandler                      0x080001b7   Thumb Code     0  startup_stm32f4xx.o(.text)
    CAN2_SCE_IRQHandler                      0x080001b7   Thumb Code     0  startup_stm32f4xx.o(.text)
    CAN2_TX_IRQHandler                       0x080001b7   Thumb Code     0  startup_stm32f4xx.o(.text)
    CRYP_IRQHandler                          0x080001b7   Thumb Code     0  startup_stm32f4xx.o(.text)
    DCMI_IRQHandler                          0x080001b7   Thumb Code     0  startup_stm32f4xx.o(.text)
    DMA1_Stream0_IRQHandler                  0x080001b7   Thumb Code     0  startup_stm32f4xx.o(.text)
    DMA1_Stream1_IRQHandler                  0x080001b7   Thumb Code     0  startup_stm32f4xx.o(.text)
    DMA1_Stream2_IRQHandler                  0x080001b7   Thumb Code     0  startup_stm32f4xx.o(.text)
    DMA1_Stream3_IRQHandler                  0x080001b7   Thumb Code     0  startup_stm32f4xx.o(.text)
    DMA1_Stream4_IRQHandler                  0x080001b7   Thumb Code     0  startup_stm32f4xx.o(.text)
    DMA1_Stream5_IRQHandler                  0x080001b7   Thumb Code     0  startup_stm32f4xx.o(.text)
    DMA1_Stream6_IRQHandler                  0x080001b7   Thumb Code     0  startup_stm32f4xx.o(.text)
    DMA1_Stream7_IRQHandler                  0x080001b7   Thumb Code     0  startup_stm32f4xx.o(.text)
    DMA2_Stream0_IRQHandler                  0x080001b7   Thumb Code     0  startup_stm32f4xx.o(.text)
    DMA2_Stream1_IRQHandler                  0x080001b7   Thumb Code     0  startup_stm32f4xx.o(.text)
    DMA2_Stream2_IRQHandler                  0x080001b7   Thumb Code     0  startup_stm32f4xx.o(.text)
    DMA2_Stream3_IRQHandler                  0x080001b7   Thumb Code     0  startup_stm32f4xx.o(.text)
    DMA2_Stream4_IRQHandler                  0x080001b7   Thumb Code     0  startup_stm32f4xx.o(.text)
    DMA2_Stream5_IRQHandler                  0x080001b7   Thumb Code     0  startup_stm32f4xx.o(.text)
    DMA2_Stream6_IRQHandler                  0x080001b7   Thumb Code     0  startup_stm32f4xx.o(.text)
    DMA2_Stream7_IRQHandler                  0x080001b7   Thumb Code     0  startup_stm32f4xx.o(.text)
    ETH_IRQHandler                           0x080001b7   Thumb Code     0  startup_stm32f4xx.o(.text)
    ETH_WKUP_IRQHandler                      0x080001b7   Thumb Code     0  startup_stm32f4xx.o(.text)
    EXTI0_IRQHandler                         0x080001b7   Thumb Code     0  startup_stm32f4xx.o(.text)
    EXTI15_10_IRQHandler                     0x080001b7   Thumb Code     0  startup_stm32f4xx.o(.text)
    EXTI1_IRQHandler                         0x080001b7   Thumb Code     0  startup_stm32f4xx.o(.text)
    EXTI2_IRQHandler                         0x080001b7   Thumb Code     0  startup_stm32f4xx.o(.text)
    EXTI3_IRQHandler                         0x080001b7   Thumb Code     0  startup_stm32f4xx.o(.text)
    EXTI4_IRQHandler                         0x080001b7   Thumb Code     0  startup_stm32f4xx.o(.text)
    EXTI9_5_IRQHandler                       0x080001b7   Thumb Code     0  startup_stm32f4xx.o(.text)
    FLASH_IRQHandler                         0x080001b7   Thumb Code     0  startup_stm32f4xx.o(.text)
    FPU_IRQHandler                           0x080001b7   Thumb Code     0  startup_stm32f4xx.o(.text)
    FSMC_IRQHandler                          0x080001b7   Thumb Code     0  startup_stm32f4xx.o(.text)
    HASH_RNG_IRQHandler                      0x080001b7   Thumb Code     0  startup_stm32f4xx.o(.text)
    I2C1_ER_IRQHandler                       0x080001b7   Thumb Code     0  startup_stm32f4xx.o(.text)
    I2C1_EV_IRQHandler                       0x080001b7   Thumb Code     0  startup_stm32f4xx.o(.text)
    I2C2_ER_IRQHandler                       0x080001b7   Thumb Code     0  startup_stm32f4xx.o(.text)
    I2C2_EV_IRQHandler                       0x080001b7   Thumb Code     0  startup_stm32f4xx.o(.text)
    I2C3_ER_IRQHandler                       0x080001b7   Thumb Code     0  startup_stm32f4xx.o(.text)
    I2C3_EV_IRQHandler                       0x080001b7   Thumb Code     0  startup_stm32f4xx.o(.text)
    OTG_FS_IRQHandler                        0x080001b7   Thumb Code     0  startup_stm32f4xx.o(.text)
    OTG_FS_WKUP_IRQHandler                   0x080001b7   Thumb Code     0  startup_stm32f4xx.o(.text)
    OTG_HS_EP1_IN_IRQHandler                 0x080001b7   Thumb Code     0  startup_stm32f4xx.o(.text)
    OTG_HS_EP1_OUT_IRQHandler                0x080001b7   Thumb Code     0  startup_stm32f4xx.o(.text)
    OTG_HS_IRQHandler                        0x080001b7   Thumb Code     0  startup_stm32f4xx.o(.text)
    OTG_HS_WKUP_IRQHandler                   0x080001b7   Thumb Code     0  startup_stm32f4xx.o(.text)
    PVD_IRQHandler                           0x080001b7   Thumb Code     0  startup_stm32f4xx.o(.text)
    RCC_IRQHandler                           0x080001b7   Thumb Code     0  startup_stm32f4xx.o(.text)
    RTC_Alarm_IRQHandler                     0x080001b7   Thumb Code     0  startup_stm32f4xx.o(.text)
    RTC_WKUP_IRQHandler                      0x080001b7   Thumb Code     0  startup_stm32f4xx.o(.text)
    SDIO_IRQHandler                          0x080001b7   Thumb Code     0  startup_stm32f4xx.o(.text)
    SPI1_IRQHandler                          0x080001b7   Thumb Code     0  startup_stm32f4xx.o(.text)
    SPI2_IRQHandler                          0x080001b7   Thumb Code     0  startup_stm32f4xx.o(.text)
    SPI3_IRQHandler                          0x080001b7   Thumb Code     0  startup_stm32f4xx.o(.text)
    TAMP_STAMP_IRQHandler                    0x080001b7   Thumb Code     0  startup_stm32f4xx.o(.text)
    TIM1_BRK_TIM9_IRQHandler                 0x080001b7   Thumb Code     0  startup_stm32f4xx.o(.text)
    TIM1_CC_IRQHandler                       0x080001b7   Thumb Code     0  startup_stm32f4xx.o(.text)
    TIM1_TRG_COM_TIM11_IRQHandler            0x080001b7   Thumb Code     0  startup_stm32f4xx.o(.text)
    TIM1_UP_TIM10_IRQHandler                 0x080001b7   Thumb Code     0  startup_stm32f4xx.o(.text)
    TIM2_IRQHandler                          0x080001b7   Thumb Code     0  startup_stm32f4xx.o(.text)
    TIM3_IRQHandler                          0x080001b7   Thumb Code     0  startup_stm32f4xx.o(.text)
    TIM4_IRQHandler                          0x080001b7   Thumb Code     0  startup_stm32f4xx.o(.text)
    TIM5_IRQHandler                          0x080001b7   Thumb Code     0  startup_stm32f4xx.o(.text)
    TIM6_DAC_IRQHandler                      0x080001b7   Thumb Code     0  startup_stm32f4xx.o(.text)
    TIM7_IRQHandler                          0x080001b7   Thumb Code     0  startup_stm32f4xx.o(.text)
    TIM8_BRK_TIM12_IRQHandler                0x080001b7   Thumb Code     0  startup_stm32f4xx.o(.text)
    TIM8_CC_IRQHandler                       0x080001b7   Thumb Code     0  startup_stm32f4xx.o(.text)
    TIM8_TRG_COM_TIM14_IRQHandler            0x080001b7   Thumb Code     0  startup_stm32f4xx.o(.text)
    TIM8_UP_TIM13_IRQHandler                 0x080001b7   Thumb Code     0  startup_stm32f4xx.o(.text)
    UART4_IRQHandler                         0x080001b7   Thumb Code     0  startup_stm32f4xx.o(.text)
    UART5_IRQHandler                         0x080001b7   Thumb Code     0  startup_stm32f4xx.o(.text)
    USART1_IRQHandler                        0x080001b7   Thumb Code     0  startup_stm32f4xx.o(.text)
    USART2_IRQHandler                        0x080001b7   Thumb Code     0  startup_stm32f4xx.o(.text)
    WWDG_IRQHandler                          0x080001b7   Thumb Code     0  startup_stm32f4xx.o(.text)
    __aeabi_memcpy                           0x080001c1   Thumb Code    36  memcpya.o(.text)
    __aeabi_memcpy4                          0x080001c1   Thumb Code     0  memcpya.o(.text)
    __aeabi_memcpy8                          0x080001c1   Thumb Code     0  memcpya.o(.text)
    __aeabi_uidiv                            0x080001e5   Thumb Code     0  uidiv.o(.text)
    __aeabi_uidivmod                         0x080001e5   Thumb Code    44  uidiv.o(.text)
    __scatterload                            0x08000211   Thumb Code    28  init.o(.text)
    __scatterload_rt2                        0x08000211   Thumb Code     0  init.o(.text)
    __decompress                             0x08000235   Thumb Code     0  __dczerorl2.o(.text)
    __decompress1                            0x08000235   Thumb Code    92  __dczerorl2.o(.text)
    ABCD_port                                0x08000291   Thumb Code   120  gpio.o(i.ABCD_port)
    BusFault_Handler                         0x08000315   Thumb Code     4  stm32f4xx_it.o(i.BusFault_Handler)
    DIO_IN                                   0x08000319   Thumb Code    34  tm1638.o(i.DIO_IN)
    DIO_OUT                                  0x08000341   Thumb Code    58  tm1638.o(i.DIO_OUT)
    DPGpio_Init                              0x08000381   Thumb Code   116  gpio.o(i.DPGpio_Init)
    DTH11_COM                                0x080003f9   Thumb Code   108  dth11.o(i.DTH11_COM)
    DTH11_Delay                              0x08000471   Thumb Code    22  dth11.o(i.DTH11_Delay)
    DTH11_IN                                 0x08000489   Thumb Code    22  dth11.o(i.DTH11_IN)
    DTH11_OUT                                0x080004a5   Thumb Code    28  dth11.o(i.DTH11_OUT)
    DTH11_RH                                 0x080004c5   Thumb Code   252  dth11.o(i.DTH11_RH)
    DUJIN_port                               0x080005f9   Thumb Code   118  gpio.o(i.DUJIN_port)
    DebugMon_Handler                         0x08000679   Thumb Code     2  stm32f4xx_it.o(i.DebugMon_Handler)
    Delay                                    0x0800067d   Thumb Code    20  systick.o(i.Delay)
    DuojiGpio_Init                           0x08000695   Thumb Code   116  gpio.o(i.DuojiGpio_Init)
    FSMC_NORSRAMCmd                          0x0800070d   Thumb Code    46  stm32f4xx_fsmc.o(i.FSMC_NORSRAMCmd)
    FSMC_NORSRAMInit                         0x08000741   Thumb Code   224  stm32f4xx_fsmc.o(i.FSMC_NORSRAMInit)
    FSMC_NORSRAMStructInit                   0x08000821   Thumb Code   114  stm32f4xx_fsmc.o(i.FSMC_NORSRAMStructInit)
    GAS_IN                                   0x08000895   Thumb Code    36  main.o(i.GAS_IN)
    GPIO_Init                                0x080008bd   Thumb Code   144  stm32f4xx_gpio.o(i.GPIO_Init)
    GPIO_PinAFConfig                         0x0800094d   Thumb Code    70  stm32f4xx_gpio.o(i.GPIO_PinAFConfig)
    GPIO_ReadInputDataBit                    0x08000993   Thumb Code    18  stm32f4xx_gpio.o(i.GPIO_ReadInputDataBit)
    GPIO_ResetBits                           0x080009a5   Thumb Code     4  stm32f4xx_gpio.o(i.GPIO_ResetBits)
    GPIO_SetBits                             0x080009a9   Thumb Code     4  stm32f4xx_gpio.o(i.GPIO_SetBits)
    GPIO_WriteBit                            0x080009ad   Thumb Code    10  stm32f4xx_gpio.o(i.GPIO_WriteBit)
    HUMEN_IN                                 0x080009b9   Thumb Code    38  main.o(i.HUMEN_IN)
    HardFault_Handler                        0x080009e5   Thumb Code     4  stm32f4xx_it.o(i.HardFault_Handler)
    KEYGpio_Init                             0x080009e9   Thumb Code    76  gpio.o(i.KEYGpio_Init)
    LCD_DrawLine                             0x08000a39   Thumb Code   194  lcd.o(i.LCD_DrawLine)
    LCD_DrawPoint                            0x08000afb   Thumb Code    28  lcd.o(i.LCD_DrawPoint)
    LCD_DrawRectangle                        0x08000b17   Thumb Code    74  lcd.o(i.LCD_DrawRectangle)
    LCD_SetCursor                            0x08000b61   Thumb Code    68  lcd.o(i.LCD_SetCursor)
    LCD_ShowChar                             0x08000ba5   Thumb Code   154  lcd.o(i.LCD_ShowChar)
    LCD_ShowCharString                       0x08000c49   Thumb Code    72  lcd.o(i.LCD_ShowCharString)
    LCD_ShowHzString                         0x08000c91   Thumb Code   182  lcd.o(i.LCD_ShowHzString)
    LCD_ShowString                           0x08000d4d   Thumb Code    78  lcd.o(i.LCD_ShowString)
    LEDGpio_Init                             0x08000d9d   Thumb Code   116  gpio.o(i.LEDGpio_Init)
    MemManage_Handler                        0x08000e15   Thumb Code     4  stm32f4xx_it.o(i.MemManage_Handler)
    Menu_DCMOTORTest                         0x08000e19   Thumb Code   100  main.o(i.Menu_DCMOTORTest)
    Menu_RFIDTest                            0x08000e9d   Thumb Code     8  main.o(i.Menu_RFIDTest)
    NMI_Handler                              0x08000ea5   Thumb Code     2  stm32f4xx_it.o(i.NMI_Handler)
    NVIC_Init                                0x08000ea9   Thumb Code   108  misc.o(i.NVIC_Init)
    NVIC_PriorityGroupConfig                 0x08000f21   Thumb Code    10  misc.o(i.NVIC_PriorityGroupConfig)
    PendSV_Handler                           0x08000f35   Thumb Code     2  stm32f4xx_it.o(i.PendSV_Handler)
    RCC_AHB1PeriphClockCmd                   0x08000f39   Thumb Code    26  stm32f4xx_rcc.o(i.RCC_AHB1PeriphClockCmd)
    RCC_AHB3PeriphClockCmd                   0x08000f59   Thumb Code    26  stm32f4xx_rcc.o(i.RCC_AHB3PeriphClockCmd)
    RCC_APB1PeriphClockCmd                   0x08000f79   Thumb Code    26  stm32f4xx_rcc.o(i.RCC_APB1PeriphClockCmd)
    RCC_APB2PeriphClockCmd                   0x08000f99   Thumb Code    26  stm32f4xx_rcc.o(i.RCC_APB2PeriphClockCmd)
    RCC_GetClocksFreq                        0x08000fb9   Thumb Code   214  stm32f4xx_rcc.o(i.RCC_GetClocksFreq)
    RELAYGpio_Init                           0x080010a1   Thumb Code   116  gpio.o(i.RELAYGpio_Init)
    RELAYTest                                0x08001119   Thumb Code   140  main.o(i.RELAYTest)
    Read_key                                 0x080011ad   Thumb Code   272  tm1638.o(i.Read_key)
    STEP_delay_1ms                           0x080012c5   Thumb Code    42  main.o(i.STEP_delay_1ms)
    SVC_Handler                              0x080012ef   Thumb Code     2  stm32f4xx_it.o(i.SVC_Handler)
    Send_Com                                 0x080012f1   Thumb Code   178  uart.o(i.Send_Com)
    Send_DTH11                               0x080013c9   Thumb Code   212  dth11.o(i.Send_DTH11)
    SysTick_Handler                          0x080015f5   Thumb Code     8  stm32f4xx_it.o(i.SysTick_Handler)
    SysTick_Init                             0x080015fd   Thumb Code    90  systick.o(i.SysTick_Init)
    SystemInit                               0x08001665   Thumb Code    88  system_stm32f4xx.o(i.SystemInit)
    TM1638Test                               0x080016cd   Thumb Code   864  main.o(i.TM1638Test)
    TM1638_GPIO_Configuration                0x08001bbd   Thumb Code   116  tm1638.o(i.TM1638_GPIO_Configuration)
    TM1638_Read                              0x08001c35   Thumb Code    80  tm1638.o(i.TM1638_Read)
    TM1638_Write                             0x08001c8d   Thumb Code    74  tm1638.o(i.TM1638_Write)
    TimingDelay_Decrement                    0x08001ce1   Thumb Code    18  systick.o(i.TimingDelay_Decrement)
    USART3_IRQ                               0x08001cf9   Thumb Code    52  uart.o(i.USART3_IRQ)
    USART3_IRQHandler                        0x08001d39   Thumb Code     8  stm32f4xx_it.o(i.USART3_IRQHandler)
    USART3_Send                              0x08001d41   Thumb Code    40  uart.o(i.USART3_Send)
    USART6_IRQ                               0x08001d6d   Thumb Code    66  uart.o(i.USART6_IRQ)
    USART6_IRQHandler                        0x08001dc1   Thumb Code     8  stm32f4xx_it.o(i.USART6_IRQHandler)
    USART_Cmd                                0x08001dc9   Thumb Code    24  stm32f4xx_usart.o(i.USART_Cmd)
    USART_GetFlagStatus                      0x08001de1   Thumb Code    26  stm32f4xx_usart.o(i.USART_GetFlagStatus)
    USART_ITConfig                           0x08001dfb   Thumb Code    74  stm32f4xx_usart.o(i.USART_ITConfig)
    USART_Init                               0x08001e45   Thumb Code   204  stm32f4xx_usart.o(i.USART_Init)
    USART_ReceiveData                        0x08001f19   Thumb Code    10  stm32f4xx_usart.o(i.USART_ReceiveData)
    USART_SendData                           0x08001f23   Thumb Code     8  stm32f4xx_usart.o(i.USART_SendData)
    UsageFault_Handler                       0x08001f2b   Thumb Code     4  stm32f4xx_it.o(i.UsageFault_Handler)
    Write_COM                                0x08001f31   Thumb Code    32  tm1638.o(i.Write_COM)
    Write_DATA                               0x08001f55   Thumb Code    48  tm1638.o(i.Write_DATA)
    Write_oneLED                             0x08001f89   Thumb Code    16  tm1638.o(i.Write_oneLED)
    __0printf$3                              0x08001f99   Thumb Code    22  printf3.o(i.__0printf$3)
    __1printf$3                              0x08001f99   Thumb Code     0  printf3.o(i.__0printf$3)
    __2printf                                0x08001f99   Thumb Code     0  printf3.o(i.__0printf$3)
    __scatterload_copy                       0x08001fb9   Thumb Code    14  handlers.o(i.__scatterload_copy)
    __scatterload_null                       0x08001fc7   Thumb Code     2  handlers.o(i.__scatterload_null)
    __scatterload_zeroinit                   0x08001fc9   Thumb Code    14  handlers.o(i.__scatterload_zeroinit)
    delay_tim                                0x080021b3   Thumb Code    24  tm1638.o(i.delay_tim)
    fputc                                    0x080021cd   Thumb Code    32  uart.o(i.fputc)
    init_TM1638                              0x080021f1   Thumb Code    68  tm1638.o(i.init_TM1638)
    lcd_clear                                0x08002239   Thumb Code    96  lcd.o(i.lcd_clear)
    lcd_init                                 0x08002299   Thumb Code   426  lcd.o(i.lcd_init)
    main                                     0x0800244d   Thumb Code  2238  main.o(i.main)
    nvic_config                              0x08002e39   Thumb Code    68  main.o(i.nvic_config)
    port_fsmc_init                           0x08002e7d   Thumb Code   478  lcd.o(i.port_fsmc_init)
    read_data                                0x0800306d   Thumb Code     8  lcd.o(i.read_data)
    read_reg                                 0x08003079   Thumb Code    22  lcd.o(i.read_reg)
    uart6_init                               0x08003091   Thumb Code   154  uart.o(i.uart6_init)
    uart_init                                0x08003135   Thumb Code   154  uart.o(i.uart_init)
    write_cmd                                0x080031d9   Thumb Code     8  lcd.o(i.write_cmd)
    write_data                               0x080031e1   Thumb Code     6  lcd.o(i.write_data)
    write_data_Prepare                       0x080031ed   Thumb Code    10  lcd.o(i.write_data_Prepare)
    tab                                      0x080031f6   Data          16  main.o(.constdata)
    keytab                                   0x08003206   Data          31  main.o(.constdata)
    ziku_table                               0x08003225   Data         464  main.o(.constdata)
    asc2_1206                                0x080033f5   Data        1140  lcd.o(.constdata)
    asc2_1608                                0x08003869   Data        1520  lcd.o(.constdata)
    GBHZ_16                                  0x08003e59   Data        1428  lcd.o(.constdata)
    gImage_fg                                0x080043ed   Data       153600  lcd.o(.constdata)
    Hzk16                                    0x08029bed   Data       267616  lcd.o(.constdata)
    Region$$Table$$Base                      0x0806b150   Number         0  anon$$obj.o(Region$$Table)
    Region$$Table$$Limit                     0x0806b170   Number         0  anon$$obj.o(Region$$Table)
    SystemCoreClock                          0x20000000   Data           4  system_stm32f4xx.o(.data)
    AHBPrescTable                            0x20000004   Data          16  system_stm32f4xx.o(.data)
    ADC3ConvertedValue                       0x20000014   Data           2  main.o(.data)
    ADC3ConvertedVoltage                     0x20000018   Data           4  main.o(.data)
    ADC_volt                                 0x2000001c   Data          17  main.o(.data)
    F_Rotation                               0x2000002d   Data           8  main.o(.data)
    key_tmp                                  0x20000035   Data           1  main.o(.data)
    Gpio_info                                0x20000048   Data          48  gpio.o(.data)
    RELAY_info                               0x20000078   Data          36  gpio.o(.data)
    Key_info                                 0x2000009c   Data          60  gpio.o(.data)
    DP_info                                  0x200000d8   Data          96  gpio.o(.data)
    TM1638_info                              0x20000138   Data          24  gpio.o(.data)
    STEP_info                                0x20000150   Data          48  gpio.o(.data)
    TimingDelay                              0x20000180   Data           4  systick.o(.data)
    DBufferFlag                              0x20000184   Data           1  uart.o(.data)
    mark                                     0x20000185   Data           1  uart.o(.data)
    DeviceCode                               0x2000018c   Data           2  lcd.o(.data)
    c                                        0x2000018e   Data           4  tm1638.o(.data)
    count_r                                  0x20000192   Data           1  dth11.o(.data)
    str                                      0x20000193   Data           5  dth11.o(.data)
    tdata                                    0x20000198   Data           4  dth11.o(.data)
    U8FLAG                                   0x2000019c   Data           1  dth11.o(.data)
    k                                        0x2000019d   Data           1  dth11.o(.data)
    U8count                                  0x2000019e   Data           1  dth11.o(.data)
    U8temp                                   0x2000019f   Data           1  dth11.o(.data)
    U8T_data_H                               0x200001a0   Data           1  dth11.o(.data)
    U8T_data_L                               0x200001a1   Data           1  dth11.o(.data)
    U8RH_data_H                              0x200001a2   Data           1  dth11.o(.data)
    U8RH_data_L                              0x200001a3   Data           1  dth11.o(.data)
    U8checkdata                              0x200001a4   Data           1  dth11.o(.data)
    U8T_data_H_temp                          0x200001a5   Data           1  dth11.o(.data)
    U8T_data_L_temp                          0x200001a6   Data           1  dth11.o(.data)
    U8RH_data_H_temp                         0x200001a7   Data           1  dth11.o(.data)
    U8RH_data_L_temp                         0x200001a8   Data           1  dth11.o(.data)
    U8checkdata_temp                         0x200001a9   Data           1  dth11.o(.data)
    U8comdata                                0x200001aa   Data           1  dth11.o(.data)
    indata                                   0x200001ab   Data           5  dth11.o(.data)
    count                                    0x200001b0   Data           1  dth11.o(.data)
    U16temp1                                 0x200001b1   Data           1  dth11.o(.data)
    U16temp2                                 0x200001b2   Data           1  dth11.o(.data)
    sbuf                                     0x200001b3   Data           1  dth11.o(.data)
    __stdout                                 0x200001b4   Data           4  stdout.o(.data)
    Date_Buf                                 0x200001b8   Data          10  uart.o(.bss)
    BufferA                                  0x200001c2   Data          50  uart.o(.bss)
    __initial_sp                             0x200005f8   Data           0  startup_stm32f4xx.o(STACK)



==============================================================================

Memory Map of the image

  Image Entry point : 0x08000189

  Load Region LR_IROM1 (Base: 0x08000000, Size: 0x0006b328, Max: 0x00100000, ABSOLUTE, COMPRESSED[0x0006b21c])

    Execution Region ER_IROM1 (Base: 0x08000000, Size: 0x0006b170, Max: 0x00100000, ABSOLUTE)

    Base Addr    Size         Type   Attr      Idx    E Section Name        Object

    0x08000000   0x00000188   Data   RO          143    RESET               startup_stm32f4xx.o
    0x08000188   0x00000000   Code   RO         5058  * .ARM.Collect$$$$00000000  mc_w.l(entry.o)
    0x08000188   0x00000004   Code   RO         5326    .ARM.Collect$$$$00000001  mc_w.l(entry2.o)
    0x0800018c   0x00000004   Code   RO         5329    .ARM.Collect$$$$00000004  mc_w.l(entry5.o)
    0x08000190   0x00000000   Code   RO         5331    .ARM.Collect$$$$00000008  mc_w.l(entry7b.o)
    0x08000190   0x00000000   Code   RO         5333    .ARM.Collect$$$$0000000A  mc_w.l(entry8b.o)
    0x08000190   0x00000008   Code   RO         5334    .ARM.Collect$$$$0000000B  mc_w.l(entry9a.o)
    0x08000198   0x00000000   Code   RO         5336    .ARM.Collect$$$$0000000D  mc_w.l(entry10a.o)
    0x08000198   0x00000000   Code   RO         5338    .ARM.Collect$$$$0000000F  mc_w.l(entry11a.o)
    0x08000198   0x00000004   Code   RO         5327    .ARM.Collect$$$$00002712  mc_w.l(entry2.o)
    0x0800019c   0x00000024   Code   RO          144    .text               startup_stm32f4xx.o
    0x080001c0   0x00000024   Code   RO         5061    .text               mc_w.l(memcpya.o)
    0x080001e4   0x0000002c   Code   RO         5341    .text               mc_w.l(uidiv.o)
    0x08000210   0x00000024   Code   RO         5356    .text               mc_w.l(init.o)
    0x08000234   0x0000005c   Code   RO         5374    .text               mc_w.l(__dczerorl2.o)
    0x08000290   0x00000084   Code   RO         4344    i.ABCD_port         gpio.o
    0x08000314   0x00000004   Code   RO          253    i.BusFault_Handler  stm32f4xx_it.o
    0x08000318   0x00000028   Code   RO         4698    i.DIO_IN            tm1638.o
    0x08000340   0x00000040   Code   RO         4699    i.DIO_OUT           tm1638.o
    0x08000380   0x00000078   Code   RO         4345    i.DPGpio_Init       gpio.o
    0x080003f8   0x00000078   Code   RO         4998    i.DTH11_COM         dth11.o
    0x08000470   0x00000016   Code   RO         4999    i.DTH11_Delay       dth11.o
    0x08000486   0x00000002   PAD
    0x08000488   0x0000001c   Code   RO         5000    i.DTH11_IN          dth11.o
    0x080004a4   0x00000020   Code   RO         5001    i.DTH11_OUT         dth11.o
    0x080004c4   0x00000134   Code   RO         5002    i.DTH11_RH          dth11.o
    0x080005f8   0x00000080   Code   RO         4346    i.DUJIN_port        gpio.o
    0x08000678   0x00000002   Code   RO          254    i.DebugMon_Handler  stm32f4xx_it.o
    0x0800067a   0x00000002   PAD
    0x0800067c   0x00000018   Code   RO         4409    i.Delay             systick.o
    0x08000694   0x00000078   Code   RO         4347    i.DuojiGpio_Init    gpio.o
    0x0800070c   0x00000034   Code   RO         1697    i.FSMC_NORSRAMCmd   stm32f4xx_fsmc.o
    0x08000740   0x000000e0   Code   RO         1699    i.FSMC_NORSRAMInit  stm32f4xx_fsmc.o
    0x08000820   0x00000072   Code   RO         1700    i.FSMC_NORSRAMStructInit  stm32f4xx_fsmc.o
    0x08000892   0x00000002   PAD
    0x08000894   0x00000028   Code   RO          150    i.GAS_IN            main.o
    0x080008bc   0x00000090   Code   RO         1815    i.GPIO_Init         stm32f4xx_gpio.o
    0x0800094c   0x00000046   Code   RO         1816    i.GPIO_PinAFConfig  stm32f4xx_gpio.o
    0x08000992   0x00000012   Code   RO         1819    i.GPIO_ReadInputDataBit  stm32f4xx_gpio.o
    0x080009a4   0x00000004   Code   RO         1822    i.GPIO_ResetBits    stm32f4xx_gpio.o
    0x080009a8   0x00000004   Code   RO         1823    i.GPIO_SetBits      stm32f4xx_gpio.o
    0x080009ac   0x0000000a   Code   RO         1827    i.GPIO_WriteBit     stm32f4xx_gpio.o
    0x080009b6   0x00000002   PAD
    0x080009b8   0x0000002c   Code   RO          151    i.HUMEN_IN          main.o
    0x080009e4   0x00000004   Code   RO          255    i.HardFault_Handler  stm32f4xx_it.o
    0x080009e8   0x00000050   Code   RO         4348    i.KEYGpio_Init      gpio.o
    0x08000a38   0x000000c2   Code   RO         4518    i.LCD_DrawLine      lcd.o
    0x08000afa   0x0000001c   Code   RO         4520    i.LCD_DrawPoint     lcd.o
    0x08000b16   0x0000004a   Code   RO         4521    i.LCD_DrawRectangle  lcd.o
    0x08000b60   0x00000044   Code   RO         4523    i.LCD_SetCursor     lcd.o
    0x08000ba4   0x000000a4   Code   RO         4524    i.LCD_ShowChar      lcd.o
    0x08000c48   0x00000048   Code   RO         4525    i.LCD_ShowCharString  lcd.o
    0x08000c90   0x000000bc   Code   RO         4526    i.LCD_ShowHzString  lcd.o
    0x08000d4c   0x0000004e   Code   RO         4527    i.LCD_ShowString    lcd.o
    0x08000d9a   0x00000002   PAD
    0x08000d9c   0x00000078   Code   RO         4349    i.LEDGpio_Init      gpio.o
    0x08000e14   0x00000004   Code   RO          256    i.MemManage_Handler  stm32f4xx_it.o
    0x08000e18   0x00000084   Code   RO          153    i.Menu_DCMOTORTest  main.o
    0x08000e9c   0x00000008   Code   RO          154    i.Menu_RFIDTest     main.o
    0x08000ea4   0x00000002   Code   RO          257    i.NMI_Handler       stm32f4xx_it.o
    0x08000ea6   0x00000002   PAD
    0x08000ea8   0x00000078   Code   RO          339    i.NVIC_Init         misc.o
    0x08000f20   0x00000014   Code   RO          340    i.NVIC_PriorityGroupConfig  misc.o
    0x08000f34   0x00000002   Code   RO          258    i.PendSV_Handler    stm32f4xx_it.o
    0x08000f36   0x00000002   PAD
    0x08000f38   0x00000020   Code   RO         2428    i.RCC_AHB1PeriphClockCmd  stm32f4xx_rcc.o
    0x08000f58   0x00000020   Code   RO         2434    i.RCC_AHB3PeriphClockCmd  stm32f4xx_rcc.o
    0x08000f78   0x00000020   Code   RO         2437    i.RCC_APB1PeriphClockCmd  stm32f4xx_rcc.o
    0x08000f98   0x00000020   Code   RO         2440    i.RCC_APB2PeriphClockCmd  stm32f4xx_rcc.o
    0x08000fb8   0x000000e8   Code   RO         2449    i.RCC_GetClocksFreq  stm32f4xx_rcc.o
    0x080010a0   0x00000078   Code   RO         4350    i.RELAYGpio_Init    gpio.o
    0x08001118   0x00000094   Code   RO          155    i.RELAYTest         main.o
    0x080011ac   0x00000118   Code   RO         4701    i.Read_key          tm1638.o
    0x080012c4   0x0000002a   Code   RO          156    i.STEP_delay_1ms    main.o
    0x080012ee   0x00000002   Code   RO          259    i.SVC_Handler       stm32f4xx_it.o
    0x080012f0   0x000000d8   Code   RO         4448    i.Send_Com          uart.o
    0x080013c8   0x00000140   Code   RO         5004    i.Send_DTH11        dth11.o
    0x08001508   0x000000ec   Code   RO            3    i.SetSysClock       system_stm32f4xx.o
    0x080015f4   0x00000008   Code   RO          260    i.SysTick_Handler   stm32f4xx_it.o
    0x080015fc   0x00000068   Code   RO         4410    i.SysTick_Init      systick.o
    0x08001664   0x00000068   Code   RO            5    i.SystemInit        system_stm32f4xx.o
    0x080016cc   0x000004f0   Code   RO          157    i.TM1638Test        main.o
    0x08001bbc   0x00000078   Code   RO         4702    i.TM1638_GPIO_Configuration  tm1638.o
    0x08001c34   0x00000058   Code   RO         4703    i.TM1638_Read       tm1638.o
    0x08001c8c   0x00000054   Code   RO         4704    i.TM1638_Write      tm1638.o
    0x08001ce0   0x00000018   Code   RO         4411    i.TimingDelay_Decrement  systick.o
    0x08001cf8   0x00000040   Code   RO         4449    i.USART3_IRQ        uart.o
    0x08001d38   0x00000008   Code   RO          261    i.USART3_IRQHandler  stm32f4xx_it.o
    0x08001d40   0x0000002c   Code   RO         4450    i.USART3_Send       uart.o
    0x08001d6c   0x00000054   Code   RO         4451    i.USART6_IRQ        uart.o
    0x08001dc0   0x00000008   Code   RO          262    i.USART6_IRQHandler  stm32f4xx_it.o
    0x08001dc8   0x00000018   Code   RO         4098    i.USART_Cmd         stm32f4xx_usart.o
    0x08001de0   0x0000001a   Code   RO         4101    i.USART_GetFlagStatus  stm32f4xx_usart.o
    0x08001dfa   0x0000004a   Code   RO         4104    i.USART_ITConfig    stm32f4xx_usart.o
    0x08001e44   0x000000d4   Code   RO         4105    i.USART_Init        stm32f4xx_usart.o
    0x08001f18   0x0000000a   Code   RO         4112    i.USART_ReceiveData  stm32f4xx_usart.o
    0x08001f22   0x00000008   Code   RO         4115    i.USART_SendData    stm32f4xx_usart.o
    0x08001f2a   0x00000004   Code   RO          263    i.UsageFault_Handler  stm32f4xx_it.o
    0x08001f2e   0x00000002   PAD
    0x08001f30   0x00000024   Code   RO         4705    i.Write_COM         tm1638.o
    0x08001f54   0x00000034   Code   RO         4706    i.Write_DATA        tm1638.o
    0x08001f88   0x00000010   Code   RO         4707    i.Write_oneLED      tm1638.o
    0x08001f98   0x00000020   Code   RO         5154    i.__0printf$3       mc_w.l(printf3.o)
    0x08001fb8   0x0000000e   Code   RO         5368    i.__scatterload_copy  mc_w.l(handlers.o)
    0x08001fc6   0x00000002   Code   RO         5369    i.__scatterload_null  mc_w.l(handlers.o)
    0x08001fc8   0x0000000e   Code   RO         5370    i.__scatterload_zeroinit  mc_w.l(handlers.o)
    0x08001fd6   0x00000002   PAD
    0x08001fd8   0x000001b8   Code   RO         5161    i._printf_core      mc_w.l(printf3.o)
    0x08002190   0x00000022   Code   RO         4530    i.delay             lcd.o
    0x080021b2   0x00000018   Code   RO         4708    i.delay_tim         tm1638.o
    0x080021ca   0x00000002   PAD
    0x080021cc   0x00000024   Code   RO         4453    i.fputc             uart.o
    0x080021f0   0x00000048   Code   RO         4709    i.init_TM1638       tm1638.o
    0x08002238   0x00000060   Code   RO         4533    i.lcd_clear         lcd.o
    0x08002298   0x000001b4   Code   RO         4535    i.lcd_init          lcd.o
    0x0800244c   0x000009ec   Code   RO          159    i.main              main.o
    0x08002e38   0x00000044   Code   RO          160    i.nvic_config       main.o
    0x08002e7c   0x000001f0   Code   RO         4537    i.port_fsmc_init    lcd.o
    0x0800306c   0x0000000c   Code   RO         4538    i.read_data         lcd.o
    0x08003078   0x00000016   Code   RO         4539    i.read_reg          lcd.o
    0x0800308e   0x00000002   PAD
    0x08003090   0x000000a4   Code   RO         4454    i.uart6_init        uart.o
    0x08003134   0x000000a4   Code   RO         4455    i.uart_init         uart.o
    0x080031d8   0x00000008   Code   RO         4540    i.write_cmd         lcd.o
    0x080031e0   0x0000000c   Code   RO         4541    i.write_data        lcd.o
    0x080031ec   0x0000000a   Code   RO         4542    i.write_data_Prepare  lcd.o
    0x080031f6   0x000001ff   Data   RO          161    .constdata          main.o
    0x080033f5   0x00067d58   Data   RO         4544    .constdata          lcd.o
    0x0806b14d   0x00000003   PAD
    0x0806b150   0x00000020   Data   RO         5366    Region$$Table       anon$$obj.o


    Execution Region RW_IRAM1 (Base: 0x20000000, Size: 0x000005f8, Max: 0x00020000, ABSOLUTE, COMPRESSED[0x000000ac])

    Base Addr    Size         Type   Attr      Idx    E Section Name        Object

    0x20000000   0x00000014   Data   RW            6    .data               system_stm32f4xx.o
    0x20000014   0x00000022   Data   RW          162    .data               main.o
    0x20000036   0x00000010   Data   RW         2472    .data               stm32f4xx_rcc.o
    0x20000046   0x00000002   PAD
    0x20000048   0x00000138   Data   RW         4352    .data               gpio.o
    0x20000180   0x00000004   Data   RW         4412    .data               systick.o
    0x20000184   0x00000003   Data   RW         4457    .data               uart.o
    0x20000187   0x00000001   PAD
    0x20000188   0x00000006   Data   RW         4545    .data               lcd.o
    0x2000018e   0x00000004   Data   RW         4710    .data               tm1638.o
    0x20000192   0x00000022   Data   RW         5005    .data               dth11.o
    0x200001b4   0x00000004   Data   RW         5340    .data               mc_w.l(stdout.o)
    0x200001b8   0x0000003c   Zero   RW         4456    .bss                uart.o
    0x200001f4   0x00000004   PAD
    0x200001f8   0x00000400   Zero   RW          141    STACK               startup_stm32f4xx.o


==============================================================================

Image component sizes


      Code (inc. data)   RO Data    RW Data    ZI Data      Debug   Object Name

       830        186          0         34          0       5728   dth11.o
       820         42          0        312          0       5573   gpio.o
      1992         54     425304          6          0      15919   lcd.o
      4286       1162        511         34          0      12406   main.o
       140         22          0          0          0       1999   misc.o
        36          8        392          0       1024        952   startup_stm32f4xx.o
       390          6          0          0          0       3058   stm32f4xx_fsmc.o
       250          0          0          0          0       5139   stm32f4xx_gpio.o
        48          0          0          0          0       6146   stm32f4xx_it.o
       360         42          0         16          0       5956   stm32f4xx_rcc.o
       354          8          0          0          0       5677   stm32f4xx_usart.o
       340         34          0         20          0     249785   system_stm32f4xx.o
       152         24          0          4          0      28988   systick.o
       876         54          0          4          0       8425   tm1638.o
       772         96          0          3         60       5792   uart.o

    ----------------------------------------------------------------------
     11666       1738     426242        436       1088     361543   Object Totals
         0          0         32          0          0          0   (incl. Generated)
        20          0          3          3          4          0   (incl. Padding)

    ----------------------------------------------------------------------

      Code (inc. data)   RO Data    RW Data    ZI Data      Debug   Library Member Name

        92          0          0          0          0          0   __dczerorl2.o
         0          0          0          0          0          0   entry.o
         0          0          0          0          0          0   entry10a.o
         0          0          0          0          0          0   entry11a.o
         8          4          0          0          0          0   entry2.o
         4          0          0          0          0          0   entry5.o
         0          0          0          0          0          0   entry7b.o
         0          0          0          0          0          0   entry8b.o
         8          4          0          0          0          0   entry9a.o
        30          0          0          0          0          0   handlers.o
        36          8          0          0          0         68   init.o
        36          0          0          0          0         68   memcpya.o
       472         14          0          0          0        180   printf3.o
         0          0          0          4          0          0   stdout.o
        44          0          0          0          0         80   uidiv.o

    ----------------------------------------------------------------------
       732         30          0          4          0        396   Library Totals
         2          0          0          0          0          0   (incl. Padding)

    ----------------------------------------------------------------------

      Code (inc. data)   RO Data    RW Data    ZI Data      Debug   Library Name

       730         30          0          4          0        396   mc_w.l

    ----------------------------------------------------------------------
       732         30          0          4          0        396   Library Totals

    ----------------------------------------------------------------------

==============================================================================


      Code (inc. data)   RO Data    RW Data    ZI Data      Debug   

     12398       1768     426242        440       1088     352935   Grand Totals
     12398       1768     426242        172       1088     352935   ELF Image Totals (compressed)
     12398       1768     426242        172          0          0   ROM Totals

==============================================================================

    Total RO  Size (Code + RO Data)               438640 ( 428.36kB)
    Total RW  Size (RW Data + ZI Data)              1528 (   1.49kB)
    Total ROM Size (Code + RO Data + RW Data)     438812 ( 428.53kB)

==============================================================================

